:040000008031D12852
:1000080080312200ED012700931E5D2820308431C5
:10001800BA24803121009110911222000E1623007B
:10002800E80A2400A335A40D0000103096318D266F
:100038008031003A031924282400A30A0319A40ACA
:100048000B3023006806031D4E280C306702031886
:100058004A2824002408F8002308F70084313C24A7
:10006800803177082200EF006F0803194728230022
:1000780067082C3E86000230870022006F08810046
:100088002300E70A4A282300EC01EC0AE8012400CF
:10009800A301A4018431DB24803191102100911443
:1000A8008431D82480312700931220308431C4242D
:1000B8000900131E642810308431BA241312090071
:1000C8002000911EAC282100911222008E152400D8
:1000D800A501A6012200EC01ED0123009D1C782852
:1000E8001D122200ED01ED0A23001D1D7E282200AD
:1000F800EC01EC0A8D312A2580312200EE006D08D2
:100108000319882823001D168431D4248031003A2D
:100118000319A72822006C0B9C286E08031DA7282A
:10012800A030FA008630FB009731AD278031A72830
:100138000030F701F70A23001D180130F8002200EB
:100148006E0896314C262000911221009116090064
:10015800911C0900210091108431DE248031203067
:100168008431BA2480312300E8012400A301A401CA
:1001780023006C080319C6288431B4248031230075
:10018800EC01C928913118218031210091162030C5
:100198008431C424200091100900883119286E0880
:1001A8002100A70020006D082100A60020006C088F
:1001B8002100A50020006B082100A400FF30A40541
:1001C800A5050F30A605A70120006F0807392100F3
:1001D800A0001430A101A201A301A035A10DA20D18
:1001E800A30D890BF1282008A4072108A53D2208A2
:1001F800A63D2308A73D24082400BA003F3021006B
:1002080025052400BB0021002408A0002508A10022
:100218002608A2002708A3000E30A336A20CA10CC2
:10022800A00C890B112921082400B90021002008FD
:100238002400B8003F30B90520006A08FB006908AF
:10024800FA003830FC000230FD0082292508F7004A
:100258002408F6002608F800382280317908B3000F
:100268007808B2007708B1007608B0002400BA0018
:100278003F30200031052400BB0020003008A800D2
:100288003108A9003208AA003308AB000E30AB369B
:10029800AA0CA90CA80C890B4B2929082400B90021
:1002A80020002808932280312000A80024003B0861
:1002B8002000A900AA01AB01240038082000AC00E6
:1002C800240039082000AD000C30AE01AF01AC3578
:1002D800AD0DAE0DAF0D890B6B292C08A8072D08A5
:1002E800A93D2E08AA3D2F08AB3D2B08A7002A08D8
:1002F800A6002908A5002808A40008002030E70067
:10030800E301E801670868020318C129E30A6308E2
:100318007D02031CA1297C08860002308700403F2B
:10032800A000413FA100E4003F30E4057C088600BE
:100338000108E200FC0AFC0AB4297B08F1007A08EB
:10034800F0006808F2006622803171082000E6009B
:100358007008E5006608E4003F30E4056508E2003F
:100368006808223E86008701640881006808423ECA
:10037800860062088100E80A86297B08F1007A086D
:10038800F00019220330F301F201F100E830F00027
:100398009631992680318B13230015151513951264
:1003A80015127B082000A1007A08A000A136A00C35
:1003B800A136A00CA136A00C20087F39230092009A
:1003C8007A0807392000A0000430A035FF3E031D3D
:1003D800E9292035230091002000E8016708680218
:1003E80003180D2A6808223E8600870101082300A9
:1003F800940020006808423E86000108230093000C
:10040800000000000E2280312300910A2000E80A33
:10041800F229A82A553023009600AA309600951490
:100428009518142A0000000008008B1323001513E8
:100438007108F3007008F200F336F20CF336F20C90
:10044800F336F20C72087F39920070080739F2000F
:100458000430F235FF3E031D2D2A72359100151622
:1004680015150E228031A82AA2228031F2006622B8
:1004780080319B228031FD007A08FC00FB01FA01E3
:100488007D082000A3007C08A2007B08A1007A0850
:10049800A000A2228031013EF200662280319B2218
:1004A8007A082000A0047B08A1047C08A2047D0827
:1004B800A3042308F9002208F8002108F7002008FF
:1004C800F6000800230015137108F4007008F30003
:1004D800F436F30CF436F30CF436F30C73087F3966
:1004E800920070080739F3000430F335FF3E031D0E
:1004F800792A73357207910015141518812A00009E
:10050800000023001308F000F1011408F300F401BF
:10051800F400F3017308F0047408F10408002400DF
:10052800B800FF30B8053F30B9053A080800700830
:10053800FA007108FB00FC01FD0108007708F100D2
:100548007608F00078080800230015118B170800BA
:100558000230F42282312B08D1002A08D000F1227F
:1005680082312E248231033A031DBD2AD035D10DA4
:10057800C22A2E248231023A031DC42AD035D10D55
:100588006630BA00B630BB004030BC007A30AB01F0
:10059800AC004430AD005108A9005008A8007D23E4
:1005A80082312808AE002908AF002A08B0002123AC
:1005B80082312B08BD002C08BE002D08BF00CB23BC
:1005C8003A08CD003B08CE003C08CF004D08C900D2
:1005D8004E08CA004F08CB00080021001D10080073
:1005E8002300AD0021009D019E0150309E04220091
:1005F800971703309704171FFF2A23002D080907B0
:10060800090721009D0483309E041D141113053031
:100618008B31A32382318A31CF22823121009D146C
:100628009D18142B1C082300AB00AA0121001B08ED
:100638002300AA070318AB0A08002E08B1002F08E8
:10064800B2003008B3000310320D330DB80038087B
:10065800031D2F2B342C2B08B1002C08B2002D08B9
:10066800B3000310320D330DB9003908031D3D2BBB
:10067800342C8930B501B601B7013907B100B80289
:100688003008B9002D08B9068030B9051830AF1701
:10069800B001AC17AD01B400B535B60DB70D2D08D6
:1006A8003002031D5D2B2C082F02031D5D2B2B0828
:1006B8002E02031C662B2B08AE022C08AF3B2D081C
:1006C800B03B3514AE35AF0DB00DB40B502B35081B
:1006D800A0003608A1003708A2003808A30039088E
:1006E800A4008D232008AB002108AC002208AD002F
:1006F80008002808A0002908A1008E30A201A30044
:10070800A4018D232008A8002108A9002208AA0016
:10071800080023080319952B220821042004031D2F
:100728009D2BA001A101A2010800A30AA236A10CD9
:10073800A00CFE3022050319AB2B992BA30AA00AA3
:100748000319A10A0319A20AA236A10CA00CFF30B2
:1007580022050319B82BA22B02302302031CBA2B43
:10076800A303A035A10DA20DA11FB02B231CA1131B
:10077800A3362308A700A601A5012508A00426087A
:10078800A1042708A2042408031DA21708003A0898
:10079800C0003B08C1003C08C2000310410D420DD7
:1007A800C3004308031DD92B382C3D08C0003E0860
:1007B800C1003F08C2000310410D420DC80048089F
:1007C800031DE72B382C48087B3EC3073C08C800AC
:1007D8003F08C8068030C805FF30BB17BE17BD05E7
:1007E800BE050730BF01C401C501C601C7003A1CD8
:1007F800FF2B27248231BC36BB0CBA0CBD35BE0D8D
:10080800BF0DC70BFB2B0930C7003A1C0D2C272442
:100818008231BC36BB0CBA0CC636C50CC40CC70B2F
:10082800092C4408A0004508A1004608A200430876
:10083800A3004808A4008D232008BA002108BB00A3
:100848002208BC0008003D08C4073E08C53D3F0813
:10085800C63D08000330220017052300CC0008001D
:10086800AB01AC01AD010800BA01BB01BC01080035
:100878007708F9000130F9367905FA007808FC00A4
:100888007708FB00FC36FB0CFC36FB0C7B08F00001
:100898007C08F100FF30F0050330F101F2009631D9
:1008A800D32684317A06031D6E2C7808FA0077085F
:1008B800F900FA36F90CFA36F90C79082000A0008C
:1008C8007A08A100FF30A005A10120087624843110
:1008D800A000702C2000A001A1012108F800200828
:1008E800F7000800F200F1010139F0000630F03598
:1008F800FF3E031D7B2C7035F10772080239F000AA
:100908000430F035FF3E031D852C7035F107720861
:100918000439090709070907F1077208083909079F
:10092800F10772360839F1077208F000F036F03630
:10093800F03670080439F1077208F0000530F03617
:10094800890BA32C70080239F1077208F0000730F0
:10095800F036890BAC2C70080139F10771080800D2
:100968002030BA24FE3095314B250800F000203A9B
:10097800031DC12C2700921208002700121208003C
:10098800F000203A031DCB2C270092160800270000
:1009980012160800640080010131890BCF2C003445
:1009A80020000E180134003420001C150800200017
:0A09B8009A01080020001C1108003D
:10103200D3308400013085001D308431CE248831C4
:10104200203084000230850018308431CE2488316B
:1010520024000030B800B9008030BA002530BB004F
:1010620020003D280130F622883101302D238831BD
:101072003230E9278831A129382388314623883143
:10108200BD208831332088312300D20122000E1680
:10109200B7238831CF22883122000E12B72388313C
:1010A200CF2288310A30D20A5202031C47288231E9
:1010B200AC22883197238831732388310123883108
:1010C20003186B28CB2388317D2188313A30AB005D
:1010D2009B307828852388310123883103187B28A7
:1010E200CB2388317D2188313230AB009B30AC007C
:1010F2007D2188312030D427210091168231AC2203
:101102008831972388311430A3238831CF22883144
:1011120024007323883101238831031C96288523F8
:1011220088310123883103189928DD01DD0A9C28C2
:10113200DD0122008E1423005D080319AE2824006D
:10114200A70A0319A80A643027062804031DAE283B
:101152000230A701A80122008E06003024002602D8
:101162006430031925020318BA28A50A0319A60A2E
:101172007F2822008E117F282300C030CA01CB01B4
:10118200CC01CD01B200B301B40116278831350874
:10119200C9003408C8003308C7003208C60049082D
:1011A200CD004808CC004708CB004608CA00FF30F3
:1011B200CA05CB050F30CC05CD014608C200470851
:1011C200C3004808C4004908C5001430C536C40C21
:1011D200C30CC20C890BE7284208CE000F30CE05A3
:1011E2004D08031DFD284C08031DFD2860304A02EE
:1011F20009304B3B031C08294D08031D0829013007
:101202004A02C2304B3B01304C3B031C0F292530B4
:10121200CD01CC01CB008030CA00CE014D08B00018
:101222004C08AF004B08AE004A08AD004E08B100B2
:10123200D023883100302300BF238831CF22883168
:101242009030AB009A30AC007D2188310030BF2352
:101252008831CF2288311330AB009B30AC007D2126
:1012620088316630AB009A30AC007D218831C623CC
:1012720088317D218831A9238831CF2288316F308E
:10128200AB009A30AC007D218831A9238831CF226E
:101292008831C62388317D2188314E08031D622999
:1012A2006D291130AB009A307029FB30AB009930B8
:1012B20070294A30AB009A3070293A30AB009A302C
:1012C20070294E08013A03195229033A0319562983
:1012D200013A03195A295E292630AB009A30AC0034
:1012E2007D218831C62388317D218831A923883127
:1012F200CF228B158B170800B0238831CF2288317B
:101302002B0884002C088500120003199329A701D9
:10131200A8012B0884002C0885000008B826883113
:101322009E1C91292C08AE002B08AD00AB0A0319B4
:10133200AC0A84002E0885001200031908007D29DA
:101342002030DE2788310730EA218831003A031D38
:1013520008002300B0238831CF228831ED30EA2102
:101362008831003A031D08002300B0238831CF22C0
:1013720088310030EA218831003A031D0800F43038
:10138200EA218831003A031D0800F430EA2188314D
:10139200003A031D0800F030EA218831003A031DAB
:1013A20008006430A3238831CF2288310230EA2139
:1013B2008831003A031D0800F330EA218831003AEF
:1013C200031D08006430A3238831CF2288312F30D7
:1013D200EA292300AB0011278831F8268831AA00B8
:1013E2000030F622883100302D23883122008C1201
:1013F20023000130A301A201A1002C30A000CF22C2
:10140200883122000C121430A3238831CF22883174
:101412000130F62288312300AD01AE012030C32213
:101422008831003A0319222A00005F238831031908
:101432002D02031C0F2A0130F622883101302D23A0
:1014420001342300AC012B1C292A22000C162B2A62
:1014520022000C122300AB36AD01AE012030C322B4
:101462008831003A031D3C2A5F23883103192D027B
:10147200031C2F2A1C2A2300AD01AE012030C322F7
:101482008831003A03194D2A00005F23883103197D
:101492002D02031C3F2A1C2A23000830AC0A2C020E
:1014A200031C242A2A1C582A22000C165A2A22001B
:1014B2000C122300AD01AE012030C3228831003A64
:1014C200031D6A2A5F23883103192D02031C5D2A3A
:1014D2001C2A2300AD01AE012030C3228831003A1C
:1014E20003197A2A5F23883103192D02031C6D2AFE
:1014F2001C2A01302D2388312300AD01AE011030AA
:10150200C3228831003A03198D2A5F2388310319D7
:101512002D02031C802A1C2A2300AD01AE012030BB
:10152200C3228831003A03199D2A5F2388310319A7
:101532002D02031C902A1C2A2300AD01AE0110309B
:10154200C3228831003A031DAD2A5F238831031973
:101552002D02031CA02A1C2A2300AD01AE0120305B
:10156200C3228831003A031DBD2A5F238831031943
:101572002D02031CB02A1C2A0130F62288310130C8
:101582002D230034A000203A031DCB2A20008C1EFC
:101592000034013420000C1A01340034A501A601E4
:1015A200A701A8012808803AA4002308803A24024F
:1015B200031DE52A22082702031DE52A2108260227
:1015C200031DE52A2008250203180800A9010000CE
:1015D20023002030A90A2902031CE82A0630A507A5
:1015E2000030A63DA73DA83DD32A2300A000200835
:1015F200031DFE2A21008C12080021008C1608000F
:10160200A21F102B2008003CA0002108031C210F60
:10161200003CA1002208031C220F803CA200A51F4F
:101622001F2B2308003CA3002408031C240F003CAA
:10163200A4002508031C250F803CA5008030A206CB
:10164200A50625082202031D080024082102031D05
:1016520008002308200208002300A0002008031D20
:10166200352B21000C12080021000C160800F03066
:101672002100990000301A1801301A0503193B2B7A
:1016820040309A05031D0800412B22008E018C0177
:1016920021000E118E108E110E120C150E148E16C4
:1016A20022008E14662323008C010C158E0121006A
:1016B2009513203024008E008C0108002300AD0A0F
:1016C2000319AE0A3A302E0299343C008F011430CD
:1016D2003D00A20012303C00A5001530A4000130EC
:1016E2008F00080020082300A00024002108230006
:1016F200A100240022082300A2009A30A300D130C6
:10170200A4004030A5000800F030A001A100413043
:10171200A200240020082300A300240021082300A3
:10172200A400240022082300A50008004908240080
:10173200A00023004A082400A10023004B08240033
:10174200A20008002300A000A101A201A301080039
:101752003A30A301A201A1009830A0000800133082
:10176200A301A201A1008830A000080023002730B5
:10177200A301A201A1001030A0000800A300A20052
:101782003A30A1009830A0000800FD30AB009A303A
:10179200AC0008005930AB009A30AC0008002100C0
:1017A200911222009731BD278831482488312300C5
:1017B200BD01BC01BD153D163108E6003108031913
:1017C200E42BBD14E52BBD10BC153008A3002F0877
:1017D200A2002E08A1002D08A0000130A700E830C9
:1017E200A6004830A500A4016F2488312308C10057
:1017F2002208C0002108BF002008BE00FF30BE073B
:10180200BF3DC03DC13DB200B300B400B5003E08CB
:10181200B6003F08B7004008B8004108B9000230DE
:10182200B936B80CB70CB60C890B112C3608B207B6
:101832003708B33D3808B43D3908B53D3508C10015
:101842003408C0003308BF003208BE003F08BB00A6
:101852003E08BA001D123B08A1003A08A0003D084C
:10186200492488313C08AE248831432488314324FA
:1018720088314324883143248831432488316623C4
:101882008831A42E9D181D121908A0000800942E5C
:10189200A2009E019D0122181E16A21C522C1E1788
:1018A2001D1722199E17A21D582C1D16592C9D1664
:1018B200221A1E15221F602CAE268831622C2100AE
:1018C20091122300A21F682CB32688316A2C2100B2
:1018D2001112230020089B002108AA2EA801A901A9
:1018E200AA01AB0123082204210420040319A52C18
:1018F200AC01AC0AA31B822CA035A10DA20DA30D35
:101902007A2CA835A90DAA0DAB0D23082702031DB9
:10191200942C22082602031D942C21082502031D63
:10192200942C20082402031C9F2C2008A4022108C6
:10193200A53B2208A63B2308A73B2814A336A20CEA
:10194200A10CA00CAC0B822C2B08A3002A08A2002D
:101952002908A1002808A0000800A0009F019F00FC
:1019620008002100911222009731BD2788315B26A1
:1019720088312000B001AF01B015301624082300D1
:10198200E600200024080319C82CB014C92CB0109A
:10199200AF152308F3002208F2002108F100200805
:1019A200F0000130F700E830F6004830F500F401AD
:1019B2001C2688317308B4007208B3007108B200A3
:1019C2007008B100FF30B107B23DB33DB43DA50090
:1019D200A600A700A8003108A9003208AA0033080F
:1019E200AB003408AC000230AC36AB0CAA0CA90C2C
:1019F200890BF52C2908A5072A08A63D2B08A73D27
:101A02002C08A83D2808B4002708B3002608B20015
:101A12002508B1003208AE003108AD0023001D12C6
:101A220020002E08F1002D08F00030085C268831D5
:101A320020002F08812688312A2588312A258831DD
:101A42002A2588312A2588312A258831662388313A
:101A5200A42E23009D181D121908F00008002C3036
:101A6200BD00872688313E080319E02D25303E0649
:101A72000319402D9C2688310319A90A322DB6017B
:101A8200472D3616472DC030B604532D8726883190
:101A9200003A0319E02D6C3A0319422D193A031941
:101AA200442D322D361E632D3D0886008701403FAE
:101AB200B900413FBA00423FBB00433FBC00043083
:101AC200BD07722D3D0886008701403FB000413FAF
:101AD200B1003008B9003108BA00BB01BC01BD0A2F
:101AE200BD0ABE01BE0A3E08B000D330B101B03516
:101AF200B10DB035B10D300784009930313D85000C
:101B0200003FB200013FB300023FB400033FB50003
:101B12003C02031D962D34083B02031D962D33080B
:101B22003A02031D962D32083902031C9D2D0A30FC
:101B3200BE0A3E06031D742D3E08B700B801B71B4E
:101B4200B803FF30B707031CB803370FAB2D380AB1
:101B52000319322D0A30A000A101A201A301380805
:101B6200850037088400D3308435850D8435850D92
:101B720084079930853D003FF000013FF100023FAC
:101B8200F200033FF3003C08F7003B08F6003A0876
:101B9200F5003908F4001C2688317308A700720882
:101BA200A6007108A5007008A400E6258831200867
:101BB200303EBE009C2688310319A90AA22D2808AE
:101BC20086002908870081010800230822042104D5
:101BD20020040319132EFD01FD0AA31BF52DA035C8
:101BE200A10DA20DA30DED2D23082702031D032E27
:101BF20022082602031D032E21082502031D032E9F
:101C020020082402031C0D2E2008A4022108A53B53
:101C12002208A63B2308A73BA336A20CA10CA00CCA
:101C2200FD0BF52D2708A3002608A2002508A10018
:101C32002408A0000800F801F901FA01FB01730869
:101C42007204710470040319522EFC01FC0AF31B86
:101C52002F2EF035F10DF20DF30D272EF835F90D7B
:101C6200FA0DFB0D73087702031D412E72087602EE
:101C7200031D412E71087502031D412E7008740266
:101C8200031C4C2E7008F4027108F53B7208F63BF7
:101C92007308F73B7814F336F20CF10CF00CFC0BE2
:101CA2002F2E7B08F3007A08F2007908F1007808F9
:101CB200F0000800942EF20023009E019D0172188C
:101CC2001E16F21C662E1E171D1772199E17F21D84
:101CD2006C2E1D166D2E9D16721A1E15721F742EF5
:101CE200AE268831762E21009112F21F7B2EB3266A
:101CF20088317C2E1112700823009B007108AA2ED5
:101D0200F00023009F0170089F0008002B08B1001B
:101D12002A08B000AA0A0319AB0A84003108850018
:101D22000008BE0008004F3023009D059E12CF30F0
:101D320021009105080028088600290887003E082E
:101D42008100A80A080020009112210091160B17A9
:101D520008009C009E169D17080020009112210089
:101D62009116080020001112210011160800AA0085
:101D72001E1FE42E27080319D12EDC2E2A08112754
:101D82008831F8268831DE2E2A08A0000230A1010F
:101D9200A200F8268831DE2E1E14E42E1E10E42E38
:101DA2006608013A0319BF2E033A0319C52E013AF8
:101DB2000319CD2ECF2E01302805A9001E082906B1
:101DC200FE3929069E000A302A06031DF32E270833
:101DD20003196508031908009E1CED2E2A089A00B3
:101DE200E50108009E1CF32E2A089A000800A501AE
:101DF2002108A4002008A300A6012318A50A083080
:101E0200A436A30CA60A2602031CFE2E03302206C9
:101E1200031D0E2F251C0134003425180134003413
:101E2200A0000330A101A20008003308A700320875
:101E3200A6003408A8006F2788312908C1002808A5
:101E4200C0002708BF002608BE002400BA003F30A9
:101E520023003F052400BB0023003E08B6003F08D4
:101E6200B7004008B8004108B9000E30B936B80CC6
:101E7200B70CB60C890B372F37082400B9002300A2
:101E820036088231932288312300B60024003B08B1
:101E92002300B700B801B901240038082300BA00B2
:101EA200240039082300BB000C30BC01BD01BA3547
:101EB200BB0DBC0DBD0D890B582F3A08B6073B0868
:101EC200B73D3C08B83D3D08B93D3908B500380872
:101ED200B4003708B3003608B2000800CE278831B4
:101EE200A2009B278831C7278831AD002A08AC00A1
:101EF200AB01AA012D08B1002C08B0002B08AF00DD
:101F02002A08AE00CE278831013EA2009B278831E5
:101F1200C7272A08AE042B08AF042C08B0042D08EA
:101F2200B1043108A9003008A8002F08A7002E0824
:101F3200A600080015132108A4002008A300A43657
:101F4200A30CA436A30CA436A30C23087F39920059
:101F520020080739A3000430A335FF3E031DAD2F2F
:101F620023352207910015141518B52F0000000023
:101F720023001308A000A1011408A300A401A400D7
:101F8200A3012308A0042408A10408002008AA0031
:101F92002108AB00AC01AD0108002708A10026080A
:101FA200A00028080800A000203A031DDB2F27000C
:101FB200921608002700121608002300A000203AFB
:101FC200031DE62F270092120800270012120800B4
:101FD2002300A0000330A20025001A08F0390A38B5
:101FE2009A002300200820009B0078309C040330D4
:0E1FF2009C04FE272100911008001C15080019
:10201A00C030E301E401E501E6012000E900EA013C
:10202A0021002B082000EE0021002A082000ED00E4
:10203A00210029082000EC00210028082000EB00DC
:10204A0021002C082000EF008031D3209031C030CD
:10205A002000A400A501A60181312A219031270878
:10206A002100EE00200026082100ED0020002508AE
:10207A002100EC00200024082100EB006E08EA0091
:10208A006D08E9006C08E8006B08E700FF30E70517
:10209A00E8050F30E905EA016B08AD006C08AE00EF
:1020AA006D08AF006E08B0001430B036AF0CAE0C3D
:1020BA00AD0C890B5A282D080F39E300E401E5011C
:1020CA00E6012B082000A30021002A082000A20014
:1020DA00210029082000A100210028082000A000D2
:1020EA0021002C082000A4008C31B22490318B27C7
:1020FA009031232690316027903199269031210022
:10210A006A082B06031D932869082A06031D9328CB
:10211A0068082906031D932867082806031DAA28AC
:10212A002C08AD00AE01AF01B00166083006031DF0
:10213A00A82865082F06031DA82864082E06031D73
:10214A00A82863082D060319B428C430FB009A3066
:10215A00FC00232690316027903199269031210086
:10216A00EF0122000E169527903199269031220010
:10217A000E12952790319926903121000A30EF0AE4
:10218A006F02031CB628B1302000A8000030A90055
:10219A002630AA009B30AB0021002B082000AF009C
:1021AA0021002A082000AE00210029082000AD00E5
:1021BA00210028082000AC008D3130259031B13043
:1021CA00FB000030FC002326903121002C08031D5F
:1021DA00FF280A291130FB009A300D29FB30FB0039
:1021EA0099300D294A30FB009A300D293A30FB000C
:1021FA009A300D292C08013A0319EF28033A0319DA
:10220A00F328013A0319F728FB282630FB009A30F5
:10221A00FC00232690318B279031232690316027AA
:10222A009031992608002200EB01EA012300670891
:10223A0003190800230067080319080024002C0862
:10224A000319422D2C082300D700F030D801570675
:10225A005804031D3B2924002C082300D700D80169
:10226A0024002D082300D900DA016D29E030570631
:10227A005804031D712924002D082300D9001230A7
:10228A00DA0159065A04031D56290430D701D80128
:10229A00D901DA01E702F0000C30F1002C30EC260B
:1022AA009031F030230059065A04031D6D29240089
:1022BA002E082300DB007C30DC015B065C04031D76
:1022CA006A290630842790316B290330E702812975
:1022DA000230E703E7038129E13057065804031D5A
:1022EA008429E030D7006930D801D9000830DA01F2
:1022FA00E7022200EA01EA0AF0000C3088290C30D1
:10230A00E703F001F00AF1002C30EC2690312300AB
:10231A005B085C040319B029E03057065804031D12
:10232A00742AF03059065A04031D742A11305B06C8
:10233A005C04031DA229E201742A14305B065C04C2
:10234A00031DA929E301742A71305B065C04031D8D
:10235A00742AE101742A59085A040319742AF030BC
:10236A0057065804031D252A123059065A04031D1C
:10237A00C029ED01D329593059065A04031DC7292A
:10238A00E401D329143059065A04031DCE29EB015E
:10239A00D329113059065A040319EA01593059064A
:1023AA005A040319DD29123059065A04031D1D2A3D
:1023BA006D08031D742A6408031D742AED304B2529
:1023CA009031003A031DF12900304B259031003A33
:1023DA00031DF1292300EF01230060080319092ACC
:1023EA00DF010A305F020318742AED304B25903161
:1023FA00003A031D062A04304B259031003A03198E
:10240A00742A2300DF0AF629DF010A305F02031863
:10241A00742AED304B259031003A031D1A2A0030F8
:10242A004B259031003A0319742A2300DF0A0A2A3D
:10243A00583059065A04031D742A2400A901742A23
:10244A00E03057065804031D742A113059065A04FD
:10245A00031D322AE201E20A412A143059065A04BB
:10246A00031D3A2AE301E30A412A713059065A0444
:10247A00031D412AE101E10A2200E201E20AE30125
:10248A0023006208031D4F2A6A08031D4F2A2200EF
:10249A00E201E3012200E401E40AE50123006B08FA
:1024AA00031D5D2A6308031D5D2A2200E401E5017C
:1024BA002300610822006407A00065080318650A62
:1024CA00A10062082007A2006308A227903103191D
:1024DA00742A23005908332790312200EB00230085
:1024EA00570858040319842B59085A04031D842BCE
:1024FA005B085C04031D842B123057065804031D25
:10250A00892AED01ED0A902A593057065804031D0D
:10251A00902AE401E40A6D0B952A6E0803199B2A96
:10252A00640BD12A24002B08031DD12AED304B2538
:10253A009031003A031DD12A230060080319BD2AED
:10254A00DF010A305F020318D12AED304B259031A2
:10255A00003A031DBA2A05304B259031003A031D73
:10256A00BA2A2300EF01EF0AD12A2300DF0AA62A9A
:10257A00DF010A305F020318D12AED304B25903172
:10258A00003A031DCE2A01304B259031003A031937
:10259A00B62A2300DF0ABE2A14302300570658043D
:1025AA00031DDA2AEB01EB0A7A2B1130570658047D
:1025BA00031DE22AEA01EA0A7A2BEE30570658048A
:1025CA0003197A2B583057065804031D532B24003D
:1025DA00A901A90A2A08031D7A2B230060080319F6
:1025EA00242B6F080319102BDF010A305F0203182E
:1025FA007A2BED304B259031003A031D0D2B01301B
:10260A004B259031003A031D0D2B2300E0017A2B54
:10261A002300DF0AFA2ADF010A305F0203187A2B45
:10262A00ED304B259031003A031D212B00304B250C
:10263A009031003A03190A2B2300DF0A112B6F0885
:10264A0003193F2BDF010A305F0203187A2BED30A2
:10265A004B259031003A031D3C2B05304B25903118
:10266A00003A031D3C2B2300E001E00A7A2B2300E9
:10267A00DF0A282BDF010A305F0203187A2BED30BC
:10268A004B259031003A031D502B04304B259031D5
:10269A00003A0319382B2300DF0A402B6F0B682BF3
:1026AA0057083F279031A827903103197A2B4130D8
:1026BA0022006B02031C7A2B5B306B0203187A2B05
:1026CA002030EB077A2B57081D279031A827903125
:1026DA0003197A2B613022006B02031C7A2B7B30A0
:1026EA006B0203187A2B2030EB0222006B08031DC1
:1026FA00842B23005708292790312200EB0022005F
:10270A00E601E60AE70123006208031D922B6A0824
:10271A00031D922B2200E601E7012200E801E80AE4
:10272A00E90123006B08031DA02B6308031DA02BDE
:10273A002200E801E9012300610822006807A000DD
:10274A0069080318690AA10066082007A200670839
:10275A00A2279031031DFA2B8B2790312326903123
:10276A00602790319926903123005E08031DD42BEF
:10277A00ED30D301D401D501D601E901DE01DE0A2B
:10278A00FB009A30FC00232690316027903199266D
:10279A0090313E30F701F8014C269031F52B253067
:1027AA00D601D501D4008030D3000030FB009B3025
:1027BA00FC00232690312630FB009A30FC002326A9
:1027CA0090318B27903123269031602790319926BA
:1027DA00903167279031AC010D2090312300DE0142
:1027EA00EB01E301E201EA01E10122006B080319AE
:1027FA00312D6B0B0A2C6A08031D0A2CA030FA0033
:10280A008630FB00AD279031312D6B0B132C6A0BF0
:10281A00132C552790312200EA01312D23005E083E
:10282A00031D2E2C0A3022006B06031D1F2C2300C9
:10283A00E501E50A902790314C2690310D302200AF
:10284A006B06031D312D0A30F701F8014C26903131
:10285A00312D22006B084B279031003A0319722C54
:10286A000A30F000F101F201F30123005608F700E3
:10287A005508F6005408F5005308F400C6279031AD
:10288A007308D6007208D5007108D4007008D30006
:10289A0022006B08D03EA000FF3003180030A100D0
:1028AA002008A2002108A3000030A31BFF30A400C7
:1028BA00A50022082300D307220023082300D43DC1
:1028CA00220024082300D53D220025082300D63DF6
:1028DA00902790314C269031312D6F306B060319B9
:1028EA007A2C4F306B06031D822C2300E901E90A7A
:1028FA00902790314C269031312D65306B060319A3
:10290A008A2C45306B06031D902C023078279031B3
:10291A004C269031312D6D306B060319982C4D30B1
:10292A006B06031D9E2C0330782790314C2690317C
:10293A00312D73306B060319A62C53306B06031D19
:10294A00AC2C0430782790314C269031312D0D3043
:10295A006B06031D312D8B2790312326903160277A
:10296A0090319926903123005608031DC52C55082D
:10297A00031DC52C603053020930543B031C252D1E
:10298A005608031D252D01305302C230543B013035
:10299A00553B0318252D26302000A8000130A90038
:1029AA00AC30AA009A30AB00230056082000AF00D2
:1029BA00230055082000AE00230054082000AD0073
:1029CA00230053082000AC008D3130259031263089
:1029DA00FB000130FC002326903123006908031D07
:1029EA00072D122D1130FB009A30152DFB30FB00FC
:1029FA009930152D4A30FB009A30152D3A30FB00DC
:102A0A009A30152D6908013A0319F72C033A03196C
:102A1A00FB2C013A0319FF2C032D2630FB009A30B8
:102A2A00FC00232690318B2790312326903167278B
:102A3A009031230069082100AC000D2090312F2D20
:102A4A00D930FB009A30FC00232690316027903160
:102A5A00992690312300DE012200EB01230084270E
:102A6A00903124002908AA0023006D08EE006408AA
:102A7A002400AB0022000E121F290C30F0002C306B
:102A8A00F101EB2790312300E7011F292000A10063
:102A9A00F0000330F101F200D32690312000A000AB
:102AAA000030BF2690310030C926903122008C12A6
:102ABA000130F301F201F1002C30F0009926903137
:102ACA0022000C121430F000F101F201F3019926F0
:102ADA0090310130BF2690312000A301A40120309B
:102AEA008D269031003A0319882D000020005A27BC
:102AFA00903103192302031C742D0130BF26903133
:102B0A000130C9260134A201211C8E2D22000C1687
:102B1A00902D22000C122000A136A301A40120301E
:102B2A008D269031003A031DA12D5A2790310319A1
:102B3A002302031C942D822DA301A40120308D268B
:102B4A009031003A0319B22D000020005A27903123
:102B5A0003192302031CA32D822D0830A20A220284
:102B6A00031C892D201CBC2D22000C16BE2D220010
:102B7A000C122000A301A40120308D269031003AC6
:102B8A00031DCE2D5A27903103192302031CC12D90
:102B9A00822DA301A40120308D269031003A031919
:102BAA00DD2D5A27903103192302031CD02D822DC3
:102BBA000130C92690312000A301A40110308D26CE
:102BCA009031003A0319F02D5A2790310319230244
:102BDA00031CE32D822DA301A40120308D26903100
:102BEA00003A0319FF2D5A27903103192302031CB7
:102BFA00F22D822DA301A40110308D269031003AC6
:102C0A00031D0E2E5A27903103192302031C012E8D
:102C1A00822DA301A40120308D269031003A031D94
:102C2A001D2E5A27903103192302031C102E822DC0
:102C3A000130BF2690310130C92600341330F30128
:102C4A00F201F1008830F000992690317B08840067
:102C5A007C088500120003193D2EF701F8017B0854
:102C6A0084007C08850000084C2690319E1C3B2E6F
:102C7A007C082000A1007B08A000FB0A0319FC0ABB
:102C8A00840021088500120003190800232EFA0087
:102C9A0023001E1F792E77080319662E712E7A08D3
:102CAA00F00003305B2E7A08F0000230F101F200E6
:102CBA00D3269031F9002300742E1E14792E1E108B
:102CCA00792E6608013A0319542E033A0319582E2D
:102CDA00013A0319622E642E01307805F9001E08A4
:102CEA007906FE3979069E000A307A06031D882E77
:102CFA00770803196508031908009E1C822E7A08B2
:102D0A009A00E50108009E1C882E7A089A0008009D
:102D1A00F000203A031D952E20008C1E0034013449
:102D2A0020000C1A01340034F501F601F701F8010C
:102D3A007808803AF4007308803A7402031DAF2EB3
:102D4A0072087702031DAF2E71087602031DAF2E9B
:102D5A007008750203180800F90100002030F90A0A
:102D6A007902031CB22E0630F5070030F63DF73D16
:102D7A00F83D9D2EF0007008031DC62E21008C120E
:102D8A00080021008C160800F0007008031DD02EE0
:102D9A0021000C12080021000C160800F501710828
:102DAA00F4007008F300F6017318F50A0830F436D7
:102DBA00F30CF60A7602031CD92E03307206031DA1
:102DCA00E92E751C01340034751801340034F700FB
:102DDA0070087102031C0800F601710876020318D4
:102DEA0008007108F200F3017308F5007008720216
:102DFA00F400031CF5037508803A803C031D072F75
:102E0A007408760276080318182F9C2790317008E8
:102E1A007707F30076087307F40084000230850010
:102E2A00000881001B2F9C2790318101F60AF22E9F
:102E3A00F0000D30F002713070020318003470088F
:102E4A00843E840098307F2FF0008430700203188B
:102E5A0000347008003E840098307F2FF000113053
:102E6A00F0026D307002031800347008663E840068
:102E7A0099307F2FF0000D30F00271307002031884
:102E8A0000347008F53E840098307F2FF00030300F
:102E9A007002031C00343A307002031C01340034FF
:102EAA0023009E1564309A000800A30A0319A40A95
:102EBA003A30240299343A30F301F201F1009830A1
:102ECA00F0000800230056082100AB002300550833
:102EDA002100AA00230054082100A9002300530856
:102EEA002100A80008002300E900F701F8012200E8
:102EFA006B0808000318013E850000080800D70186
:102F0A00D801D901DA01DB01DC010800FD30FB0040
:102F1A009A30FC000800F701F80122006B0808004B
:102F2A002730F301F201F1001030F00008007707B2
:102F3A00F2008600023087000800213DA30003301A
:102F4A002206230408002200EB0023006008080080
:102F5A00BD27903122000E117A08F0007B08F1009B
:102F6A00F201F301992622000E158B31662308001F
:102F7A000E153C008F013D00A20101303C008F007C
:102F8A000800F801F901FA01FB01701CD42F74083A
:102F9A00F8077508F93D7608FA3D7708FB3DF435E0
:102FAA00F50DF60DF70DF336F20CF10CF00C730873
:102FBA00720471047004031DCA2F7B08F3007A0897
:102FCA00F2007908F1007808F0000800F300F40133
:102FDA00F4017108803A803C031DF52F70087402D1
:102FEA000318080074087307F2008600023087008D
:102FFA008101F40AEE2F0034113400340C340A34FF
:10300A000634073414340034123410340E340B34BA
:10301A0000340034003400341C34003400341A34D0
:10302A0000340034003400340034003400340034F6
:10303A0000340034003400340034003400340034E6
:10304A0000340034003400340034003400340034D6
:10305A0000340034003400340034003400340034C6
:10306A0000340034003400340034003400340034B6
:10307A0000340034003400340034003400340034A6
:10308A000034003400340034003400340034003496
:10309A000034003400340034003400340034003486
:1030AA000034003400340034003400340034003476
:1030BA000034003400340034003400340034003466
:1030CA000034003400340034003400340034003456
:1030DA000034003400340034003400340034003446
:1030EA000034003400341334003400340034003423
:1030FA000034003400340034003400340F3409340E
:10310A006034003400340034003400340034713444
:10311A0031340034003400347A347334613477340F
:10312A0032340034003463347834643465343434EB
:10313A0033340034003420347634663474347234D0
:10314A003534003400346E34623468346734793488
:10315A0036340034003400346D346A34753437340C
:10316A003834003400342C346B3469346F343034DE
:10317A003934003400342E342F346C343B347034F8
:10318A002D34003400340034273400345B343D34A9
:10319A0000340034003400340D345D3400345C34BF
:1031AA000034003400340034003400340034003475
:1031BA0008340034003431340034343437340034C1
:1031CA000034003430342E34323435343634383422
:1031DA001B34003400342B3433342D342A3439343C
:1031EA0009347E34003400340034003400340034AE
:1031FA00513421340034003400345A3453344134C5
:10320A005734403400340034433458344434453459
:10321A0024342334003400342034563446345434AD
:10322A0052342534003400344E344234483447345E
:10323A0059345E340034003400344D344A34553441
:10324A0026342A34003400343C344B3449344F3465
:10325A0029342834003400343E343F344C343A3470
:10326A0050345F34003400340034223400347B3468
:10327A002B3400340034003400340D347D340034EF
:10328A007C34003400340034003400340034003418
:10329A0000340834003400343134003434343734E0
:1032AA0000340034003430342E3432343534363479
:1032BA0038341B34003400342B3433342D342A345C
:1032CA0039341E34003400341F34003400340034DE
:1032DA00003400340034003400340034003419342B
:1032EA0000340034003400340034003400341D3417
:1032FA000034003400340034003400340034003424
:10330A000034003400340034003400340034003413
:10331A000034003400340034003400340034003403
:10332A0000340034003400340034003400340034F3
:10333A00003400342F3400340034003400340034B4
:10334A0000340034003400340034003400340034D3
:10335A00003400340D3400340034003400340034B6
:10336A0000340034003400340034003400340034B3
:10337A000034013400340334163400340034003489
:10338A0015347F34043400340534023400340034F4
:10339A000034003418340034003417340134003453
:1033AA00003400340A340034003400346434003405
:1033BA0000340034E8340334003400341034273441
:1033CA0000340034A03486340134003440344234AA
:1033DA000F34003480349634983400340034E134A5
:1033EA00F53405340034CA349A343B342034773403
:1033FA0069347434683420344534763465346E3430
:10340A002034703461347234693474347934203439
:10341A00623469347434003420347734693474344F
:10342A00683420344F346434643420347034613462
:10343A0072346934743479342034623469347434BB
:10344A0000342034773469347434683420344E3488
:10345A006F3420347034613472346934743479349A
:10346A002034623469347434003420347734693453
:10347A0074346834203453347034613463346534BA
:10348A002034623469347434003420347734693433
:10349A007434683420344D34613472346B342034DB
:1034AA00623469347434003456346F346C3474348E
:1034BA00613467346534203474346F346F342034A3
:1034CA00003431342E3433345F3444345734303496
:1034DA00613400344334683461346E34673465349B
:1034EA00203442344134553444343A34203422347A
:1034FA0043344E34543420342B34203441344C3445
:10350A00543420342B342034443445344C3422345B
:10351A000D340A3400340D340A34503453342F3401
:10352A00323420344B346534793462346F34613444
:10353A0072346434203474346F3420345234533443
:10354A002D343234333432340D340A3400344234B4
:10355A006134753464342034773469346C346C34AF
:10356A00203462346534203473346534743420343E
:10357A0074346F34203425346C3475340034463452
:10358A006C346134733468342034503472346F3498
:10359A006734723461346D342034463461346934AA
:1035AA006C340D340A340034423461347534643472
:1035BA0020344F347534743420346F3466342034F4
:1035CA00523461346E34673465340D340A3400344D
:1035DA0045346E3474346534723420344234613480
:1035EA00753464342034723461347434653420346C
:1035FA000D340A340034423461347534643420346E
:10360A0052346534733465347434203474346F340A
:10361A002034393436343034303400344634693462
:10362A0072346D34773461347234653420345634EC
:10363A0065347234733469346F346E343A342034F6
:10364A000034423461347534643420346934733458
:10365A00203425346C347534003448346934673482
:10366A00683421340D340A3400344C346F347734DE
:08367A0021340D340A34003440
:020000040001F9
:04000E0064CFFBFEC2
:00000001FF
