:040000008031E12842
:10000800803120007F08EF002100C2012700931EE5
:1000180072282030993128218031210091109112C5
:1000280022000E1601302000EE006E082100D207D3
:100038000130C935CA0D890B1D28000010309931CF
:1000480081218031003A03192E2801302100C90787
:100058000030CA3D0B3021005206031D5D280C30CC
:10006800510203185A284A08F9004908F8009D3136
:10007800FA25803178082000EE006E082100C400BF
:1000880044080319582844082000EE0021005108AC
:10009800D73E8600870120006E0881000130EE00FF
:1000A8006E082100D1075A28D401D40AD201C90107
:1000B800CA0198314C208031200091102100911400
:1000C80098314F208031DF302000EE006E08270085
:1000D800930520309831C5208031DD28131E7F28F4
:1000E8001030993128218031EF302000EE006E0861
:1000F80027009305DD282000911EBB2822008E15BD
:100108002400DA01DB012100C20123001D1D8F2814
:100118002100C201C20A98318A2080312000EE00F5
:100128006E082100C300983174208031003A031909
:10013800B82821004203031DAC284308031DB82832
:10014800A030FA008630FB009931F4218031B828BC
:10015800F801F80A003023001D180130F9002100C9
:10016800430890318D20803120009112DD28911CA8
:10017800DD282100911098314920803120309931B3
:10018800282180312100D201C901CA01540803196C
:10019800D3289831822080312100D401D62881319A
:1001A800152180312100911620309831C52020007A
:1001B800911020006F08FF0009008031E328C53046
:1001C8008400003085001E3098316E208031E23086
:1001D8008400013085000E3098316E208031573010
:1001E8008400023085000B3098316E208031593000
:1001F800840098308500E3308600003087000430A2
:1002080098316820803155308400983085006230FC
:10021800860002308700043098316820200096312B
:10022800152E2300E101E0012100510803190800FF
:100238002100510803190800570803196B2E5708A5
:10024800BC00BD013C082300E20021003D0823005A
:10025800E300F03062066304031D492921005708B2
:10026800BC00BD013C082300E20021003D0823003A
:10027800E30021005808BC00BD013C082300E4004D
:1002880021003D082300E5009829E030230062069C
:100298006304031D9D2921005808BC00BD013C08CA
:1002A8002300E40021003D082300E5001230640625
:1002B8006504031D7229E201E301E401E50104304C
:1002C8002100D1020430BC003C08F0000C30BD0015
:1002D8003D08F100D7309C3159248131F03023009A
:1002E80064066504031D982921005908BC00BD0156
:1002F8003C082300E60021003D082300E7007C308D
:1003080066066704031D9329E201E301E401E501A0
:10031800E601E70106302100D1020630B329033097
:100328002100D1020330B32902302100D10202306A
:10033800B329E130230062066304031DBA29E030C3
:10034800E2000030E3006930E4000030E5000830E6
:100358002100D1022300E001E00A08302100BC009E
:100368003C08F0000C30BD003D08C22901302100D6
:10037800D102F001F00A0C30BC003C08F100D73083
:100388009C31592481312300660867040319EE293A
:10039800E03062066304031DCA2AF030640665046F
:1003A800031DCA2A113066066704031DDD29EA0108
:1003B800CA2A143066066704031DE5292100CF0107
:1003C800CA2A7130230066066704031DCA2A210061
:1003D800CE01CA2A2300640865040319CA2AF0302A
:1003E80062066304031D752A123064066504031D42
:1003F800FF29EE01142A593064066504031D062AF4
:10040800EB01142A143064066504031D0E2A21002A
:10041800D301142A11302300640665040319ED0181
:10042800593023006406650403191F2A1230640634
:100438006504031D6D2A6E08031DCA2A6B08031D77
:10044800CA2AED308C31DE248131003A031D352A69
:1004580000308C31DE248131003A031D352A230017
:10046800EF01230069080319532AE8010A306802DA
:100478000318CA2AED308C31DE248131003A031D7D
:100488004C2A04308C31DE248131003A0319CA2AFF
:1004980001302100BC003C082300E8073A2AE801A3
:1004A8000A3068020318CA2AED308C31DE24813103
:1004B800003A031D662A00308C31DE248131003A6F
:1004C8000319CA2A01302100BC003C082300E807B0
:1004D800542A583064066504031DCA2A2100CC0139
:1004E800CA2AE030230062066304031DCA2A1130B9
:1004F80064066504031D832AEA01EA0A952A143072
:1005080064066504031D8C2A2100CF01CF0A952AB1
:100518007130230064066504031D952A2100CE016D
:10052800CE0A2300DC01DC0A6A08031D9F2A6D0835
:10053800031D9F2ADC01DD01DD0A21005308031D8C
:10054800AA2A4F08031DAA2A2300DD0121004E080C
:10055800BC00BD0123005D085C072100BE00BF018F
:10056800BF0D3C083E07C0003D083F3DC1000330B9
:10057800400641040319CA2A2300640899314B2113
:1005880081312100BC003C082300E10023006208FF
:1005980063040319192C64086504031D192C6608E3
:1005A8006704031D192C123062066304031DDF2A39
:1005B800EE01EE0AE62A593062066304031DE62AB4
:1005C800EB01EB0A6E03031DED2A21005508031900
:1005D800F52A23006B03031D372B21005008031D48
:1005E800372BED308C31DE248131003A031D372B57
:1005F8002300690803191A2BE8010A306802031856
:10060800372BED308C31DE248131003A031D132B5A
:1006180005308C31DE248131003A0319342B013046
:100628002100BC003C082300E807012BE801222B2D
:1006380001302100BC003C082300E8070A306802AA
:100648000318372BED308C31DE248131003A031D3D
:100658001C2B01308C31DE248131003A031D1C2B08
:100668002300EF01EF0A1430230062066304031D20
:10067800412B2100D301D30A0C2C11302300620630
:100688006304031D4A2BED01ED0A0C2CEE306206C3
:100698006304031D532B2400DF01DF0A0C2C5830A0
:1006A800230062066304031DD82B2100CC01CC0A69
:1006B8004D08031D0C2C2300690803199D2B6F0896
:1006C8000319802BE8010A30680203180C2CED305E
:1006D8008C31DE248131003A031D792B01308C31B5
:1006E800DE248131003A0319932B01302100BC002C
:1006F8003C082300E807672BE8010A306802031862
:100708000C2CED308C31DE248131003A031D962B00
:1007180000308C31DE248131003A031D962B2300F2
:10072800E9010C2C01302100BC003C082300E8073B
:10073800812B6F080319BA2BE8010A3068020318E5
:100748000C2CED308C31DE248131003A031DB32BA3
:1007580005308C31DE248131003A0319CD2B01306C
:100768002100BC003C082300E807A12BE8010A305F
:10077800680203180C2CED308C31DE248131003AEC
:10078800031DD12B04308C31DE248131003A031D46
:10079800D12B2300E901E90A0C2C01302100BC000F
:1007A8003C082300E807BB2B6F03031DF62B6208E8
:1007B80099315D2181312100BC003C082300E10012
:1007C800690803190C2C41306102031C0C2C5B30A6
:1007D800610203180C2C20302100BC003C082300C7
:1007E800E1070C2C62089931392181312100BC00C4
:1007F8003C082300E100690803190C2C61306102F0
:10080800031C0C2C7B30610203180C2C2030E102F5
:1008180023006108031D192C62088A3141228131A5
:100828002100BC003C082300E100DE01DE0A6A0862
:10083800031D222C6D08031D222CDE01DF01DF0AB7
:1008480021005308031D2D2C4F08031D2D2C2300B8
:10085800DF0121004E08BC00BD0123005F085E07D0
:100868002100BE00BF01BF0D3C083E07C0003D0887
:100878003F3DC100033040064104031DC42CFD3038
:100888002000A1008930A2009B312423813100304F
:10089800F3000030F2003A30F1009830F0009B315C
:1008A800B523813121004B08031D812C0030C8007D
:1008B8000030C7000030C6000030C5002300EC013E
:1008C8002100CB01CB0AED302000A1008930A20025
:1008D8009B31242381310030F3000030F2003A309C
:1008E800F1009830F0009B31B5238131F801F9010E
:1008F8003E3090318D208131BC2C00302100C80061
:100908000030C7002530C6008030C5000030200008
:10091800A1008A30A2009B31242381312630200097
:10092800A1008930A2009B3124238131FD302000B1
:10093800A1008930A2009B31242381310030F300CB
:100948000030F2003A30F1009830F0009B31B523C6
:10095800813121004808B2004708B1004608B000BC
:100968004508AF00B3018B31652381312100CB01EC
:100978002100D301CF012300EA01ED012100CE01BE
:100988002300610803194C2E6103031DD62C60084F
:10099800031DD62CA030FA008630FB009931F421D3
:1009A80081314C2E23006103031DE32C6003031DDA
:1009B800E32C98315D2081312300E0014C2E210089
:1009C8004B08031D022D0A3023006106031DEF2C7E
:1009D8002400E001E00AF801F901230061089031E0
:1009E8008D2081310D3023006106031D4C2EF80146
:1009F800F9010A3090318D2081314C2E2300610895
:100A08009831FE208131003A0319492D0030F30056
:100A18000030F2000030F1000A30F00021004808F0
:100A2800F7004708F6004608F5004508F4009A3133
:100A3800C622813173082100C8007208C7007108F6
:100A4800C6007008C50023006108D03E2100BC0024
:100A5800FF3003180030BD003C08BE003D08BF0051
:100A68000030BF1BFF30C000C1003E08C5073F086B
:100A7800C63D4008C73D4108C83DF801F9012300BB
:100A8800610890318D2081314C2E6F302300610632
:100A98000319522D4F306106031D5B2DEC01EC0A42
:100AA800F801F901610890318D2081314C2E6530B3
:100AB800230061060319642D45306106031D712D5D
:100AC80002302100BC003C082300EC00F801F901C9
:100AD800610890318D2081314C2E6D3023006106E4
:100AE80003197A2D4D306106031D872D033021002F
:100AF800BC003C082300EC00F801F90161089031C2
:100B08008D2081314C2E7330230061060319902DFE
:100B180053306106031D9D2D04302100BC003C08A4
:100B28002300EC00F801F901610890318D20813132
:100B38004C2E0D3023006106031D4C2EFD30200085
:100B4800A1008930A2009B31242381310030F300B9
:100B58000030F2003A30F1009830F0009B31B523B4
:100B6800813121004808031DC22D4708031DC22DED
:100B7800603045020930463B031C372E4808031DE8
:100B8800372E01304502C230463B0130473B03183F
:100B9800372EAC302000AA008930AB00210048086D
:100BA8002000AF00210047082000AE0021004608C1
:100BB8002000AD00210045082000AC00A03097318E
:100BC8000A278131A0302000A1000130A2009B310A
:100BD8002423813123006C08031D072E142E1130A5
:100BE8002000A1008930182EFB302000A100883099
:100BF800182E4A302000A1008930182E3A302000E3
:100C0800A1008930182E23006C08013A0319F32D2E
:100C1800033A0319F82D013A0319FD2D022E1C2E53
:100C280026302000A1008930A2009B312423813185
:100C3800FD302000A1008930A2009B31242381319E
:100C480021004808B2004708B1004608B00045082E
:100C5800AF0023006C082100BC003C08B3008B31B6
:100C6800652381314A2ED9302000A1008930A200A5
:100C78009B31242381310030F3000030F2003A30F8
:100C8800F1009830F0009B31B52381312100CB0170
:100C98002300E101E201E301E401E501E601E701E6
:100CA80021004C08BC003C08CD0023006E08210040
:100CB800BC003C08D50023006B082100BC003C08A0
:100CC800D000EF30BC003C0822008E051C290C30F7
:100CD800F0000030F100D7308631E626813121005E
:100CE800D1011C29203099319421863107308E3169
:100CF8006C268631003A031D080000302400A3004A
:100D08000030A2001330A1008830A0009B31E823F6
:100D18008631ED308E316C268631003A031D08008D
:100D280000302400A3000030A2001330A100883056
:100D3800A0009B31E823863100308E316C26863145
:100D4800003A031D0800F4308E316C268631003AD3
:100D5800031D0800F4308E316C268631003A031DDD
:100D68000800F0308E316C268631003A031D0800E9
:100D780000302400A3000030A2000030A10064303D
:100D8800A0009B31E823863102308E316C268631F3
:100D9800003A031D0800F3308E316C268631003A84
:100DA800031D080000302400A3000030A20000301A
:100DB800A1006430A0009B31E82386312F308E31AA
:100DC8006C260800F300F401F4017108803A803CB5
:100DD800031DF02E700874020318080074087307C6
:100DE800F20072088600870181010130F200720862
:040DF800F407E92EE5
:100E00000034113400340C340A34063407341434FA
:100E10000034123410340E340B34003400340034F7
:100E200000341C34003400341A34003400340034EC
:100E30000034003400340034003400340034003412
:100E40000034003400340034003400340034003402
:100E500000340034003400340034003400340034F2
:100E600000340034003400340034003400340034E2
:100E700000340034003400340034003400340034D2
:100E800000340034003400340034003400340034C2
:100E900000340034003400340034003400340034B2
:100EA00000340034003400340034003400340034A2
:100EB0000034003400340034003400340034003492
:100EC0000034003400340034003400340034003482
:100ED0000034003400340034003400340034003472
:100EE0000034003400340034003400340034003462
:100EF000133400340034003400340034003400343F
:100F00000034003400340F340934603400340034C9
:100F1000003400340034003471343134003400348F
:100F200000347A347334613477343234003400342A
:100F30006334783464346534343433340034003406
:100F400020347634663474347234353400340034EA
:100F50006E346234683467347934363400340034A3
:100F600000346D346A347534373438340034003426
:100F70002C346B3469346F343034393400340034F9
:100F80002E342F346C343B3470342D340034003420
:100F90000034273400345B343D34003400340034F2
:100FA00000340D345D3400345C34003400340034DB
:100FB0000034003400340034003408340034003489
:100FC00031340034343437340034003400343034B5
:100FD0002E3432343534363438341B340034003453
:100FE0002B3433342D342A34393409347E340034EC
:100FF00000340034003400340034513421340034DF
:10100000003400345A3453344134573440340034BB
:1010100000344334583444344534243423340034C5
:101020000034203456344634543452342534003499
:1010300000344E3442344834473459345E3400343A
:10104000003400344D344A34553426342A340034C4
:1010500000343C344B3449344F3429342834003480
:1010600000343E343F344C343A3450345F3400342E
:1010700000340034223400347B342B340034003408
:10108000003400340D347D3400347C3400340034BA
:1010900000340034003400340034003408340034A8
:1010A0000034313400343434373400340034003404
:1010B00030342E3432343534363438341B34003442
:1010C00000342B3433342D342A3439341E34003474
:1010D00000341F3400340034003400340034003451
:1010E0000034003400340034193400340034003447
:1010F00000340034003400341D3400340034003433
:10110000003400340034003400340034003400343F
:10111000003400340034003400340034003400342F
:10112000003400340034003400340034003400341F
:1011300000340034003400340034003400342F34E0
:1011400000340034003400340034003400340034FF
:1011500000340034003400340034003400340D34E2
:1011600000340034003400340034003400340034DF
:1011700000340034003400340034003401340034CE
:101180000334163400340034003415347F3404340E
:101190000034053402340034003400340034183490
:1011A00000340034173401340034003400340A347D
:1011B0000034003400346434003400340034E83443
:1011C0000334003400341034273400340034A034A5
:1011D000863401340034403442340F3400348034D7
:1011E0009634983400340034E134F5340534003456
:1011F000CA349A343B3420347734693474346834D4
:1012000020344534763465346E342034703461349F
:101210007234693474347934203462346934743407
:1012200000342034773469347434683420344F34D3
:101230006434643420347034613472346934743406
:10124000793420346234693474340034203477348F
:1012500069347434683420344E346F34203470343C
:1012600061347234693474347934203462346934CA
:10127000743400342034773469347434683420345E
:1012800053347034613463346534203462346934E7
:10129000743400342034773469347434683420343E
:1012A0004D34613472346B342034623469347434B4
:1012B000003456346F346C347434613467346534BC
:1012C000203474346F346F342034003431342E348D
:1012D00033345F344434573430346134003443346D
:1012E000683461346E3467346534203442344134B8
:1012F000553444343A342034223443344E34543454
:1013000020342B34203441344C34543420342B34A6
:101310002034443445344C3422340D340A340034FF
:101320000D340A34503453342F34323420344B3497
:101330006534793462346F34613472346434203407
:1013400074346F342034523453342D3432343334C3
:1013500032340D340A340034423461347534643428
:101360002034773469346C346C342034623465341E
:101370002034733465347434203474346F3420343E
:1013800025346C347534003446346C346134733431
:1013900068342034503472346F34673472346134BA
:1013A0006D3420344634613469346C340D340A347D
:1013B0000034423461347534643420344F3475342D
:1013C000743420346F3466342034523461346E34D3
:1013D000673465340D340A34003445346E34743463
:1013E00065347234203442346134753464342034CA
:1013F000723461347434653420340D340A3400346A
:101400004234613475346434203452346534733476
:1014100065347434203474346F34203439343634C1
:101420003034303400344634693472346D347734B7
:101430006134723465342034563465347234733414
:1014400069346F346E343A342034003442346134B9
:1014500075346434203469347334203425346C3466
:1014600075340034483469346734683421340D34B9
:101470000A3400344C346F34773421340D340A3458
:101480000034F0008430700203184F2A7008003EC8
:10149000840087300318013E8500000808000030F2
:1014A000080000302400CB000030CA000030C90022
:1014B0000030C8000030CF000030CE000030CD003A
:1014C0000030CC00D001C030B2000030B300B40115
:1014D00090312B208A3124003508CB003408CA0013
:1014E0003308C9003208C800FF304805CC00FF307F
:1014F0004905CD000F304A05CE0000304B05CF0026
:101500004808C3004908C4004A08C5004B08C60083
:101510001430C636C50CC40CC30C890B892A430889
:101520000F39C7004708D0004F08031DA02A4E08F6
:10153000031DA02A60304C0209304D3B031CAB2A2E
:101540004F08031DAB2A01304C02C2304D3B013025
:101550004E3B031CB42A0030CF000030CE002530B3
:10156000CD008030CC00D0014F08B1004E08B00053
:101570004D08AF004C08AE005008C3004308B2004D
:10158000943149248A3100302400A3000030A200A5
:101590003A30A1009830A0009B31E8238A31903086
:1015A0002400AF008930B0009B3184238A310030A1
:1015B0002400A3000030A2003A30A1009830A0001F
:1015C0009B31E8238A3113302400AF008A30B00009
:1015D0009B3184238A3166302400AF008930B0000B
:1015E0009B3184238A31FD302400AF008930B00064
:1015F0009B3184238A3100302400A3000030A200F4
:101600003A30A1009830A0009B31E8238A316F3036
:101610002400AF008930B0009B3184238A31003030
:101620002400A3000030A2003A30A1009830A000AE
:101630009B31E8238A31FD302400AF008930B000AF
:101640009B3184238A3124005008031D3B2B482BF7
:101650001130AF0089304B2BFB302400AF008830B5
:101660004B2B4A302400AF0089304B2B3A302400FA
:10167000AF0089304B2B24005008013A0319282B66
:10168000033A03192C2B013A0319312B362B4F2B1C
:101690002630AF008930B0009B3184238A31FD3081
:1016A0002400AF008930B0009B3184238A310030A0
:1016B0002400A3000030A2003A30A1009830A0001E
:1016C0009B31E8238B158B17080000302200D500D2
:1016D0000030D4000030D3000030D2000030D900F8
:1016E0000030D8000030D7000030D600DE01C03016
:1016F0002100A0000030A1003208A5003108A4009C
:101700003008A3002F08A2003308B4003408A60054
:101710009131BA218B31C0302000A4000030A500E7
:10172000A6019F319E278B31200027082200DD0073
:10173000200026082200DC00200025082200DB0013
:10174000200024082200DA00FF305A05D200FF30C2
:101750005B05D3000F305C05D40000305D05D5007B
:101760005A082100B40022005B082100B5002200C5
:101770005C082100B60022005D082100B70014308B
:10178000B736B60CB50CB40C890BC02B34080F3926
:10179000B800B901BA01BB013B082200D900210001
:1017A0003A082200D800210039082200D700210081
:1017B00038082200D600210032082000A3002100B2
:1017C00031082000A200210030082000A1002100E3
:1017D0002F082000A00021003308B40034082000A6
:1017E000A40095312A258B31FD302000A1008930DD
:1017F000A2009B3124238B310030F3000030F20033
:101800003A30F1009830F0009B31B5238B31220043
:10181000550821003206031D1D2C2200540821000A
:101820003106031D1D2C2200530821003006031D24
:101830001D2C2200520821002F06031D3C2C3308CA
:10184000B400B501B601B7012200590821003706DE
:10185000031D3A2C2200580821003606031D3A2C9D
:101860002200570821003506031D3A2C2200560895
:101870002100340603194F2CC4302000A100893008
:10188000A2009B3124238B310030F3000030F200A2
:101890003A30F1009830F0009B31B5238B312200B3
:1018A000DE010A305E0203187C2C0E160030F300B5
:1018B0000030F2002730F1001030F0009B31B523EA
:1018C0008B31EF302100B400340822008E05003047
:1018D000F3000030F2002730F1001030F0009B31AF
:1018E000B5238B3101302100B40034082200DE071B
:1018F0000A305E02031C552C26302000AA008A30D4
:10190000AB00210032082000AF0021003108200088
:10191000AE00210030082000AD0021002F0820007B
:10192000AC00203097310A278B3120302000A100F5
:101930000130A2009B3124238B3121003308031D89
:10194000B62CC32C11302000A1008930C72CFB30ED
:101950002000A1008830C72C4A302000A100893027
:10196000C72C3A302000A1008930C72C2100330851
:10197000013A0319A22C033A0319A72C013A0319BF
:10198000AC2CB12CCB2C26302000A1008930A20039
:101990009B3124238B31FD302000A1008930A2002F
:1019A0009B3124238B310030F3000030F2003A30B9
:1019B000F1009830F0009B31B52308002000A10011
:1019C000A2012108FA00FB017A08F0007B08F1006F
:1019D0000330FC007C08F2009A3198228C31FD0023
:1019E0007D082000A000A301A401003098319C20B4
:1019F0008C3100309831A6208C31DF30FA007A0823
:101A000022008C050030F3000030F2000130F100BC
:101A10002C30F0009B31B5238C31EF30FA007A087E
:101A200022008C050030F3000030F2000030F1009D
:101A30001430F0009B31B5238C31013098319C205B
:101A40008C312000A301A4012030993181218C31F7
:101A5000003A0319412D000001302000A307003097
:101A6000A43D3A302402993003192302031C242D8B
:101A7000013098319C208C3101309831A620013002
:101A800008002000A2010830220203189B2D211C0F
:101A90004C2D22000C16512DEF30FA007A0822004E
:101AA0008C0503102000A10CA301A4012030993162
:101AB00081218C31003A031D722D01302000A307D3
:101AC0000030A43D3A302402993003192302031C4C
:101AD000562D013098319C208C3101309831A62050
:101AE000013008002000A301A40120309931812198
:101AF0008C31003A0319922D000001302000A30719
:101B00000030A43D3A302402993003192302031C0B
:101B1000752D013098319C208C3101309831A620F0
:101B2000013008000130FA007A082000A2070830CE
:101B30002202031C472D201CA02D22000C16A52DCF
:101B4000EF30FA007A0822008C052000A301A401DE
:101B50002030993181218C31003A031DC42D013090
:101B60002000A3070030A43D3A3024029930031925
:101B70002302031CA82D013098319C208C310130A8
:101B80009831A620013008002000A301A4012030D4
:101B9000993181218C31003A0319E32D0130200065
:101BA000A3070030A43D3A302402993003192302E0
:101BB000031CC72D013098319C208C3101309831A5
:101BC000A6200130080001309831A6208C31200079
:101BD000A301A4011030993181218C31003A0319FD
:101BE000062E01302000A3070030A43D3A30240225
:101BF000993003192302031CEA2D013098319C20EF
:101C00008C3101309831A620013008002000A3015A
:101C1000A4012030993181218C31003A0319252EFD
:101C200001302000A3070030A43D3A30240299304F
:101C300003192302031C092E013098319C208C319A
:101C400001309831A620013008002000A301A40132
:101C50001030993181218C31003A031D442E01301E
:101C60002000A3070030A43D3A3024029930031924
:101C70002302031C282E013098319C208C31013026
:101C80009831A620013008002000A301A4012030D3
:101C9000993181218C31003A031D632E01302000DF
:101CA000A3070030A43D3A302402993003192302DF
:101CB000031C472E013098319C208C310130983123
:101CC000A62001300800013098319C208C31013071
:101CD0009831A620003008002400AF00B0012F0882
:101CE000AA00AB012A08A0002B08A1000330AC0019
:101CF0002C08A2009A31F5228E312400AD002D0867
:101D0000AE00B101B20100309831D0208E310030E8
:101D10009831DB208E31DF302400AA002A0822000F
:101D20008C0500302400A3000030A2000130A10087
:101D30002C30A0009B31E8238E31EF302400AA0024
:101D40002A0822008C0500302400A3000030A200E5
:101D50000030A1001430A0009B31E8238E31013007
:101D60009831D0208E312400B101B2012030993158
:101D7000A7218E31003A0319D32E00000130240030
:101D8000B1070030B23D3A303202993003193102C6
:101D9000031CB62E01309831D0208E31013098319D
:101DA000DB20013008002400B001083030020318A5
:101DB0002E2F2F1CDE2E22000C16E42EEF302400D6
:101DC000AA002A0822008C0503102400AF0CB101E0
:101DD000B20120309931A7218E31003A031D052F21
:101DE00001302400B1070030B23D3A303202993060
:101DF00003193102031CE92E01309831D0208E31B5
:101E000001309831DB20013008002400B101B2011B
:101E100020309931A7218E31003A0319252F000077
:101E200001302400B1070030B23D3A30320299301F
:101E300003193102031C082F01309831D0208E3154
:101E400001309831DB200130080001302400AA0065
:101E50002A08B00708303002031CD92E2E1C332F5D
:101E600022000C16392FEF302400AA002A08220085
:101E70008C052400B101B20120309931A7218E31A7
:101E8000003A031D582F01302400B1070030B23D45
:101E90003A303202993003193102031C3C2F0130D1
:101EA0009831D0208E3101309831DB20013008008C
:101EB0002400B101B20120309931A7218E31003ABE
:101EC0000319772F01302400B1070030B23D3A30BA
:101ED0003202993003193102031C5B2F0130983113
:101EE000D0208E3101309831DB20013008000130E4
:101EF0009831DB208E312400B101B20110309931CC
:101F0000A7218E31003A03199A2F01302400B1071E
:101F10000030B23D3A303202993003193102031CCD
:101F20007E2F01309831D0208E3101309831DB2066
:101F3000013008002400B101B20120309931A721FD
:101F40008E31003A0319B92F01302400B107003057
:101F5000B23D3A303202993003193102031C9D2FF1
:101F600001309831D0208E3101309831DB200130A2
:101F700008002400B101B20110309931A7218E313F
:101F8000003A031DD82F01302400B1070030B23DC4
:101F90003A303202993003193102031CBC2F013050
:101FA0009831D0208E3101309831DB20013008008B
:101FB0002400B101B20120309931A7218E31003ABD
:101FC000031DF72F01302400B1070030B23D3A3035
:101FD0003202993003193102031CDB2F0130983192
:101FE000D0208E3101309831DB20013008000130E3
:101FF0009831D0208E3101309831DB20003008003C
:102000002400A2000F30A0002008A3000330A0008D
:102010002008A40025001A08F0390A389A00240084
:10202000220820009B0024002308A0000230A035D5
:10203000FF3E031D17282035A100210820009C0425
:1020400024002408A000200820009C04983152207D
:1020500021009110080024003308A6003208A500D2
:102060003408B6003608A7009D31AD259031240014
:102070002808C1002708C0002608BF002508BE00A8
:10208000FF303E052100E5003F3024003F052100E0
:10209000E60024003E08B6003F08B7004008B8003C
:1020A0004108B9000E30B936B80CB70CB60C890B24
:1020B0005328FF3036052100E3003F302400370568
:1020C0002100E40065082400B60021006608240011
:1020D000B700B801B901210063082400BA0021004B
:1020E00064082400BB00BC01BD010C30BA35BB0D37
:1020F000BC0DBD0D890B76283A08B6073B08B73DE5
:102100003C08B83D3D08B93D3908B5003808B40071
:102110003708B3003608B20008002000A0002300F2
:102120001E1FD22878080319BC28C92820002008BF
:10213000FA00FB017A08F0007B08F1000330A928BF
:1021400020002008FA00FB017A08F0007B08F1006B
:102150000230FC007C08F2009A3198229031FD0098
:1021600023001E087D06FE397D06D12823001E149B
:10217000D22823001E10D22824006108013A031936
:102180009628033A0319A028013A0319B628B9285A
:10219000D22801307905FA0023001E087A06FE399C
:1021A0007A069E000A3020002006031DE8287808E1
:1021B000031DDE28240060080319080023009E1C6C
:1021C000DE282000200823009A002400E0010800F7
:1021D00023009E1CE8282000200823009A00080005
:1021E0002400AE0023001E1F3929240028080319EB
:1021F00021292E292E08AA00AB012A08A0002B08AD
:10220000A10003300C2924002E08AA00AB012A08E3
:10221000A0002B08A1000230AC002C08A2009A31CB
:10222000F52290312400AD0023001E0824002D0665
:10223000FE392D06372923001E14392923001E10CC
:10224000392924006108013A0319FA28033A0319CD
:102250000329013A03191B291E29392901302905AF
:10226000AA0023001E0824002A06FE392A0623009D
:102270009E000A3024002E06031D4D29280803194C
:1022800060080319080023009E1C432924002E081F
:1022900023009A002400E001080023009E1C4D2921
:1022A00024002E0823009A000800240023080319A4
:1022B0005E29220821042004031D6F290030A0009C
:1022C0000030A1000030A20008000130A500250860
:1022D000A3070130A236A10CA00C890B6A29FE309D
:1022E00022050319882965290130A5002508A307BF
:1022F0000130A007003003180130A1070030031897
:102300000130A2070130A236A10CA00C890B832951
:10231000FF30220503199929742902302302031C76
:102320009B290130A3020130A035A10DA20D890B1C
:102330009429A11F8D292318A329FF30A0057F30E0
:10234000A105FF30A2050310A30C2308A500A601D8
:10235000A7011030A535A60DA70D890BAA292508C0
:10236000A0042608A1042708A204240803190800D1
:10237000A2170800210026080739A700A801A90113
:10238000AA011430A735A80DA90DAA0D890BC229E1
:10239000FF302205AB00FF302305AC000F302405D1
:1023A000AD0000302505AE002B08A7072C08A83D7E
:1023B0002D08A93D2E08AA3D2A082000ED00210085
:1023C00029082000EC00210028082000EB00210053
:1023D00027082000EA00FF306A052100E5003F30B1
:1023E00020006B052100E60020006A082100A700FC
:1023F00020006B082100A80020006C082100A90023
:1024000020006D082100AA000E30AA36A90CA80CE5
:10241000A70C890B052AFF302705E3003F3028056C
:10242000E4002108FB002008FA00E330A700270899
:10243000FC000230A8002808FD0093317D2308002D
:1024400024002F08B2003008B3003108B400031094
:10245000330D340DB5003508BA003A08031D372A8C
:102460000030AC000030AD000030AE0008002C0899
:10247000B2002D08B3002E08B4000310330D340D44
:10248000B5003508BB003B08031D4D2A0030AC00E9
:102490000030AD000030AE0008000030B700003062
:1024A000B8000030B90089303B07B2003208BA02E8
:1024B0002F08B2003008B3003108B4001030B43631
:1024C000B30CB20C890B5F2A3208B5003508BB008B
:1024D0002C08B2002D08B3002E08B4001030B4361A
:1024E000B30CB20C890B6F2A3208B5003508BB0655
:1024F0008030B2003208BB05B017FF30AF05FF30A7
:10250000B0050030B105AD17FF30AC05FF30AD05AB
:102510000030AE051830B2003208B6000130B735D1
:10252000B80DB90D890B8F2A2E083102031D9E2A82
:102530002D083002031D9E2A2C082F02031CA72AF7
:102540002C08AF022D08B03B2E08B13B37140130E8
:10255000AF35B00DB10D890BA82A0130B602031DAD
:102560008E2A3708A0003808A1003908A2003A08CE
:10257000B2003208A3003B08B3003308A400913135
:10258000552124002008AC002108AD002208AE002F
:10259000080024003C08C2003D08C3003E08C400F7
:1025A0000310430D440DC5004508C6004608031D31
:1025B000E02A0030BC000030BD000030BE00080042
:1025C0003F08C2004008C3004108C4000310430D87
:1025D000440DC5004508CB004B08031DF62A00300A
:1025E000BC000030BD000030BE0008004B087B3E40
:1025F000C2004208C6073C08C2003D08C3003E08AE
:10260000C4001030C436C30CC20C890B022B420824
:10261000C5004508CB003F08C2004008C300410880
:10262000C4001030C436C30CC20C890B122B4208F4
:10263000C5004508CB068030C2004208CB05BD1757
:10264000C017FF30BF05FF30C0050030C1050030A6
:10265000C7000030C8000030C9000730C20042087F
:10266000CA003C1C392B3F08C7074008C83D410839
:10267000C93D0130BE36BD0CBC0C890B3A2B013074
:10268000BF35C00DC10D890B402B0130CA02031D9F
:10269000312B0930C2004208CA003C1C552B3F08B0
:1026A000C7074008C83D4108C93D0130BE36BD0CD2
:1026B000BC0C890B562B0130C936C80CC70C890BD2
:1026C0005C2B0130CA02031D4D2B4708A0004808AF
:1026D000A1004908A2004608C2004208A3004B0816
:1026E000C3004308A4009131552124002008BC00F8
:1026F0002108BD002208BE00080020302000A000F4
:102700002008E800E501E901680869020318D62BF2
:102710000130A0002008E50765087D02031CA82BF6
:102720007C0886008701403FA000413FA1002108AE
:102730003F39A2002208E3007C08860087010108D7
:10274000A0002008E4000230A0002008FC07C12BF4
:102750007B08F1007A08F0006908A0002008F20068
:102760009A311922933171082000E7007008E600C1
:1027700067083F39A0002008E3006608A000200891
:10278000E4006308A0006908233E86008701200852
:1027900081006408A0006908433E86008701200884
:1027A00081000130A0002008E907842B7B08F1009C
:1027B0007A08F0009A31412293310030F300003062
:1027C000F2000330F100E830F0009B31B523933183
:1027D0007F302000A00020088B0523001515BF3096
:1027E0002000A000200823009505DF302000A00075
:1027F000200823009505EF302000A00020082300CA
:1028000095057B082000A1007A08A000A136A00C45
:10281000A136A00CA136A00C20087F39230092001D
:102820007A0807392000A0000430A035FF3E031DC0
:10283000152C2035230091002000E9016808690269
:102840000318422C6908233E8600870101082300F3
:10285000940020006908433E860087010108230098
:102860009300000000009831BA209331013020001D
:10287000A00020082300910701302000A0002008BC
:10288000E9071E2CFB30A0002008230095058B17BC
:10289000080022000E153C008F013D00A20101300E
:1028A0003C008F0099310B2194312400BE01BD0101
:1028B000BE153E163208B3003308E1003108E500CA
:1028C0003008E4002F08E3002E08E2003208031964
:1028D0006B2CBE146F2CFD30B3003308BE05BD1544
:1028E0003108A3003008A2002F08A1002E08A00084
:1028F0000130A700E830A6004830A5000030A40051
:102900009E319A269431FF3024002007BF00FF300B
:10291000213DC000FF30223DC100FF30233DC200F9
:10292000FF30B300FF30B400FF30B500FF30B60019
:102930003F08B7004008B8004108B9004208BA0093
:102940000230BA36B90CB80CB70C890BA12C370879
:10295000B3073808B43D3908B53D3A08B63D3608E6
:10296000C2003508C1003408C0003308BF00400869
:10297000BC003F08BB0023001D1224003C08A1003E
:102980003B08A0003E089C319A24943124003D0865
:102990009831932094319831B02094312400B300C1
:1029A000B401B501B6013608C2003508C1003408CB
:1029B000C0003308BF009831B02094312400B30028
:1029C000B401B501B6013608C2003508C1003408AB
:1029D000C0003308BF009831B02094312400B30008
:1029E000B401B501B6013608C2003508C10034088B
:1029F000C0003308BF009831B02094312400B300E8
:102A0000B401B501B6013608C2003508C10034086A
:102A1000C0003308BF009831B0202400B300B401D7
:102A2000B501B6013608C2003508C1003408C0003F
:102A30003308BF003C008F0114303D00A20012306B
:102A40003C00A5001530A40001308F002000911239
:102A50000B17080022000E153C008F013D00A2015B
:102A600001303C008F009831E62095312000B00104
:102A7000AF01B01530162408A50025082400E10098
:102A8000200023082400E500200022082400E400A0
:102A9000200021082400E300200020082400E20098
:102AA000200024080319562DB0145A2DFD30A5001E
:102AB0002508B005AF152308F3002208F20021080D
:102AC000F1002008F0000130F700E830F60048304F
:102AD000F5000030F4009E3148269531FF30700734
:102AE0002000B100FF30713DB200FF30723DB300F5
:102AF000FF30733DB400FF30A500FF30A600FF306B
:102B0000A700FF30A8003108A9003208AA00330846
:102B1000AB003408AC000230AC36AB0CAA0CA90CEC
:102B2000890B8C2D2908A5072A08A63D2B08A73D4F
:102B30002C08A83D2808B4002708B3002608B200D6
:102B40002508B1003208AE003108AD0023001D1287
:102B500020002E08F1002D08F00030089A316C2278
:102B6000953120002F0898316220953198318A20C4
:102B700095312000A500A601A701A8012808B400EE
:102B80002708B3002608B2002508B10098318A2032
:102B900095312000A500A601A701A8012808B400CE
:102BA0002708B3002608B2002508B10098318A2012
:102BB00095312000A500A601A701A8012808B400AE
:102BC0002708B3002608B2002508B10098318A20F2
:102BD00095312000A500A601A701A8012808B4008E
:102BE0002708B3002608B2002508B10098318A20D2
:102BF0002000A500A601A701A8012808B400270805
:102C0000B3002608B2002508B1003C008F01143043
:102C10003D00A20012303C00A5001530A400013098
:102C20008F00200091120B1708002400D601993163
:102C30006F2196319931D02196318A3151229631C6
:102C40009931192196312400D6010A305602031811
:102C5000522E22000E1600302400A3000030A200E5
:102C60002730A1001030A0009B31E8239631EF30CF
:102C70002400D500550822008E0500302400A30052
:102C80000030A2002730A1001030A0009B31E823C3
:102C9000963101302400D5005508D6070A30560277
:102CA000031C292E9F314127963124004C08D70060
:102CB0004D08D8004E08D9005708A0005808A100B8
:102CC0005908A2009A30A300D130A4004030A500DA
:102CD0009C311D24963103187A2E59302400AF0000
:102CE0008930B0009B31842396313A302400AF0004
:102CF0008A30982E00302400A000F030A10041302E
:102D0000A2005708A3005808A4005908A5009C3148
:102D10001D24963103189C2E59302400AF008930B1
:102D2000B0009B318423963132302400AF008A30CA
:102D3000B0009B318423963120309831F2209631B7
:102D4000210091169F314127963124004C08D7006D
:102D50004D08D8004E08D9000030A3000030A20072
:102D60000030A1001430A0009B31E82396312400EC
:102D70005708A0005808A1005908A2009A30A300E3
:102D8000D130A4004030A5009C311D249631031C95
:102D9000DB2E00302400A000F030A1004130A20062
:102DA0005708A3005808A4005908A5009C311D2409
:102DB00096310318DF2E2400DE01DE0AE32E240004
:102DC000DE0122008E1424005E080319F72E013064
:102DD000DC070030DD3D64305C065D04031DF72E2A
:102DE000DC01DD010230D500550822008E060030DE
:102DF00024005B02643003195A020318042F0130C7
:102E0000DA070030DB3DA22EF730D500550822004E
:102E10008E05A22E2000BE002C30B0003008BD0070
:102E20002B08B1002A08B000AA0A0319AB0A30081F
:102E30008400310885000008B2003208BF003F0856
:102E40000319FA2F25303F060319332F3F08B0002E
:102E50003E08860001308700300881000130B00054
:102E60003008BE07102FB6013C2F36163C2FC0305D
:102E7000B0003008B604532F2B08B1002A08B00068
:102E8000AA0A0319AB0A300884003108850000083B
:102E9000BF00003A0319FA2F6C3A0319352F193A7B
:102EA0000319372F102F361E622F3D088600870129
:102EB000403FB900413FBA00423FBB00433FBC0026
:102EC0000430702F3D0886008701403FB000413F2D
:102ED000B1003008B9003108BA00BB01BC010230B2
:102EE000B0003008BD07BF01BF0A0A303F06031912
:102EF000A62F3F08B000B101B035B10DB035B10D0E
:102F0000D330300784008830313D8500003FB20067
:102F1000013FB300023FB400033FB50035083C0257
:102F2000031D9C2F34083B02031D9C2F33083A02DB
:102F3000031D9C2F32083902031CA62F0130B0005C
:102F40003008BF070A303F06031D792F3F08B7003E
:102F5000B801B71BB803FF30B707FF30B83D370AD9
:102F60000319380A0319102F0030A3000030A20003
:102F70000030A1000A30A00038088500370884001E
:102F80008435850D8435850DD33084078830853DA3
:102F9000003FF000013FF100023FF200033FF30069
:102FA0003C08F7003B08F6003A08F5003908F40041
:102FB0009E314826973173082000A7007208A600AA
:102FC0007108A5007008A4009D311D2597312000CF
:102FD0002008303EB0003008BF003F08B0003E0877
:102FE000860001308700300881000130B0003008D1
:102FF000BE07AB2F3E088600013087008101080024
:1030920020001C11080020009A01080020001C15C5
:1030A200080020001C150800803425340034003448
:1030B200003400348034253423009E1564309A0095
:1030C2000800F00023009F0170089F000800FE0026
:1030D20012001E00FE0B69280034640080010131D9
:1030E200890B6F28003420000E1C7928013008005B
:1030F20000300800FE302400A000200821009D05B9
:1031020008002030993128219831FE308C31DE249C
:10311200080023009D181D121908F0007008F10024
:10312200710808002400A00023009F012400200849
:1031320023009F000800F0007008031DA32821004F
:103142008C12080021008C160800F0007008031D84
:10315200AD2821000C12080021000C1608002300E3
:103162009D181D1219082400A0002008A1002108A2
:103172000800553023009600AA3096009514951841
:10318200C028000000000800F00020307006031D77
:10319200CD282700921608002700121608002400E6
:1031A200A0002008031DD82821008C12080021004D
:1031B2008C1608002400A0002008031DE32821002B
:1031C2000C12080021000C1608004F30F0007008A5
:1031D20023009D059E12CF30F0007008210091055A
:1031E20008002400A00020302006031DFB28270031
:1031F20092160800270012160800F0003030700204
:10320200031C09293A307002031809290130080009
:10321200003008004F302400A000200823009D0544
:103222009E12CF302400A000200821009105080042
:1032320001309831D020993101309831DB20993119
:103242003230903100209931863176260800F10023
:1032520020307106031D3329DF30F000700827008B
:1032620092050800EF30F000700827009205080070
:10327200F0000D30F0027130700203184929700815
:10328200843E840087300318013E85000008080050
:1032920000300800F0001130F0026D3070020318A7
:1032A2005B297008663E840088300318013E850061
:1032B2000008080000300800F0000D30F002713004
:1032C200700203186D297008F53E840087300318D8
:1032D200013E85000008080000300800F03021009F
:1032E200990000301A1801301A050319722940306A
:1032F2002400A000200821009A05031D0800782957
:10330200F00020307006031D8D2920008C1E8B29B1
:10331200013008000030080020000C1E9229013004
:103322000800003008002400A10020302106031DFF
:10333200A029DF30A0002008270092050800EF3006
:103342002400A00020082700920508002400A00005
:1033520020302006031DB42920008C1EB229013022
:1033620008000030080020000C1EB92901300800B6
:103372000030080024002808A0002908A100A201AA
:103382008E30AB002B08A300A401913155212400FB
:103392002008A8002108A9002208AA00080022008B
:1033A2008E018C0121000E118E108E110E120C1541
:1033B2000E148E1622008E143C008F0114303D0034
:1033C200A20012303C00A5001530A40001308F008D
:1033D20023008C010C158E0121009513203024004E
:1033E2008E008C01080022000E153C008F013D006A
:1033F200A20101303C008F00FB30FC007C0822005F
:103402008E057A08F0007B08F100F201F3019B318E
:10341200B52322000E153C008F0114303D00A2009E
:1034220012303C00A5001530A40001308F000800C6
:10343200BF30F3007308230095057108F40070088B
:10344200F300F436F30CF436F30CF436F30C730891
:103452007F39920070080739F3000430F335FF3EDC
:10346200031D2F2A73357207910015141518372A78
:103472000000000023001408F1001308F000080007
:103482007F30F20072088B05BF30F2007208230011
:1034920095057108F3007008F200F336F20CF3366A
:1034A200F20CF336F20C72087F3992007008073979
:1034B200F2000430F235FF3E031D5B2A72359100A3
:1034C200151615159831BA20FB30F2007208230048
:1034D20095058B170800F20023009E019D017218CA
:1034E2001E16F21C762A1E171D1772199E17F21D40
:1034F2007C2A1D167D2A9D16721A1E15721F862A97
:103502002000911221009116882A21009112F21FA7
:103512008F2A2000111221001116902A1112700810
:1035220023009B0071089C009E169D170800F7015E
:10353200F6017108F5007008F400F701083077020F
:103542000318B62A741CA92A0130F3007308F6077F
:103552000130F536F40C890BAA2A0130F300730806
:10356200F70708307702031CA32A03307206031DF3
:10357200C02A7618BE2A0130080000300800761CE6
:10358200C42A01300800003008000030FB0000307F
:10359200FA000030F9000030F800701CD82A7408D4
:1035A200F8077508F93D7608FA3D7708FB3D0130CA
:1035B200F435F50DF60DF70D890BD92A0130F336E6
:1035C200F20CF10CF00C890BE02A730872047104FE
:1035D2007004031DCE2A7B08F3007A08F2007908F2
:1035E200F1007808F00008002400A701A6012108D4
:1035F200A5002008A400A701083027020318142BF5
:10360200241C072B0130A3002308A6070130A5368E
:10361200A40C890B082B0130A3002308A70708304C
:103622002702031C012B03302206031D1E2B261822
:103632001C2B0130080000300800261C222B013010
:103642000800003008000030F3000030F2001330B0
:10365200F1008830F0009B31B5239B312000210816
:1036620084002208850012000319442BF801F90195
:103672002108840022088500000890318D209B31AA
:1036820023009E1C412B20002208A4002108A30035
:10369200A10A0319A20A2308840024088500120043
:1036A20003190800242BBF302400A30023082300A1
:1036B200950524002108A4002008A300A436A30C29
:1036C200A436A30CA436A30C23087F39230092004E
:1036D200240020080739A3000430A335FF3E031D50
:1036E2006E2B233522072300910015141518772B12
:1036F20000000000230014082400A1002300130886
:103702002400A000080000302400A3000030A20022
:103712001330A1008830A0009B31E8239B312400A4
:103722002F0884003008850012000319A52BA80178
:10373200A9012F0884003008850000089031F0208C
:103742009B3123009E1CA22B24003008B2002F08BC
:10375200B100AF0A0319B00A3108840032088500AB
:10376200120003190800842B0030F8000030F70023
:103772000030F6000030F5007808803AF400730853
:10378200803A7402031DCF2B72087702031DCF2BE0
:1037920071087602031DCF2B70087502031808000A
:1037A200F901203079020318DF2B00000130F40008
:1037B2007408F90720307902031CD62B0630F5076E
:1037C2000030F63D0030F73D0030F83DBD2B0030B3
:1037D2002400A8000030A7000030A6000030A50099
:1037E2002808803AA4002308803A2402031D032CEF
:1037F20022082702031D032C21082602031D032C85
:103802002008250203180800A90120302902031804
:10381200142C000001302400A4002408A907203041
:103822002902031C0A2C0630A5070030A63D0030F1
:10383200A73D0030A83DF12B2400A21F342C200903
:10384200A6002109A7002209A800A60A0319A70AAF
:103852000319A80A00302607A0000030273DA10066
:103862008030283DA200A51F4A2C2309A600240966
:10387200A7002509A800A60A0319A70A0319A80A7E
:1038820000302607A3000030273DA4008030283DE9
:10389200A5008030A2068030A50625082202031D5D
:1038A200080024082102031D080023082002080042
:1038B200F700F60170087102031C0800F601710896
:1038C2007602031808007008F200F301F209F30906
:1038D200F20A0319F30A71087207F4007308031855
:1038E200730AF5007508803A803C031D7A2C74082F
:1038F200760203188E2C760870077707F20072089A
:10390200860087010108F30076087707F40074083F
:103912008600870173088100952C76087707F200EC
:1039220072088600870181010130F2007208F607F1
:10393200602C2400A20023009E019D012400221C71
:10394200A42C23001E162400A21CAA2C23001E173E
:103952001D172400221DAF2C23009E172400A21D38
:10396200B52C23001D16B72C23009D162400221E01
:10397200BC2C23001E152400221FC42C20009112EF
:1039820021009116C62C210091122400A21FCE2CD8
:103992002000111221001116D02C21001112240036
:1039A200200823009B002400210823009C009E166F
:1039B2009D1708002400AE0021009D019E01503099
:1039C2002400AC002C0821009E042200971703302B
:1039D2002400AC002C0822009704171FEE2C2400B0
:1039E2002E08AC000130AC35FF3E031DF42C2C3503
:1039F200AD002D0821009D0483302400AC002C086A
:103A020021009E041D14111300302400A300003075
:103A1200A2000030A1000530A0009B31E8239C31B8
:103A220021009D149D18132D1C082400AB002100B9
:103A32001B082400AA0008002000230822042104F5
:103A420020040319572DA901A90AA31B342D013003
:103A5200A035A10DA20DA30D890B292D0130A800BF
:103A62002808A907262D23082702031D422D220814
:103A72002602031D422D21082502031D422D200886
:103A82002402031C4C2D2008A4022108A53B220875
:103A9200A63B2308A73B0130A336A20CA10CA00C25
:103AA200890B4D2D0130A902031D342D2708A300D7
:103AB2002608A2002508A1002408A0000800003062
:103AC2002000A3000030A2000030A1000030A000BE
:103AD2007608F1007508F0007708F9007908F2001D
:103AE2009A3119229D317008FA007108FB00FC011D
:103AF200FD011030FA35FB0DFC0DFD0D890B7B2D00
:103B02007D082000A3007C08A2007B08A1007A089F
:103B1200A0007608F1007508F0007708013EF90070
:103B22007908F2009A3119227008FA007108FB0034
:103B3200FC01FD017A082000A0047B08A1047C0896
:103B4200A2047D08A3042308F8002208F700210834
:103B5200F6002008F500080000302400B100003013
:103B6200B0000030AF000030AE002608A1002508EA
:103B7200A0002708A9002908A2009B3154239D31E7
:103B820024002008AA002108AB00AC01AD011030CE
:103B9200AA35AB0DAC0DAD0D890BC92D2D08B100A9
:103BA2002C08B0002B08AF002A08AE002608A1009E
:103BB2002508A0002708013EA9002908A2009B3180
:103BC200542324002008AA002108AB00AC01AD0157
:103BD2002A08AE042B08AF042C08B0042D08B10447
:103BE2003108A8003008A7002F08A6002E08A5005B
:103BF200080079082000A1007808A000A136A00CD6
:103C020001302005A20000302105A3007908A5009B
:103C12007808A400A536A40CA536A40CFF30240510
:103C2200F00000302505F1000330A6002608F2005E
:103C32009A3198229D312000A700A8012308280666
:103C4200031D252E22082706031D412E7908A100F7
:103C52007808A000A136A00CA136A00CFF302005E8
:103C6200FA0000302105FB007A089E31ED269D31D5
:103C72002000A000A1012008FA002108FB00432E29
:103C8200FA01FB017B08F9007A08F800080000300D
:103C9200FC000030FB000030FA000030F90073082D
:103CA2007204710470040319912EFD01FD0AF31BC5
:103CB200662E0130F035F10DF20DF30D890B5B2EFE
:103CC2000130F8007808FD07582E0130F935FA0D59
:103CD200FB0DFC0D890B672E73087702031D7B2EEB
:103CE20072087602031D7B2E71087502031D7B2E5E
:103CF20070087402031C862E7008F4027108F53BEA
:103D02007208F63B7308F73B79140130F336F20C74
:103D1200F10CF00C890B872E0130FD02031D662E7B
:103D22007C08F3007B08F2007A08F1007908F000C1
:103D3200080000302400AC000030AB000030AA00C4
:103D42000030A90023082204210420040319E42ED0
:103D5200AD01AD0AA31BB92E0130A035A10DA20DF4
:103D6200A30D890BAE2E0130A8002808AD07AB2E9B
:103D72000130A935AA0DAB0DAC0D890BBA2E230863
:103D82002702031DCE2E22082602031DCE2E210855
:103D92002502031DCE2E20082402031CD92E200842
:103DA200A4022108A53B2208A63B2308A73B29140D
:103DB2000130A336A20CA10CA00C890BDA2E013023
:103DC200AD02031DB92E2C08A3002B08A2002A085D
:103DD200A1002908A0000800F300F20173080139CC
:103DE200F0000630F035FF3E031DF32E7035F10072
:103DF2007108F20773080239F0000430F035FF3E13
:103E0200031DFF2E7035F1007108F20773080439A3
:103E1200F0000230F035FF3E031D0B2F7035F1002C
:103E22007108F207730808390907F0007008F207F1
:103E320073360839F0007008F2077308F000033097
:103E4200F036890B212F70080439F1007108F2074E
:103E52007308F0000530F036890B2C2F70080239F8
:103E6200F1007108F2077308F0000730F036890B91
:103E7200372F70080139F1007108F2077208080043
:103E820002309C31DB249F3124002B08D4002A0805
:103E9200D30098317B209F31033022001705240084
:103EA200CF0003304F06031D5C2F0230D335D40DF3
:103EB200890B572F6A2F0330220017052400CF00E9
:103EC20002304F06031D6A2F0130D335D40D890B02
:103ED200662F6630BC00B630BD004030BE000030F8
:103EE200AC007A30AD004430AE005408A90053084B
:103EF200A8009931BB219F3124002808AF0029086E
:103F0200B0002A08B100923120229F3124002C08EF
:103F1200BF002D08C0002E08C1009231C922240022
:103F22003C08D0003D08D1003E08D2005008CC0029
:103F32005108CD005208CE00080020002508F600E6
:103F42002408F5002608A8002808F7009D316025FE
:103F52009F3178082000B3007708B2007608B100DC
:103F62007508B000FF3030052100E5003F30200029
:103F720031052100E60020003008A8003108A90020
:103F82003208AA003308AB000E30AB36AA0CA90CDB
:103F9200A80C890BC62FFF3028052100E3003F3013
:103FA200200029052100E40065082000A800210066
:103FB20066082000A900AA01AB01210063082000C5
:103FC200AC00210064082000AD00AE01AF010C304E
:103FD200AC35AD0DAE0DAF0D890BE92F2C08A8073E
:103FE2002D08A93D2E08AA3D2F08AB3D2B08A7009E
:0E3FF2002A08A6002908A5002808A400080037
:020000040001F9
:04000E0064CFFBFEC2
:00000001FF
