:040000008031E8283B
:100008007E14803120007F08A200A3012700931EE0
:100018007C2822000E162C3020006A0203187A2849
:100028000B306A020318302801302400AE35AF0DBA
:10003800890B1A281030993178218031003A031938
:100048002A2801302400AE070030AF3D2400B20159
:10005800B301B401B5017228163020006A020318F2
:10006800482801302400B235B30D890B37281030E9
:10007800993178218031003A03197228013024001F
:10008800B2070030B33D7228213020006A020318FD
:10009800602801302400B435B50D890B4F28103085
:1000A800993178218031003A0319722801302400EF
:1000B800B4070030B53D722801302400B035B10DC9
:1000C800890B62281030993178218031003A031960
:1000D800722801302400B0070030B13D0130200003
:1000E800A1002108EA072400A401A501DF307F2828
:1000F800131E8528EF302000A10021082700930552
:10010800E3282000911EC12822008E152400B60184
:10011800B7012000A30123001D1D95282000A3017D
:10012800A30A9831C02080312000A1002108A40032
:100138009831B2208031003A0319BE2820002308E4
:10014800013A031DB228A408031DBE28A030FA00F6
:100158008630FB009931FD218031BE28F801F80A6C
:10016800003023001D180130F900200024089D31BB
:10017800B725803120009112E328911CE228210044
:10018800911001302000A10021082200EC07023064
:100198002000A100210822008E0605306C02031CF5
:1001A800DF28210068080319DB280000DD28220069
:1001B8008E142200EC0120009110E328000020009A
:1001C8002208FF007E1009008031EA28E601E701D5
:1001D800E801E901EA012100E801E901EA015F30EB
:1001E8008400013085000F309831AC208031A03078
:1001F8008400013085000F309831AC2080312E30DA
:100208008400023085000C309831AC208031873171
:10021800FB278031EB0022008731FC278031EE007C
:100228002530840099308500203086000230870010
:100238000E309831A6207E1020008E31082E250021
:10024800E0010030240025021430031924020318A9
:1002580032290130A4070030A53D34292000EA01E5
:100268001430240024062504031D080020006A0811
:100278000319080020308B31C523813121009112E8
:100288000B3020006A02031CA32924002F08230036
:10029800A101A10724002E082300A001A00721081E
:1002A800B0002008AF00B036AF0C01302F05B10008
:1002B80000303005B2002108B4002008B300B4367D
:1002C800B30CB436B30CFF3033052000A500003062
:1002D800230034052000A60003302300B5003508AC
:1002E8002000A7009A31A92281312300B600B70166
:1002F80032083706031D822931083606031DA02956
:100308002108B0002008AF00B036AF0CB036AF0CF3
:10031800FF302F05A00000303005A10020089D31D6
:100328000D2581312300AF00B0012F08A00030084F
:10033800A1002100EB01A3292300A001A10116308F
:1003480020006A02031C042A240033082300A501A4
:10035800A507240032082300A401A4072508B0003B
:100368002408AF00B036AF0C01302F05B1000030C3
:100378003005B2002508B4002408B300B436B30C25
:10038800B436B30CFF3033052000A500003023003D
:1003980034052000A60003302300B50035082000EE
:1003A800A7009A31A92281312300B600B70132088B
:1003B8003706031DE12931083606031DFF292508E4
:1003C800B0002408AF00B036AF0CB036AF0CFF3029
:1003D8002F05A40000303005A50024089D310D2507
:1003E80081312300AF00B0012F08A4003008A50018
:1003F8002100EB01042A2300A001A101A401A50109
:10040800213020006A02031C672A240035082300D3
:10041800A701A707240034082300A601A607270878
:10042800B0002608AF00B036AF0C01302F05B10080
:1004380000303005B2002708B4002608B300B436EF
:10044800B30CB436B30CFF3033052000A5000030E0
:10045800230034052000A60003302300B50035082A
:100468002000A7009A31A92281312300B600B701E4
:1004780032083706031D422A31083606031D602A52
:100488002708B0002608AF00B036AF0CB036AF0C66
:10049800FF302F05A60000303005A70026089D3143
:1004A8000D2581312300AF00B0012F08A6003008C8
:1004B800A7002100EB01672A2300A001A101A401E4
:1004C800A501A601A7012C3020006A02031CCC2A32
:1004D800240031082300A301A307240030082300C7
:1004E800A201A2072308B0002208AF00B036AF0C63
:1004F80001302F05B10000303005B2002308B400E8
:100508002208B300B436B30CB436B30CFF3033054D
:100518002000A5000030230034052000A600033089
:100528002300B50035082000A7009A31A92281319F
:100538002300B600B70132083706031DA52A310883
:100548003606031DC32A2308B0002208AF00B036C0
:10055800AF0CB036AF0CFF302F05A20000303005CD
:10056800A30022089D310D2581312300AF00B00181
:100578002F08A2003008A3002100EB01CC2A230099
:10058800A001A101A401A501A601A701A201A3013F
:100598002300230822040319E72AF0302006210447
:1005A80003191C2CF0302406250403191C2CF030E8
:1005B8002606270403191C2CF030220623040319ED
:1005C8001C2C00001C2C23002708260403193C2B94
:1005D800F03020062104031D172BF03026062704CF
:1005E8000319172BE030200621040319172BE030DC
:1005F800240625040319172BE030260627040319BF
:10060800172B26089931B1218131003A0319172B8C
:1006180023002708A101A1072608A001A007A4011B
:10062800A501A601A701E030230020062104031D2F
:100638001C2CF03024062504031D1C2C1130260622
:100648002704031D2A2B2200E7011C2C1430230049
:1006580026062704031D332B2200E8011C2C7130C9
:10066800230026062704031D1C2C2200E6011C2C4F
:1006780023002508240403191C2CF030200621042B
:10068800031DC12B123024062504031D4D2BAD017B
:10069800622B593024062504031D542BAA01622B12
:1006A800143024062504031D5C2B2200EA01622B6A
:1006B80011302300240625040319AC015930230006
:1006C8002406250403196D2B123024062504031D66
:1006D800B92BAD08031D1C2CAA08031D1C2CED30DA
:1006E8008C31692481310038031D832B00308C3113
:1006F800692481310038031D832B2300AE012300B8
:1007080029080319A02BA8010A30280203181C2C59
:10071800ED308C31692481310038031D9A2B043067
:100728008C3169248131003803191C2C01302300D5
:10073800AF002F08A807882BA8010A302802031841
:100748001C2CED308C31692481310038031DB32B0A
:1007580000308C3169248131003803191C2C013098
:100768002300AF002F08A807A12B58302406250422
:10077800031D1C2C2200E4011C2CE0302300200661
:100788002104031D1C2C113024062504031DD02B25
:100798002200E701E70AE32B14302300240625048E
:1007A800031DDA2B2200E801E80AE32B713023004D
:1007B80024062504031DE32B2200E601E60A250092
:1007C800DC01DC0A2200E708031DF02B2300AC083B
:1007D800031DF02B2500DC012500DD01DD0A2200C8
:1007E800EA08031DFC2BE808031DFC2B2500DD018E
:1007F800220066082300AF00B00125005D085C07F1
:100808002300B100B201B20D2F083107B300300840
:10081800323DB40003303306340403191C2C240879
:1008280099319E2181312300AF002F082500E00077
:100838002300210820040319752D25082404031D0D
:10084800752D27082604031D752D23082204031D72
:10085800752D123020062104031D352CAD01AD0A7B
:100868003C2C593020062104031D3C2CAA01AA0A5D
:100878002D08013A031D442C22006B0803194D2C46
:1008880023002A08013A031D8D2C2200E908031DC4
:100898008D2CED308C31692481310038031D8D2C6D
:1008A800230029080319712CA8010A30280203180B
:1008B8008D2CED308C31692481310038031D6B2C6F
:1008C80005308C3169248131003803198A2C0130B4
:1008D8002300AF002F08A807592CA801782C013055
:1008E8002300AF002F08A8070A30280203188D2C10
:1008F800ED308C31692481310038031D732C0130AF
:100908008C31692481310038031D732C2300AE011A
:10091800AE0A1430230020062104031D972C220060
:10092800EA01EA0A752D1130230020062104031D6F
:10093800A02CAC01AC0A752DEE3020062104031D55
:10094800AB2C0130AF002F082100E900752D58307D
:10095800230020062104031D2C2D2200E401E40AB3
:10096800E508031D752D230029080319F32C2E080B
:100978000319D72CA8010A3028020318752DED3069
:100988008C31692481310038031DD12C01308C3120
:100998006924813100380319EA2C01302300AF00A3
:1009A8002F08A807BF2CA8010A3028020318752DA4
:1009B800ED308C31692481310038031DED2C003075
:1009C8008C31692481310038031DED2C2300A901E5
:1009D800752D01302300AF002F08A807D82C2E084A
:1009E80003190F2DA8010A3028020318752DED30C0
:1009F8008C31692481310038031D092D05308C3173
:100A08006924813100380319222D01302300AF00F9
:100A18002F08A807F72CA8010A3028020318752DFB
:100A2800ED308C31692481310038031D262D0430C6
:100A38008C31692481310038031D262D2300A9013A
:100A4800A90A752D01302300AF002F08A807102D23
:100A58002E08013A031D4D2D20089931B12181310D
:100A68002300AF002F082500E00023002908031900
:100A7800672D413025006002031C662D5B30600243
:100A88000318662D20302300AF002F082500E0074B
:100A9800662D2300200899318B2181312300AF0076
:100AA8002F082500E000230029080319672D61306D
:100AB80025006002031C662D7B3060020318662D3A
:100AC8002030E00223002500E008031D752D2300D7
:100AD80020089931432181312300AF002F082500D8
:100AE800E0002500DE01DE0A2200E708031D822D52
:100AF8002300AC08031D822D2500DE012500DF013F
:100B0800DF0A2200EA08031D8E2DE808031D8E2D3A
:100B18002500DF01220066082300AF00B001250090
:100B28005F085E072300B100B201B20D2F0831073C
:100B3800B3003008323DB400033033063404031DDB
:100B48001A2E56302000B4008B30B5009B3170232C
:100B5800813100302000A8000030A7002730A6000F
:100B68001030A5009031022081312200E308031DD6
:100B7800E72D00302000E9000030E8000030E700F1
:100B88000030E6002300AB012200E301E30A7F30D6
:100B98002000B4008B30B5009B31702381310030C8
:100BA8002000A8000030A7002730A6001030A500BC
:100BB8009031022081312000AD01AE013E309E31DE
:100BC8000F268131122E00302000E9000030E800A5
:100BD8002530E7008030E600FB30B4008930B500EE
:100BE8009B317023813100302000A8000030A7001D
:100BF8002730A6001030A500903102208131200056
:100C08006908D7006808D6006708D5006608D400C8
:100C1800D80196319B2681312200E3012200EA01A6
:100C2800E801E7012300AC012200E6012500600885
:100C38000319B12F6008013A031D2B2EA0302000A4
:100C4800AF008630B0009A3122228131B02F2200C5
:100C5800E308031D5C2E2000AD01AE0125006008ED
:100C68009E310F268131250060080D3A031DB12FF2
:100C780000302000A8000030A7001330A6008830FC
:100C8800A5009031022081312000AD01AE010A306B
:100C98009E310F26813100302000A8000030A700C7
:100CA8002730A6001030A500903102208131B02FE6
:100CB80025006008993117218131003A0319AA2EBD
:100CC80000302000A8000030A7000030A6000A303D
:100CD800A5006908AC006808AB006708AA006608A8
:100CE800A9009A317922813120002808E9002708D3
:100CF800E8002608E7002508E60025006008D03E41
:100D08002300AF00FF3003180030B0002F08B100F7
:100D18003008B2000030B21BFF30B300B400310815
:100D28002000E607230032082000E73D23003308AF
:100D38002000E83D230034082000E93DAD01AE0164
:100D4800250060089E310F268131B02F25006008EC
:100D58006F3A0319B32E60084F3A031DBF2E2300C4
:100D6800AB01AB0A2000AD01AE01250060089E3141
:100D78000F268131B02F25006008653A0319C82E67
:100D88006008453A031DD62E02302300AF002F0815
:100D9800AB002000AD01AE01250060089E310F2692
:100DA8008131B02F250060086D3A0319DF2E6008E5
:100DB8004D3A031DED2E03302300AF002F08AB0082
:100DC8002000AD01AE01250060089E310F2681315B
:100DD800B02F25006008733A0319F62E6008533ABD
:100DE800031D042F04302300AF002F08AB002000A0
:100DF800AD01AE01250060089E310F268131B02F6C
:100E0800250060080D3A031DB12F56302000B400AC
:100E18008B30B5009B317023813100302000A80051
:100E28000030A7002730A6001030A500903102201E
:100E38008131003020006902031D2C2F0030680228
:100E4800031D2C2F09306702031D2C2F603066020A
:100E5800031C9A2F00306902031D3C2F01306802E1
:100E6800031D3C2FC2306702031D3C2F0130660270
:100E780003189A2FA030BD000230BE004E30BF00CC
:100E88008A30C0006908C4006808C3006708C20047
:100E98006608C10094319F248131A0302000B4003D
:100EA8000230B5009B317023813123002B080319D0
:100EB8007F2F722FEE302000B4008A30832FBE308F
:100EC8002000B4008A30832FA3302000B4008B3078
:100ED800832F91302000B4008B30832F23002B0800
:100EE800013A03195E2F033A0319632F013A0319D4
:100EF800682F6D2F872F11302000B4008A30B5007D
:100F08009B317023813120006908D7006808D6001A
:100F18006708D5006608D40023002B08AF002F0807
:100F28002000D80096319B268131AE2F6F302000EB
:100F3800B4008A30B5009B31702381310030200025
:100F4800A8000030A7002730A6001030A500903177
:100F5800022081312200E30125002300A001A10124
:100F6800A401A501A601A701A201A3012400AE01C5
:100F7800AF01B201B301B401B501B001B101220062
:100F880064082300AF002F082200E50023002D0885
:100F9800AF002F082200EB0023002A08AF002F081B
:100FA8002200E900EF302300AF002F0822008E0551
:100FB8002100911620309931C4212000080020001A
:100FC8002F08A5003008A600A701A8019630B30095
:100FD8003308A900AA019F31952720002808B200EC
:100FE8002708B1002608B0002508AF000800013422
:020FF8000134C2
:101000000034113400340C340A34063407341434F8
:101010000034123410340E340B34003400340034F5
:1010200000341C34003400341A34003400340034EA
:101030000034003400340034003400340034003410
:101040000034003400340034003400340034003400
:1010500000340034003400340034003400340034F0
:1010600000340034003400340034003400340034E0
:1010700000340034003400340034003400340034D0
:1010800000340034003400340034003400340034C0
:1010900000340034003400340034003400340034B0
:1010A00000340034003400340034003400340034A0
:1010B0000034003400340034003400340034003490
:1010C0000034003400340034003400340034003480
:1010D0000034003400340034003400340034003470
:1010E0000034003400340034003400340034003460
:1010F000133400340034003400340034003400343D
:101100000034003400340F340934603400340034C7
:10111000003400340034003471343134003400348D
:1011200000347A3473346134773432340034003428
:101130006334783464346534343433340034003404
:1011400020347634663474347234353400340034E8
:101150006E346234683467347934363400340034A1
:1011600000346D346A347534373438340034003424
:101170002C346B3469346F343034393400340034F7
:101180002E342F346C343B3470342D34003400341E
:101190000034273400345B343D34003400340034F0
:1011A00000340D345D3400345C34003400340034D9
:1011B0000034003400340034003408340034003487
:1011C00031340034343437340034003400343034B3
:1011D0002E3432343534363438341B340034003451
:1011E0002B3433342D342A34393409347E340034EA
:1011F00000340034003400340034513421340034DD
:10120000003400345A3453344134573440340034B9
:1012100000344334583444344534243423340034C3
:101220000034203456344634543452342534003497
:1012300000344E3442344834473459345E34003438
:10124000003400344D344A34553426342A340034C2
:1012500000343C344B3449344F342934283400347E
:1012600000343E343F344C343A3450345F3400342C
:1012700000340034223400347B342B340034003406
:10128000003400340D347D3400347C3400340034B8
:1012900000340034003400340034003408340034A6
:1012A0000034313400343434373400340034003402
:1012B00030342E3432343534363438341B34003440
:1012C00000342B3433342D342A3439341E34003472
:1012D00000341F340034003400340034003400344F
:1012E0000034003400340034193400340034003445
:1012F00000340034003400341D3400340034003431
:10130000003400340034003400340034003400343D
:10131000003400340034003400340034003400342D
:10132000003400340034003400340034003400341D
:1013300000340034003400340034003400342F34DE
:1013400000340034003400340034003400340034FD
:1013500000340034003400340034003400340D34E0
:1013600000340034003400340034003400340034DD
:1013700000340034003400340034003401340034CC
:101380000334163400340034003415347F3404340C
:10139000003405340234003400340034003418348E
:1013A00000340034173401340034003400340A347B
:1013B0000034003400346434003400340034E83441
:1013C0000334003400341034273400340034A034A3
:1013D000863401340034403442340F3400348034D5
:1013E0009634983400340034E134F5340534003454
:1013F000CA349A343B344B346534793442346F34D4
:101400006134723464342034523465347334653456
:101410007434203474346F342034393436343034F6
:1014200030342034773469347434683420346E3482
:101430006F342034703461347234693474347934E4
:1014400020346234693474340D340A340034543432
:101450006F3420344334683461346E346734653417
:1014600020344234413455344434203468346934AF
:1014700074342034223443344E34543420342B34E6
:10148000203441344C34543420342B34203444340C
:1014900045344C3422340D340A3400344B34653432
:1014A000793442346F3461347234643420344234D9
:1014B0006134753464342034773469346C346C347A
:1014C0002034623465342034733465347434203409
:1014D00074346F34203425346C34753400344B3418
:1014E0006534793442346F34613472346434203476
:1014F000423461347534643420344F347534743478
:1015000020346F3466342034523461346E3467349E
:1015100065340D340A340034503453342F343234AB
:1015200020344B346534793462346F34613472342E
:101530006434203474346F342034523453342D34B2
:101540003234333432340D340A3400344B3465349D
:10155000793442346F34613472346434203450341A
:1015600072346F346734723461346D3420344634ED
:10157000613469346C340D340A34003420347734E7
:1015800069347434683420344534763465346E34C8
:1015900020347034613472346934743479342034D2
:1015A0006234693474340D340A3400344E346F3488
:1015B00020344B346534793462346F34613472349E
:1015C0006434203463346F346E346E346534633481
:1015D0007434653464340D340A3400342034773480
:1015E00069347434683420344F34643464342034BF
:1015F0007034613472346934743479342034623430
:10160000693474340D340A34003449346E34693426
:101610007434693461346C3469347A3461347434C8
:1016200069346F346E3420344634613469346C3438
:101630000D340A3400344B346534793442346F3419
:101640006134723464342034423461347534643427
:10165000203469347334203425346C3475340034C8
:101660004B346534793462346F34613472346434A9
:10167000203443346F346E346E34653463347434E0
:10168000653464340D340A34003456346F346C34A9
:101690007434613467346534203474346F346F3497
:1016A0002034483469346734683421340D340A34C2
:1016B000003456346F346C347434613467346534B8
:1016C000203474346F346F3420344C346F347734B6
:1016D00021340D340A3400344634693472346D34A4
:1016E000773461347234653420345634653472345E
:1016F000733469346F346E343A34203400344534F2
:101700006E34743465347234203442346134753448
:101710006434203472346134743465340D340A34E2
:1017200000342034773469347434683420345334CA
:101730007034613463346534203462346934743411
:101740000D340A3400342034773469347434683406
:1017500020344D34613472346B3420346234693453
:1017600074340D340A3400344B34653479346234C3
:101770006F346134723464342034503461347334DF
:10178000733421340D340A3400342000A6002608B6
:10179000203A031DD72BDF30A5002508270092052E
:1017A000DF302000A5002508270093050800EF3052
:1017B0002000A500250827009205EF302000A50095
:1017C000250827009305080002309C3125248B3121
:1017D000200030082100A501A50720002F082100C6
:1017E000A401A4079831B9208B31033022001705DA
:1017F0002000E0006008033A031D052C02302100A0
:10180000A435A50D890B002C142C033022001705DC
:101810002000E0006008023A031D142C0130210072
:10182000A435A50D890B102C40302000CB00B6301C
:10183000CA006630C9006630C8004430B7007A304C
:10184000B6000030B5000030B400210025082000AB
:10185000B001B007210024082000AF01AF07873195
:10186000E3278B3120003208BB003108BA00300872
:10187000B9002F08B800903137208B31200037088D
:10188000CF003608CE003508CD003408CC009031AA
:10189000F82020004B082100A30020004A08210066
:1018A000A200200049082100A100200048082100D2
:1018B000A00023082000DF00210022082000DE0015
:1018C000210021082000DD00210020082000DC008C
:1018D00008002000B400B5013408AF00B0012F08A3
:1018E000A5003008A6000330B1003108A7009A31E6
:1018F000A9228C312000B2003208B300B601B70132
:1019000000309831DC208C3100309831E7208C3168
:10191000DF302000AF002F0822008C0500302000AF
:10192000A8000030A7000130A6002C30A50090319F
:1019300002208C31EF302000AF002F0822008C05F0
:1019400000302000A8000030A7000030A6001430AE
:10195000A500903102208C3101309831DC208C318F
:101960002000B601B7012030993166218C31003852
:101970000319D02C000001302000B6070030B73D1D
:101980003A303702993003193602031CB32C013068
:101990009831DC208C3101309831E720013008008B
:1019A0002000B5010830350203182C2D341CDB2C27
:1019B00022000C16E12CEF302000AF002F0822008F
:1019C0008C0503102000B40CB601B701203099310A
:1019D00066218C31003A031D032D000001302000E8
:1019E000B6070030B73D3A30370299300319360256
:1019F000031CE62C01309831DC208C310130983109
:101A0000E720013008002000B601B70120309931ED
:101A100066218C3100380319232D0000013020008D
:101A2000B6070030B73D3A30370299300319360215
:101A3000031C062D01309831DC208C3101309831A7
:101A4000E7200130080001302000AF002F08B50763
:101A500008303502031CD62C331C312D22000C1605
:101A6000372DEF302000AF002F0822008C0520001A
:101A7000B601B7012030993166218C31003A031D3F
:101A8000572D000001302000B6070030B73D3A3036
:101A90003702993003193602031C3A2D0130983170
:101AA000DC208C3101309831E72001300800200023
:101AB000B601B7012030993166218C310038031905
:101AC000772D000001302000B6070030B73D3A30D6
:101AD0003702993003193602031C5A2D0130983110
:101AE000DC208C3101309831E720013008000130D2
:101AF0009831E7208C312000B601B70110309931C0
:101B000066218C31003803199B2D00000130200024
:101B1000B6070030B73D3A30370299300319360224
:101B2000031C7E2D01309831DC208C31013098313E
:101B3000E720013008002000B601B70120309931BC
:101B400066218C3100380319BB2D000001302000C4
:101B5000B6070030B73D3A303702993003193602E4
:101B6000031C9E2D01309831DC208C3101309831DE
:101B7000E720013008002000B601B701103099318C
:101B800066218C31003A031DDB2D0000013020005E
:101B9000B6070030B73D3A303702993003193602A4
:101BA000031CBE2D01309831DC208C31013098317E
:101BB000E720013008002000B601B701203099313C
:101BC00066218C31003A031DFB2D000001302000FE
:101BD000B6070030B73D3A30370299300319360264
:101BE000031CDE2D01309831DC208C31013098311E
:101BF000E7200130080001309831DC208C310130C1
:101C00009831E7208C3120309931C4210030080010
:101C10002100E701993154218E319931D9218E313A
:101C2000953193258E319831FD208E312100E701C9
:101C30000A3067020318462E22000E1600302000DC
:101C4000A8000030A7002730A6001030A500903172
:101C500002208E31EF302000E500650822008E055D
:101C600000302000A8000030A7002730A600103068
:101C7000A500903102208E3101302000E50065087A
:101C80002100E7070A306702031C1C2E20308B312D
:101C9000C5238E3156302000B4008B30B5009B3107
:101CA00070238E3100302000A8000030A7002730BC
:101CB000A6001030A500903102208E318C3020001B
:101CC000B4008A30B5009B3170238E310030200083
:101CD000A8000030A7001330A6008830A50090317E
:101CE00002208E316C302000B4008B30B5009B3167
:101CF00070238E312A302000B4000230B5009B31B1
:101D000070238E3156302000B4008B30B5009B31EB
:101D100070238E3100302000A8000030A70013305F
:101D2000A6008830A500903102208E312730200097
:101D3000B4008A30B5009B3170238E310030200012
:101D4000A8000030A7002730A6001030A500903171
:101D500002208E319D3162258E310038031DBD2E4B
:101D60002100EB01EB0A9D3162258E310038031D05
:101D7000BD2E2100EB01EB0ABF2E2100EB016B0809
:101D80000319C72ED6302000B4008A30EA2E303036
:101D90002000B4008B30B5009B3170238E3193311D
:101DA000AC238E310038031DE62E00302000A80041
:101DB0000030A7002730A6001030A5009031022087
:101DC0008E3105302000B4008B30EA2EB430200074
:101DD000B4008B30B5009B3170238E318B31E423FE
:101DE0008E3120005F082200E20020005E08220001
:101DF000E10020005D082200E00020005C082200D5
:101E0000DF0062082000A800220061082000A7006F
:101E1000220060082000A60022005F082000A50024
:101E20004030AC00BB30AB003330AA003330A900E7
:101E30009F312F278E310318222F59302000B400F4
:101E40008B30442F41302000A800A030A700003084
:101E5000A6000030A500220062082000AC0022008D
:101E600061082000AB00220060082000AA002200C8
:101E70005F082000A9009F312F278E310318482FBB
:101E800045302000B4008B30B5009B3170238E317B
:101E900020309931C4218E3121006B082000E500EB
:101EA00065082200EE00813123218E312100EB08EC
:101EB000031D862F22006E08013A031D862F303045
:101EC0002000B4008B30B5009B3170238E319331EC
:101ED000AC238E310038031D7E2F00302000A80077
:101EE0000030A7002730A6001030A5009031022056
:101EF0008E3105302000B4008B30822FB4302000AA
:101F0000B4008B30B5009B3170238E318B31E423CC
:101F10008E3120005F082200E20020005E082200CF
:101F2000E10020005D082200E00020005C082200A3
:101F3000DF0062082000A800220061082000A7003E
:101F4000220060082000A60022005F082000A500F3
:101F50004030AC00BB30AB003330AA003330A900B6
:101F60009F312F278E31031CD32F41302000A80032
:101F7000A030A7000030A6000030A50022006208B3
:101F80002000AC00220061082000AB0022006008A5
:101F90002000AA0022005F082000A9009F312F27FF
:101FA0008E310318E92F01302400B8070030B93D05
:101FB00003303902E93003193802031CEB2F0230D9
:101FC0002000E500650822008E062400B801B90152
:101FD000EB2F22008E1400302400370264300319E6
:101FE0003602031CFA2FF7302000E50065082200B6
:101FF0008E054C2F01302400B6070030B73D4C2F22
:1020040000302000AD000030AC000030AB000030E8
:10201400AA002D08803AA9002808803A2902031D45
:102024001D2827082C02031D1D2826082B02031D2A
:102034001D2825082A0203180800AE0120302E02AC
:1020440003182E28000001302000A9002908AE073B
:1020540020302E02031C24280630AA070030AB3D92
:102064000030AC3D0030AD3D0B2820003808BC00EA
:102074003908BD003A08BE003B08BF0003103E0DFE
:102084003F0DC0004008C600C608031D522800309A
:10209400B7000030B6000030B5000030B4000800CE
:1020A4003408BC003508BD003608BE003708BF0040
:1020B40003103E0D3F0DC0004008C700C708031DB4
:1020C4006C280030B7000030B6000030B500003096
:1020D400B400080089304707BC003C08C602380831
:1020E400BC003908BD003A08BE003B08BF001830E8
:1020F400BF36BE0CBD0CBC0C890B7A283C08C00052
:102104004008C7003408BC003508BD003608BE00CE
:102114003708BF001830BF36BE0CBD0CBC0C890B91
:102124008D283C08C0004008C7068030BC003C082D
:10213400C705BA17FF30B805FF30B905FF30BA0537
:102144000030BB05B617FF30B405FF30B505FF30CE
:10215400B6050030B7052030BC003C08C50001308E
:10216400C135C20DC30DC40D890BB22837083B021B
:10217400031DC62836083A02031DC628350839024D
:10218400031DC62834083802031CD1283408B802B9
:102194003508B93B3608BA3B3708BB3B411401301C
:1021A400B835B90DBA0DBB0D890BD2280130C50263
:1021B400031DB1284408A8004308A7004208A6004C
:1021C4004108A5004608BC003C08A9004708BD001A
:1021D4003D08AA009F31952720002808B70027084A
:1021E400B6002608B5002508B400080020004808F9
:1021F400D0004908D1004A08D2004B08D30003108C
:10220400520D530DD4005408D500D508031D1329CD
:102214000030CB000030CA000030C9000030C800D4
:1022240008004C08D0004D08D1004E08D2004F08D9
:10223400D3000310520D530DD4005408DB00DB0807
:10224400031D2D290030CB000030CA000030C90026
:102254000030C80008005B087B3ED0005008D5075A
:102264004808D0004908D1004A08D2004B08D300DE
:102274001830D336D20CD10CD00C890B3B29500822
:10228400D4005408DB004C08D0004D08D1004E089F
:10229400D2004F08D3001830D336D20CD10CD00C56
:1022A400890B4E295008D4005408DB068030D00036
:1022B4005008DB05CA17CE17FF30CC05FF30CD051B
:1022C400FF30CE050030CF050030D9000030D800F3
:1022D4000030D7000030D6000730D0005008DA00B4
:1022E400481C7C294C08D6074D08D73D4E08D83DDC
:1022F4004F08D93D0130CB36CA0CC90CC80C890B28
:102304007D290130CC35CD0DCE0DCF0D890B84291F
:102314000130DA02031D72291130D0005008DA00AE
:10232400481C9C294C08D6074D08D73D4E08D83D7B
:102334004F08D93D0130CB36CA0CC90CC80C890BE7
:102344009D290130D936D80CD70CD60C890BA42979
:102354000130DA02031D92295908A8005808A70081
:102364005708A6005608A5005508D0005008A90033
:102374005B08D1005108AA009F3195272000280846
:10238400CB002708CA002608C9002508C800080091
:1023940022000E153C008F013D00A20101303C00DB
:1023A4008F009931092191312000C301C2014317E3
:1023B400C31543163708B80038082100EA00200086
:1023C40036082400A300200035082400A2002000C1
:1023D40034082400A100200033082400A0002000B9
:1023E40037080319F729C314FB29FD30B80038084E
:1023F400C305C2153608A8003508A7003408A6008E
:102404003308A5000130AC00E830AB004830AA0026
:102414000030A9009C31BA249131FF3020002507F7
:10242400C400FF30263DC500FF30273DC600FF3005
:10243400283DC700FF30B800FF30B900FF30BA00B4
:10244400FF30BB004408BC004508BD004608BE0080
:102454004708BF000230BF36BE0CBD0CBC0C890B54
:102464002D2A3C08B8073D08B93D3E08BA3D3F084F
:10247400BB3D3B08C7003A08C6003908C500380808
:10248400C4004508C101C1074408C001C0072300B6
:102494001D1220004108A601A6074008A501A507B2
:1024A40043089B31A3239131200042089831C9206D
:1024B40091319831D22091312000B800B901BA018C
:1024C400BB013B08C7003A08C6003908C5003808F4
:1024D400C4009831D22091312000B800B901BA016A
:1024E400BB013B08C7003A08C6003908C5003808D4
:1024F400C4009831D22091312000B800B901BA014A
:10250400BB013B08C7003A08C6003908C5003808B3
:10251400C4009831D22091312000B800B901BA0129
:10252400BB013B08C7003A08C6003908C500380893
:10253400C4009831D2202000B800B901BA01BB010F
:102544003B08C7003A08C6003908C5003808C4006B
:102554003C008F0114303D00A20012303C00A50065
:102564001530A40001308F00200091120B170800D1
:1025740020302000B30033082100E500E201E60129
:10258400650866020318332B01302000B3003308BA
:102594002100E207620820003202031CEF2A3108FE
:1025A400860002308700403FB300413FB400340846
:1025B4003F39B50035082100E000200031088600CD
:1025C400023087000108B30033082100E100023023
:1025D4002000B3003308B107152B3008A601A60765
:1025E4002F08A501A507210066082000B3003308C1
:1025F400A7009B310B239231200026082100E4011F
:10260400E407200025082100E301E30764083F39BB
:102614002000B30033082100E00063082000B30069
:1026240033082100E100210060082000B3002100EC
:102634006608A03E8600870120003308810021003F
:1026440061082000B30021006608C03E86008701AF
:102654002000330881000130B30033082100E6076D
:10266400C22A20003008A601A6072F08A501A50745
:102674009A31DA22923100302000A8000030A700FD
:102684000330A600E830A5009031022092317F305B
:102694002000B30033088B0523001515BF3020003C
:1026A400B300330823009505DF302000B30033085E
:1026B40023009505EF302000B3003308230095056F
:1026C40020003008B4002F08B300B436B30CB4367D
:1026D400B30CB436B30C33087F39230092002000C6
:1026E4002F080739B3000430B335FF3E031D762BA2
:1026F4003335230091002100E601650866020318C2
:10270400A42B6608A03E86008701010823009400DC
:1027140021006608C03E860087010108230093005B
:10272400000000009831F220923101302000B30003
:1027340033082300910701302000B300330821003F
:10274400E6077F2BFB302000B300330823009505F8
:102754008B17080020308B31C5239331ED308C3139
:1027640069249331003A0319B92B00300800003072
:102774002000A8000030A7000030A6006430A500A7
:1027840090310220933101308C3169249331003A25
:102794000319CE2B0030080000302000A8000030C0
:1027A400A7001330A6008830A50090310220933191
:1027B400ED308C3169249331003A0319E32B003056
:1027C400080000302000A8000030A7000030A60058
:1027D4006430A50090310220933104308C31692497
:1027E4009331003A0319F82B003008000030200020
:1027F400A8000030A7001330A6008830A50090314F
:1028040002209331ED308C3169249331003A03195D
:102814000D2C0030080000302000A8000030A70074
:102824000330A600E830A500903102209331023035
:102834008C3169249331003A0319222C00300800AA
:1028440000302000A8000030A7001330A600883014
:10285400A500903102209331ED308C3169249331FD
:10286400003A0319372C0030080000302000A8007B
:102874000030A7000030A6006430A500903102208B
:10288400933100308C3169249331003A03194C2C74
:1028940000300800F4308C3169249331003A031974
:1028A400552C00300800F4308C3169249331003AFF
:1028B40003195E2C00300800F0308C316924933108
:1028C400003A0319672C0030080000302000A800EB
:1028D4000030A7000030A6006430A500903102202B
:1028E400933102308C3169249331003A03197C2CE2
:1028F40000300800F3308C3169249331003A031915
:10290400852C0030080000302000A8000030A7000B
:102914000030A6006430A5009031022093312F309E
:102924008C3169249331003A03199A2C0030080041
:1029340020309931C4210130080041302000C50005
:102944004508D2004008C6003F08C500BF0A031965
:10295400C00A45088400460885000008C7004708E7
:10296400D300D30803198D2D5308253A0319C52C18
:102974003D0886003E088700530881000130BD07EA
:102984000030BE3DA42CCB01CE2C4B16CE2CC03037
:10299400C5004508CB04E52C4008C6003F08C50027
:1029A400BF0A0319C00A45088400460885000008C8
:1029B400D300003A03198D2D6C3A0319C72C193A28
:1029C4000319C92CA42C4B1EF42C52088600870131
:1029D400403FCE00413FCF00423FD000433FD100B3
:1029E4000430022D520886008701403FC500413F54
:1029F400C6004508CE004608CF00D001D101023000
:102A0400C5004508D207D301D30A53080A3A03196B
:102A1400382D5308C500C601C535C60DC535C60DCC
:102A2400D330450784008930463D8500003FC70008
:102A3400013FC800023FC900033FCA004A085102CF
:102A4400031D2E2D49085002031D2E2D48084F0248
:102A5400031D2E2D47084E02031C382D0130C500DE
:102A64004508D30753080A3A031D0B2D5308CC001D
:102A7400CD01CC1BCD03FF30CC07FF30CD3DFF3063
:102A84004D06031D472DFF304C060319A42C0030BE
:102A9400B6000030B5000030B4000A30B3004D0871
:102AA40085004C0884008435850D8435850DD3302C
:102AB40084078930853D003FA500013FA600023F01
:102AC400A700033FA8005108AC005008AB004F0812
:102AD400AA004E08A9009C31BA2494312000280889
:102AE400BA002708B9002608B8002508B7009B31AA
:102AF400E223943120003308303EC5004508D3005A
:102B04003D0886003E088700530881000130BD0758
:102B14000030BE3D3D2D3D0886003E088700810102
:102B2400080000302100DF000030DE000030DD004E
:102B34000030DC000030E4000030E3000030E2004C
:102B44000030E100E001C0302000B7000030B800E0
:102B5400B9019E31CB26953120003A082100DF00CF
:102B6400200039082100DE00200038082100DD00A3
:102B7400200037082100DC00FF305C05E100FF3055
:102B84005D05E2000F305E05E30000305F05E40000
:102B94005C082000D40021005D082000D50021003D
:102BA4005E082000D60021005F082000D700143002
:102BB400D736D60CD50CD40C890BDA2D54080F3922
:102BC400D80058082100E00000306402031DF42DF1
:102BD40000306302031DF42D09306202031DF42D3D
:102BE40060306102031C062E00306402031D042EB3
:102BF40001306302031D042EC2306202031D042E41
:102C040001306102031C0F2E0030E4000030E300A9
:102C14002530E2008030E100E00164082000B600C5
:102C2400210063082000B500210062082000B400E0
:102C3400210061082000B300210060082000D400B6
:102C44005408B7009131CA21953156302000B400A0
:102C54008B30B5009B317023953100302000A800E3
:102C64000030A7002730A6001030A50090310220C4
:102C74009531A0302000BD000030BE001B30BF00E5
:102C84008B30C000210064082000C40021006308C8
:102C94002000C300210062082000C2002100610856
:102CA4002000C10094319F249531A0302000B4004D
:102CB4000030B5009B317023953121006008031961
:102CC400852E782EEE302000B4008A30892EBE3056
:102CD4002000B4008A30892EA3302000B4008B3049
:102CE400892E91302000B4008B30892E2100600899
:102CF400013A0319642E033A0319692E013A0319A0
:102D04006E2E732E8D2E11302000B4008A30B50043
:102D14009B317023953100302000A8000030A700BB
:102D24002730A6001030A500903102208B158B1798
:102D3400080000302200D5000030D4000030D30059
:102D44000030D2000030D9000030D8000030D70065
:102D54000030D600DE01C0302000B6000030B700DD
:102D64005708BB005608BA005508B9005408B80003
:102D74005808D9005908BC009E316D269631C030E0
:102D84002000B7000030B800B9019E31CB2696313F
:102D940020003A082200DD00200039082200DC006F
:102DA400200038082200DB00200037082200DA0067
:102DB400FF305A05D200FF305B05D3000F305C05AD
:102DC400D40000305D05D5005A082000D900220047
:102DD4005B082000DA0022005C082000DB002200EF
:102DE4005D082000DC001430DC36DB0CDA0CD90C76
:102DF400890BF62E59080F39DD00DE01DF01E001F1
:102E040060082200D90020005F082200D8002000BA
:102E14005E082200D70020005D082200D6002000B2
:102E24005708B6005608B5005508B4005408B30056
:102E34005808D9005908B7009131CA219631563043
:102E44002000B4008B30B5009B31702396310030E4
:102E54002000A8000030A7002730A6001030A500ED
:102E64009031022096312200550820005706031D98
:102E74004B2F2200540820005606031D4B2F22001E
:102E8400530820005506031D4B2F22005208200032
:102E94005406031D6A2F5808D900DA01DB01DC014E
:102EA4002200590820005C06031D682F22005808E0
:102EB40020005B06031D682F2200570820005A06D5
:102EC400031D682F220056082000590603197D2F80
:102ED400A630B4008A30B5009B317023963100309F
:102EE4002000A8000030A7002730A6001030A5005D
:102EF4009031022096312200DE010A305E0203186E
:102F0400AC2F0E1600302000A8000030A700273098
:102F1400A6001030A500903102209631EF30200039
:102F2400D900590822008E0500302000A800003086
:102F3400A7002730A6001030A5009031022096315A
:102F440001302000D90059082200DE070A305E0251
:102F5400031C832F20302000BD000130BE001B3035
:102F6400BF008B30C0005708C4005608C300550882
:102F7400C2005408C10094319F24963120302000AF
:102F8400B4000130B5009B317023963120005808FD
:102F94000319ED2FE02FEE30B4008A30F02FBE304D
:102FA4002000B4008A30F02FA3302000B4008B300E
:102FB400F02F91302000B4008B30F02F20005808FF
:102FC400013A0319CD2F033A0319D12F013A0319FA
:102FD400D62FDB2FF42F1130B4008A30B5009B318B
:102FE4007023963100302000A8000030A70027305D
:0C2FF400A6001030A5009031022008005B
:10314C00FE0012001E00FE0BA72800346400800154
:10315C000131890BAD28003420000E1CB72801303A
:10316C00080000300800FE302000A50025082100D2
:10317C009D05080023009D181D121908F000700809
:10318C00F100710808002000A50023009F01200019
:10319C00250823009F00080023009D181D12190804
:1031AC002000A5002508A600260808002000A50080
:1031BC00A508031DE42821008C12080021008C16A0
:1031CC0008002000A500A508031DEF2821000C1203
:1031DC00080021000C160800553023009600AA3078
:1031EC00960095149518F82800000000080001308E
:1031FC009831DC20983101309831E720983120301B
:10320C009931332108004F302000A50025082300F8
:10321C009D059E12CF302000A500250821009105A8
:10322C0008002000A50030302502031C23293A3069
:10323C0025020318232901300800003008008034CF
:10324C002534003400341434003400340034803419
:10325C00253431342E34323400342000A5002700BC
:10326C009101920120002508203A031D40292700D6
:10327C00921608002700121608002000A5008430C2
:10328C002502031852292508003E840088300318B3
:10329C00013E85000008080000300800F0302100D5
:1032AC00990000301A1801301A05031957294030BB
:1032BC002000A500250821009A05031D08005D29A2
:1032CC002000A5002508203A031D72298C1E7029A8
:1032DC0001300800003008000C1E7629013008006F
:1032EC0000300800F0007008203A031D84292000EB
:1032FC008C1E8229013008000030080020000C1EB2
:10330C00892901300800003008002000A5000D308C
:10331C00A5027130250203189C292508843E8400DF
:10332C0088300318013E85000008080000300800B2
:10333C002000A5001130A5026D3025020318AF291D
:10334C002508663E840089300318013E850000087C
:10335C000800003008002000A5000D30A5027130D7
:10336C0025020318C2292508F53E8400883003186D
:10337C00013E850000080800003008002000A6006F
:10338C002608203A031DD129DF30A5002508270087
:10339C00930592160800EF302000A50025082700A1
:1033AC0093051216080022008E018C0121000E11CB
:1033BC008E108E110E120C150E148E1622008E14F9
:1033CC003C008F0114303D00A20012303C00A500DF
:1033DC001530A40001308F0023008C010C158E01D8
:1033EC0021009513203024008E008C01080022004F
:1033FC000E153C008F013D00A20101303C008F00F6
:10340C00FB30FC007C0822008E057A08F0007B085B
:10341C00F100F201F3019B313D2322000E153C001B
:10342C008F0114303D00A20012303C00A500153075
:10343C00A40001308F00080022000E153C008F0103
:10344C003D00A20101303C008F00FB302000B10098
:10345C00310822008E0520002F08A5003008A60098
:10346C00A701A8019031022022000E153C008F010B
:10347C0014303D00A20012303C00A5001530A40011
:10348C0001308F000800F701F6017108F501F5070E
:10349C007008F401F407F701083077020318692A61
:1034AC00741C5C2A0130F3007308F6070130F53602
:1034BC00F40C890B5D2A0130F3007308F707083010
:1034CC007702031C562A7208033A031D732A7618D6
:1034DC00712A0130080000300800761C772A013070
:1034EC0008000030080000302000B0000030AF00B1
:1034FC000030AE000030AD00251C8C2A2908AD0729
:10350C002A08AE3D2B08AF3D2C08B03D0130A93543
:10351C00AA0DAB0DAC0D890B8D2A0130A836A70C6A
:10352C00A60CA50C890B942A28082704260425042C
:10353C00031D822A3008A8002F08A7002E08A60019
:10354C002D08A50008002000AC01AB012608AA013B
:10355C00AA072508A901A907AC0108302C020318F9
:10356C00CA2A291CBD2A0130A8002808AB07013043
:10357C00AA36A90C890BBE2A0130A8002808AC0772
:10358C0008302C02031CB72A2708033A031DD42A3F
:10359C002B18D22A01300800003008002B1CD82A26
:1035AC0001300800003008007F302000A7002708F9
:1035BC008B05BF30A700270823009505200026089F
:1035CC00A8002508A700A836A70CA836A70CA83673
:1035DC00A70C27087F392300920020002508073903
:1035EC00A7000430A735FF3E031DF82A273523001A
:1035FC009100151615159831F220FB302000A7000C
:10360C002708230095058B170800BF302000A80061
:10361C0028082300950520002608A9002508A800E5
:10362C00A936A80CA936A80CA936A80C28087F39ED
:10363C0023009200200025080739A8000430A83583
:10364C00FF3E031D252B2835270723009100151459
:10365C0015182E2B00000000230014082000A601D2
:10366C00A607230013082000A501A50708000030B9
:10367C00F8000030F7000030F6000030F500780854
:10368C00803AF4007308803A7402031D572B7208B9
:10369C007702031D572B71087602031D572B7008F8
:1036AC00750203180800F901203079020318672B02
:1036BC0000000130F4007408F90720307902031C73
:1036CC005E2B0630F5070030F63D0030F73D00303C
:1036DC00F83D452B00302000A8000030A700133027
:1036EC00A6008830A500903102209B3120003408C0
:1036FC008400350885000008003A0319922BAD01AF
:10370C00AE01340884003508850000089E310F2670
:10371C009B3123009E1C8F2B20003508B7003408EA
:10372C00B600B40A0319B50A3608840037088500B8
:10373C000008003803190800702B2000A700230094
:10374C009E019D012000271CAD2B23001E1620007E
:10375C00A71CB32B23001E171D172000271DB82BE9
:10376C0023009E172000A71DBE2B23001D16C02B67
:10377C0023009D162000271EC52B23001E1520009C
:10378C00271FCC2B911221009116CE2B21009112C8
:10379C002000A71FD52B111221001116D72B2100A9
:1037AC0011122000250823009B002000260823006E
:1037BC009C009E169D170800200036083504340422
:1037CC00330403191C2CBC01BC0AB61BF92B0130A9
:1037DC00B335B40DB50DB60D890BEE2B0130BB0016
:1037EC003B08BC07EB2B36083A02031D072C3508A7
:1037FC003902031D072C34083802031D072C33082B
:10380C003702031C112C3308B7023408B83B3508B7
:10381C00B93B3608BA3B0130B636B50CB40CB30C18
:10382C00890B122C0130BC02031DF92B3A08B6008F
:10383C003908B5003808B4003708B3000800200078
:10384C00B30021009D019E0150302000B1003108D1
:10385C0021009E042200971703302000B10031088C
:10386C0022009704171F382C20003308B1000130B8
:10387C00B135FF3E031D3E2C3135B200320821001C
:10388C009D0483302000B100310821009E041D14DA
:10389C00111300302000A8000030A7000030A60053
:1038AC000530A500903102209C3121009D149D18FB
:1038BC005D2C1C082000B001B00721001B08200063
:1038CC00AF01AF07080000302000B6000030B50093
:1038DC000030B4000030B3002B08A601A6072A085C
:1038EC00A501A5072C08AE002E08A7009B310B23C1
:1038FC009C3120002508AF002608B000B101B201B0
:10390C001030AF35B00DB10DB20D890B872C3208CC
:10391C00B6003108B5003008B4002F08B3002B08EE
:10392C00A601A6072A08A501A5072C08013EAE0092
:10393C002E08A7009B310B2320002508AF0026087A
:10394C00B000B101B2012F08B3043008B40431083F
:10395C00B5043208B6043608AD003508AC0034089E
:10396C00AB003308AA00080000302000B100003082
:10397C00B0000030AF000030AE0028082704260449
:10398C0025040319042DB201B20AA81BD92C01304D
:10399C00A535A60DA70DA80D890BCE2C0130AD00B9
:1039AC002D08B207CB2C0130AE35AF0DB00DB10DDB
:1039BC00890BDA2C28082C02031DEE2C27082B026D
:1039CC00031DEE2C26082A02031DEE2C25082902C5
:1039DC00031CF92C2508A9022608AA3B2708AB3B97
:1039EC002808AC3B2E140130A836A70CA60CA50C4D
:1039FC00890BFA2C0130B202031DD92C3108A80016
:103A0C003008A7002F08A6002E08A50008002000EB
:103A1C00A800A70128080139A5000630A535FF3EEE
:103A2C00031D142D2535A6002608A70728080239E2
:103A3C00A5000430A535FF3E031D202D2535A6001D
:103A4C002608A70728080439A5000230A535FF3E33
:103A5C00031D2C2D2535A6002608A7072808083994
:103A6C000907A5002508A70728360839A500250849
:103A7C00A7072808A5000330A536890B422D250879
:103A8C000439A6002608A7072808A5000530A53686
:103A9C00890B4D2D25080239A6002608A7072808F2
:103AAC00A5000730A536890B582D25080139A6002D
:103ABC002608A7072708080000302000E400003083
:103ACC00E3000030E2000030E1002100E901EE30BB
:103ADC008C3169249D3120309931C4219D310030C5
:103AEC002000E4000030E3000030E2000030E10090
:103AFC00882D01302000E1070030E23D0030E33D2D
:103B0C000030E43D00306402031D962D003063024A
:103B1C00031D962D13306202031D962D8830610211
:103B2C000318AB2D813123219D3100302000A800DA
:103B3C000030A7000030A6000A30A500903102200A
:103B4C009D312100690803197F2D20308B31C5234D
:103B5C009D31210069080319B52D01300800003092
:103B6C0008002000A00023001E1FFC2DF8080319DC
:103B7C00E62DF32D20002008FA00FB017A08F00056
:103B8C007B08F1000330D32D20002008FA00FB0144
:103B9C007A08F0007B08F1000230FC007C08F2008F
:103BAC009A3149229D31FD0023001E087D06FE3905
:103BBC007D06FB2D23001E14FC2D23001E10FC2D56
:103BCC0021006A08013A0319C02D033A0319CA2DC2
:103BDC00013A0319E02DE32DFC2D01307905FA0093
:103BEC0023001E087A06FE397A069E002000200863
:103BFC000A3A031D092E780803190800200823002F
:103C0C009A00200008002000200823009A002000C1
:103C1C0008002000B30023001E1F5A2E2000AD0800
:103C2C000319412E4E2E20003308AF00B0012F088F
:103C3C00A5003008A60003302C2E20003308AF005E
:103C4C00B0012F08A5003008A6000230B1003108E1
:103C5C00A7009A31A9229E312000B20023001E0831
:103C6C0020003206FE393206582E23001E145A2E1E
:103C7C0023001E105A2E21006A08013A0319192E2E
:103C8C00033A0319232E013A03193B2E3E2E5A2ECA
:103C9C00013020002E05AF0023001E0820002F0647
:103CAC00FE392F0623009E00200033080A3A031D1C
:103CBC00672E2D0803190800330823009A002000F2
:103CCC0008002000330823009A0020000800200080
:103CDC003C080739BD00BE01BF01C0011430BD3521
:103CEC00BE0DBF0DC00D890B752EFF303805C10000
:103CFC00FF303905C2000F303A05C30000303B05D8
:103D0C00C4004108BD074208BE3D4308BF3D4408FE
:103D1C00C03D4008C8003F08C7003E08C6003D082B
:103D2C00C500FF3045052400A8003F3020004605A3
:103D3C002400A90020004508BD004608BE00470825
:103D4C00BF004808C0000E30C036BF0CBE0CBD0C06
:103D5C00890BAA2EFF303D052400A6003F30200021
:103D6C003E052400A70020003708B001B007360834
:103D7C00AF01AF072630BD003D08B1000230BE00D8
:103D8C003E08B2009231BA22080020003808AB017C
:103D9C00AB073708AA01AA073908BB003B08AC00DF
:103DAC009C3169249E3120002D08C6002C08C500CA
:103DBC002B08C4002A08C300FF3043052400A800C8
:103DCC003F30200044052400A90020004308BB001C
:103DDC004408BC004508BD004608BE000E30BE3687
:103DEC00BD0CBC0CBB0C890BF52EFF303B05240025
:103DFC00A6003F3020003C052400A7002808200026
:103E0C00BB00240029082000BC00BD01BE01240019
:103E1C0026082000BF00240027082000C000C10194
:103E2C00C2010C30BF35C00DC10DC20D890B182F4E
:103E3C003F08BB074008BC3D4108BD3D4208BE3DA4
:103E4C003E08BA003D08B9003C08B8003B08B70072
:103E5C0008002000A81F592F0030AD000030AE0024
:103E6C000030AF008030B0002509B1002609B20047
:103E7C002709B3002809B400B10A0319B20A0319BF
:103E8C00B30A0319B40A3108AD073208AE3D330842
:103E9C00AF3D3408B03D3008A8002F08A7002E080D
:103EAC00A6002D08A500AC1F822F0030AD000030FD
:103EBC00AE000030AF008030B0002909B1002A09F3
:103ECC00B2002B09B3002C09B400B10A0319B20AD1
:103EDC000319B30A0319B40A3108AD073208AE3D11
:103EEC003308AF3D3408B03D3008AC002F08AB00B0
:103EFC002E08AA002D08A9008030A8068030AC0638
:103F0C002C082802031D08002B082702031D08009B
:103F1C002A082602031D0800290825020800200093
:103F2C00290803199F2F2808270426042504031D9C
:103F3C00B32F0030A8000030A7000030A6000030DE
:103F4C00A50008000130AB002B08A9070130A836EA
:103F5C00A70CA60CA50C890BAD2FFE302805031958
:103F6C00CB2FA82F0130AB002B08A9070130A507D8
:103F7C000030A63D0030A73D0030A83D0130A836EA
:103F8C00A70CA60CA50C890BC52FFF30280503190F
:103F9C00D92FB82F0130A9020130A535A60DA70DD8
:103FAC00A80D890BD32FA71FD02F2918E52FFF3071
:103FBC00A505FF30A6057F30A705FF30A805031027
:103FCC00A90C2908AB00AC01AD01AE011830AB3522
:103FDC00AC0DAD0DAE0D890BED2F2B08A5042C08E7
:103FEC00A6042D08A7042E08A8042A080319080003
:043FFC00A8170800FA
:020000040001F9
:04000E0064CFFBFEC2
:00000001FF
