:040000008031AC2877
:100008007E14803120007F08EF002100C201270004
:10001800931E7528203099314B2180312100911091
:10002800911222000E1601302000EE006E08210009
:10003800D1070130C835C90D890B1E2800001030C2
:100048009931A4218031003A03192F280130210069
:10005800C8070030C93D210051080B3A031D60282C
:100068000C30500203185D284908F901F9074808BF
:10007800F801F8079E311826803178082000EE0034
:100088006E082100C300430803195B2843082000B9
:10009800EE0021005008D53E8600870120006E083A
:1000A80081000130EE006E082100D0075D28D201E2
:1000B800D20AD101C801C90198317C2080312000C1
:1000C80091102100911498317F208031DF30200079
:1000D800EE006E082700930520309831E320803128
:1000E800A728131E8228103099314B218031EF3018
:1000F8002000EE006E0827009305A7282000911E17
:1001080087289112A728911CA728210091109831BF
:1001180079208031203099314B2180312100D10163
:10012800C801C901520803199F289831A0208031BD
:100138002100D201A2288031E1208031203098317D
:10014800E3202000911020006F08FF007E100900B6
:100158008031AE28C4308400003085001D309831CD
:100168009A208031E1308400013085000F309831C9
:100178009A20803157308400023085000A30983147
:100188009A208031FC30840086308500E13086007A
:100198000030870004309831942080318530840005
:1001A800983085006130860002308700043098312D
:1001B80094207E1020009631132E2300E0012100A8
:1001C8005008031908002100D00803190800550831
:1001D80003193D2E5508BC00BD013C082300E10071
:1001E80021003D082300E200F03061066204031D8F
:1001F800142921005508BC00BD013C082300E1007A
:1002080021003D082300E20021005608BC00BD0182
:100218003C082300E30021003D082300E400632993
:10022800E030230061066204031D68292100560896
:10023800BC00BD013C082300E30021003D08230069
:10024800E400123063066404031D3D29E101E20164
:10025800E301E40104302100D0020430BC003C0872
:10026800F0000C30BD003D08F100D5309D31062569
:100278008031F030230063066404031D63292100E4
:100288005708BC00BD013C082300E50021003D08DB
:100298002300E6007C3065066604031D5E29E10143
:1002A800E201E301E401E501E60106302100D002A4
:1002B80006307A2903302100D00203307A2902302F
:1002C8002100D00202307A29E1302300610662045D
:1002D800031D8129E030E1000030E2006930E300CD
:1002E8000030E40008302100D0020830BC003C088F
:1002F800F0000C30BD003D08892901302100D002F2
:10030800F001F00A0C30BC003C08F100D5309D31FA
:10031800062580312300660865040319B529E030F5
:1003280061066204031D8E2AF03063066404031D0F
:100338008E2A113065066604031DA429E9018E2A58
:10034800143065066604031DAC292100CE018E2AEF
:100358007130230065066604031D8E2A2100CD0135
:100368008E2A23006408630403198E2AF03061067C
:100378006204031D392A123063066404031DC6296A
:10038800EE01D929593063066404031DCD29EA0119
:10039800D929143063066404031DD429ED01D92931
:1003A8001130630664040319EC01593063066404D0
:1003B8000319E329123063066404031D312AEE0889
:1003C800031D8E2AEA08031D8E2AED308C31DE24A7
:1003D80080310038031DF92900308C31DE2480314A
:1003E8000038031DF9292300EF01230068080319C9
:1003F800172AE7010A30670203188E2AED308C317C
:10040800DE2480310038031D102A04308C31DE24AC
:100418008031003803198E2A01302100BC003C08C5
:100428002300E707FE29E7010A30670203188E2A2E
:10043800ED308C31DE2480310038031D2A2A00304B
:100448008C31DE248031003803198E2A01302100D6
:10045800BC003C082300E707182A583063066404E8
:10046800031D8E2A2100CB018E2AE030230061066D
:100478006204031D8E2A113063066404031D472A93
:10048800E901E90A592A143063066404031D502A55
:100498002100CE01CE0A592A713023006306640474
:1004A800031D592A2100CD01CD0A2300DC01DC0AF5
:1004B800E908031D632AEC08031D632ADC01DD013A
:1004C800DD0AED08031D6E2A2100CE08031D6E2AE1
:1004D8002300DD0121004D08BC00BD0123005D089B
:1004E8005C072100BE00BF01BF0D3C083E07C000ED
:1004F8003D083F3DC10003304006410403198E2AE0
:100508002300630899316E2180312100BC003C082A
:100518002300E0002300620861040319DE2B64084D
:100528006304031DDE2B66086504031DDE2B1230F1
:1005380061066204031DA32AEE01EE0AAA2A5930B5
:1005480061066204031DAA2AEA01EA0A6E08013A52
:10055800031DB22A210053080319BB2A23006A0885
:10056800013A031DFD2A2100CF08031DFD2AED30A5
:100578008C31DE2480310038031DFD2A23006808F1
:100588000319E02AE7010A3067020318FD2AED3053
:100598008C31DE2480310038031DD92A05308C3196
:1005A800DE24803100380319FA2A01302100BC000A
:1005B8003C082300E707C72AE701E82A01302100A1
:1005C800BC003C082300E7070A3067020318FD2A2D
:1005D800ED308C31DE2480310038031DE22A0130F1
:1005E8008C31DE2480310038031DE22A2300EF011C
:1005F800EF0A1430230061066204031D062BED0187
:10060800ED0AD12B113061066204031D0E2BEC019B
:10061800EC0AD12BEE3061066204031D172B24006F
:10062800DF01DF0AD12B5830230061066204031D65
:100638009C2B2100CB01CB0ACC08031DD12B230016
:1006480068080319612B6F080319442BE7010A3066
:1006580067020318D12BED308C31DE24803100384D
:10066800031D3D2B01308C31DE2480310038031905
:10067800572B01302100BC003C082300E7072B2B37
:10068800E7010A3067020318D12BED308C31DE24E4
:1006980080310038031D5A2B00308C31DE24803124
:1006A8000038031D5A2B2300E801D12B013021000B
:1006B800BC003C082300E707452B6F0803197E2B75
:1006C800E7010A3067020318D12BED308C31DE24A4
:1006D80080310038031D772B05308C31DE248031C2
:1006E80000380319912B01302100BC003C0823007D
:1006F800E707652BE7010A3067020318D12BED30B5
:100708008C31DE2480310038031D952B04308C3168
:10071800DE2480310038031D952B2300E801E80A08
:10072800D12B01302100BC003C082300E7077F2BB8
:100738006F08013A031DBB2B610899318021803174
:100748002100BC003C082300E00068080319D12BF5
:1007580041306002031CD12B5B3060020318D12B9F
:1007680020302100BC003C082300E007D12B6108A1
:1007780099315C2180312100BC003C082300E00055
:1007880068080319D12B61306002031CD12B7B3020
:1007980060020318D12B2030E0022300E008031D7B
:1007A800DE2B610899313B2180312100BC003C08D7
:1007B8002300E000DE01DE0AE908031DE72BEC0850
:1007C800031DE72BDE01DF01DF0AED08031DF22B15
:1007D8002100CE08031DF22B2300DF0121004D0864
:1007E800BC00BD0123005F085E072100BE00BF01F9
:1007F800BF0D3C083E07C0003D083F3DC100033027
:1008080040064104031D8A2CFD302000A1008930D8
:10081800A2009B318C2380310030F3000030F200BD
:100828003A30F1009830F0009B31F02380312100FC
:10083800CA08031D462C0030C7000030C60000302F
:10084800C5000030C4002300EB012100CA01CA0A18
:10085800ED302000A1008930A2009B318C2380312B
:100868000030F3000030F2003A30F1009830F00028
:100878009B31F0238031F801F9013E309D31CB25C1
:100888008031812C00302100C7000030C60025309F
:10089800C5008030C40000302000A1008A30A200CA
:1008A8009B318C23803126302000A1008930A200A2
:1008B8009B318C238031FD302000A1008930A200BB
:1008C8009B318C2380310030F3000030F2003A3045
:1008D800F1009830F0009B31F02380312100470867
:1008E800B2004608B1004508B0004408AF00B301A3
:1008F8008B31652380312100CA012300ED012100DD
:10090800CE012300E901EC012100CD01230060089C
:1009180003191E2E6008013A031D9D2C9831892069
:100928008031A030FA008630FB009A312D228031C8
:100938001D2E2100CA08031DCA2CF801F901230045
:1009480060089D31CB258031230060080D3A031DD6
:100958001E2E0030F3000030F2001330F100883012
:10096800F0009B31F0238031F801F9010A309D3104
:10097800CB2580310030F3000030F2003A30F1002E
:100988009830F0009B31F02380311D2E2300600841
:10099800993111218031003A0319112D0030F300EB
:1009A8000030F2000030F1000A30F0002100470862
:1009B800F7004608F6004508F5004408F4009A31A7
:1009C800FC22803173082100C7007208C600710834
:1009D800C5007008C40023006008D03E2100BC0098
:1009E800FF3003180030BD003C08BE003D08BF00C2
:1009F8000030BF1BFF30C000C1003E08C4073F08DD
:100A0800C53D4008C63D4108C73DF801F90123002E
:100A180060089D31CB2580311D2E230060086F3A78
:100A280003191A2D60084F3A031D232DEB01EB0A19
:100A3800F801F90160089D31CB2580311D2E230076
:100A48006008653A03192C2D6008453A031D392DB5
:100A580002302100BC003C082300EB00F801F9013A
:100A680060089D31CB2580311D2E230060086D3A2A
:100A78000319422D60084D3A031D4F2D0330210004
:100A8800BC003C082300EB00F801F90160089D3127
:100A9800CB2580311D2E23006008733A0319582D89
:100AA8006008533A031D652D04302100BC003C0842
:100AB8002300EB00F801F90160089D31CB25803156
:100AC8001D2E230060080D3A031D1E2EFD30200048
:100AD800A1008930A2009B318C2380310030F300C3
:100AE8000030F2003A30F1009830F0009B31F023EA
:100AF8008031003021004702031D8C2D0030460252
:100B0800031D8C2D09304502031D8C2D60304402D5
:100B1800031C082E00304702031D9C2D013046029D
:100B2800031D9C2DC2304502031D9C2D013044023B
:100B38000318082EAC302000AA008930AB00210031
:100B480047082000AF00210046082000AE00210021
:100B580045082000AD00210044082000AC00A0306A
:100B6800973107278031A0302000A1000130A20072
:100B78009B318C23803123006B080319E52DD82D78
:100B880011302000A1008930E92DFB302000A100A0
:100B98008830E92D4A302000A1008930E92D3A300B
:100BA8002000A1008930E92D23006B08013A0319C0
:100BB800C42D033A0319C92D013A0319CE2DD32D9B
:100BC800ED2D26302000A1008930A2009B318C2316
:100BD8008031FD302000A1008930A2009B318C2398
:100BE800803121004708B2004608B1004508B0002E
:100BF8004408AF0023006B082100BC003C08B30088
:100C08008B31652380311B2ED9302000A10089301B
:100C1800A2009B318C2380310030F3000030F200B9
:100C28003A30F1009830F0009B31F02380312100F8
:100C3800CA0123002300E001E101E201E301E4012C
:100C4800E501E60121004B08BC003C08CC0023006C
:100C58006E082100BC003C08D30023006A0821006C
:100C6800BC003C08CF00EF30BC003C0822008E05D9
:100C7800E7280C30F0000030F100D5309931F3212D
:100C880080312100D001E72824003C08C2003D083B
:100C9800C3003E08C4000310430D440DC5004508B9
:100CA800C600C608031D5F2E0030BC000030BD0022
:100CB8000030BE0008003F08C2004008C3004108D9
:100CC800C4000310430D440DC5004508CB00CB08F4
:100CD800031D752E0030BC000030BD000030BE0082
:100CE80008004B087B3EC2004208C6073C08C20009
:100CF8003D08C3003E08C4001030C436C30CC20C03
:100D0800890B812E4208C5004508CB003F08C20068
:100D18004008C3004108C4001030C436C30CC20CDC
:100D2800890B912E4208C5004508CB068030C200C9
:100D38004208CB05BD17C017FF30BF05FF30C005FF
:100D48000030C1050030C7000030C8000030C900BD
:100D58000730C2004208CA003C1CB82E3F08C7072B
:100D68004008C83D4108C93D0130BE36BD0CBC0C29
:100D7800890BB92E0130BF35C00DC10D890BBF2EAF
:100D88000130CA02031DB02E0930C2004208CA0051
:100D98003C1CD42E3F08C7074008C83D4108C93D40
:100DA8000130BE36BD0CBC0C890BD52E0130C936BE
:100DB800C80CC70C890BDB2E0130CA02031DCC2ED0
:100DC8004708A0004808A1004908A2004608C20038
:100DD8004208A3004B08C3004308A40090315F20D9
:100DE80024002008BC002108BD002208BE0008001D
:100DF80000340034803425340034113400340C3489
:100E08000A340634073414340034123410340E34DF
:100E18000B3400340034003400341C340034003403
:100E28001A34003400340034003400340034003400
:100E3800003400340034003400340034003400340A
:100E480000340034003400340034003400340034FA
:100E580000340034003400340034003400340034EA
:100E680000340034003400340034003400340034DA
:100E780000340034003400340034003400340034CA
:100E880000340034003400340034003400340034BA
:100E980000340034003400340034003400340034AA
:100EA800003400340034003400340034003400349A
:100EB800003400340034003400340034003400348A
:100EC800003400340034003400340034003400347A
:100ED800003400340034003400340034003400346A
:100EE8000034003400340034133400340034003447
:100EF80000340034003400340034003400340F343B
:100F080009346034003400340034003400340034D0
:100F1800713431340034003400347A347334613439
:100F280077343234003400346334783464346534CC
:100F38003434333400340034203476346634743432
:100F480072343534003400346E34623468346734B3
:100F5800793436340034003400346D346A347534EE
:100F680037343834003400342C346B3469346F34FB
:100F780030343934003400342E342F346C343B345C
:100F880070342D34003400340034273400345B349A
:100F98003D3400340034003400340D345D34003402
:100FA8005C3400340034003400340034003400343D
:100FB80000340834003400343134003434343734E5
:100FC80000340034003430342E343234353436347E
:100FD80038341B34003400342B3433342D342A3461
:100FE800393409347E340034003400340034003499
:100FF8000034513421340034003400345A3453342A
:101008004134573440340034003443345834443481
:1010180045342434233400340034203456344634E0
:10102800543452342534003400344E344234483475
:10103800473459345E340034003400344D344A3473
:10104800553426342A34003400343C344B34493483
:101058004F3429342834003400343E343F344C347F
:101068003A3450345F3400340034003422340034CD
:101078007B342B3400340034003400340D347D3498
:1010880000347C340034003400340034003400343C
:10109800003400340834003400343134003434343B
:1010A800373400340034003430342E34323435349C
:1010B800363438341B34003400342B3433342D3474
:1010C8002A3439341E34003400341F3400340034D8
:1010D8000034003400340034003400340034003468
:1010E800193400340034003400340034003400343F
:1010F8001D3400340034003400340034003400342B
:101108000034003400340034003400340034003437
:101118000034003400340034003400340034003427
:101128000034003400340034003400340034003417
:101138000034003400342F340034003400340034D8
:1011480000340034003400340034003400340034F7
:101158000034003400340D340034003400340034DA
:1011680000340034003400340034003400340034D7
:1011780000340034013400340334163400340034AD
:10118800003415347F340434003405340234003418
:101198000034003400341834003400341734013477
:1011A8000034003400340A34003400340034643429
:1011B800003400340034E83403340034003410348C
:1011C800273400340034A0348634013400344034E9
:1011D80042340F3400348034963498340034003468
:1011E800E134F53405340034CA349A343B342034BD
:1011F800773469347434683420344534763465344B
:101208006E3420347034613472346934743479340F
:1012180020346234693474340034203477346934C7
:101228007434683420344F34643464342034703473
:1012380061347234693474347934203462346934F2
:101248007434003420347734693474346834203486
:101258004E346F34203470346134723469347434E9
:101268007934203462346934743400342034773467
:1012780069347434683420345334703461346334DA
:10128800653420346234693474340034203477345B
:1012980069347434683420344D34613472346B34B6
:1012A8002034623469347434003456346F346C3406
:1012B8007434613467346534203474346F346F3473
:1012C8002034003431342E3433345F3444345734CA
:1012D8003034613400344334683461346E346734F4
:1012E8006534203442344134553444343A3420345B
:1012F800223443344E34543420342B342034413493
:101308004C34543420342B342034443445344C3455
:1013180022340D340A3400340D340A345034533432
:101328002F34323420344B346534793462346F349A
:10133800613472346434203474346F342034523459
:1013480053342D343234333432340D340A340034C7
:1013580042346134753464342034773469346C34FD
:101368006C34203462346534203473346534743416
:10137800203474346F34203425346C34753400349C
:1013880046346C34613473346834203450347234E5
:101398006F346734723461346D34203446346134C8
:1013A80069346C340D340A34003442346134753491
:1013B800643420344F347534743420346F346634D4
:1013C8002034523461346E34673465340D340A3451
:1013D800003445346E347434653472342034423405
:1013E800613475346434203472346134743465344F
:1013F80020340D340A340034423461347534643492
:10140800203452346534733465347434203474347D
:101418006F34203439343634303430340034463480
:10142800693472346D3477346134723465342034FD
:10143800563465347234733469346F346E343A34E4
:1014480020340034423461347534643420346934CF
:101458007334203425346C3475340034483469349A
:101468006734683421340D340A3400344C346F3412
:10147800773421340D340A340034FE302400A000BF
:10148800200821009D05080000302400CB00003012
:10149800CA000030C9000030C8000030CF0000305A
:1014A800CE000030CD000030CC00D001C030B200FA
:1014B8000030B300B401913124218A312400350869
:1014C800CB003408CA003308C9003208C800FF300E
:1014D8004805CC00FF304905CD000F304A05CE0045
:1014E80000304B05CF004808C3004908C4004A082B
:1014F800C5004B08C6001430C636C50CC40CC30C56
:10150800890B802A43080F39C7004708D0000030EC
:101518004F02031D992A00304E02031D992A0930F3
:101528004D02031D992A60304C02031CAB2A00307F
:101538004F02031DA92A01304E02031DA92AC230F9
:101548004D02031DA92A01304C02031CB42A0030A5
:10155800CF000030CE002530CD008030CC00D00147
:101568004F08B1004E08B0004D08AF004C08AE005F
:101578005008C3004308B200943143248A31003034
:101588002400A3000030A2003A30A1009830A00047
:101598009C3156248A3190302400AF008930B00045
:1015A8009C3123248A3100302400A3000030A2009B
:1015B8003A30A1009830A0009C3156248A3113306B
:1015C8002400AF008A30B0009C3123248A31663071
:1015D8002400AF008930B0009C3123248A31FD30CB
:1015E8002400AF008930B0009C3123248A310030B8
:1015F8002400A3000030A2003A30A1009830A000D7
:101608009C3156248A316F302400AF008930B000F5
:101618009C3123248A3100302400A3000030A2002A
:101628003A30A1009830A0009C3156248A31FD3010
:101638002400AF008930B0009C3123248A31240073
:1016480050080319482B3B2B1130AF0089304B2B26
:10165800FB302400AF0088304B2B4A302400AF0009
:1016680089304B2B3A302400AF0089304B2B2400B3
:101678005008013A0319282B033A03192C2B013A75
:101688000319312B362B4F2B2630AF008930B00091
:101698009C3123248A31FD302400AF008930B0000A
:1016A8009C3123248A3100302400A3000030A2009A
:1016B8003A30A1009830A0009C3156248B158B1726
:1016C800080000302200D5000030D4000030D300DC
:1016D8000030D2000030D9000030D8000030D700E8
:1016E8000030D600DE01C0302100A0000030A1008B
:1016F8003208A5003108A4003008A3002F08A20072
:101708003308B4003408A600913188218B31C030E9
:101718002000A4000030A500A6019031C0208B3124
:10172800200027082200DD00200026082200DC0017
:10173800200025082200DB00200024082200DA000F
:10174800FF305A05D200FF305B05D3000F305C052F
:10175800D40000305D05D5005A082100B4002200ED
:101768005B082100B50022005C082100B6002200B9
:101778005D082100B7001430B736B60CB50CB40CB0
:10178800890BC02B34080F39B800B901BA01BB0165
:101798003B082200D90021003A082200D800210085
:1017A80039082200D700210038082200D60021007D
:1017B80032082000A300210031082000A2002100E7
:1017C80030082000A10021002F082000A0002100DF
:1017D8003308B40034082000A400953126258B3145
:1017E800FD302000A1008930A2009B318C238B3171
:1017F8000030F3000030F2003A30F1009830F00089
:101808009B31F0238B312200550821003206031D3D
:101818001D2C2200540821003106031D1D2C220016
:10182800530821003006031D1D2C220052082100F8
:101838002F06031D3C2C3308B400B501B601B701CF
:101848002200590821003706031D3A2C22005808A7
:1018580021003606031D3A2C2200570821003506C0
:10186800031D3A2C220056082100340603194F2C78
:10187800C4302000A1008930A2009B318C238B3119
:101888000030F3000030F2003A30F1009830F000F8
:101898009B31F0238B312200DE010A305E020318EF
:1018A8007C2C0E160030F3000030F2002730F100D7
:1018B8001030F0009B31F0238B31EF302100B40061
:1018C800340822008E050030F3000030F200273083
:1018D800F1001030F0009B31F0238B3101302100F2
:1018E800B40034082200DE070A305E02031C552CBF
:1018F80026302000AA008A30AB00210032082000E0
:10190800AF00210031082000AE002100300820007F
:10191800AD0021002F082000AC00203097310727A8
:101928008B3120302000A1000130A2009B318C2394
:101938008B31210033080319C32CB62C1130200039
:10194800A1008930C72CFB302000A1008830C72CAB
:101958004A302000A1008930C72C3A302000A1006D
:101968008930C72C21003308013A0319A22C033A05
:101978000319A72C013A0319AC2CB12CCB2C263017
:101988002000A1008930A2009B318C238B31FD30CF
:101998002000A1008930A2009B318C238B310030BC
:1019A800F3000030F2003A30F1009830F0009B313B
:1019B800F02308002000A100A2012108FA00FB0181
:1019C8007A08F0007B08F1000330FC007C08F20084
:1019D8009B312B238C31FD007D082000A000A30142
:1019E800A40100309831BA208C3100309831C420DD
:1019F8008C31DF30FA007A0822008C050030F300C1
:101A08000030F2000130F1002C30F0009B31F0235F
:101A18008C31EF30FA007A0822008C050030F30090
:101A28000030F2000030F1001430F0009B31F02358
:101A38008C3101309831BA208C312000A301A401E7
:101A480020309931A4218C3100380319412D000030
:101A580001302000A3070030A43D3A302402993019
:101A680003192302031C242D01309831BA208C312C
:101A780001309831C420013008002000A20108304C
:101A8800220203189B2D211C4C2D22000C16512DCF
:101A9800EF30FA007A0822008C0503102000A10C10
:101AA800A301A40120309931A4218C31003A031DEF
:101AB800722D01302000A3070030A43D3A302402E3
:101AC800993003192302031C562D01309831BA208E
:101AD8008C3101309831C420013008002000A30166
:101AE800A40120309931A4218C3100380319922D9A
:101AF800000001302000A3070030A43D3A30240242
:101B0800993003192302031C752D01309831BA202E
:101B18008C3101309831C420013008000130FA00BE
:101B28007A082000A20708302202031C472D201C37
:101B3800A02D22000C16A52DEF30FA007A082200FD
:101B48008C052000A301A40120309931A4218C31F7
:101B5800003A031DC42D01302000A3070030A43D26
:101B68003A302402993003192302031CA82D0130AE
:101B78009831BA208C3101309831C42001300800E6
:101B88002000A301A40120309931A4218C31003810
:101B98000319E32D01302000A3070030A43D3A309B
:101BA8002402993003192302031CC72D01309831F0
:101BB800BA208C3101309831C4200130080001303E
:101BC8009831C4208C312000A301A4011030993130
:101BD800A4218C3100380319062E01302000A307F8
:101BE8000030A43D3A302402993003192302031C23
:101BF800EA2D01309831BA208C3101309831C42057
:101C0800013008002000A301A40120309931A4214B
:101C18008C3100380319252E01302000A30700302D
:101C2800A43D3A302402993003192302031C092EDB
:101C380001309831BA208C3101309831C4200130FC
:101C480008002000A301A40110309931A4218C318F
:101C5800003A031D442E01302000A3070030A43DA4
:101C68003A302402993003192302031C282E01302C
:101C78009831BA208C3101309831C42001300800E5
:101C88002000A301A40120309931A4218C31003A0D
:101C9800031D632E01302000A3070030A43D3A3015
:101CA8002402993003192302031C472E013098316E
:101CB800BA208C3101309831C4200130080001303D
:101CC8009831BA208C3101309831C4200030080096
:101CD8002400AF00B0012F08AA00AB012A08A00019
:101CE8002B08A1000330AC002C08A2009B315B2319
:101CF8008E312400AD002D08AE00B101B2010030D4
:101D08009831EE208E310030903100208E31DF3056
:101D18002400AA002A0822008C0500302400A30011
:101D28000030A2000130A1002C30A0009C315624C4
:101D38008E31EF302400AA002A0822008C050030DA
:101D48002400A3000030A2000030A1001430A0003D
:101D58009C3156248E3101309831EE208E3124008A
:101D6800B101B20120309931CA218E3100380319EE
:101D7800D32E000001302400B1070030B23D3A30C4
:101D88003202993003193102031CB62E0130983102
:101D9800EE208E31013090310020013008002400FF
:101DA800B0010830300203182E2F2F1CDE2E22001F
:101DB8000C16E42EEF302400AA002A0822008C0515
:101DC80003102400AF0CB101B20120309931CA21AF
:101DD8008E31003A031D052F01302400B107003071
:101DE800B23D3A303202993003193102031CE92E10
:101DF80001309831EE208E310130903100200130D1
:101E080008002400B101B20120309931CA218E3175
:101E180000380319252F000001302400B1070030D5
:101E2800B23D3A303202993003193102031C082FAF
:101E380001309831EE208E31013090310020013090
:101E4800080001302400AA002A08B0070830300230
:101E5800031CD92E2E1C332F22000C16392FEF30DD
:101E68002400AA002A0822008C052400B101B2012E
:101E780020309931CA218E31003A031D582F013084
:101E88002400B1070030B23D3A30320299300319CC
:101E98003102031C3C2F01309831EE208E31013085
:101EA80090310020013008002400B101B201203037
:101EB8009931CA218E3100380319772F0130240057
:101EC800B1070030B23D3A3032029930031931027D
:101ED800031C5B2F01309831EE208E310130903198
:101EE8000020013008000130903100208E3124009C
:101EF800B101B20110309931CA218E31003803196D
:101F08009A2F01302400B1070030B23D3A30320236
:101F1800993003193102031C7E2F01309831EE20CD
:101F28008E31013090310020013008002400B101C9
:101F3800B20120309931CA218E3100380319B92FE6
:101F480001302400B1070030B23D3A3032029930F6
:101F580003193102031C9D2F01309831EE208E3178
:101F6800013090310020013008002400B101B20195
:101F780010309931CA218E31003A031DD82F013013
:101F88002400B1070030B23D3A30320299300319CB
:101F98003102031CBC2F01309831EE208E31013004
:101FA80090310020013008002400B101B201203036
:101FB8009931CA218E31003A031DF72F01302400D0
:101FC800B1070030B23D3A3032029930031931027C
:101FD800031CDB2F01309831EE208E310130903117
:101FE80000200130080001309831EE208E31013098
:101FF80090310020003008002400A000A008031D34
:10200800082821000C12080021000C160800F30013
:10201800F20173080139F0000630F035FF3E031D68
:1020280011287035F1007108F20773080239F000C1
:102038000430F035FF3E031D1D287035F10071088E
:10204800F20773080439F0000230F035FF3E031D33
:1020580029287035F1007108F20773080839090753
:10206800F0007008F20773360839F0007008F207BC
:102078007308F0000330F036890B3F2870080439E4
:10208800F1007108F2077308F0000530F036890B8B
:102098004A2870080239F1007108F2077308F00045
:1020A8000730F036890B552870080139F10071089E
:1020B800F207720808002400230803196828220878
:1020C80021042004031D79280030A0000030A1005D
:1020D8000030A20008000130A5002508A307013040
:1020E800A236A10CA00C890B7428FE302205031916
:1020F80092286F280130A5002508A3070130A00702
:10210800003003180130A107003003180130A2077E
:102118000130A236A10CA00C890B8D28FF302205B6
:1021280003199F287E280130A3020130A035A10D94
:10213800A20D890B9A28A11F97282318A928FF30D8
:10214800A0057F30A105FF30A2050310A30C2308CA
:10215800A500A601A7011030A535A60DA70D890B6E
:10216800B0282508A0042608A1042708A2042408EA
:1021780003190800A217080020002508F601F60731
:102188002408F501F5072608A8002808F7009E315D
:102198006826903178082000B3007708B2007608E6
:1021A800B1007508B000FF3030052100E3003F3072
:1021B800200031052100E40020003008A800310883
:1021C800A9003208AA003308AB000E30AB36AA0CBF
:1021D800A90CA80C890BEA28FF3028052100E1008A
:1021E8003F30200029052100E20063082000A800F4
:1021F800210064082000A900AA01AB0121006108A0
:102208002000AC00210062082000AD00AE01AF0143
:102218000C30AC35AD0DAE0DAF0D890B0D292C086A
:10222800A8072D08A93D2E08AA3D2F08AB3D2B086D
:10223800A7002A08A6002908A5002808A400080065
:1022480024003308A601A6073208A501A50734080B
:10225800B6003608A7009E31B92691312400280817
:10226800C1002708C0002608BF002508BE00FF30AF
:102278003E052100E3003F3024003F052100E40033
:1022880024003E08B6003F08B7004008B8004108DF
:10229800B9000E30B936B80CB70CB60C890B4E29FC
:1022A800FF3036052100E1003F30240037052100CA
:1022B800E20063082400B600210064082400B70087
:1022C800B801B901210061082400BA0021006208A0
:1022D8002400BB00BC01BD010C30BA35BB0DBC0DE0
:1022E800BD0D890B71293A08B6073B08B73D3C0874
:1022F800B83D3D08B93D3908B5003808B40037087D
:10230800B3003608B2000800210026080739A700E4
:10231800A801A901AA011430A735A80DA90DAA0D75
:10232800890B9029FF302205AB00FF302305AC0054
:102338000F302405AD0000302505AE002B08A70797
:102348002C08A83D2D08A93D2E08AA3D2A082000E2
:10235800ED00210029082000EC00210028082000B9
:10236800EB00210027082000EA00FF306A05210061
:10237800E3003F3020006B052100E40020006A08DC
:102388002100A70020006B082100A80020006C088D
:102398002100A90020006D082100AA000E30AA36ED
:1023A800A90CA80CA70C890BD329FF302705E1003D
:1023B8003F302805E2002108FB01FB072008FA014D
:1023C800FA07E130A7002708FC000230A800280817
:1023D800FD00933171230800FE302400CF004F0820
:1023E80022008E0502309C31C724913124002B082D
:1023F800D401D4072A08D301D3078A314122913165
:1024080022000E14033017052400CF004F08033AAA
:10241800031D142A0230D335D40D890B0F2A222A22
:102428000330220017052400CF004F08023A031D8D
:10243800222A0130D335D40D890B1E2A6630BC0000
:10244800B630BD004030BE000030AC007A30AD0080
:102458004430AE005408A901A9075308A801A807E9
:102468009931DE21913124002808AF002908B000F5
:102478002A08B1009231C822913124002C08BF00EB
:102488002D08C0002E08C1008631482624003C08CB
:10249800D0003D08D1003E08D2005008CC005108B9
:1024A800CD005208CE00080020309931B721923172
:1024B80007308E316C269231003A031D0800003037
:1024C8002400A3000030A2001330A1008830A0002F
:1024D8009C3156249231ED308E316C269231003A7F
:1024E800031D080000302400A3000030A2001330B0
:1024F800A1008830A0009C315624923100308E31E2
:102508006C269231003A031D0800F4308E316C2697
:102518009231003A031D0800F4308E316C26923156
:10252800003A031D0800F0308E316C269231003AD3
:10253800031D080000302400A3000030A200003072
:10254800A1006430A0009C315624923102308E31B3
:102558006C269231003A031D0800F3308E316C2648
:102568009231003A031D080000302400A300003017
:10257800A2000030A1006430A0009C3156249231A2
:102588002F308E316C26080024002F08B200300846
:10259800B3003108B4000310330D340DB50035080D
:1025A800BA00BA08031DDF2A0030AC000030AD00C5
:1025B8000030AE0008002C08B2002D08B3002E0829
:1025C800B4000310330D340DB5003508BB00BB084B
:1025D800031DF52A0030AC000030AD000030AE001D
:1025E80008000030B7000030B8000030B90089306A
:1025F8003B07B2003208BA022F08B2003008B30015
:102608003108B4001030B436B30CB20C890B072B68
:102618003208B5003508BB002C08B2002D08B300FD
:102628002E08B4001030B436B30CB20C890B172B3B
:102638003208B5003508BB068030B2003208BB0549
:10264800B017FF30AF05FF30B0050030B105AD174A
:10265800FF30AC05FF30AD050030AE051830B200D4
:102668003208B6000130B735B80DB90D890B372BD4
:102678002E083102031D462B2D083002031D462B60
:102688002C082F02031C4F2B2C08AF022D08B03B3F
:102698002E08B13B37140130AF35B00DB10D890BA1
:1026A800502B0130B602031D362B3708A00038081E
:1026B800A1003908A2003A08B2003208A3003B087A
:1026C800B3003308A40090315F2024002008AC0038
:1026D8002108AD002208AE00080020302000A0002C
:1026E8002008E800E501E901680869020318CE2B13
:1026F8000130A0002008E50765087D02031C9C2B1B
:102708007C0886008701403FA000413FA1002108C6
:102718003F39A2002208E3007C08860087010108EF
:10272800A0002008E4000230A0002008FC07B92B14
:102738007B08F101F1077A08F001F0076908A000A9
:102748002008F2009A315022933171082000E701E5
:10275800E7077008E601E60767083F39A000200888
:10276800E3006608A0002008E4006308A0006908E8
:10277800233E86008701200881006408A0006908BC
:10278800433E86008701200881000130A000200810
:10279800E907782B7B08F101F1077A08F001F007C7
:1027A8009A317A2293310030F3000030F20003307E
:1027B800F100E830F0009B31F02393317F302000A6
:1027C800A00020088B0523001515BF302000A000AD
:1027D800200823009505DF302000A00020082300F2
:1027E8009505EF302000A0002008230095057B0800
:1027F8002000A1007A08A000A136A00CA136A00CE8
:10280800A136A00C20087F39230092007A080739E6
:102818002000A0000430A035FF3E031D0F2C2035FA
:10282800230091002000E9016808690203183C2C84
:102838006908233E860087010108230094002000D0
:102848006908433E860087010108230093000000C1
:1028580000009831D820933101302000A0002008D2
:102868002300910701302000A0002008E907182C58
:10287800FB30A0002008230095058B1708002200D4
:102888000E153C008F013D00A20101303C008F0075
:1028980099311E2194312400BE01BD01BE153E169A
:1028A8003208B3003308E0003108E4003008E300E0
:1028B8002F08E2002E08E10032080319652CBE1427
:1028C800692CFD30B3003308BE05BD153108A300DF
:1028D8003008A2002F08A1002E08A0000130A70090
:1028E800E830A6004830A5000030A4009F31AD278D
:1028F8009431FF3024002007BF00FF30213DC00085
:10290800FF30223DC100FF30233DC200FF30B3003D
:10291800FF30B400FF30B500FF30B6003F08B70005
:102928004008B8004108B9004208BA000230BA3677
:10293800B90CB80CB70C890B9B2C3708B3073808AF
:10294800B43D3908B53D3A08B63D3608C2003508E9
:10295800C1003408C0003308BF004008BC01BC07F0
:102968003F08BB01BB0723001D1224003C08A1013E
:10297800A1073B08A001A0073E089D3147259431D7
:1029880024003D089831B12094319831CE209431FB
:102998002400B300B401B501B6013608C2003508F9
:1029A800C1003408C0003308BF009831CE209431EC
:1029B8002400B300B401B501B6013608C2003508D9
:1029C800C1003408C0003308BF009831CE209431CC
:1029D8002400B300B401B501B6013608C2003508B9
:1029E800C1003408C0003308BF009831CE209431AC
:1029F8002400B300B401B501B6013608C200350899
:102A0800C1003408C0003308BF009831CE2024002C
:102A1800B300B401B501B6013608C2003508C100DB
:102A28003408C0003308BF003C008F0114303D005B
:102A3800A20012303C00A50001308F002000911246
:102A48000B17080022000E153C008F013D00A20163
:102A580001303C008F009831F92095312000B001F9
:102A6800AF01B01530162408A50025082400E000A1
:102A7800200023082400E400200022082400E300AA
:102A8800200021082400E200200020082400E100A2
:102A9800200024080319522DB014562DFD30A5002E
:102AA8002508B005AF152308F3002208F200210815
:102AB800F1002008F0000130F700E830F600483057
:102AC800F5000030F4009F315B279531FF30700727
:102AD8002000B100FF30713DB200FF30723DB300FD
:102AE800FF30733DB400FF30A500FF30A600FF3073
:102AF800A700FF30A8003108A9003208AA0033084F
:102B0800AB003408AC000230AC36AB0CAA0CA90CF4
:102B1800890B882D2908A5072A08A63D2B08A73D5B
:102B28002C08A83D2808B4002708B3002608B200DE
:102B38002508B1003208AE01AE073108AD01AD0776
:102B480023001D1220002E08F101F1072D08F001C5
:102B5800F00730089A31D022953120002F0898319B
:102B68008E2095319831A82095312000A500A60126
:102B7800A701A8012808B4002708B3002608B20056
:102B88002508B1009831A82095312000A500A6019C
:102B9800A701A8012808B4002708B3002608B20036
:102BA8002508B1009831A82095312000A500A6017C
:102BB800A701A8012808B4002708B3002608B20016
:102BC8002508B1009831A82095312000A500A6015C
:102BD800A701A8012808B4002708B3002608B200F6
:102BE8002508B1009831A8202000A500A601A7015A
:102BF800A8012808B4002708B3002608B200250851
:102C0800B1003C008F0114303D00A20012303C009E
:102C1800A50001308F00200091120B170800240036
:102C2800D6019931922196319A310B2296318A3107
:102C38004822963199312C2196312400D6010A3048
:102C480056020318502E22000E1600302400A3004E
:102C58000030A2002730A1001030A0009C3156247B
:102C68009631EF302400D500550822008E0500303B
:102C78002400A3000030A2002730A1001030A000DB
:102C88009C315624963101302400D5005508D607CA
:102C98000A305602031C272E9131F0219631240068
:102CA8004C08D7004D08D8004E08D9005708A00096
:102CB8005808A1005908A200CD30A3009430A40000
:102CC8004030A5009C318B2496310318782E59305A
:102CD8002400AF008930B0009C31232496313A306B
:102CE8002400AF008A30962E33302400A000AB3089
:102CF800A1004030A2005708A3005808A4005908B2
:102D0800A5009C318B24963103189A2E5930240043
:102D1800AF008930B0009C31232496313230240032
:102D2800AF008A30B0009C3123249631203099318D
:102D3800052196319131F021963124004C08D700B5
:102D48004D08D8004E08D9000030A3000030A2007A
:102D58000030A1001430A0009C3156249631240084
:102D68005708A0005808A1005908A200CD30A300B8
:102D78009430A4004030A5009C318B249631031C6C
:102D8800D72E33302400A000AB30A1004030A20081
:102D98005708A3005808A4005908A5009C318B24A3
:102DA80096310318DB2E2400DE01DE0ADF2E240014
:102DB800DE0122008E1424005E080319F42E01306F
:102DC800DC070030DD3D64305C065D04031DF42E35
:102DD800DC01DD010230D500550822008E062400F2
:102DE800003024005B02643003195A020318012FD3
:102DF8000130DA070030DB3D9E2EF730D50055084C
:102E080022008E059E2E2000BE002C30B000300817
:102E1800BD002B08B1002A08B000AA0A0319AB0AA2
:102E280030088400310885000008B2003208BF006D
:102E3800BF080319FA2F3F08253A0319302F3F0816
:102E4800B0003E088600013087003008810001305C
:102E5800B0003008BE070D2FB601392F3616392FAE
:102E6800C030B0003008B604502F2B08B1002A0833
:102E7800B000AA0A0319AB0A30088400310885009B
:102E88000008BF00003A0319FA2F6C3A0319322FD1
:102E9800193A0319342F0D2F361E5F2F3D0886006F
:102EA8008701403FB900413FBA00423FBB00433F62
:102EB800BC0004306D2F3D0886008701403FB000FC
:102EC800413FB1003008B9003108BA00BB01BC016C
:102ED8000230B0003008BD07BF01BF0A3F080A3AF8
:102EE8000319A32F3F08B000B101B035B10DB035BB
:102EF800B10DD330300784008830313D8500003F64
:102F0800B200013FB300023FB400033FB5003508EB
:102F18003C02031D992F34083B02031D992F3308E7
:102F28003A02031D992F32083902031CA32F0130DE
:102F3800B0003008BF073F080A3A031D762F3F0844
:102F4800B700B801B71BB803FF30B707FF30B83D6B
:102F5800FF303806031DB22FFF30370603190D2F37
:102F68000030A3000030A2000030A1000A30A00009
:102F780038088500370884008435850D8435850D2B
:102F8800D33084078830853D003FF000013FF100D1
:102F9800023FF200033FF3003C08F7003B08F6004D
:102FA8003A08F5003908F4009F315B279731730818
:102FB8002000A7007208A6007108A5007008A400E8
:102FC8009D318825973120002008303EB000300818
:102FD800BF003F08B0003E08860001308700300877
:102FE80081000130B0003008BE07A82F3E088600D7
:082FF80001308700810108008F
:1030F20020001C11080020009A01080020001C1565
:10310200080020001C1508008034253400340034E7
:1031120023009E1564309A000800F00023009F01EE
:1031220070089F000800FE0012001E00FE0B95288A
:103132000034640080010131890B9B280034203067
:1031420099314B219831FE308C31DE240800230066
:103152009D181D121908F0007008F100710808008E
:103162002400A00023009F012400200823009F00C8
:103172000800F000F008031DC12821008C1208008D
:1031820021008C160800F000F008031DCB28210056
:103192000C12080021000C16080023009D181D12B5
:1031A20019082400A0002008A100210808005530B9
:1031B20023009600AA30960095149518DE28000088
:1031C20000000800F0007008203A031DEB282700D9
:1031D200921608002700121608002400A000A0087A
:1031E200031DF62821008C12080021008C1608000D
:1031F2004F30F000700823009D059E12CF30F00082
:1032020070082100910508002400A0002008203A3F
:10321200031D0E2927009216080027001216080027
:10322200F00030307002031C1C293A30700203187F
:103232001C2901300800003008004F302400A00093
:10324200200823009D059E12CF302400A0002008F4
:1032520021009105080001309831EE2099310130AA
:10326200903100209931FF309A31A5229931923163
:1032720058220800F00084307002031849297008AF
:10328200003E840087300318013E850000080800D4
:1032920000300800F1007108203A031D5629DF3082
:1032A200F0007008270092050800EF30F000700867
:1032B200270092050800F0000D30F0027130700214
:1032C20003186C297008843E840087300318013E7D
:1032D20085000008080000300800F0001130F002FC
:1032E2006D30700203187E297008663E84008830B3
:1032F2000318013E85000008080000300800F000B5
:103302000D30F00271307002031890297008F53EFA
:10331200840087300318013E850000080800003051
:103322000800F0302100990000301A1801301A0507
:103332000319952940302400A000200821009A0595
:10334200031D08009B29F0007008203A031DB029D4
:1033520020008C1EAE290130080000300800200039
:103362000C1EB52901300800003008002400A1001D
:103372002108203A031DC329DF30A00020082700BE
:1033820092050800EF302400A000200827009205D3
:1033920008002400A0002008203A031DD72920009D
:1033A2008C1ED529013008000030080020000C1EB8
:1033B200DC29013008000030080024002808A000A1
:1033C2002908A100A2018E30AB002B08A300A401A2
:1033D20090315F2024002008A8002108A9002208BB
:1033E200AA000800F300F401F4017108803A803C5D
:1033F200031DFD297008740203180800740873077E
:10340200F20072088600870181010130F200720821
:10341200F407F62922008E018C0121000E118E1074
:103422008E110E120C150E108E1622008E143C00F8
:103432008F0114303D00A20012303C00A500013083
:103442008F0023008C010C158E0121009513203072
:1034520024008E008C01080022000E153C008F0112
:103462003D00A20101303C008F00FB30FC007C08D3
:1034720022008E057A08F0007B08F100F201F301C8
:103482009B31F02322000E153C008F0114303D00C9
:10349200A20012303C00A50001308F000800BF30AE
:1034A200F3007308230095057108F4007008F30017
:1034B200F436F30CF436F30CF436F30C73087F395C
:1034C200920070080739F3000430F335FF3E031D04
:1034D200662A733572079100151415186E2A0000BA
:1034E200000023001408F101F1071308F001F007AE
:1034F20008007F30F20072088B05BF30F2007208BC
:10350200230095057108F3007008F200F336F20CFF
:10351200F336F20CF336F20C72087F39920070081F
:103522000739F2000430F235FF3E031D942A72354A
:103532009100151615159831D820FB30F20072084B
:10354200230095058B1708002400A2000F30A0006D
:103552002008A3000330A0002008A40025001A08B8
:10356200F0390A389A002400220820009B00240027
:103572002308A0000230A035FF3E031DBC2A2035DF
:10358200A100210820009C0424002408A000200897
:1035920020009C0498318220210091100800F20042
:1035A20023009E019D0172181E16F21CDA2A1E17B4
:1035B2001D1772199E17F21DE02A1D16E12A9D168B
:1035C200721A1E15721FEA2A20009112210091160A
:1035D200EC2A21009112F21FF32A2000111221007D
:1035E2001116F42A1112700823009B0071089C0026
:1035F2009E169D1708000030FB000030FA000030D4
:10360200F9000030F800701C0E2B7408F8077508DA
:10361200F93D7608FA3D7708FB3D0130F435F50DAA
:10362200F60DF70D890B0F2B0130F336F20CF10C6E
:10363200F00C890B162B7308720471047004031DBD
:10364200042B7B08F3007A08F2007908F10078086D
:10365200F0000800F701F6017108F501F50770089E
:10366200F401F407F7010830770203184B2B741C9E
:103672003E2B0130F3007308F6070130F536F40CE7
:10368200890B3F2B0130F3007308F70708307702EC
:10369200031C382B7208033A031D552B7618532B43
:1036A2000130080000300800761C592B0130080058
:1036B200003008002400A701A6012108A501A507E2
:1036C2002008A401A407A7010830270203187C2BB5
:1036D200241C6F2B0130A3002308A6070130A53656
:1036E200A40C890B702B0130A3002308A707083014
:1036F2002702031C692B2208033A031D862B261876
:10370200842B0130080000300800261C8A2B01306F
:103712000800003008000030F3000030F2001330DF
:10372200F1008830F0009B31F0239B31200021080A
:103732008400220885000008003A0319AD2BF80125
:10374200F901210884002208850000089D31CB255B
:103752009B3123009E1CAA2B20002208A4002108D2
:10376200A300A10A0319A20A2308840024088500E1
:1037720000080038031908008C2BBF302400A30076
:1037820023082300950524002108A4002008A30093
:10379200A436A30CA436A30CA436A30C23087F39A9
:1037A20023009200240020080739A3000430A33527
:1037B200FF3E031DD82B2335220723009100151449
:1037C2001518E12B00000000230014082400A101B9
:1037D200A107230013082400A001A007080000305D
:1037E200F8000030F7000030F6000030F5007808ED
:1037F200803AF4007308803A7402031D0A2C72089E
:103802007702031D0A2C71087602031D0A2C700828
:10381200750203180800F9012030790203181A2CE6
:1038220000000130F4007408F90720307902031C0B
:10383200112C0630F5070030F63D0030F73D003020
:10384200F83DF82B00302400A3000030A200133012
:10385200A1008830A0009C3156249C3124002F08FE
:103862008400300885000008003A0319452CA8019D
:10387200A9012F0884003008850000089F310A271B
:103882009C3123009E1C422C24003008B2002F08D9
:10389200B100AF0A0319B00A31088400320885006A
:1038A2000008003803190800232C00302400A80067
:1038B2000030A7000030A6000030A5002808803A9A
:1038C200A4002308803A2402031D712C2208270237
:1038D200031D712C21082602031D712C20082502CC
:1038E20003180800A901203029020318822C0000C5
:1038F20001302400A4002408A90720302902031C57
:10390200782C0630A5070030A63D0030A73D0030D8
:10391200A83D5F2C2400A21FA22C2009A600210989
:10392200A7002209A800A60A0319A70A0319A80AD0
:1039320000302607A0000030273DA1008030283D3E
:10394200A200A51FB82C2309A6002409A700250957
:10395200A800A60A0319A70A0319A80A0030260715
:10396200A3000030273DA4008030283DA500803010
:10397200A2068030A50625082202031D080024089D
:103982002102031D08002308200208002400AE00C3
:1039920021009D019E0150302400AC002C08210022
:1039A2009E04220097171714171FD52C24002E08E7
:1039B200AC000130AC35FF3E031DDB2C2C35AD00D5
:1039C2002D0821009D0483302400AC002C08210026
:1039D2009E041D14111300302400A3000030A20025
:1039E2000030A1000530A0009C3156249C312100FA
:1039F2009D149D18FA2C1C082400AB01AB07210072
:103A02001B082400AA01AA070800F700F6017008A3
:103A12007102031C0800F6017108760203180800FF
:103A22007008F200F301F209F309F20A0319F30A2A
:103A320071087207F40073080318730AF500750819
:103A4200803A803C031D272D7408760203183B2D13
:103A5200760870077707F20072088600870101086E
:103A6200F30076087707F40074088600870173086C
:103A72008100422D76087707F200720886008701DE
:103A820081010130F2007208F6070D2D2400A20018
:103A920023009E019D012400221C512D23001E168D
:103AA2002400A21C572D23001E171D172400221DBF
:103AB2005C2D23009E172400A21D622D23001D16DB
:103AC200642D23009D162400221E692D23001E153D
:103AD2002400221F712D2000911221009116732DB6
:103AE200210091122400A21F7B2D2000111221001F
:103AF20011167D2D210011122400200823009B00A5
:103B02002400210823009C009E169D170800200017
:103B120023082204210420040319C22DA901A90AA1
:103B2200A31B9F2D0130A035A10DA20DA30D890B62
:103B3200942D0130A8002808A907912D23082702F7
:103B4200031DAD2D22082602031DAD2D21082502DD
:103B5200031DAD2D20082402031CB72D2008A4024A
:103B62002108A53B2208A63B2308A73B0130A33628
:103B7200A20CA10CA00C890BB82D0130A902031DC7
:103B82009F2D2708A3002608A2002508A1002408CB
:103B9200A00008002000A00023001E1F102EF8081D
:103BA2000319FA2D072E20002008FA00FB017A08DB
:103BB200F0007B08F1000330E72D20002008FA0016
:103BC200FB017A08F0007B08F1000230FC007C085F
:103BD200F2009B312B239D31FD0023001E087D0640
:103BE200FE397D060F2E23001E14102E23001E10F8
:103BF200102E24006008013A0319D42D033A031948
:103C0200DE2D013A0319F42DF72D102E013079051E
:103C1200FA0023001E087A06FE397A069E00230067
:103C22009E1C102E2000200823009A00080079080C
:103C32002000A1007808A000A136A00C01302005C8
:103C4200A20000302105A3007908A5007808A4008D
:103C5200A536A40CA536A40CFF302405F0000030D4
:103C62002505F1000330A6002608F2009B312B2324
:103C72009E312000A700A80123082806031D432E19
:103C820022082706031D5F2E7908A1007808A000EC
:103C9200A136A00CA136A00CFF302005FA0000309E
:103CA2002105FB007A0890310B209E312000A000F4
:103CB200A1012008FA002108FB00612EFA01FB0194
:103CC2007B08F901F9077A08F801F80708000030C3
:103CD2002000A3000030A2000030A1000030A000AC
:103CE2007608F101F1077508F001F0077708F9008D
:103CF2007908F2009A3150229E317008FA00710858
:103D0200FB00FC01FD011030FA35FB0DFC0DFD0D31
:103D1200890B852E7D082000A3007C08A2007B0869
:103D2200A1007A08A0007608F101F1077508F001F8
:103D3200F0077708013EF9007908F2009A31502223
:103D42007008FA007108FB00FC01FD017A082000EE
:103D5200A0047B08A1047C08A2047D08A304230814
:103D6200F8002208F7002108F6002008F5000800F4
:103D720000302400B1000030B0000030AF0000304D
:103D8200AE002608A101A1072508A001A007270867
:103D9200A9002908A2009B31BE239E3124002008DD
:103DA200AA002108AB00AC01AD011030AA35AB0D61
:103DB200AC0DAD0D890BD72E2D08B1002C08B0002B
:103DC2002B08AF002A08AE002608A101A10725088A
:103DD200A001A0072708013EA9002908A2009B31E3
:103DE200BE2324002008AA002108AB00AC01AD01CB
:103DF2002A08AE042B08AF042C08B0042D08B10425
:103E02003108A8003008A7002F08A6002E08A50038
:103E120008002400AE0023001E1F532F2400A80810
:103E220003193B2F482F2E08AA00AB012A08A00035
:103E32002B08A1000330262F24002E08AA00AB0174
:103E42002A08A0002B08A1000230AC002C08A20016
:103E52009B315B239F312400AD0023001E08240008
:103E62002D06FE392D06512F23001E14532F230039
:103E72001E10532F24006008013A0319142F033A2D
:103E820003191D2F013A0319352F382F532F0130F3
:103E92002905AA0023001E0824002A06FE392A0644
:103EA20023009E0023009E1C532F24002E08230073
:103EB2009A0008000030FC000030FB000030FA00DD
:103EC2000030F90073087204710470040319A42FFE
:103ED200FD01FD0AF31B792F0130F035F10DF20DD2
:103EE200F30D890B6E2F0130F8007808FD076B2F58
:103EF2000130F935FA0DFB0DFC0D890B7A2F730891
:103F02007702031D8E2F72087602031D8E2F710811
:103F12007502031D8E2F70087402031C992F7008FE
:103F2200F4027108F53B7208F63B7308F73B79140B
:103F32000130F336F20CF10CF00C890B9A2F0130A0
:103F4200FD02031D792F7C08F3007B08F2007A083A
:103F5200F1007908F000080000302400AC000030C5
:103F6200AB000030AA000030A9002308220421047B
:103F720020040319F72FAD01AD0AA31BCC2F01308A
:103F8200A035A10DA20DA30D890BC12F0130A800F0
:103F92002808AD07BE2F0130A935AA0DAB0DAC0D17
:103FA200890BCD2F23082702031DE12F22082602A9
:103FB200031DE12F21082502031DE12F2008240201
:103FC200031CEC2F2008A4022108A53B2208A63BD3
:103FD2002308A73B29140130A336A20CA10CA00C84
:103FE200890BED2F0130AD02031DCC2F2C08A3004D
:0E3FF2002B08A2002A08A1002908A000080040
:020000040001F9
:04000E0064CFFBFEC2
:00000001FF
