:100000008031E128143400347E14803120007F08D0
:10001000A200A3012700931E7C2822000E162C307C
:1000200020006A0203187A280B306A02031830286D
:1000300001302400A035A10D890B1A281030993108
:1000400078218031003A03192A2801302400A007C2
:100050000030A13D2400A401A501A601A70172283A
:10006000163020006A020318482801302400A43505
:10007000A50D890B37281030993178218031003A4D
:100080000319722801302400A4070030A53D72280E
:10009000213020006A020318602801302400A635B0
:1000A000A70D890B4F281030993178218031003A03
:1000B0000319722801302400A6070030A73D7228DA
:1000C00001302400A235A30D890B6228103099312C
:1000D00078218031003A0319722801302400A207E8
:1000E0000030A33D01302000A1002108EA072200D2
:1000F000ED01EE01DF307F28131E8528EF30200050
:10010000A100210827009305DC282000911EBA28B1
:1001100022008E152400A801A9012000A3012300BC
:100120001D1D95282000A301A30A9831CB20803102
:100130002000A1002108A4002308013A031DAB28D8
:10014000A408031DB728A030FA008630FB009A31BE
:1001500033228031B728F801F80A003023001D1837
:100160000130F900200024089E3122268031200031
:100170009112DC28911CDB28210091100130200015
:10018000A10021082100EB0702302000A100210876
:1001900022008E06053021006B02031CD828680857
:1001A0000319D4280000D62822008E142100EB0168
:1001B00020009110DC28000020002208FF007E10A3
:1001C00009008031E328E601E701E801E901EA01DD
:1001D0002100E801E901EA01EB015F308400013010
:1001E00085000E309831C5208031A0308400013068
:1001F00085000F309831C5208031203084000230D6
:1002000085000C309831C5208031220080310220D9
:100210008031ED00803103208031EE000B3084000E
:10022000993085002C308600023087000C309831E0
:10023000BF207E1020008E312A2E2500E0010030E4
:1002400022006E02143003196D0203182C290130AC
:10025000ED070030EE3D2E292000EA011430220087
:100260006D066E04031D080020006A0803190800CB
:1002700020309931F1218131210091120B30200081
:100280006A02031C9A29240021082300A101A10766
:10029000240020082300A001A0072108B0002008A6
:1002A000AF00B036AF0C01302F05B1000030300583
:1002B000B2002108B4002008B300B436B30CB43641
:1002C000B30CFF3033052000A500003023003405B7
:1002D0002000A60003302300B50035082000A70049
:1002E0009A31DF2281312300B600B7013208370688
:1002F000031D7C2931083606031D98292108B0000A
:100300002008AF00B036AF0CB036AF0CFF302F0571
:10031000A00000303005A10020089D3178258131F2
:100320002300AF00B0012F08A0003008A1009A29D7
:10033000A001A101163020006A02031CF829240044
:1003400025082300A501A507240024082300A401F3
:10035000A4072508B0002408AF00B036AF0C013068
:100360002F05B10000303005B2002508B400240884
:10037000B300B436B30CB436B30CFF3033052000F1
:10038000A5000030230034052000A6000330230020
:10039000B50035082000A7009A31DF228131230003
:1003A000B600B70132083706031DD82931083606D2
:1003B000031DF4292508B0002408AF00B036AF0CA7
:1003C000B036AF0CFF302F05A40000303005A5007B
:1003D00024089D31782581312300AF00B0012F081A
:1003E000A4003008A500F829A001A101A401A501DD
:1003F000213020006A02031C582A24002708230009
:10040000A701A707240026082300A601A60727089E
:10041000B0002608AF00B036AF0C01302F05B10098
:1004200000303005B2002708B4002608B300B43607
:10043000B30CB436B30CFF3033052000A5000030F8
:10044000230034052000A60003302300B500350842
:100450002000A7009A31DF2281312300B600B701C6
:1004600032083706031D362A31083606031D522A84
:100470002708B0002608AF00B036AF0CB036AF0C7E
:10048000FF302F05A60000303005A70026089D315B
:10049000782581312300AF00B0012F08A600300875
:1004A000A700582AA001A101A401A501A601A70146
:1004B0002C3020006A02031CBA2A240023082300DF
:1004C000A301A307240022082300A201A2072308F6
:1004D000B0002208AF00B036AF0C01302F05B100DC
:1004E00000303005B2002308B4002208B300B4364F
:1004F000B30CB436B30CFF3033052000A500003038
:10050000230034052000A60003302300B500350881
:100510002000A7009A31DF2281312300B600B70105
:1005200032083706031D962A31083606031DB22A03
:100530002308B0002208AF00B036AF0CB036AF0CC5
:10054000FF302F05A20000303005A30022089D31A6
:10055000782581312300AF00B0012F08A2003008B8
:10056000A300BA2AA001A101A401A501A601A70127
:10057000A201A3012300230822040319D52AF03085
:100580002006210403190A2CF0302406250403193F
:100590000A2CF0302606270403190A2CF030220614
:1005A000230403190A2C00000A2C23002708260420
:1005B00003192A2BF03020062104031D052BF030EF
:1005C000260627040319052BE03020062104031911
:1005D000052BE030240625040319052BE030260600
:1005E00027040319052B26089931B1218131003ADE
:1005F0000319052B23002708A101A1072608A00144
:10060000A007A401A501A601A701E0302300200650
:100610002104031D0A2CF03024062504031D0A2C96
:10062000113026062704031D182B2200E7010A2C8F
:100630001430230026062704031D212B2200E80185
:100640000A2C7130230026062704031D0A2C2200E1
:10065000E6010A2C23002508240403190A2CF03093
:1006600020062104031DAF2B123024062504031D90
:100670003B2BAD01502B593024062504031D422B82
:10068000AA01502B143024062504031D4A2B2200F6
:10069000EA01502B11302300240625040319AC0174
:1006A000593023002406250403195B2B123024063D
:1006B0002504031DA72BAD08031D0A2CAA08031D42
:1006C0000A2CED308C318B2481310038031D712BC5
:1006D00000308C318B2481310038031D712B2300B5
:1006E000AE012300290803198E2BA8010A30280225
:1006F00003180A2CED308C318B2481310038031D16
:10070000882B04308C318B248131003803190A2C5A
:1007100001302300AF002F08A807762BA8010A306C
:10072000280203180A2CED308C318B2481310038DB
:10073000031DA12B00308C318B248131003803192B
:100740000A2C01302300AF002F08A8078F2B583048
:1007500024062504031D0A2C2200E4010A2CE030A3
:10076000230020062104031D0A2C11302406250431
:10077000031DBE2B2200E701E70AD12B1430230012
:1007800024062504031DC82B2200E801E80AD12B0A
:100790007130230024062504031DD12B2200E6011D
:1007A000E60A2500DC01DC0A2200E708031DDE2B37
:1007B0002300AC08031DDE2B2500DC012500DD0134
:1007C000DD0A2200EA08031DEA2BE808031DEA2BD4
:1007D0002500DD01220066082300AF00B0012500DE
:1007E0005D085C072300B100B201B20D2F0831078C
:1007F000B3003008323DB40003303306340403192B
:100800000A2C240899319E2181312300AF002F0842
:100810002500E0002300210820040319632D25088A
:100820002404031D632D27082604031D632D2308BC
:100830002204031D632D123020062104031D232CE6
:10084000AD01AD0A2A2C593020062104031D2A2CA3
:10085000AA01AA0A2D08013A031D322C22006B08B6
:1008600003193B2C23002A08013A031D7B2C22008C
:10087000E908031D7B2CED308C318B24813100384D
:10088000031D7B2C2300290803195F2CA8010A30C3
:10089000280203187B2CED308C318B2481310038F9
:1008A000031D592C05308C318B24813100380319FC
:1008B000782C01302300AF002F08A807472CA8018F
:1008C000662C01302300AF002F08A8070A30280249
:1008D00003187B2CED308C318B2481310038031DC3
:1008E000612C01308C318B2481310038031D612C47
:1008F0002300AE01AE0A1430230020062104031D9C
:10090000852C2200EA01EA0A632D1130230020061B
:100910002104031D8E2CAC01AC0A632DEE302006A1
:100920002104031D992C0130AF002F082100E9009C
:10093000632D5830230020062104031D1A2D2200A8
:10094000E401E40AE508031D632D230029080319C7
:10095000E12C2E080319C52CA8010A30280203181F
:10096000632DED308C318B2481310038031DBF2C79
:1009700001308C318B24813100380319D82C01309F
:100980002300AF002F08A807AD2CA8010A302802C9
:100990000318632DED308C318B2481310038031D19
:1009A000DB2C00308C318B2481310038031DDB2C93
:1009B0002300A901632D01302300AF002F08A807F1
:1009C000C62C2E080319FD2CA8010A302802031892
:1009D000632DED308C318B2481310038031DF72CD1
:1009E00005308C318B24813100380319102D0130F2
:1009F0002300AF002F08A807E52CA8010A30280221
:100A00000318632DED308C318B2481310038031DA8
:100A1000142D04308C318B2481310038031D142DAA
:100A20002300A901A90A632D01302300AF002F087C
:100A3000A807FE2C2E08013A031D3B2D20089931F2
:100A4000B12181312300AF002F082500E0002300F1
:100A500029080319552D413025006002031C542D2F
:100A60005B3060020318542D20302300AF002F08A4
:100A70002500E007542D2300200899318B21813176
:100A80002300AF002F082500E000230029080319E8
:100A9000552D613025006002031C542D7B3060020F
:100AA0000318542D2030E00223002500E008031D28
:100AB000632D230020089931432181312300AF00A9
:100AC0002F082500E0002500DE01DE0A2200E708ED
:100AD000031D702D2300AC08031D702D2500DE01C1
:100AE0002500DF01DF0A2200EA08031D7C2DE8084B
:100AF000031D7C2D2500DF01220066082300AF00C6
:100B0000B00125005F085E072300B100B201B20DFD
:100B10002F083107B3003008323DB40003303306EC
:100B20003404031D0F2E52302000B4008B30B5006A
:100B30009B31A623813100302000A8000030A7009F
:100B40002730A6001030A5009B31D9238131220027
:100B5000E308031DD42D0030E2000030E100003036
:100B6000E0000030DF002300AB012200E301E30AD4
:100B70007B302000B4008B30B5009B31A62381313F
:100B800000302000A8000030A7002730A600103059
:100B9000A5009B31D92381312000AD01AE013E304B
:100BA0009E317A268131072E00302200E20000308B
:100BB000E1002530E0008030DF00FB302000B40091
:100BC0008930B5009B31A623813100302000A80078
:100BD0000030A7002730A6001030A5009B31D92394
:100BE0008131220062082000D70022006108200025
:100BF000D600220060082000D50022005F082000F7
:100C0000D400D80196319B2681312200E3012200D5
:100C1000EA01E801E7012300AC012200E60125001A
:100C200060080319C62F6008013A031D202EA0306A
:100C30002000AF008630B0009A3158228131C52F94
:100C40002200E308031D512E2000AD01AE01250056
:100C500060089E317A268131250060080D3A031D17
:100C6000C62F00302000A8000030A7001330A600D7
:100C70008830A5009B31D92381312000AD01AE0120
:100C80000A309E317A26813100302000A8000030E1
:100C9000A7002730A6001030A5009B31D923813151
:100CA000C52F25006008993125218131003A0319AB
:100CB000AF2E00302000A8000030A7000030A600B2
:100CC0000A30A500220062082000AC002200610862
:100CD0002000AB00220060082000AA0022005F086C
:100CE0002000A9009A31AF2281312000280822007B
:100CF000E200200027082200E10020002608220050
:100D0000E000200025082200DF0025006008D03E1A
:100D10002300AF00FF3003180030B0002F08B100EF
:100D20003008B2000030B21BFF30B300B40031080D
:100D30002200DF07230032082200E03D23003308B1
:100D40002200E13D230034082200E23D2000AD01F5
:100D5000AE01250060089E317A268131C52F25001D
:100D600060086F3A0319B82E60084F3A031DC42E6D
:100D70002300AB01AB0A2000AD01AE0125006008E5
:100D80009E317A268131C52F25006008653A031906
:100D9000CD2E6008453A031DDB2E02302300AF0044
:100DA0002F08AB002000AD01AE01250060089E3188
:100DB0007A268131C52F250060086D3A0319E42E8B
:100DC00060084D3A031DF22E03302300AF002F08B8
:100DD000AB002000AD01AE01250060089E317A26EF
:100DE0008131C52F25006008733A0319FB2E600876
:100DF000533A031D092F04302300AF002F08AB0026
:100E00002000AD01AE01250060089E317A268131B7
:100E1000C52F250060080D3A031DC62F5230200053
:100E2000B4008B30B5009B31A62381310030200007
:100E3000A8000030A7002730A6001030A5009B3185
:100E4000D9238131003022006202031D312F00308E
:100E50006102031D312F09306002031D312F603004
:100E60005F02031CAF2F00306202031D412F0130CF
:100E70006102031D412FC2306002031D412F01306A
:100E80005F020318AF2FA0302000BD000230BE006B
:100E90004A30BF008A30C000220062082000C4002F
:100EA000220061082000C300220060082000C20068
:100EB00022005F082000C10094319F248131A030BE
:100EC0002000B4000230B5009B31A62381312300FD
:100ED0002B0803198D2F802FEA302000B4008A30B0
:100EE000912FBA302000B4008A30912F9F3020001B
:100EF000B4008B30912F8D302000B4008B30912FB7
:100F000023002B08013A03196C2F033A0319712FA0
:100F1000013A0319762F7B2F952F11302000B40052
:100F20008A30B5009B31A62381312200620820005F
:100F3000D700220061082000D600220060082000AF
:100F4000D50022005F082000D40023002B08AF004A
:100F50002F082000D80096319B268131C32F6B309B
:100F60002000B4008A30B5009B31A62381310030C7
:100F70002000A8000030A7002730A6001030A500F0
:100F80009B31D92381312200E30125002300A001F8
:100F9000A101A401A501A601A701A201A3012400AA
:100FA000A001A101A401A501A601A701A201A3011D
:100FB000220064082300AF002F082200E500230070
:100FC0002D08AF002F082200EB0023002A08AF00F5
:100FD0002F082200E900EF302300AF002F08220085
:100FE0008E052100911620309931C421200008007F
:0E0FF000FE302000A500250821009D05080008
:101000000034113400340C340A34063407341434F8
:101010000034123410340E340B34003400340034F5
:1010200000341C34003400341A34003400340034EA
:101030000034003400340034003400340034003410
:101040000034003400340034003400340034003400
:1010500000340034003400340034003400340034F0
:1010600000340034003400340034003400340034E0
:1010700000340034003400340034003400340034D0
:1010800000340034003400340034003400340034C0
:1010900000340034003400340034003400340034B0
:1010A00000340034003400340034003400340034A0
:1010B0000034003400340034003400340034003490
:1010C0000034003400340034003400340034003480
:1010D0000034003400340034003400340034003470
:1010E0000034003400340034003400340034003460
:1010F000133400340034003400340034003400343D
:101100000034003400340F340934603400340034C7
:10111000003400340034003471343134003400348D
:1011200000347A3473346134773432340034003428
:101130006334783464346534343433340034003404
:1011400020347634663474347234353400340034E8
:101150006E346234683467347934363400340034A1
:1011600000346D346A347534373438340034003424
:101170002C346B3469346F343034393400340034F7
:101180002E342F346C343B3470342D34003400341E
:101190000034273400345B343D34003400340034F0
:1011A00000340D345D3400345C34003400340034D9
:1011B0000034003400340034003408340034003487
:1011C00031340034343437340034003400343034B3
:1011D0002E3432343534363438341B340034003451
:1011E0002B3433342D342A34393409347E340034EA
:1011F00000340034003400340034513421340034DD
:10120000003400345A3453344134573440340034B9
:1012100000344334583444344534243423340034C3
:101220000034203456344634543452342534003497
:1012300000344E3442344834473459345E34003438
:10124000003400344D344A34553426342A340034C2
:1012500000343C344B3449344F342934283400347E
:1012600000343E343F344C343A3450345F3400342C
:1012700000340034223400347B342B340034003406
:10128000003400340D347D3400347C3400340034B8
:1012900000340034003400340034003408340034A6
:1012A0000034313400343434373400340034003402
:1012B00030342E3432343534363438341B34003440
:1012C00000342B3433342D342A3439341E34003472
:1012D00000341F340034003400340034003400344F
:1012E0000034003400340034193400340034003445
:1012F00000340034003400341D3400340034003431
:10130000003400340034003400340034003400343D
:10131000003400340034003400340034003400342D
:10132000003400340034003400340034003400341D
:1013300000340034003400340034003400342F34DE
:1013400000340034003400340034003400340034FD
:1013500000340034003400340034003400340D34E0
:1013600000340034003400340034003400340034DD
:1013700000340034003400340034003401340034CC
:101380000334163400340034003415347F3404340C
:10139000003405340234003400340034003418348E
:1013A00000340034173401340034003400340A347B
:1013B0000034003400346434003400340034E83441
:1013C0000334003400341034273400340034A034A3
:1013D000863401340034403442340F3400348034D5
:1013E0009634983400340034E134F5340534003454
:1013F000CA349A343B344B346534793442346F34D4
:101400006134723464342034523465347334653456
:101410007434203474346F342034393436343034F6
:1014200030342034773469347434683420346E3482
:101430006F342034703461347234693474347934E4
:1014400020346234693474340D340A340034543432
:101450006F3420344334683461346E346734653417
:1014600020344234413455344434203468346934AF
:1014700074342034223443344E3454342B344134C5
:101480004C3454342B34443445344C3422340D34ED
:101490000A3400344B346534793442346F34613467
:1014A000723464342034423461347534643420340A
:1014B000773469346C346C342034623465342034CD
:1014C000733465347434203474346F3420342534E8
:1014D0006C34753400344B346534793442346F34B1
:1014E0006134723464342034423461347534643489
:1014F00020344F347534743420346F3466342034DF
:10150000523461346E34673465340D340A34003437
:10151000503453342F34323420344B3465347934DE
:1015200062346F34613472346434203474346F3410
:101530002034523453342D343234333432340D3475
:101540000A3400344B346534793442346F346134B6
:10155000723464342034503472346F3467347234EB
:1015600061346D3420344634613469346C340D3464
:101570000A340034203477346934743468342034C5
:101580004534763465346E342034703461347234CA
:1015900069347434793420346234693474340D34E9
:1015A0000A3400344E346F3420344B34653479348B
:1015B00062346F34613472346434203463346F3491
:1015C0006E346E34653463347434653464340D348D
:1015D0000A34003420347734693474346834203465
:1015E0004F34643464342034703461347234693478
:1015F0007434793420346234693474340D340A34E8
:10160000003449346E3469347434693461346C3470
:1016100069347A346134743469346F346E3420340C
:101620004634613469346C340D340A3400344B343C
:101630006534793442346F34613472346434203424
:101640004234613475346434203469347334203462
:1016500025346C34753400344B3465347934623459
:101660006F34613472346434203443346F346E34F4
:101670006E34653463347434653464340D340A3440
:10168000003456346F346C347434613467346534E8
:10169000203474346F346F34203448346934673400
:1016A000683421340D340A34003456346F346C34C9
:1016B0007434613467346534203474346F346F3477
:1016C00020344C346F34773421340D340A340034F0
:1016D0004634693472346D3477346134723465342D
:1016E0002034563465347234733469346F346E3454
:1016F0003A342034003445346E34743465347234F2
:1017000020344234613475346434203472346134AA
:10171000743465340D340A34003420347734693439
:101720007434683420345334703461346334653431
:1017300020346234693474340D340A340034203473
:10174000773469347434683420344D3461347234FD
:101750006B3420346234693474340D340A34003408
:101760004B346534793462346F34613472346434A8
:101770002034503461347334733421340D340A34DA
:1017800000342000A50023009F012000250823002D
:101790009F00080020003808BC003908BD003A0846
:1017A000BE003B08BF0003103E0D3F0DC0004008C7
:1017B000C600C608031DE52B0030B7000030B60098
:1017C0000030B5000030B40008003408BC00350813
:1017D000BD003608BE003708BF0003103E0D3F0DA8
:1017E000C0004008C700C708031DFF2B0030B7002A
:1017F0000030B6000030B5000030B4000800893079
:101800004707BC003C08C6023808BC003908BD00C8
:101810003A08BE003B08BF001830BF36BE0CBD0CF6
:10182000BC0C890B0D2C3C08C0004008C7003408D4
:10183000BC003508BD003608BE003708BF001830B0
:10184000BF36BE0CBD0CBC0C890B202C3C08C00064
:101850004008C7068030BC003C08C705BA17FF30F7
:10186000B805FF30B905FF30BA050030BB05B61723
:10187000FF30B405FF30B505FF30B6050030B705C1
:101880002030BC003C08C5000130C135C20DC30D7D
:10189000C40D890B452C37083B02031D592C360813
:1018A0003A02031D592C35083902031D592C3408FE
:1018B0003802031C642C3408B8023508B93B3608DA
:1018C000BA3B3708BB3B41140130B835B90DBA0DEE
:1018D000BB0D890B652C0130C502031D442C440847
:1018E000A8004308A7004208A6004108A500460832
:1018F000BC003C08A9004708BD003D08AA00903183
:10190000012020002808B7002708B6002608B500E7
:101910002508B40008002000B400B5013408AF0069
:10192000B0012F08A5003008A6000330B10031082F
:10193000A7009A31DF228C312000B2003208B300B8
:10194000B601B70100309831DE208C31003098317B
:10195000E9208C31DF302000AF002F0822008C05F9
:1019600000302000A8000030A7000130A6002C3075
:10197000A5009B31D9238C31EF302000AF002F0818
:1019800022008C0500302000A8000030A7000030A5
:10199000A6001430A5009B31D9238C310130983139
:1019A000DE208C312000B601B7012030993166214C
:1019B0008C3100380319F22C000001302000B607EA
:1019C0000030B73D3A303702993003193602031C14
:1019D000D52C01309831DE208C3101309831E9204E
:1019E000013008002000B5010830350203184E2DE3
:1019F000341CFD2C22000C16032DEF302000AF000C
:101A00002F0822008C0503102000B40CB601B7018A
:101A10002030993166218C31003A031D252D0000BC
:101A200001302000B6070030B73D3A303702993018
:101A300003193602031C082D01309831DE208C3149
:101A400001309831E920013008002000B601B701CB
:101A50002030993166218C3100380319452D000062
:101A600001302000B6070030B73D3A3037029930D8
:101A700003193602031C282D01309831DE208C31E9
:101A800001309831E9200130080001302000AF001A
:101A90002F08B50708303502031CF82C331C532DD2
:101AA00022000C16592DEF302000AF002F08220025
:101AB0008C052000B601B7012030993166218C31A8
:101AC000003A031D792D000001302000B6070030D8
:101AD000B73D3A303702993003193602031C5C2DAA
:101AE00001309831DE208C3101309831E92001300D
:101AF00008002000B601B7012030993166218C31F1
:101B000000380319992D000001302000B60700307D
:101B1000B73D3A303702993003193602031C7C2D49
:101B200001309831DE208C3101309831E9200130CC
:101B3000080001309831E9208C312000B601B7014E
:101B40001030993166218C3100380319BD2D000009
:101B500001302000B6070030B73D3A3037029930E7
:101B600003193602031CA02D01309831DE208C3180
:101B700001309831E920013008002000B601B7019A
:101B80002030993166218C3100380319DD2D000099
:101B900001302000B6070030B73D3A3037029930A7
:101BA00003193602031CC02D01309831DE208C3120
:101BB00001309831E920013008002000B601B7015A
:101BC0001030993166218C31003A031DFD2D000043
:101BD00001302000B6070030B73D3A303702993067
:101BE00003193602031CE02D01309831DE208C31C0
:101BF00001309831E920013008002000B601B7011A
:101C00002030993166218C31003A031D1D2E0000D1
:101C100001302000B6070030B73D3A303702993026
:101C200003193602031C002E01309831DE208C315E
:101C300001309831E9200130080001309831DE2070
:101C40008C3101309831E9208C3120309931C42118
:101C5000003008002100E701993154218E319A317A
:101C600010228E31953193258E319831FF208E319F
:101C70002100E7010A3067020318682E22000E16C1
:101C800000302000A8000030A7002730A600103048
:101C9000A5009B31D9238E31EF302000E500650887
:101CA00022008E0500302000A8000030A700273059
:101CB000A6001030A5009B31D9238E3101302000C1
:101CC000E50065082100E7070A306702031C3E2E85
:101CD00020309931F1218E3152302000B4008B3008
:101CE000B5009B31A6238E3100302000A8000030C3
:101CF000A7002730A6001030A5009B31D9238E31D4
:101D000088302000B4008A30B5009B31A6238E3184
:101D100000302000A8000030A7001330A600883053
:101D2000A5009B31D9238E3168302000B4008B3060
:101D3000B5009B31A6238E3134302000B400023030
:101D4000B5009B31A6238E3152302000B4008B3079
:101D5000B5009B31A6238E3100302000A800003052
:101D6000A7001330A6008830A5009B31D9238E31FF
:101D700027302000B4008A30B5009B31A6238E3175
:101D800000302000A8000030A7002730A600103047
:101D9000A5009B31D9238E319D31CD258E31003860
:101DA000031D2A2F9D31CD258E310038031D2A2F8A
:101DB000D2302000B4008A30B5009B31A6238E318A
:101DC0009D31CD258E31003A031D2A2F90316C2094
:101DD0008E3120005F08E9005E08E8005D08E7003A
:101DE0005C08E6006908A8006808A7006708A60064
:101DF0006608A5004030AC00BB30AB003330AA0011
:101E00003330A9009F319A278E31031C1D2F41309A
:101E10002000A800A030A7000030A6000030A500D8
:101E20006908AC006808AB006708AA006608A9004A
:101E30009F319A278E310318272F02302000E500AA
:101E4000650822008E062400AA01AB01E02E2200C4
:101E50008E14E02E2C302000B4008B30B5009B3166
:101E6000A6238E319331AC238E310038031D492FC8
:101E700000302000A8000030A7002730A600103056
:101E8000A5009B31D9238E3101302000B4008B3066
:101E90004D2FB0302000B4008B30B5009B31A6230D
:101EA0008E3190316C208E3120005F08E9005E0891
:101EB000E8005D08E7005C08E6006908A80068081B
:101EC000A7006708A6006608A5004030AC00BB303C
:101ED000AB003330AA003330A9009F319A278E31EE
:101EE0000318772F55302000B4008B30912F4130EC
:101EF0002000A800A030A7000030A6000030A500F8
:101F00006908AC006808AB006708AA006608A90069
:101F10009F319A278E310318952F41302000B4004D
:101F20008B30B5009B31A6238E3120309931C421EE
:101F30008E3190316C208E3120005F08E9005E0800
:101F4000E8005D08E7005C08E6006908A80068088A
:101F5000A7006708A6006608A5004030AC00BB30AB
:101F6000AB003330AA003330A9009F319A278E315D
:101F7000031CD02F41302000A800A030A700003063
:101F8000A6000030A5006908AC006808AB0067082F
:101F9000AA006608A9009F319A278E310318E62F00
:101FA00001302400AA070030AB3D03302B02E9309A
:101FB00003192A02031CE82F02302000E5006508FF
:101FC00022008E062400AA01AB01E82F22008E1405
:101FD000003024002902643003192802031CF72F63
:101FE000F7302000E500650822008E05FC2F013047
:101FF0002400A8070030A93D81311D218E31992F81
:102002002000290803190B28280827042604250480
:10201200031D1F280030A8000030A7000030A600D2
:102022000030A50008000130AB002B08A9070130E1
:10203200A836A70CA60CA50C890B1928FE3028057A
:102042000319372814280130AB002B08A9070130E7
:10205200A5070030A63D0030A73D0030A83D013065
:10206200A836A70CA60CA50C890B3128FF30280531
:102072000319452824280130A9020130A535A60DEF
:10208200A70DA80D890B3F28A71F3C282918512806
:10209200FF30A505FF30A6057F30A705FF30A80554
:1020A2000310A90C2908AB00AC01AD01AE01183038
:1020B200AB35AC0DAD0DAE0D890B59282B08A5041F
:1020C2002C08A6042D08A7042E08A8042A08031920
:1020D2000800A8170800FE302000E0006008220077
:1020E2008E0502309C31902490312000300821006E
:1020F200A501A50720002F082100A401A40787310C
:10210200F827903122000E14033017052000E0005A
:102112006008033A031D942802302100A435A50D5E
:10212200890B8F28A3280330220017052000E00026
:102132006008023A031DA32801302100A435A50D31
:10214200890B9F2840302000CB00B630CA00663091
:10215200C9006630C8004430B7007A30B60000309B
:10216200B5000030B400210025082000B001B007FE
:10217200210024082000AF01AF079931D921903105
:1021820020003208BB003108BA003008B9002F081D
:10219200B8008B31CA23903120003708CF003608AF
:1021A200CE003508CD003408CC009031F820200054
:1021B2004B082100A30020004A082100A2002000B1
:1021C20049082100A100200048082100A00023089E
:1021D2002000DF00210022082000DE00210021086B
:1021E2002000DD00210020082000DC000800200083
:1021F2004808D0004908D1004A08D2004B08D30051
:102202000310520D530DD4005408D500D508031DF8
:1022120013290030CB000030CA000030C900003062
:10222200C80008004C08D0004D08D1004E08D2006A
:102232004F08D3000310520D530DD4005408DB0095
:10224200DB08031D2D290030CB000030CA0000300E
:10225200C9000030C80008005B087B3ED00050086F
:10226200D5074808D0004908D1004A08D2004B08D7
:10227200D3001830D336D20CD10CD00C890B3B29A9
:102282005008D4005408DB004C08D0004D08D1009F
:102292004E08D2004F08D3001830D336D20CD10CDE
:1022A200D00C890B4E295008D4005408DB0680302C
:1022B200D0005008DB05CA17CE17FF30CC05FF301F
:1022C200CD05FF30CE050030CF050030D9000030FB
:1022D200D8000030D7000030D6000730D0005008B8
:1022E200DA00481C7C294C08D6074D08D73D4E0819
:1022F200D83D4F08D93D0130CB36CA0CC90CC80CA9
:10230200890B7D290130CC35CD0DCE0DCF0D890B3A
:1023120084290130DA02031D72291130D0005008DD
:10232200DA00481C9C294C08D6074D08D73D4E08B8
:10233200D83D4F08D93D0130CB36CA0CC90CC80C68
:10234200890B9D290130D936D80CD70CD60C890BB4
:10235200A4290130DA02031D92295908A80058085D
:10236200A7005708A6005608A5005508D000500837
:10237200A9005B08D1005108AA0090310120200079
:102382002808CB002708CA002608C9002508C8006B
:10239200080022000E153C008F013D00A201013011
:1023A2003C008F009931172191312000C301C201F5
:1023B2004317C31543163708B80038082100EA004E
:1023C200200036082400AF00200035082400AE00AB
:1023D200200034082400AD00200033082400AC00A3
:1023E200200037080319F729C314FB29FD30B80070
:1023F2003808C305C2153608A8003508A7003408F6
:10240200A6003308A5000130AC00E830AB0048302C
:10241200AA000030A9009D3125259131FF3020000E
:102422002507C400FF30263DC500FF30273DC6000A
:10243200FF30283DC700FF30B800FF30B900FF3041
:10244200BA00FF30BB004408BC004508BD00460886
:10245200BE004708BF000230BF36BE0CBD0CBC0C2C
:10246200890B2D2A3C08B8073D08B93D3E08BA3D04
:102472003F08BB3D3B08C7003A08C6003908C50003
:102482003808C4004508C101C1074408C001C0079B
:1024920023001D1220004108A601A6074008A5013D
:1024A200A50743089C310E249131200042088B314C
:1024B200C12391319831D42091312000B800B90163
:1024C200BA01BB013B08C7003A08C6003908C5007B
:1024D2003808C4009831D42091312000B800B901E5
:1024E200BA01BB013B08C7003A08C6003908C5005B
:1024F2003808C4009831D42091312000B800B901C5
:10250200BA01BB013B08C7003A08C6003908C5003A
:102512003808C4009831D42091312000B800B901A4
:10252200BA01BB013B08C7003A08C6003908C5001A
:102532003808C4009831D4202000B800B901BA018B
:10254200BB013B08C7003A08C6003908C500380875
:10255200C4003C008F0114303D00A20012303C0048
:10256200A5001530A40001308F00200091120B1736
:10257200080020302000B30033082100E500E2010A
:10258200E601650866020318332B01302000B30010
:1025920033082100E207620820003202031CEF2AFE
:1025A2003108860002308700403FB300413FB4004B
:1025B20034083F39B50035082100E0002000310819
:1025C2008600023087000108B30033082100E100D1
:1025D20002302000B3003308B107152B3008A601E2
:1025E200A6072F08A501A507210066082000B30051
:1025F2003308A7009B314123923120002608210095
:10260200E401E407200025082100E301E307640850
:102612003F392000B30033082100E00063082000A6
:10262200B30033082100E100210060082000B3005C
:1026320021006608A03E8600870120003308810041
:10264200210061082000B30021006608C03E860018
:1026520087012000330881000130B30033082100D4
:10266200E607C22A20003008A601A6072F08A50106
:10267200A5079B311023923100302000A8000030C2
:10268200A7000330A600E830A5009B31D923923180
:102692007F302000B30033088B0523001515BF30AF
:1026A2002000B300330823009505DF302000B3007B
:1026B200330823009505EF302000B30033082300D0
:1026C200950520003008B4002F08B300B436B30CCF
:1026D200B436B30CB436B30C33087F3923009200FE
:1026E20020002F080739B3000430B335FF3E031D25
:1026F200762B3335230091002100E601650866023E
:102702000318A42B6608A03E860087010108230057
:10271200940021006608C03E86008701010823005C
:102722009300000000009831F42092310130200023
:10273200B30033082300910701302000B3003308AF
:102742002100E6077F2BFB302000B3003308230073
:1027520095058B17080020309931F1219331ED3026
:102762008C318B249331003A0319B92B00300800C5
:1027720000302000A8000030A7000030A60064301E
:10278200A5009B31D923933101308C318B249331B5
:10279200003A0319CE2B0030080000302000A800B8
:1027A2000030A7001330A6008830A5009B31D92342
:1027B2009331ED308C318B249331003A0319E32BA2
:1027C2000030080000302000A8000030A7000030D0
:1027D200A6006430A5009B31D923933104308C319B
:1027E2008B249331003A0319F82B00300800003093
:1027F2002000A8000030A7001330A6008830A500F2
:102802009B31D9239331ED308C318B249331003AB3
:1028120003190D2C0030080000302000A800003001
:10282200A7000330A600E830A5009B31D9239331DD
:1028320002308C318B249331003A0319222C003060
:10284200080000302000A8000030A7001330A600C6
:102852008830A5009B31D9239331ED308C318B2404
:102862009331003A0319372C003008000030200061
:10287200A8000030A7000030A6006430A5009B31FC
:10288200D923933100308C318B249331003A0319D0
:102892004C2C00300800F4308C318B249331003AF8
:1028A2000319552C00300800F4308C318B249331FD
:1028B200003A03195E2C00300800F0308C318B2472
:1028C2009331003A0319672C0030080000302000D1
:1028D200A8000030A7000030A6006430A5009B319C
:1028E200D923933102308C318B249331003A03196E
:1028F2007C2C00300800F3308C318B249331003A69
:102902000319852C0030080000302000A800003098
:10291200A7000030A6006430A5009B31D923933173
:102922002F308C318B249331003A03199A2C0030CA
:10293200080020309931C4210130080041302000C4
:10294200C5004508D2004008C6003F08C500BF0ABE
:102952000319C00A45088400460885000008C7001C
:102962004708D300D30803198D2D5308253A0319BC
:10297200C52C3D0886003E088700530881000130BF
:10298200BD070030BE3DA42CCB01CE2C4B16CE2C65
:10299200C030C5004508CB04E52C4008C6003F08FE
:1029A200C500BF0A0319C00A45088400460885000D
:1029B2000008D300003A03198D2D6C3A0319C72C75
:1029C200193A0319C92CA42C4B1EF42C5208860068
:1029D2008701403FCE00413FCF00423FD000433FFE
:1029E200D1000430022D520886008701403FC50005
:1029F200413FC6004508CE004608CF00D001D101B4
:102A02000230C5004508D207D301D30A53080A3A57
:102A12000319382D5308C500C601C535C60DC53585
:102A2200C60DD330450784008930463D8500003FFE
:102A3200C700013FC800023FC900033FCA004A085D
:102A42005102031D2E2D49085002031D2E2D480848
:102A52004F02031D2E2D47084E02031C382D013054
:102A6200C5004508D30753080A3A031D0B2D530826
:102A7200CC00CD01CC1BCD03FF30CC07FF30CD3DC8
:102A8200FF304D06031D472DFF304C060319A42CC1
:102A92000030B6000030B5000030B4000A30B30098
:102AA2004D0885004C0884008435850D8435850DDC
:102AB200D33084078930853D003FA500013FA60041
:102AC200023FA700033FA8005108AC005008AB002A
:102AD2004F08AA004E08A9009D31252594312000F7
:102AE2002808BA002708B9002608B8002508B70048
:102AF2009C314D24943120003308303EC5004508F6
:102B0200D3003D0886003E0887005308810001304B
:102B1200BD070030BE3D3D2D3D0886003E088700C2
:102B22008101080000302100DF000030DE000030AB
:102B3200DD000030DC000030E4000030E300003053
:102B4200E2000030E100E001C0302000B7000030B8
:102B5200B800B9019F313627953120003A0821008B
:102B6200DF00200039082100DE00200038082100A3
:102B7200DD00200037082100DC00FF305C05E100A9
:102B8200FF305D05E2000F305E05E30000305F05B7
:102B9200E4005C082000D40021005D082000D5007C
:102BA20021005E082000D60021005F082000D70027
:102BB2001430D736D60CD50CD40C890BDA2D540828
:102BC2000F39D80058082100E00000306402031DCC
:102BD200F42D00306302031DF42D09306202031D3F
:102BE200F42D60306102031C062E00306402031DC6
:102BF200042E01306302031D042EC2306202031D43
:102C0200042E01306102031C0F2E0030E40000305C
:102C1200E3002530E2008030E100E001640820009A
:102C2200B600210063082000B500210062082000E0
:102C3200B400210061082000B300210060082000D8
:102C4200D4005408B7009131CA2195315230200086
:102C5200B4008B30B5009B31A623953100302000A3
:102C6200A8000030A7002730A6001030A5009B3135
:102C7200D9239531A0302000BD000030BE001730AE
:102C8200BF008B30C000210064082000C400210076
:102C920063082000C300210062082000C200210056
:102CA20061082000C10094319F249531A03020009A
:102CB200B4000030B5009B31A62395312100600895
:102CC2000319852E782EEA302000B4008A30892E2E
:102CD200BA302000B4008A30892E9F302000B40020
:102CE2008B30892E8D302000B4008B30892E21004C
:102CF2006008013A0319642E033A0319692E013A56
:102D020003196E2E732E8D2E11302000B4008A30DE
:102D1200B5009B31A623953100302000A800003079
:102D2200A7002730A6001030A5009B31D9238B15B0
:102D32008B17080000302200D5000030D40000308C
:102D4200D3000030D2000030D9000030D80000306B
:102D5200D7000030D600DE01C0302000B6000030BF
:102D6200B7005708BB005608BA005508B900540806
:102D7200B8005808D9005908BC009E31D8269631AF
:102D8200C0302000B7000030B800B9019F313627AB
:102D9200963120003A082200DD0020003908220086
:102DA200DC00200038082200DB0020003708220067
:102DB200DA00FF305A05D200FF305B05D3000F3036
:102DC2005C05D40000305D05D5005A082000D9000A
:102DD20022005B082000DA0022005C082000DB00F1
:102DE20022005D082000DC001430DC36DB0CDA0C3B
:102DF200D90C890BF62E59080F39DD00DE01DF01EF
:102E0200E00160082200D90020005F082200D800FB
:102E120020005E082200D70020005D082200D600B4
:102E220020005708B6005608B5005508B4005408EB
:102E3200B3005808D9005908B7009131CA21963118
:102E420052302000B4008B30B5009B31A62396315E
:102E520000302000A8000030A7002730A600103064
:102E6200A5009B31D9239631220055082000570630
:102E7200031D4B2F2200540820005606031D4B2F22
:102E82002200530820005506031D4B2F2200520832
:102E920020005406031D6A2F5808D900DA01DB010D
:102EA200DC012200590820005C06031D682F220065
:102EB200580820005B06031D682F220057082000D7
:102EC2005A06031D682F22005608200059060319CE
:102ED2007D2FA230B4008A30B5009B31A6239631F3
:102EE20000302000A8000030A7002730A6001030D4
:102EF200A5009B31D92396312200DE010A305E0201
:102F02000318AC2F0E1600302000A8000030A700D6
:102F12002730A6001030A5009B31D9239631EF301F
:102F22002000D900590822008E0500302000A80098
:102F32000030A7002730A6001030A5009B31D9230E
:102F4200963101302000D90059082200DE070A30EC
:102F52005E02031C832F20302000BD000130BE0022
:102F62001730BF008B30C0005708C4005608C3009A
:102F72005508C2005408C10094319F249631203074
:102F82002000B4000130B5009B31A6239631200009
:102F920058080319ED2FE02FEA30B4008A30F02FE1
:102FA200BA302000B4008A30F02F9F302000B400E5
:102FB2008B30F02F8D302000B4008B30F02F2000AA
:102FC2005808013A0319CD2F033A0319D12F013AB8
:102FD2000319D62FDB2FF42F1130B4008A30B5003D
:102FE2009B31A623963100302000A8000030A700B4
:0E2FF2002730A6001030A5009B31D92308001F
:10317E00FE0012001E00FE0BC02800346400800109
:10318E000131890BC628003423009D181D12190821
:10319E00F0007008F1007108080023009D181D1240
:1031AE0019082000A5002508A60026080800200002
:1031BE00A500A508031DE62821008C120800210099
:1031CE008C1608002000A500A508031DF12821007B
:1031DE000C12080021000C16080055302300960032
:1031EE00AA30960095149518FA28000000000800E1
:1031FE0001309831DE20983101309831E920983134
:10320E0020309931332108008034253400340034C5
:10321E00003400348034253431342E3432340034CA
:10322E004F302000A500250823009D059E12CF30AB
:10323E002000A50025082100910508002000A5000A
:10324E0030302502031C31293A302502031831296A
:10325E0001300800003008002000A5002700910171
:10326E00920120002508203A031D402927009216BE
:10327E0008002700121608002000A5008430250241
:10328E00031852292508003E840088300318013E99
:10329E0085000008080000300800F0302100990079
:1032AE0000301A1801301A05031957294030200032
:1032BE00A500250821009A05031D08005D292000A0
:1032CE00A5002508203A031D72298C1E7029013095
:1032DE000800003008000C1E76290130080000306E
:1032EE000800F0007008203A031D842920008C1E6F
:1032FE008229013008000030080020000C1E8929A8
:10330E0001300800003008002000A5000D30A50295
:10331E007130250203189C292508843E84008830CC
:10332E000318013E85000008080000300800200048
:10333E00A5001130A5026D3025020318AF2925080E
:10334E00663E840089300318013E8500000808009F
:10335E00003008002000A5000D30A50271302502B6
:10336E000318C2292508F53E840088300318013E53
:10337E00850000080800003008002000A60026087E
:10338E00203A031DD129DF30A5002508270093051B
:10339E0092160800EF302000A5002508270093059F
:1033AE001216080020002F08A5003008A600A7015D
:1033BE00A8019630B3003308A900AA01903101206C
:1033CE0020002808B2002708B1002608B000250802
:1033DE00AF0008002000A6002608203A031D032A8D
:1033EE00DF30A500250827009205DF302000A5005C
:1033FE002508270093050800EF302000A5002508BA
:10340E0027009205EF302000A50025082700930520
:10341E00080022008E018C0121000E118E108E11DB
:10342E000E120C150E1022008E143C008F0114305B
:10343E003D00A20012303C00A5001530A400013062
:10344E008F0023008C010C158E0121009513203066
:10345E0024008E008C01080022000E153C008F0106
:10346E003D00A20101303C008F00FB30FC007C08C7
:10347E0022008E057A08F0007B08F100F201F301BC
:10348E009B31732322000E153C008F0114303D003A
:10349E00A20012303C00A5001530A40001308F00B0
:1034AE00080022000E153C008F013D00A2010130E4
:1034BE003C008F00FB302000B100310822008E0549
:1034CE0020002F08A5003008A600A701A8019B31F7
:1034DE00D92322000E153C008F0114303D00A200AE
:1034EE0012303C00A5001530A40001308F000800FA
:1034FE00F701F6017108F501F5077008F401F407FC
:10350E00F7010830770203189F2A741C922A0130A3
:10351E00F3007308F6070130F536F40C890B932A85
:10352E000130F3007308F70708307702031C8C2A6A
:10353E007208033A031DA92A7618A72A013008003B
:10354E0000300800761CAD2A01300800003008005B
:10355E0000302000B0000030AF000030AE00003070
:10356E00AD00251CC22A2908AD072A08AE3D2B083E
:10357E00AF3D2C08B03D0130A935AA0DAB0DAC0DF9
:10358E00890BC32A0130A836A70CA60CA50C890BF3
:10359E00CA2A2808270426042504031DB82A300841
:1035AE00A8002F08A7002E08A6002D08A5000800C9
:1035BE002000AC01AB012608AA01AA072508A90123
:1035CE00A907AC0108302C020318002B291CF32A82
:1035DE000130A8002808AB070130AA36A90C890BC8
:1035EE00F42A0130A8002808AC0708302C02031C6E
:1035FE00ED2A2708033A031D0A2B2B18082B01303E
:10360E000800003008002B1C0E2B01300800003083
:10361E0008007F302000A70027088B05BF30A700C9
:10362E0027082300950520002608A8002508A700D6
:10363E00A836A70CA836A70CA836A70C27087F39E2
:10364E0023009200200025080739A7000430A73573
:10365E00FF3E031D2E2B2735230091001516151541
:10366E009831F420FB302000A70027082300950591
:10367E008B170800BF302000A800280823009505EE
:10368E0020002608A9002508A800A936A80CA936EE
:10369E00A80CA936A80C28087F3923009200200018
:1036AE0025080739A8000430A835FF3E031D5B2B03
:1036BE00283527072300910015141518642B0000D8
:1036CE000000230014082000A601A60723001308FB
:1036DE002000A501A50708000030F8000030F70013
:1036EE000030F6000030F5007808803AF4007308D8
:1036FE00803A7402031D8D2B72087702031D8D2BE9
:10370E0071087602031D8D2B7008750203180800D0
:10371E00F9012030790203189D2B00000130F400CE
:10372E007408F90720307902031C942B0630F50734
:10373E000030F63D0030F73D0030F83D7B2B003079
:10374E002000A8000030A7001330A6008830A50086
:10375E009B31D9239B312000340884003508850025
:10376E000008003A0319C82BAD01AE0134088400DD
:10377E003508850000089E317A269B3123009E1C59
:10378E00C52B20003508B7003408B600B40A03195B
:10379E00B50A36088400370885000008003803197A
:1037AE000800A62B00302000AD000030AC00003029
:1037BE00AB000030AA002D08803AA9002808803AF4
:1037CE002902031DF42B27082C02031DF42B2608B7
:1037DE002B02031DF42B25082A0203180800AE0144
:1037EE0020302E020318052C000001302000A90005
:1037FE002908AE0720302E02031CFB2B0630AA0729
:10380E000030AB3D0030AC3D0030AD3DE22B200032
:10381E00A70023009E019D012000271C182C2300C9
:10382E001E162000A71C1E2C23001E171D1720007D
:10383E00271D232C23009E172000A71D292C2300B3
:10384E001D162B2C23009D162000271E302C230026
:10385E001E152000271F372C911221009116392C8E
:10386E00210091122000A71F402C111221001116C9
:10387E00422C210011122000250823009B0020005D
:10388E00260823009C009E169D170800200036086F
:10389E003504340433040319872CBC01BC0AB61B4F
:1038AE00642C0130B335B40DB50DB60D890B592C02
:1038BE000130BB003B08BC07562C36083A02031DEC
:1038CE00722C35083902031D722C34083802031D80
:1038DE00722C33083702031C7C2C3308B7023408D1
:1038EE00B83B3508B93B3608BA3B0130B636B50C95
:1038FE00B40CB30C890B7D2C0130BC02031D642C5F
:10390E003A08B6003908B5003808B4003708B300D5
:10391E0008002000B30021009D019E0150302000C0
:10392E00B100310821009E042200971703302000B9
:10393E00B100310822009704171FA32C2000330872
:10394E00B1000130B135FF3E031DA92C3135B20057
:10395E00320821009D0483302000B100310821007F
:10396E009E041D14111300302000A8000030A70083
:10397E000030A6000530A5009B31D9239C312100D3
:10398E009D149D18C82C1C082000B001B007210002
:10399E001B082000AF01AF07080000302000B60062
:1039AE000030B5000030B4000030B3002B08A60183
:1039BE00A6072A08A501A5072C08AE002E08A70009
:1039CE009B3141239C3120002508AF002608B00012
:1039DE00B101B2011030AF35B00DB10DB20D890B82
:1039EE00F22C3208B6003108B5003008B4002F08AA
:1039FE00B3002B08A601A6072A08A501A5072C08C7
:103A0E00013EAE002E08A7009B3141232000250861
:103A1E00AF002608B000B101B2012F08B304300880
:103A2E00B4043108B5043208B6043608AD003508C2
:103A3E00AC003408AB003308AA00080000302000A8
:103A4E00B1000030B0000030AF000030AE002808EA
:103A5E0027042604250403196F2DB201B20AA81BF0
:103A6E00442D0130A535A60DA70DA80D890B392DB6
:103A7E000130AD002D08B207362D0130AE35AF0D39
:103A8E00B00DB10D890B452D28082C02031D592DA3
:103A9E0027082B02031D592D26082A02031D592D16
:103AAE0025082902031C642D2508A9022608AA3B15
:103ABE002708AB3B2808AC3B2E140130A836A70CC8
:103ACE00A60CA50C890B652D0130B202031D442DE9
:103ADE003108A8003008A7002F08A6002E08A50060
:103AEE0008002000A800A70128080139A50006300B
:103AFE00A535FF3E031D7F2D2535A6002608A707F9
:103B0E0028080239A5000430A535FF3E031D8B2D74
:103B1E002535A6002608A70728080439A500023077
:103B2E00A535FF3E031D972D2535A6002608A707B0
:103B3E00280808390907A5002508A70728360839D7
:103B4E00A5002508A7072808A5000330A536890B70
:103B5E00AD2D25080439A6002608A7072808A500BC
:103B6E000530A536890BB82D25080239A600260882
:103B7E00A7072808A5000730A536890BC32D2508F1
:103B8E000139A6002608A7072708080000302000E4
:103B9E00E4000030E3000030E2000030E1002100DC
:103BAE00E901EE308C318B249D3120309931C421C6
:103BBE009D3100302000E4000030E3000030E200D0
:103BCE000030E100F32D01302000E1070030E23D2E
:103BDE000030E33D0030E43D00306402031D012E51
:103BEE0000306302031D012E13306202031D012EED
:103BFE00883061020318162E81311D219D3100304F
:103C0E002000A8000030A7000030A6000A30A50052
:103C1E009B31D9239D31210069080319EA2D2030EB
:103C2E009931F1219D31210069080319202E0130AF
:103C3E000800003008002000A00023001E1F672E81
:103C4E00F8080319512E5E2E20002008FA00FB0101
:103C5E007A08F0007B08F10003303E2E2000200889
:103C6E00FA00FB017A08F0007B08F1000230FC003C
:103C7E007C08F2009A317F229E31FD0023001E083F
:103C8E007D06FE397D06662E23001E14672E230048
:103C9E001E10672E21006A08013A03192B2E033AD3
:103CAE000319352E013A03194B2E4E2E672E013075
:103CBE007905FA0023001E087A06FE397A069E0060
:103CCE00200020080A3A031D742E780803190800F4
:103CDE00200823009A00200008002000200823005E
:103CEE009A00200008002000B30023001E1FC52EDE
:103CFE002000AD080319AC2EB92E20003308AF00FA
:103D0E00B0012F08A5003008A6000330972E200022
:103D1E003308AF00B0012F08A5003008A60002300E
:103D2E00B1003108A7009A31DF229E312000B20087
:103D3E0023001E0820003206FE393206C32E230051
:103D4E001E14C52E23001E10C52E21006A08013A2E
:103D5E000319842E033A03198E2E013A0319A62E47
:103D6E00A92EC52E013020002E05AF0023001E08FF
:103D7E0020002F06FE392F0623009E002000330858
:103D8E000A3A031DD22E2D0803190800330823000A
:103D9E009A00200008002000330823009A0020001B
:103DAE00080020003C080739BD00BE01BF01C0015C
:103DBE001430BD35BE0DBF0DC00D890BE02EFF308A
:103DCE003805C100FF303905C2000F303A05C30077
:103DDE0000303B05C4004108BD074208BE3D430804
:103DEE00BF3D4408C03D4008C8003F08C7003E081C
:103DFE00C6003D08C500FF3045052400B2003F3027
:103E0E00200046052400B30020004508BD004608EA
:103E1E00BE004708BF004808C0000E30C036BF0CB9
:103E2E00BE0CBD0C890B152FFF303D052400B000D4
:103E3E003F3020003E052400B10020003708B001BD
:103E4E00B0073608AF01AF073030BD003D08B100F6
:103E5E000230BE003E08B2009231BA2208002000A5
:103E6E003808AB01AB073708AA01AA073908BB000F
:103E7E003B08AC009C31D4249F3120002D08C60095
:103E8E002C08C5002B08C4002A08C300FF304305C8
:103E9E002400B2003F30200044052400B30020006F
:103EAE004308BB004408BC004508BD004608BE00E0
:103EBE000E30BE36BD0CBC0CBB0C890B602FFF3018
:103ECE003B052400B0003F3020003C052400B1002B
:103EDE0032082000BB00240033082000BC00BD01C6
:103EEE00BE01240030082000BF002400310820004D
:103EFE00C000C101C2010C30BF35C00DC10DC20DD5
:103F0E00890B832F3F08BB074008BC3D4108BD3DD0
:103F1E004208BE3D3E08BA003D08B9003C08B80054
:103F2E003B08B70008002000A81FC42F0030AD00CA
:103F3E000030AE000030AF008030B0002509B10077
:103F4E002609B2002709B3002809B400B10A0319E3
:103F5E00B20A0319B30A0319B40A3108AD073208BD
:103F6E00AE3D3308AF3D3408B03D3008A8002F08F1
:103F7E00A7002E08A6002D08A500AC1FED2F0030BF
:103F8E00AD000030AE000030AF008030B000290927
:103F9E00B1002A09B2002B09B3002C09B400B10AF2
:103FAE000319B20A0319B30A0319B40A3108AD078B
:103FBE003208AE3D3308AF3D3408B03D3008AC009A
:103FCE002F08AB002E08AA002D08A9008030A806E5
:103FDE008030AC062C082802031D08002B0827028F
:103FEE00031D08002A082602031D080029082502C1
:023FFE000800B9
:020000040001F9
:04000E0064CFFBFEC2
:00000001FF
