:040000008031E6283D
:100008007E14803120007F08EF002100C201270004
:10001800931E7528203090310020803121009110E6
:10002800911222000E1601302000EE006E08210009
:10003800D2070130C935CA0D890B1E2800001030BF
:100048009931FB218031003A03192F280130210012
:10005800C9070030CA3D210052080B3A031D602829
:100068000C30510203185D284A08F901F9074908BC
:10007800F801F8079E311526803178082000EE0037
:100088006E082100C400440803195B2844082000B6
:10009800EE0021005108D63E8600870120006E0838
:1000A80081000130EE006E082100D1075D28D301E0
:1000B800D30AD201C901CA019831CE20803120006B
:1000C8009110210091149831D1208031DF30200027
:1000D800EE006E08270093052030993143218031C6
:1000E800E128131E82281030903100208031EF3033
:1000F8002000EE006E0827009305E1282000911EDD
:10010800BF2822008E152400DA01DB012100C2017C
:1001180023001D1D92282100C201C20A993108211D
:1001280080312000EE006E082100C3009831F220D3
:100138008031003A0319BC2821004208013A031D06
:10014800B028C308031DBC28A030FA008630FB0085
:100158009A315F228031BC28F801F80A0030230068
:100168001D180130F9002100430890311120803119
:1001780020009112E128911CE1282100911098316A
:10018800CB20803120309031002080312100D201F5
:10019800C901CA0153080319D728993100218031B0
:1001A8002100D301DA2881311B21803121009116E9
:1001B8002030993143212000911020006F08FF0062
:1001C8007E1009008031E828C530840000308500A1
:1001D8001D309831EC208031E130840001308500F9
:1001E8000F309831EC208031573084000230850080
:1001F8000A309831EC208031FC308400863085004C
:10020800E23086000030870004309831E6208031E3
:10021800D73084009830850061308600023087002E
:1002280004309831E6207E1020008A31982A230075
:10023800E00121005108031908002100D108031921
:100248000800560803193D2E5608BC00BD013C089D
:100258002300E10021003D082300E200F0306106A0
:100268006204031D622921005608BC00BD013C0838
:100278002300E10021003D082300E2002100570887
:10028800BC00BD013C082300E30021003D08230019
:10029800E400E03063066404031D73292100580854
:1002A800BC00BD013C082300E50021003D082300F7
:1002B800E60003302100D10203307729E030230023
:1002C80061066204031D7E2921005708BC00BD0198
:1002D8003C082300E30021003D082300E40002302D
:1002E8002100D1020230BC003C08F0000C30BD00F7
:1002F8003D08862901302100D102F001F00A0C30B6
:10030800BC003C08F100D6309C31C924813123005F
:10031800660865040319B229E03061066204031D0A
:100328008B2AF03063066404031D8B2A113065069E
:100338006604031DA129E9018B2A143065066604A9
:10034800031DA9292100CF018B2A713023006506DE
:100358006604031D8B2A2100CE018B2A2300640822
:10036800630403198B2AF03061066204031D362AE0
:10037800123063066404031DC329EE01D6295930DF
:1003880063066404031DCA29EA01D62914306306EA
:100398006404031DD129ED01D629113063066404D4
:1003A8000319EC015930630664040319E02912307B
:1003B80063066404031D2E2AEE08031D8B2AEA082F
:1003C800031D8B2AED308E31722681310038031DD2
:1003D800F62900308E31722681310038031DF62946
:1003E8002300EF01230068080319142AE7010A30E3
:1003F800670203188B2AED308E317226813100385E
:10040800031D0D2A04308E317226813100380319FC
:100418008B2A01302100BC003C082300E707FB2998
:10042800E7010A30670203188B2AED308E317226F5
:1004380081310038031D272A00308E317226813120
:10044800003803198B2A01302100BC003C08230026
:10045800E707152A583063066404031D8B2A210018
:10046800CC018B2AE030230061066204031D8B2A2D
:10047800113063066404031D442AE901E90A562A77
:10048800143063066404031D4D2A2100CF01CF0AEE
:10049800562A7130230063066404031D562A21007E
:1004A800CE01CE0A2300DC01DC0AE908031D602A1C
:1004B800EC08031D602ADC01DD01DD0AED08031DDF
:1004C8006B2A2100CF08031D6B2A2300DD012100C0
:1004D8004E08BC00BD0123005D085C072100BE007A
:1004E800BF01BF0D3C083E07C0003D083F3DC100AD
:1004F80003304006410403198B2A2300630899310D
:10050800C52181312100BC003C082300E000230004
:10051800620861040319DA2B64086304031DDA2BEB
:1005280066086504031DDA2B123061066204031D98
:10053800A02AEE01EE0AA72A593061066204031DBB
:10054800A72AEA01EA0A6E08013A031DAF2A210028
:1005580054080319B82A23006A08013A031DFA2A25
:100568002100D008031DFA2AED308E317226813120
:100578000038031DFA2A230068080319DD2AE70159
:100588000A3067020318FA2AED308E31722681315B
:100598000038031DD62A05308E3172268131003885
:1005A8000319F72A01302100BC003C082300E707A3
:1005B800C42AE701E52A01302100BC003C082300D9
:1005C800E7070A3067020318FA2AED308E317226DF
:1005D80081310038031DDF2A01308E3172268131C6
:1005E8000038031DDF2A2300EF01EF0A143023002F
:1005F80061066204031D032BED01ED0ADA2B1130AD
:1006080061066204031D0B2BEC01EC0ADA2BEE30B9
:1006180061066204031D142B2400DF01DF0ADA2BB4
:100628005830230061066204031D992B2100CC0178
:10063800CC0ACD08031DDA2B2300680803195E2BAA
:100648006F080319412BE7010A3067020318DA2BF8
:10065800ED308E31722681310038031D3A2B01307E
:100668008E317226813100380319542B0130210054
:10067800BC003C082300E707282BE7010A30670283
:100688000318DA2BED308E31722681310038031DC4
:10069800572B00308E31722681310038031D572BBD
:1006A8002300E801DA2B01302100BC003C082300BC
:1006B800E707422B6F0803197B2BE7010A30670213
:1006C8000318DA2BED308E31722681310038031D84
:1006D800742B05308E3172268131003803198E2B28
:1006E80001302100BC003C082300E707622BE7012A
:1006F8000A3067020318DA2BED308E317226813109
:100708000038031D922B04308E3172268131003857
:10071800031D922B2300E801E80ADA2B013021009F
:10072800BC003C082300E7077C2B6F08013A031D37
:10073800B82B61089931D72181312100BC003C08D0
:100748002300E00068080319CE2B41306002031C27
:10075800CE2B5B3060020318CE2B20302100BC006A
:100768003C082300E007CE2B61089931B321813181
:100778002100BC003C082300E00068080319CE2BC8
:1007880061306002031CCE2B7B3060020318CE2B35
:100798002030E002E008031DDA2B61089931A3211B
:1007A80081312100BC003C082300E0002300DE0169
:1007B800DE0AE908031DE42BEC08031DE42BDE0127
:1007C800DF01DF0AED08031DEF2B2100CF08031D11
:1007D800EF2B2300DF0121004E08BC00BD012300E0
:1007E8005F085E072100BE00BF01BF0D3C083E0741
:1007F800C0003D083F3DC100033040064104031DD1
:10080800872C41302000A1008A30A2009B31C023F0
:1008180081310030F3000030F2002730F100103051
:10082800F0009B31F22381312100CB08031D432CBA
:100838000030C8000030C7000030C6000030C500D6
:100848002300EB012100CB01CB0A31302000A100AD
:100858008A30A2009B31C02381310030F300003080
:10086800F2002730F1001030F0009B31F223813183
:10087800F801F9013E309031112081317E2C003091
:100888002100C8000030C7002530C6008030C500F0
:1008980005302000A1008A30A2009B31C02381319D
:1008A80026302000A1008930A2009B31C02381316D
:1008B80041302000A1008A30A2009B31C023813141
:1008C8000030F3000030F2002730F1001030F00063
:1008D8009B31F223813121004808B2004708B1005A
:1008E8004608B0004508AF00B3018C31F6248131C9
:1008F8002100CB012300ED012100CF012300E901F4
:10090800EC012100CE012300600803191E2E6008A7
:10091800013A031D9A2C9831DB208131A030FA006E
:100928008630FB009A315F2281311D2E2100CB08D1
:10093800031DC72CF801F90123006008903111202C
:100948008131230060080D3A031D1E2E0030F3008C
:100958000030F2001330F1008830F0009B31F223B0
:100968008131F801F9010A309031112081310030CC
:10097800F3000030F2002730F1001030F0009B3116
:10098800F22381311D2E230060089931882181319D
:10099800003A03190E2D0030F3000030F200003049
:1009A800F1000A30F00021004808F7004708F60077
:1009B8004608F5004508F4009B313023813173085F
:1009C8002100C8007208C7007108C6007008C50079
:1009D80023006008D03E2100BC00FF30031800301F
:1009E800BD003C08BE003D08BF000030BF1BFF3003
:1009F800C000C1003E08C5073F08C63D4008C73DC6
:100A08004108C83DF801F901230060089031112020
:100A180081311D2E230060086F3A0319172D6008D5
:100A28004F3A031D202DEB01EB0AF801F90160088C
:100A38009031112081311D2E23006008653A031979
:100A4800292D6008453A031D362D02302100BC00CF
:100A58003C082300EB00F801F901600890311120EF
:100A680081311D2E230060086D3A03193F2D60085F
:100A78004D3A031D4C2D03302100BC003C082300D7
:100A8800EB00F801F90160089031112081311D2E29
:100A980023006008733A0319552D6008533A031D63
:100AA800622D04302100BC003C082300EB00F80153
:100AB800F90160089031112081311D2E2300600852
:100AC8000D3A031D1E2E41302000A1008A30A200DD
:100AD8009B31C02381310030F3000030F200273011
:100AE800F1001030F0009B31F223813100302100F9
:100AF8004802031D892D00304702031D892D093046
:100B08004602031D892D60304502031C082E003063
:100B18004802031D992D01304702031D992DC2304B
:100B28004602031D992D013045020318082EA030F6
:100B38002000AA000130AB009530AC008930AD0030
:100B4800210048082000B100210047082000B0001B
:100B5800210046082000AF00210045082000AE0013
:100B6800963114268131A0302000A1000130A20066
:100B78009B31C023813123006B080319E52DD82D43
:100B880011302000A1008930E92DFB302000A100A0
:100B98008830E92D4A302000A1008930E92D3A300B
:100BA8002000A1008930E92D23006B08013A0319C0
:100BB800C42D033A0319C92D013A0319CE2DD32D9B
:100BC800ED2D26302000A1008930A2009B31C023E2
:100BD800813141302000A1008A30A2009B31C0231E
:100BE800813121004808B2004708B1004608B0002A
:100BF8004508AF0023006B082100BC003C08B30087
:100C08008C31F62481311B2EB6302000A1008930AA
:100C1800A2009B31C02381310030F3000030F20084
:100C28002730F1001030F0009B31F2238131210090
:100C3800CB0123002300E001E101E201E301E4012B
:100C4800E501E60121004C08BC003C08CD0023006A
:100C58006E082100BC003C08D40023006A0821006B
:100C6800BC003C08D000EF30BC003C0822008E05D8
:100C780021290C30F0000030F100D6309A312322BF
:100C880081312100D101212924003C08C2003D08FE
:100C9800C3003E08C4000310430D440DC5004508B9
:100CA800C600C608031D5F2E0030BC000030BD0022
:100CB8000030BE0008003F08C2004008C3004108D9
:100CC800C4000310430D440DC5004508CB00CB08F4
:100CD800031D752E0030BC000030BD000030BE0082
:100CE80008004B087B3EC2004208C6073C08C20009
:100CF8003D08C3003E08C4001030C436C30CC20C03
:100D0800890B812E4208C5004508CB003F08C20068
:100D18004008C3004108C4001030C436C30CC20CDC
:100D2800890B912E4208C5004508CB068030C200C9
:100D38004208CB05BD17C017FF30BF05FF30C005FF
:100D48000030C1050030C7000030C8000030C900BD
:100D58000730C2004208CA003C1CB82E3F08C7072B
:100D68004008C83D4108C93D0130BE36BD0CBC0C29
:100D7800890BB92E0130BF35C00DC10D890BBF2EAF
:100D88000130CA02031DB02E0930C2004208CA0051
:100D98003C1CD42E3F08C7074008C83D4108C93D40
:100DA8000130BE36BD0CBC0C890BD52E0130C936BE
:100DB800C80CC70C890BDB2E0130CA02031DCC2ED0
:100DC8004708A0004808A1004908A2004608C20038
:100DD8004208A3004B08C3004308A40090317020C8
:100DE80024002008BC002108BD002208BE0008001D
:100DF80000340034803425340034113400340C3489
:100E08000A340634073414340034123410340E34DF
:100E18000B3400340034003400341C340034003403
:100E28001A34003400340034003400340034003400
:100E3800003400340034003400340034003400340A
:100E480000340034003400340034003400340034FA
:100E580000340034003400340034003400340034EA
:100E680000340034003400340034003400340034DA
:100E780000340034003400340034003400340034CA
:100E880000340034003400340034003400340034BA
:100E980000340034003400340034003400340034AA
:100EA800003400340034003400340034003400349A
:100EB800003400340034003400340034003400348A
:100EC800003400340034003400340034003400347A
:100ED800003400340034003400340034003400346A
:100EE8000034003400340034133400340034003447
:100EF80000340034003400340034003400340F343B
:100F080009346034003400340034003400340034D0
:100F1800713431340034003400347A347334613439
:100F280077343234003400346334783464346534CC
:100F38003434333400340034203476346634743432
:100F480072343534003400346E34623468346734B3
:100F5800793436340034003400346D346A347534EE
:100F680037343834003400342C346B3469346F34FB
:100F780030343934003400342E342F346C343B345C
:100F880070342D34003400340034273400345B349A
:100F98003D3400340034003400340D345D34003402
:100FA8005C3400340034003400340034003400343D
:100FB80000340834003400343134003434343734E5
:100FC80000340034003430342E343234353436347E
:100FD80038341B34003400342B3433342D342A3461
:100FE800393409347E340034003400340034003499
:100FF8000034513421340034003400345A3453342A
:101008004134573440340034003443345834443481
:1010180045342434233400340034203456344634E0
:10102800543452342534003400344E344234483475
:10103800473459345E340034003400344D344A3473
:10104800553426342A34003400343C344B34493483
:101058004F3429342834003400343E343F344C347F
:101068003A3450345F3400340034003422340034CD
:101078007B342B3400340034003400340D347D3498
:1010880000347C340034003400340034003400343C
:10109800003400340834003400343134003434343B
:1010A800373400340034003430342E34323435349C
:1010B800363438341B34003400342B3433342D3474
:1010C8002A3439341E34003400341F3400340034D8
:1010D8000034003400340034003400340034003468
:1010E800193400340034003400340034003400343F
:1010F8001D3400340034003400340034003400342B
:101108000034003400340034003400340034003437
:101118000034003400340034003400340034003427
:101128000034003400340034003400340034003417
:101138000034003400342F340034003400340034D8
:1011480000340034003400340034003400340034F7
:101158000034003400340D340034003400340034DA
:1011680000340034003400340034003400340034D7
:1011780000340034013400340334163400340034AD
:10118800003415347F340434003405340234003418
:101198000034003400341834003400341734013477
:1011A8000034003400340A34003400340034643429
:1011B800003400340034E83403340034003410348C
:1011C800273400340034A0348634013400344034E9
:1011D80042340F3400348034963498340034003468
:1011E800E134F53405340034CA349A343B342034BD
:1011F800773469347434683420344534763465344B
:101208006E3420347034613472346934743479340F
:1012180020346234693474340034203477346934C7
:101228007434683420344F34643464342034703473
:1012380061347234693474347934203462346934F2
:101248007434003420347734693474346834203486
:101258004E346F34203470346134723469347434E9
:101268007934203462346934743400342034773467
:1012780069347434683420345334703461346334DA
:10128800653420346234693474340034203477345B
:1012980069347434683420344D34613472346B34B6
:1012A8002034623469347434003456346F346C3406
:1012B8007434613467346534203474346F346F3473
:1012C8002034003431342E3433345F3444345734CA
:1012D8003034003454346F34203443346834613447
:1012E8006E346734653420344234413455344434E0
:1012F80020346834693474342034223443344E340E
:10130800543420342B34203441344C345434203475
:101318002B342034443445344C3422340D340A34CC
:1013280000344B346534793442346F346134723468
:10133800643420344234613475346434203477346E
:1013480069346C346C34203462346534203473343A
:1013580065347434203474346F34203425346C3458
:10136800753400344B346534793442346F34613425
:101378007234643420344234613475346434203433
:101388004F347534743420346F3466342034523416
:1013980061346E34673465340D340A3400345034A3
:1013A80053342F34323420344B3465347934623436
:1013B8006F34613472346434203474346F342034BC
:1013C800523453342D343234333432340D340A34F5
:1013D80000344B346534793442346F3461347234B8
:1013E80064342034503472346F3467347234613466
:1013F8006D3420344634613469346C340D340A3425
:1014080000344B346534793442346F346134723487
:10141800643420345234653473346534743420347D
:1014280074346F3420343934363430343034003442
:101438004B346534793442346F34613472346434F3
:10144800203442346134753464342034693473345C
:10145800203425346C347534003445346E34743497
:101468006534723420344234613475346434203441
:10147800723461347434653420340D340A340034E1
:101488004634693472346D34773461347234653477
:101498002034563465347234733469346F346E349E
:1014A8003A34203400344834693467346834213499
:1014B8000D340A3400344C346F34773421340D340D
:1014C8000A340034BF302400A30023082300950504
:1014D80024002108A4002008A300A436A30CA436E5
:1014E800A30CA436A30C23087F3923009200240000
:1014F80020080739A3000430A335FF3E031D802AC6
:10150800233522072300910015141518892A000095
:101518000000230014082400A101A10723001308D8
:101528002400A001A00708002400D6019931E92170
:101538008A319A313B228A318B318E238A31993113
:101548007C218A312400D6010A3056020318D52A94
:1015580022000E1600302400A3000030A20027301D
:10156800A1001030A0009C3158248A31EF302400AB
:10157800D500550822008E0500302400A300003055
:10158800A2002730A1001030A0009C3158248A31D5
:1015980001302400D5005508D6070A305602031C2E
:1015A800AC2A9031D1208A3124004C08D7004D084C
:1015B800D8004E08D9005708A0005808A1005908BB
:1015C800A2009A30A300D130A4004030A5009C317D
:1015D8008D248A310318FD2A59302400AF00893040
:1015E800B0009C3125248A315F302400AF008A3056
:1015F8001B2B00302400A000F030A1004130A200D5
:101608005708A3005808A4005908A5009C318D2448
:101618008A3103181F2B59302400AF008930B000DD
:101628009C3125248A3157302400AF008A30B0001D
:101638009C3125248A312030993170218A3121004A
:1016480091169031D1208A3124004C08D7004D08DA
:10165800D8004E08D9000030A3000030A2000030A6
:10166800A1001430A0009C3158248A312400570866
:10167800A0005808A1005908A2009A30A300D13050
:10168800A4004030A5009C318D248A31031C5E2BB8
:1016980000302400A000F030A1004130A20057081B
:1016A800A3005808A4005908A5009C318D248A314C
:1016B8000318622B2400DE01DE0A662B2400DE01FB
:1016C80022008E1424005E0803197B2B0130DC07EE
:1016D8000030DD3D64305C065D04031D7B2BDC01BE
:1016E800DD010230D500550822008E0624000030A6
:1016F80024005B02643003195A020318882B013056
:10170800DA070030DB3D252BF730D50055082200DD
:101718008E05252B00302500DF000030DE0000306C
:10172800DD000030DC000030E4000030E300003071
:10173800E2000030E100E001C0302400B2000030D7
:10174800B300B4019131F9218B312400350825000B
:10175800DF00240034082500DE00240033082500BB
:10176800DD00240032082500DC00FF305C05E100C4
:10177800FF305D05E2000F305E05E30000305F05D5
:10178800E4005C082400D00025005D082400D10096
:1017980025005E082400D20025005F082400D3003D
:1017A8001430D336D20CD10CD00C890BD52B500861
:1017B8000F39D40054082500E00000306402031DEE
:1017C800EF2B00306302031DEF2B09306202031D6B
:1017D800EF2B60306102031C012C00306402031DF2
:1017E800FF2B01306302031DFF2BC2306202031D71
:1017F800FF2B01306102031C0A2C0030E40000308A
:10180800E3002530E2008030E100E00164082400B4
:10181800B100250063082400B000250062082400F8
:10182800AF00250061082400AE00250060082400F0
:10183800D0005008B200943140248B31003024008D
:10184800A3000030A2002730A1001030A0009C3176
:1018580058248B31D3302400AF008930B0009C313C
:1018680025248B3100302400A3000030A20027304B
:10187800A1001030A0009C3158248B314430240042
:10188800AF008A30B0009C3125248B3166302400AB
:10189800AF008930B0009C3125248B3141302400C1
:1018A800AF008A30B0009C3125248B3100302400F1
:1018B800A3000030A2002730A1001030A0009C3106
:1018C80058248B316E302400AF008930B0009C3131
:1018D80025248B3100302400A3000030A2002730DB
:1018E800A1001030A0009C3158248B3141302400D5
:1018F800AF008A30B0009C3125248B3100302400A1
:10190800A3000030A2002730A1001030A0009C31B5
:1019180058248B31A0302400B8000230B9001C30A4
:10192800BA008A30BB00250064082400BF002500E7
:1019380063082400BE00250062082400BD002500BD
:1019480061082400BC0097310A278B31A03024009D
:10195800AF000230B0009C3125248B31250060088F
:101968000319D82CCB2C11302400AF008930DC2C83
:10197800FB302400AF008830DC2C4A302400AF0054
:101988008930DC2C3A302400AF008930DC2C25006B
:101998006008013A0319B72C033A0319BC2C013A21
:1019A8000319C12CC62CE02C26302400AF00893046
:1019B800B0009C3125248B3141302400AF008A309F
:1019C800B0009C3125248B3100302400A300003066
:1019D800A2002730A1001030A0009C3158248B159C
:1019E8008B17080000302200D5000030D4000030EA
:1019F800D3000030D2000030D9000030D8000030C9
:101A0800D7000030D600DE01C0302100A000003031
:101A1800A1003208A5003108A4003008A3002F084F
:101A2800A2003308B4003408A60092315D228C313C
:101A3800C0302000A4000030A500A60191319521F6
:101A48008C31200027082200DD0020002608220013
:101A5800DC00200025082200DB00200024082200EA
:101A6800DA00FF305A05D200FF305B05D3000F3093
:101A78005C05D40000305D05D5005A082100B4008B
:101A880022005B082100B50022005C082100B60096
:101A980022005D082100B7001430B736B60CB50C2B
:101AA800B40C890B512D34080F39B800B901BA01AB
:101AB800BB013B082200D90021003A082200D800C7
:101AC800210039082200D700210038082200D6005A
:101AD800210032082000A300210031082000A200C4
:101AE800210030082000A10021002F082000A000BC
:101AF80021003308B40034082000A40095312525BE
:101B08008C3141302000A1008A30A2009B31C023D3
:101B18008C310030F3000030F2002730F100103033
:101B2800F0009B31F2238C31220055082100320647
:101B3800031DAE2D2200540821003106031DAE2DD1
:101B48002200530821003006031DAE2D2200520842
:101B580021002F06031DCD2D3308B400B501B601B1
:101B6800B7012200590821003706031DCB2D22009A
:101B7800580821003606031DCB2D220057082100E6
:101B88003506031DCB2D2200560821003406031903
:101B9800E02DED302000A1008930A2009B31C02348
:101BA8008C310030F3000030F2002730F1001030A3
:101BB800F0009B31F2238C312200DE010A305E02F4
:101BC80003180D2E0E160030F3000030F2002730F7
:101BD800F1001030F0009B31F2238C31EF302100FE
:101BE800B400340822008E050030F3000030F20003
:101BF8002730F1001030F0009B31F2238C31013096
:101C08002100B40034082200DE070A305E02031CFB
:101C1800E62D20302000AA000130AB001C30AC00BB
:101C28008A30AD00210032082000B10021003108BF
:101C38002000B000210030082000AF0021002F084C
:101C48002000AE00963114268C3120302000A100EF
:101C58000130A2009B31C0238C31210033080319C5
:101C6800572E4A2E11302000A10089305B2EFB3000
:101C78002000A10088305B2E4A302000A100893066
:101C88005B2E3A302000A10089305B2E21003308FA
:101C9800013A0319362E033A03193B2E013A031968
:101CA800402E452E5F2E26302000A1008930A2004C
:101CB8009B31C0238C3141302000A1008A30A20022
:101CC8009B31C0238C310030F3000030F200273004
:101CD800F1001030F0009B31F22308002000A10031
:101CE800A2012108FA00FB017A08F0007B08F10044
:101CF8000330FC007C08F2009B315F238E31FD002D
:101D08007D082000A000A301A401003099311A2108
:101D18008E310030993124218E31DF30FA007A0873
:101D280022008C050030F3000030F2000130F10091
:101D38002C30F0009B31F2238E31EF30FA007A0814
:101D480022008C050030F3000030F2000030F10072
:101D58001430F0009B31F2238E31013099311A2171
:101D68008E312000A301A40120309931FB218E314E
:101D780000380319D52E000001302000A3070030D9
:101D8800A43D3A302402993003192302031CB82ECB
:101D9800013099311A218E310130993124210130D5
:101DA80008002000A2010830220203182F2F211C4E
:101DB800E02E22000C16E52EEF30FA007A082200F9
:101DC8008C0503102000A10CA301A4012030993137
:101DD800FB218E31003A031D062F01302000A30796
:101DE8000030A43D3A302402993003192302031C21
:101DF800EA2E013099311A218E310130993124218E
:101E0800013008002000A301A40120309931FB21F2
:101E18008E3100380319262F000001302000A30757
:101E28000030A43D3A302402993003192302031CE0
:101E3800092F013099311A218E310130993124212D
:101E4800013008000130FA007A082000A2070830A3
:101E58002202031CDB2E201C342F22000C16392FE3
:101E6800EF30FA007A0822008C052000A301A401B3
:101E780020309931FB218E31003A031D582F013053
:101E88002000A3070030A43D3A30240299300319FA
:101E98002302031C3C2F013099311A218E31013065
:101EA80099312421013008002000A301A401203029
:101EB8009931FB218E3100380319772F013020002A
:101EC800A3070030A43D3A302402993003192302B5
:101ED800031C5B2F013099311A218E310130993161
:101EE8002421013008000130993124218E3120004D
:101EF800A301A40110309931FB218E310038031958
:101F08009A2F01302000A3070030A43D3A30240264
:101F1800993003192302031C7E2F013099311A21AD
:101F28008E31013099312421013008002000A301AD
:101F3800A40120309931FB218E3100380319B92FC3
:101F480001302000A3070030A43D3A302402993024
:101F580003192302031C9D2F013099311A218E3158
:101F6800013099312421013008002000A301A40187
:101F780010309931FB218E31003A031DD82F0130E2
:101F88002000A3070030A43D3A30240299300319F9
:101F98002302031CBC2F013099311A218E310130E4
:101FA80099312421013008002000A301A401203028
:101FB8009931FB218E31003A031DF72F01302000A3
:101FC800A3070030A43D3A302402993003192302B4
:101FD800031CDB2F013099311A218E3101309931E0
:101FE800242101300800013099311A218E31013045
:101FF8009931242100300800F1007108203A031DAE
:102008000B28DF30F0007008270092050800EF3039
:10201800F00070082700920508002000A0002300A7
:102028001E1F5628F808031940284D2820002008AC
:10203800FA00FB017A08F0007B08F10003302D2834
:1020480020002008FA00FB017A08F0007B08F10064
:102058000230FC007C08F2009B315F239031FD00C8
:1020680023001E087D06FE397D06552823001E1410
:10207800562823001E10562824006008013A031928
:102088001A28033A03192428013A03193A283D2843
:10209800562801307905FA0023001E087A06FE3911
:1020A8007A069E00200020080A3A031D672878084F
:1020B8000319080023009E1C5E2820002008230026
:1020C8009A002000080023009E1C67282000200892
:1020D80023009A0020000800240023080319792807
:1020E800220821042004031D8A280030A0000030A3
:1020F800A1000030A20008000130A5002508A307B0
:102108000130A236A10CA00C890B8528FE302205CF
:102118000319A32880280130A5002508A30701304A
:10212800A007003003180130A10700300318013060
:10213800A2070130A236A10CA00C890B9E28FF3003
:1021480022050319B0288F280130A3020130A035D9
:10215800A10DA20D890BAB28A11FA8282318BA2806
:10216800FF30A0057F30A105FF30A2050310A30CA6
:102178002308A500A601A7011030A535A60DA70DB7
:10218800890BC1282508A0042608A1042708A20451
:10219800240803190800A217080002309D31D12530
:1021A800903124002B08D401D4072A08D301D3077F
:1021B8009831F92090310330220017052400CF0010
:1021C8004F08033A031DEE280230D335D40D890B8E
:1021D800E928FC280330220017052400CF004F0807
:1021E800023A031DFC280130D335D40D890BF82899
:1021F8006630BC00B630BD004030BE000030AC00D8
:102208007A30AD004430AE005408A901A90753083C
:10221800A801A8079A310E22903124002808AF009F
:102228002908B0002A08B1009231C5229031240053
:102238002C08BF002D08C0002E08C1008631482692
:1022480024003C08D0003D08D1003E08D2005008C8
:10225800CC005108CD005208CE0008002400AE0082
:1022680023001E1F7B292400A8080319632970294D
:102278002E08AA00AB012A08A0002B08A1000330F1
:102288004E2924002E08AA00AB012A08A0002B081A
:10229800A1000230AC002C08A2009B318F239131A1
:1022A8002400AD0023001E0824002D06FE392D064B
:1022B800792923001E147B2923001E107B29240062
:1022C8006008013A03193C29033A03194529013AE0
:1022D80003195D2960297B2901302905AA002300FB
:1022E8001E0824002A06FE392A0623009E00240020
:1022F8002E080A3A031D8C29280803190800230010
:102308009E1C832924002E0823009A00240008001C
:1023180023009E1C8C2924002E0823009A002400E8
:10232800080020002508F601F6072408F501F5073E
:102338002608A8002808F7009E31652691317808FC
:102348002000B3007708B2007608B1007508B00025
:10235800FF3030052100E4003F3020003105210026
:10236800E50020003008A8003108A9003208AA00BA
:102378003308AB000E30AB36AA0CA90CA80C890B9D
:10238800BF29FF3028052100E2003F302000290541
:102398002100E30064082000A8002100650820004F
:1023A800A900AA01AB01210062082000AC002100AD
:1023B80063082000AD00AE01AF010C30AC35AD0DA7
:1023C800AE0DAF0D890BE2292C08A8072D08A93DF1
:1023D8002E08AA3D2F08AB3D2B08A7002A08A60007
:1023E8002908A5002808A400080024003308A6012D
:1023F800A6073208A501A5073408B6003608A700C5
:102408009E31B626913124002808C1002708C00053
:102418002608BF002508BE00FF303E052100E40065
:102428003F3024003F052100E50024003E08B600A7
:102438003F08B7004008B8004108B9000E30B93667
:10244800B80CB70CB60C890B232AFF3036052100CF
:10245800E2003F30240037052100E300640824002F
:10246800B600210065082400B700B801B9012100B1
:1024780062082400BA00210063082400BB00BC01E4
:10248800BD010C30BA35BB0DBC0DBD0D890B462AFC
:102498003A08B6073B08B73D3C08B83D3D08B93D8A
:1024A8003908B5003808B4003708B3003608B20058
:1024B8000800210026080739A700A801A901AA01D8
:1024C8001430A735A80DA90DAA0D890B652AFF3070
:1024D8002205AB00FF302305AC000F302405AD000A
:1024E80000302505AE002B08A7072C08A83D2D08AD
:1024F800A93D2E08AA3D2A082000ED002100290840
:102508002000EC00210028082000EB00210027080B
:102518002000EA00FF306A052100E4003F30200077
:102528006B052100E50020006A082100A7002000B3
:102538006B082100A80020006C082100A9002000D9
:102548006D082100AA000E30AA36A90CA80CA70C09
:10255800890BA82AFF302705E2003F302805E30051
:102568002108FB01FB072008FA01FA07E230A7005F
:102578002708FC000230A8002808FD0093316E23CC
:10258800080024002F08B2003008B3003108B40056
:102598000310330D340DB5003508BA00BA08031D11
:1025A800DC2A0030AC000030AD000030AE0008007E
:1025B8002C08B2002D08B3002E08B4000310330D08
:1025C800340DB5003508BB00BB08031DF22A0030E6
:1025D800AC000030AD000030AE0008000030B7009D
:1025E8000030B8000030B90089303B07B20032082B
:1025F800BA022F08B2003008B3003108B400103016
:10260800B436B30CB20C890B042B3208B50035086C
:10261800BB002C08B2002D08B3002E08B4001030FF
:10262800B436B30CB20C890B142B3208B50035083C
:10263800BB068030B2003208BB05B017FF30AF05CB
:10264800FF30B0050030B105AD17FF30AC05FF30E5
:10265800AD050030AE051830B2003208B6000130C2
:10266800B735B80DB90D890B342B2E083102031D6F
:10267800432B2D083002031D432B2C082F02031C6B
:102688004C2B2C08AF022D08B03B2E08B13B371459
:102698000130AF35B00DB10D890B4D2B0130B602AD
:1026A800031D332B3708A0003808A1003908A20001
:1026B8003A08B2003208A3003B08B3003308A4006C
:1026C8009031702024002008AC002108AD002208B9
:1026D800AE00080020302000A0002008E800E50136
:1026E800E901680869020318CB2B0130A000200813
:1026F800E50765087D02031C992B7C088600870185
:10270800403FA000413FA10021083F39A200220814
:10271800E3007C08860087010108A0002008E40087
:102728000230A0002008FC07B62B7B08F101F10756
:102738007A08F001F0076908A0002008F2009A3131
:102748008422933171082000E701E7077008E60149
:10275800E60767083F39A0002008E3006608A000E4
:102768002008E4006308A0006908233E860087016A
:10277800200881006408A0006908433E860087019C
:10278800200881000130A0002008E907752B7B088C
:10279800F101F1077A08F001F0079A31AE2293317E
:1027A8000030F3000030F2000330F100E830F000B0
:1027B8009B31F22393317F302000A00020088B0545
:1027C80023001515BF302000A00020082300950520
:1027D800DF302000A000200823009505EF302000FE
:1027E800A0002008230095057B082000A1007A0896
:1027F800A000A136A00CA136A00CA136A00C200880
:102808007F39230092007A0807392000A00004309D
:10281800A035FF3E031D0C2C20352300910020001D
:10282800E901680869020318392C6908233E860003
:10283800870101082300940020006908433E8600B0
:102848008701010823009300000000009931382116
:10285800933101302000A0002008230091070130A7
:102868002000A0002008E907152CFB30A000200854
:10287800230095058B17080022000E153C008F01D8
:102888003D00A20101303C008F009931952194311F
:102898002400BE01BD01BE153E163208B300330840
:1028A800E0003108E4003008E3002F08E2002E08B9
:1028B800E10032080319622CBE14662CFD30B30007
:1028C8003308BE05BD153108A3003008A2002F0843
:1028D800A1002E08A0000130A700E830A60048306B
:1028E800A5000030A4009F3159279431FF302400FF
:1028F8002007BF00FF30213DC000FF30223DC1004E
:10290800FF30233DC200FF30B300FF30B400FF307A
:10291800B500FF30B6003F08B7004008B8004108CE
:10292800B9004208BA000230BA36B90CB80CB70C74
:10293800890B982C3708B3073808B43D3908B53DDA
:102948003A08B63D3608C2003508C1003408C00050
:102958003308BF004008BC01BC073F08BB01BB07E8
:1029680023001D1224003C08A101A1073B08A00177
:10297800A0073E089D310A25943124003D0899316D
:102988001121943199312E2194312400B300B401DE
:10299800B501B6013608C2003508C1003408C000C8
:1029A8003308BF0099312E2194312400B300B401BB
:1029B800B501B6013608C2003508C1003408C000A8
:1029C8003308BF0099312E2194312400B300B4019B
:1029D800B501B6013608C2003508C1003408C00088
:1029E8003308BF0099312E2194312400B300B4017B
:1029F800B501B6013608C2003508C1003408C00068
:102A08003308BF0099312E212400B300B401B50169
:102A1800B6013608C2003508C1003408C0003308C2
:102A2800BF003C008F0114303D00A20012303C0072
:102A3800A5001530A40001308F00200091120B175B
:102A4800080022000E153C008F013D00A201013054
:102A58003C008F009931642195312000B001AF010D
:102A6800B01530162408A50025082400E000200031
:102A780023082400E400200022082400E3002000AA
:102A880021082400E200200020082400E1002000A2
:102A980024080319512DB014552DFD30A500250823
:102AA800B005AF152308F3002208F2002108F10051
:102AB8002008F0000130F700E830F6004830F50053
:102AC8000030F4009F3107279531FF307007200050
:102AD800B100FF30713DB200FF30723DB300FF30EE
:102AE800733DB400FF30A500FF30A600FF30A700FB
:102AF800FF30A8003108A9003208AA003308AB004B
:102B08003408AC000230AC36AB0CAA0CA90C890B0B
:102B1800872D2908A5072A08A63D2B08A73D2C08BC
:102B2800A83D2808B4002708B3002608B2002508E5
:102B3800B1003208AE01AE073108AD01AD07230080
:102B48001D1220002E08F101F1072D08F001F007F1
:102B580030089B310423953120002F089831E0205C
:102B680095319931082195312000A500A601A701CA
:102B7800A8012808B4002708B3002608B2002508D1
:102B8800B1009931082195312000A500A601A701BF
:102B9800A8012808B4002708B3002608B2002508B1
:102BA800B1009931082195312000A500A601A7019F
:102BB800A8012808B4002708B3002608B200250891
:102BC800B1009931082195312000A500A601A7017F
:102BD800A8012808B4002708B3002608B200250871
:102BE800B100993108212000A500A601A701A8017C
:102BF8002808B4002708B3002608B2002508B10049
:102C08003C008F0114303D00A20012303C00A500AA
:102C18001530A40001308F00200091120B17080016
:102C28002E302000BF000030C0002D08B3002C0853
:102C3800B200AC0A0319AD0A3208840033088500D3
:102C48000008B4003408C100C1080319042F410862
:102C5800253A03193A2E2A0886002B0887004108CE
:102C680081000130AA070030AB3D192EB801432E70
:102C78003816432EC030B2003208B8045A2E2D0838
:102C8800B3002C08B200AC0A0319AD0A320884005C
:102C9800330885000008C100003A0319042F6C3A74
:102CA80003193C2E193A03193E2E192E381E6A2E86
:102CB8003F08860040088700403FBB00413FBC00FA
:102CC800423FBD00433FBE000430792E3F088600D6
:102CD80040088700403FB200413FB3003208BB00C4
:102CE8003308BC00BD01BE010230BF070030C03D43
:102CF800C101C10A41080A3A0319AF2E4108B200BE
:102D0800B301B235B30DB235B30DD33032078400F9
:102D18008830333D8500003FB400013FB500023FD5
:102D2800B600033FB70037083E02031DA52E36083C
:102D38003D02031DA52E35083C02031DA52E3408AF
:102D48003B02031CAF2E0130B2003208C107410814
:102D58000A3A031D822E4108B900BA01B91BBA0309
:102D6800FF30B907FF30BA3DFF303A06031DBE2ECB
:102D7800FF3039060319192E0030A3000030A200D5
:102D88000030A1000A30A0003A0885003908840004
:102D98008435850D8435850DD33084078830853D8D
:102DA800003FF000013FF100023FF200033FF30053
:102DB8003E08F7003D08F6003C08F5003B08F40023
:102DC8009F310727963173082000A7007208A600D4
:102DD8007108A5007008A4009D314B25963120008C
:102DE8002008303EB2003208C1002A0886002B08AD
:102DF8008700410881000130AA070030AB3DB42E9E
:102E08002A0886002B088700810108003C3024002E
:102E1800CD000230CE003B08C1003A08C000BA0A13
:102E28000319BB0A40088400410885000008C20055
:102E38004208CF00CF080319FA2F4F08253A031983
:102E4800302F38088600390887004F088100013084
:102E5800B8070030B93D0F2FC601392F4616392F54
:102E6800C030C0004008C604502F3B08C1003A08D3
:102E7800C000BA0A0319BB0A40088400410885004B
:102E88000008CF00003A0319FA2F6C3A0319322FC1
:102E9800193A0319342F0F2F461E602F4D0886004C
:102EA8004E088700403FC900413FCA00423FCB005F
:102EB800433FCC0004306F2F4D0886004E08870032
:102EC800403FC000413FC1004008C9004108CA0056
:102ED800CB01CC010230CD070030CE3DCF01CF0A67
:102EE8004F080A3A0319A52F4F08C000C101C03581
:102EF800C10DC035C10DD330400784008830413D35
:102F08008500003FC200013FC300023FC400033FE9
:102F1800C50045084C02031D9B2F44084B02031DA6
:102F28009B2F43084A02031D9B2F42084902031C9A
:102F3800A52F0130C0004008CF074F080A3A031DEB
:102F4800782F4F08C700C801C71BC803FF30C70741
:102F5800FF30C83DFF304806031DB42FFF30470639
:102F680003190F2F0030B1000030B0000030AF005F
:102F78000A30AE0048088500470884008435850D6E
:102F88008435850DD33084078830853D003FA00007
:102F9800013FA100023FA200033FA3004C08A70085
:102FA8004B08A6004A08A5004908A4009F315927E4
:102FB800973124002308B5002208B4002108B30083
:102FC8002008B2009D318E25973124002E08303E0E
:102FD800C0004008CF0038088600390887004F082D
:102FE80081000130B8070030B93DAA2F38088600A3
:082FF80039088700810108007F
:1031960020001C11080020009A01080020001C15C0
:1031A600080020001C150800803425340034003443
:1031B60023009E1564309A000800F00023009F014A
:1031C60070089F000800FE0012001E00FE0BE72894
:1031D6000034640080010131890BED2800342000A1
:1031E6000E1CF7280130080000300800FE302400CD
:1031F600A000200821009D05080020309031002005
:103206009931FE308E317226080023009D181D125A
:103216001908F0007008F100710808002400A000E9
:1032260023009F012400200823009F000800F000CF
:10323600F008031D212921008C12080021008C169C
:103246000800F000F008031D2B2921000C120800CD
:1032560021000C16080023009D181D1219082400D1
:10326600A0002008A1002108080055302300960080
:10327600AA309600951495183E2900000000080013
:10328600F0007008203A031D4B292700921608000B
:103296002700121608002400A000A008031D5629C6
:1032A60021008C12080021008C1608002400A000C2
:1032B600A008031D612921000C12080021000C162C
:1032C60008004F30F000700823009D059E12CF3095
:1032D600F00070082100910508002400A0002008D5
:1032E600203A031D79292700921608002700121696
:1032F6000800013099314E21993101309931592117
:103306009931FF309A31D9220800F000303070022E
:10331600031C93293A3070020318932901300800E0
:10332600003008004F302400A000200823009D052F
:103336009E12CF302400A00020082100910508002D
:10334600F000843070020318B1297008003E840032
:1033560087300318013E8500000808000030080089
:10336600F0000D30F002713070020318C3297008A6
:10337600843E840087300318013E8500000808005B
:1033860000300800F0001130F0026D3070020318B2
:10339600D5297008663E840088300318013E8500F2
:1033A6000008080000300800F0000D30F00271300F
:1033B60070020318E7297008F53E84008730031869
:1033C600013E85000008080000300800F0302100AA
:1033D600990000301A1801301A050319EC294030FB
:1033E6002400A000200821009A05031D0800F229E8
:1033F600F0007008203A031D072A20008C1E052ABB
:10340600013008000030080020000C1E0C2A013094
:1034160008000030080024002808A0002908A100A0
:10342600A2018E30AB002B08A300A40190317020BE
:1034360024002008A8002108A9002208AA000800E4
:10344600F300F401F4017108803A803C031D2D2A33
:10345600700874020318080074087307F2007208F3
:103466008600870181010130F2007208F407262ADE
:1034760022008E018C0121000E118E108E110E126B
:103486000C150E148E1622008E143C008F0114307B
:103496003D00A20012303C00A5001530A40001300A
:1034A6008F0023008C010C158E012100951320300E
:1034B60024008E008C01080022000E153C008F01AE
:1034C6003D00A20101303C008F00FB30FC007C086F
:1034D60022008E057A08F0007B08F100F201F30164
:1034E6009B31F22322000E153C008F0114303D0063
:1034F600A20012303C00A5001530A40001308F0058
:103506000800BF30F3007308230095057108F40026
:103516007008F300F436F30CF436F30CF436F30CBF
:1035260073087F39920070080739F3000430F335C9
:10353600FF3E031D9A2A733572079100151415185C
:10354600A22A0000000023001408F101F107130865
:10355600F001F00708007F30F20072088B05BF30DB
:10356600F2007208230095057108F3007008F20056
:10357600F336F20CF336F20CF336F20C72087F399E
:10358600920070080739F2000430F235FF3E031D41
:10359600C82A723591001516151599313821FB3058
:1035A600F2007208230095058B1708002400A2007C
:1035B6000F30A0002008A3000330A0002008A400BC
:1035C60025001A08F0390A389A002400220820003B
:1035D6009B0024002308A0000230A035FF3E031DF7
:1035E600F02A2035A100210820009C04240024088C
:1035F600A000200820009C049831D42021009110BE
:103606000800F20023009E019D0172181E16F21C8E
:103616000E2B1E171D1772199E17F21D142B1D1641
:10362600152B9D16721A1E15721F1E2B2000911245
:1036360021009116202B21009112F21F272B20002A
:10364600111221001116282B1112700823009B005D
:1036560071089C009E169D1708000030FB00003084
:10366600FA000030F9000030F800701C422B740894
:10367600F8077508F93D7608FA3D7708FB3D0130F5
:10368600F435F50DF60DF70D890B432B0130F336A6
:10369600F20CF10CF00C890B4A2B730872047104BE
:1036A6007004031D382B7B08F3007A08F2007908B2
:1036B600F1007808F0000800F701F6017108F5013D
:1036C600F5077008F401F407F701083077020318CC
:1036D6007F2B741C722B0130F3007308F607013040
:1036E600F536F40C890B732B0130F3007308F707DA
:1036F60008307702031C6C2B7208033A031D892BD2
:103706007618872B0130080000300800761C8D2BB8
:1037160001300800003008002400A701A601210896
:10372600A501A5072008A401A407A70108302702C0
:103736000318B02B241CA32B0130A3002308A607D3
:103746000130A536A40C890BA42B0130A300230855
:10375600A70708302702031C9D2B2208033A031DE6
:10376600BA2B2618B82B0130080000300800261C9A
:10377600BE2B01300800003008000030F300003096
:10378600F2001330F1008830F0009B31F2239B31B8
:10379600200021088400220885000008003A031949
:1037A600E12BF801F90121088400220885000008B0
:1037B600903111209B3123009E1CDE2B2000220815
:1037C600A4002108A300A10A0319A20A2308840061
:1037D600240885000008003803190800C02B0030B3
:1037E600F8000030F7000030F6000030F5007808E9
:1037F600803AF4007308803A7402031D0C2C720898
:103806007702031D0C2C71087602031D0C2C700820
:10381600750203180800F9012030790203181C2CE0
:1038260000000130F4007408F90720307902031C07
:10383600132C0630F5070030F63D0030F73D00301A
:10384600F83DFA2B00302400A3000030A20013300C
:10385600A1008830A0009C3158249C3124002F08F8
:103866008400300885000008003A0319472CA80197
:10387600A9012F0884003008850000089131322103
:103886009C3123009E1C442C24003008B2002F08D3
:10389600B100AF0A0319B00A310884003208850066
:1038A6000008003803190800252C00302400A80061
:1038B6000030A7000030A6000030A5002808803A96
:1038C600A4002308803A2402031D732C2208270231
:1038D600031D732C21082602031D732C20082502C4
:1038E60003180800A901203029020318842C0000BF
:1038F60001302400A4002408A90720302902031C53
:103906007A2C0630A5070030A63D0030A73D0030D2
:10391600A83D612C2400A21FA42C2009A600210981
:10392600A7002209A800A60A0319A70A0319A80ACC
:1039360000302607A0000030273DA1008030283D3A
:10394600A200A51FBA2C2309A6002409A700250951
:10395600A800A60A0319A70A0319A80A0030260711
:10396600A3000030273DA4008030283DA50080300C
:10397600A2068030A50625082202031D0800240899
:103986002102031D0800230820020800F600F701A3
:1039960070087102031C0800F7017108770203180A
:1039A60008007008F200F301F209F309F20A03199C
:1039B600F30A71087207F40073080318730AF50016
:1039C6007508803A803C031DEA2C740877020318B8
:1039D600FE2C770870077607F200720886008701CA
:1039E6000108F30077087607F4007408860087015B
:1039F60073088100052D77087607F20072088600A5
:103A0600870181010130F2007208F707D02C2400EB
:103A1600A20023009E019D012400221C142D2300D8
:103A26001E162400A21C1A2D23001E171D17240083
:103A3600221D1F2D23009E172400A21D252D2300C5
:103A46001D16272D23009D162400221E2C2D230033
:103A56001E152400221F342D2000911221009116DC
:103A6600362D210091122400A21F3E2D2000111296
:103A760021001116402D21001112240020082300D8
:103A86009B002400210823009C009E169D17080019
:103A9600200023082204210420040319852DA901EE
:103AA600A90AA31B622D0130A035A10DA20DA30DFD
:103AB600890B572D0130A8002808A907542D230883
:103AC6002702031D702D22082602031D702D2108D2
:103AD6002502031D702D20082402031C7A2D2008C0
:103AE600A4022108A53B2208A63B2308A73B0130D8
:103AF600A336A20CA10CA00C890B7B2D0130A902C8
:103B0600031D622D2708A3002608A2002508A10090
:103B16002408A00008002400310830042F042E04D5
:103B26000319C82DB701B70AB11BA52D0130AE3553
:103B3600AF0DB00DB10D890B9A2D0130B6003608C8
:103B4600B707972D31083502031DB32D300834020F
:103B5600031DB32D2F083302031DB32D2E08320289
:103B6600031CBD2D2E08B2022F08B33B3008B43B10
:103B76003108B53B0130B136B00CAF0CAE0C890B39
:103B8600BE2D0130B702031DA52D3508B10034083E
:103B9600B0003308AF003208AE0008002400AE00C3
:103BA60021009D019E0150302400AC002C0821000C
:103BB6009E042200971703302400AC002C08220034
:103BC6009704171FE42D24002E08AC000130AC35F5
:103BD600FF3E031DEA2D2C35AD002D0821009D0466
:103BE60083302400AC002C0821009E041D14111300
:103BF60000302400A3000030A2000030A1000530F0
:103C0600A0009C3158249D3121009D149D18092E39
:103C16001C082400AB01AB0721001B082400AA01E5
:103C2600AA07080079082000A1007808A000A1369C
:103C3600A00C01302005A20000302105A300790860
:103C4600A5007808A400A536A40CA536A40CFF3060
:103C56002405F00000302505F1000330A6002608F3
:103C6600F2009B315F239E312000A700A8012308A4
:103C76002806031D402E22082706031D5C2E790800
:103C8600A1007808A000A136A00CA136A00CFF3038
:103C96002005FA0000302105FB007A089F31AC2789
:103CA6009E312000A000A1012008FA002108FB0097
:103CB6005E2EFA01FB017B08F901F9077A08F80183
:103CC600F807080000302000A3000030A2000030F2
:103CD600A1000030A0007608F101F1077508F00197
:103CE600F0077708F9007908F2009A3184229E31AC
:103CF6007008FA007108FB00FC01FD011030FA356E
:103D0600FB0DFC0DFD0D890B822E7D082000A30006
:103D16007C08A2007B08A1007A08A0007608F101C1
:103D2600F1077508F001F0077708013EF9007908F8
:103D3600F2009A3184227008FA007108FB00FC0137
:103D4600FD017A082000A0047B08A1047C08A204D7
:103D56007D08A3042308F8002208F7002108F600CE
:103D66002008F500080000302400B1000030B00043
:103D76000030AF000030AE002608A101A1072508DB
:103D8600A001A0072708A9002908A2008A316622F7
:103D96009E3124002008AA002108AB00AC01AD0129
:103DA6001030AA35AB0DAC0DAD0D890BD42E2D08F8
:103DB600B1002C08B0002B08AF002A08AE00260878
:103DC600A101A1072508A001A0072708013EA90017
:103DD6002908A2008A31662224002008AA002108A8
:103DE600AB00AC01AD012A08AE042B08AF042C08C9
:103DF600B0042D08B1043108A8003008A7002F0828
:103E0600A6002E08A50008000030FC000030FB00CC
:103E16000030FA000030F90073087204710470046F
:103E26000319502FFD01FD0AF31B252F0130F03534
:103E3600F10DF20DF30D890B1A2F0130F8007808F9
:103E4600FD07172F0130F935FA0DFB0DFC0D890B17
:103E5600262F73087702031D3A2F72087602031D78
:103E66003A2F71087502031D3A2F70087402031C5D
:103E7600452F7008F4027108F53B7208F63B73088B
:103E8600F73B79140130F336F20CF10CF00C890B88
:103E9600462F0130FD02031D252F7C08F3007B0809
:103EA600F2007A08F1007908F000080000302400DA
:103EB600AC000030AB000030AA000030A900230897
:103EC6002204210420040319A32FAD01AD0AA31B6C
:103ED600782F0130A035A10DA20DA30D890B6D2FF2
:103EE6000130A8002808AD076A2F0130A935AA0DB0
:103EF600AB0DAC0D890B792F23082702031D8D2FDF
:103F060022082602031D8D2F21082502031D8D2F51
:103F160020082402031C982F2008A4022108A53B90
:103F26002208A63B2308A73B29140130A336A20C7E
:103F3600A10CA00C890B992F0130AD02031D782F1F
:103F46002C08A3002B08A2002A08A1002908A0001B
:103F56000800F300F20173080139F0000630F0356D
:103F6600FF3E031DB22F7035F1007108F20773088A
:103F76000239F0000430F035FF3E031DBE2F7035C8
:103F8600F1007108F20773080439F0000230F035C9
:103F9600FF3E031DCA2F7035F1007108F207730842
:103FA60008390907F0007008F20773360839F0007F
:103FB6007008F2077308F0000330F036890BE02F23
:103FC60070080439F1007108F2077308F000053033
:103FD600F036890BEB2F70080239F1007108F207F1
:103FE6007308F0000730F036890BF62F7008013998
:0A3FF600F1007108F20772080800DC
:020000040001F9
:04000E0064CFFBFEC2
:00000001FF
