:040000008031ED2836
:10000800803120007F08EF002100C201C3012700D2
:10001800931E7328203099313021803121009110AE
:10002800911222000E1601302000EE006E08210009
:10003800D4070130CA35CB0D890B1E2800001030BB
:10004800993189218031003A03192F280130210084
:10005800CA070030CB3D0B3021005406031D5E2833
:100068000C30530203185B284B08F9004A08F800C3
:100078009E316826803178082000EE006E08210045
:10008800C50045080319592845082000EE0021003D
:100098005308D93E8600870120006E088100013090
:1000A800EE006E082100D3075B28D601D60AD401DA
:1000B800CA01CB01983169208031200091102100BC
:1000C800911498316C208031DF302000EE006E08EA
:1000D8002700930520309831DB208031E928131E52
:1000E80080281030993130218031EF302000EE0027
:1000F8006E0827009305E9282000911EC7282100D3
:10010800911222008E152400DA01DB012100C201C0
:10011800C30123009D1C94281D122100C301C30A9A
:1001280023001D1D9A282100C201C20A9831A0206F
:1001380080312000EE006E082100C4004308031936
:10014800A72823001D1621004203031DB6284408D2
:10015800031DC228A030FA008630FB009031002031
:100168008031C228F801F80A003023001D18013038
:10017800F900210044089D31CE25803120009112DC
:1001880021009116E928911CE92821009110983145
:100198006620803120309931302180312100D4010E
:1001A800CA01CB0156080319DF28983198208031FD
:1001B8002100D601E22881312121803121009116C8
:1001C80020309831DB202000911020006F08FF00BC
:1001D80009008031EF28C6308400003085001F30C8
:1001E80098318B208031E2308400013085000E3058
:1001F80098318B20803157308400023085000A30D6
:1002080098318B2080317630840098308500E53035
:1002180086000030870004309831852080317230A4
:1002280084009830850061308600023087000430F1
:100238009831852020009631152E2300E101E00138
:100248002100530803190800210053080319080066
:1002580059080319772E5908BC00BD013C08230032
:10026800E20021003D082300E300F0306206630449
:10027800031D552921005908BC00BD013C08230075
:10028800E20021003D082300E30021005A08BC00D9
:10029800BD013C082300E40021003D082300E500DF
:1002A800A429E030230062066304031DA929210064
:1002B8005A08BC00BD013C082300E40021003D08A9
:1002C8002300E500123064066504031D7E29E2015F
:1002D800E301E401E50104302100D3020430BC004D
:1002E8003C08F0000C30BD003D08F100D9309C31CD
:1002F800BC248131F030230064066504031DA42961
:1003080021005B08BC00BD013C082300E600210079
:100318003D082300E7007C3066066704031D9F291B
:10032800E201E301E401E501E601E701063021000D
:10033800D3020630BF2903302100D3020330BF297E
:1003480002302100D3020230BF29E13023006206C7
:100358006304031DC629E030E2000030E300693081
:10036800E4000030E50008302100D3022300E0015A
:10037800E00A08302100BC003C08F0000C30BD0049
:100388003D08CE2901302100D302F001F00A0C30DB
:10039800BC003C08F100D9309C31BC2481312300D9
:1003A800660867040319FA29E03062066304031D2E
:1003B800D62AF03064066504031DD62A1130660675
:1003C8006704031DE929EA01D62A14306606670482
:1003D800031DF1292100D001D62A713023006606B9
:1003E8006704031DD62A2100CF01D62A23006408FA
:1003F80065040319D62AF03062066304031D812AB6
:10040800123064066504031D0B2AEE01202A5930B8
:1004180064066504031D122AEB01202A14306406C1
:100428006504031D1A2A2100D501202A1130230052
:10043800640665040319ED01593023006406650458
:1004480003192B2A123064066504031D792A6E08E5
:10045800031DD62A6B08031DD62AED308C31DE2405
:100468008131003A031D412A00308C31DE2481316C
:10047800003A031D412A2300EF01230069080319EC
:100488005F2AE8010A3068020318D62AED308C3159
:10049800DE248131003A031D582A04308C31DE24D1
:1004A8008131003A0319D62A01302100BC003C08EA
:1004B8002300E807462AE8010A3068020318D62A0A
:1004C800ED308C31DE248131003A031D722A003070
:1004D8008C31DE248131003A0319D62A01302100FB
:1004E800BC003C082300E807602A5830640665040D
:1004F800031DD62A2100CD01D62AE030230062064A
:100508006304031DD62A113064066504031D8F2A6F
:10051800EA01EA0AA12A143064066504031D982A30
:100528002100D001D00AA12A713023006406650495
:10053800031DA12A2100CF01CF0A2300DC01DC0A18
:100548006A08031DAB2A6D08031DAB2ADC01DD0117
:10055800DD0A21005508031DB62A5008031DB62AD6
:100568002300DD0121004F08BC00BD0123005D0808
:100578005C072100BE00BF01BF0D3C083E07C0005C
:100588003D083F3DC1000330400641040319D62A07
:10059800230064089931532181312100BC003C08B3
:1005A8002300E1002300620863040319252C640872
:1005B8006504031D252C66086704031D252C1230CD
:1005C80062066304031DEB2AEE01EE0AF22A593093
:1005D80062066304031DF22AEB01EB0A6E03031D96
:1005E800F92A210057080319012B23006B03031D67
:1005F800432B21005108031D432BED308C31DE24A1
:100608008131003A031D432B230069080319262B67
:10061800E8010A3068020318432BED308C31DE24E0
:100628008131003A031D1F2B05308C31DE248131C6
:10063800003A0319402B01302100BC003C0823007C
:10064800E8070D2BE8012E2B01302100BC003C08E7
:100658002300E8070A3068020318432BED308C3179
:10066800DE248131003A031D282B01308C31DE2431
:100678008131003A031D282B2300EF01EF0A1430C3
:10068800230062066304031D4D2B2100D501D50A02
:10069800182C1130230062066304031D562BED014C
:1006A800ED0A182CEE3062066304031D5F2B24004C
:1006B800DF01DF0A182C5830230062066304031D8B
:1006C800E42B2100CD01CD0A4E08031D182C230070
:1006D80069080319A92B6F0803198C2BE8010A3044
:1006E80068020318182CED308C31DE248131003A71
:1006F800031D852B01308C31DE248131003A03192A
:100708009F2B01302100BC003C082300E807732B15
:10071800E8010A3068020318182CED308C31DE2409
:100728008131003A031DA22B00308C31DE24813147
:10073800003A031DA22B2300E901182C01302100E7
:10074800BC003C082300E8078D2B6F080319C62B53
:10075800E8010A3068020318182CED308C31DE24C9
:100768008131003A031DBF2B05308C31DE248131E5
:10077800003A0319D92B01302100BC003C082300A2
:10078800E807AD2BE8010A3068020318182CED3091
:100798008C31DE248131003A031DDD2B04308C318D
:1007A800DE248131003A031DDD2B2300E901E90A2B
:1007B800182C01302100BC003C082300E807C72B97
:1007C8006F03031D022C62089931652181312100D4
:1007D800BC003C082300E10069080319182C4130CB
:1007E8006102031C182C5B3061020318182C20309E
:1007F8002100BC003C082300E107182C620899314D
:10080800412181312100BC003C082300E100690836
:100818000319182C61306102031C182C7B3061020B
:100828000318182C2030E10223006108031D252C31
:1008380062088A31412281312100BC003C08230032
:10084800E100DE01DE0A6A08031D2E2C6D08031D77
:100858002E2CDE01DF01DF0A21005508031D392C8B
:100868005008031D392C2300DF0121004F08BC006C
:10087800BD0123005F085E072100BE00BF01BF0D58
:100888003C083E07C0003D083F3DC100033040061C
:100898004104031DD02CFD302000A1008930A200A6
:1008A8009B314A2381310030F3000030F2003A30A6
:1008B800F1009830F0009B31DB23813121004C0896
:1008C800031D8D2C0030C9000030C8000030C7005F
:1008D8000030C6002300EC012100CC01CC0AED3029
:1008E8002000A1008930A2009B314A2381310030C9
:1008F800F3000030F2003A30F1009830F0009B31FC
:10090800DB238131F801F9013E309D31CE2581315B
:10091800C82C00302100C9000030C8002530C700AD
:100928008030C60000302000A1008A30A2009B3130
:100938004A23813126302000A1008930A2009B3152
:100948004A238131FD302000A1008930A2009B316B
:100958004A2381310030F3000030F2003A30F100D0
:100968009830F0009B31DB23813121004908B20027
:100978004808B1004708B0004608AF00B3018B3102
:10098800652381312100CC012100D501D00123004C
:10099800EA01ED012100CF01230061080319582E57
:1009A8006103031DE22C6008031DE22CA030FA004D
:1009B8008630FB00903100208131582E23006103DE
:1009C800031DEF2C6003031DEF2C98317A20813131
:1009D8002300E001582E21004C08031D0E2D0A307B
:1009E80023006106031DFB2C2100D201D20AF80165
:1009F800F901230061089D31CE2581310D30230096
:100A08006106031D582EF801F9010A309D31CE25E3
:100A18008131582E23006108993114218131003A1F
:100A28000319552D0030F3000030F2000030F100BA
:100A38000A30F00021004908F7004808F600470886
:100A4800F5004608F4009A31EC2281317308210040
:100A5800C9007208C8007108C7007008C6002300E2
:100A68006108D03E2100BC00FF3003180030BD00F3
:100A78003C08BE003D08BF000030BF1BFF30C0006F
:100A8800C1003E08C6073F08C73D4008C83D4108A9
:100A9800C93DF801F901230061089D31CE25813156
:100AA800582E6F302300610603195E2D4F30610602
:100AB800031D672DEC01EC0AF801F90161089D316D
:100AC800CE258131582E6530230061060319702D1B
:100AD80045306106031D7D2D02302100BC003C0815
:100AE8002300EC00F801F90161089D31CE25813120
:100AF800582E6D30230061060319862D4D3061068E
:100B0800031D932D03302100BC003C082300EC009A
:100B1800F801F90161089D31CE258131582E7330D5
:100B28002300610603199C2D53306106031DA92D6E
:100B380004302100BC003C082300EC00F801F90156
:100B480061089D31CE258131582E0D302300610674
:100B5800031D582EFD302000A1008930A2009B31D2
:100B68004A2381310030F3000030F2003A30F100BE
:100B78009830F0009B31DB23813121004908031DA7
:100B8800CE2D4808031DCE2D603046020930473B64
:100B9800031C432E4908031D432E01304602C23070
:100BA800473B0130483B0318432EAC302000AA00D5
:100BB8008930AB00210049082000AF002100480817
:100BC8002000AE00210047082000AD0021004608A3
:100BD8002000AC00A03097310A278131A0302000D6
:100BE800A1000130A2009B314A23813123006C0807
:100BF800031D132E202E11302000A1008930242E31
:100C0800FB302000A1008830242E4A302000A100AB
:100C18008930242E3A302000A1008930242E230068
:100C28006C08013A0319FF2D033A0319042E013AFF
:100C38000319092E0E2E282E26302000A1008930F7
:100C4800A2009B314A238131FD302000A100893068
:100C5800A2009B314A23813121004908B20048088B
:100C6800B1004708B0004608AF0023006C08210017
:100C7800BC003C08B3008B3165238131562ED93036
:100C88002000A1008930A2009B314A238131003025
:100C9800F3000030F2003A30F1009830F0009B3158
:100CA800DB2381312100CC012300E101E201E301D2
:100CB800E401E501E601E70121004D08BC003C081C
:100CC800CE0023006E082100BC003C08D70023009A
:100CD8006B082100BC003C08D100EF30BC003C0888
:100CE80022008E0528290C30F0000030F100D930A0
:100CF8009931D82181312100D30128292030993117
:100D08009C21863107308E316C268631003A031DCE
:100D1800080000302400A3000030A2001330A10016
:100D28008830A0009C310E248631ED308E316C263F
:100D38008631003A031D080000302400A30000306B
:100D4800A2001330A1008830A0009C310E24863107
:100D580000308E316C268631003A031D0800F430CD
:100D68008E316C268631003A031D0800F4308E312E
:100D78006C268631003A031D0800F0308E316C264F
:100D88008631003A031D080000302400A30000301B
:100D9800A2000030A1006430A0009C310E248631EE
:100DA80002308E316C268631003A031D0800F3307C
:100DB8008E316C268631003A031D0800003024006D
:100DC800A3000030A2000030A1006430A0009C31D4
:100DD8000E2486312F308E316C2608004F302400C7
:100DE800A000200823009D059E12CF302400A000FB
:100DF80020082100910508000034113400340C3417
:100E08000A340634073414340034123410340E34DF
:100E18000B3400340034003400341C340034003403
:100E28001A34003400340034003400340034003400
:100E3800003400340034003400340034003400340A
:100E480000340034003400340034003400340034FA
:100E580000340034003400340034003400340034EA
:100E680000340034003400340034003400340034DA
:100E780000340034003400340034003400340034CA
:100E880000340034003400340034003400340034BA
:100E980000340034003400340034003400340034AA
:100EA800003400340034003400340034003400349A
:100EB800003400340034003400340034003400348A
:100EC800003400340034003400340034003400347A
:100ED800003400340034003400340034003400346A
:100EE8000034003400340034133400340034003447
:100EF80000340034003400340034003400340F343B
:100F080009346034003400340034003400340034D0
:100F1800713431340034003400347A347334613439
:100F280077343234003400346334783464346534CC
:100F38003434333400340034203476346634743432
:100F480072343534003400346E34623468346734B3
:100F5800793436340034003400346D346A347534EE
:100F680037343834003400342C346B3469346F34FB
:100F780030343934003400342E342F346C343B345C
:100F880070342D34003400340034273400345B349A
:100F98003D3400340034003400340D345D34003402
:100FA8005C3400340034003400340034003400343D
:100FB80000340834003400343134003434343734E5
:100FC80000340034003430342E343234353436347E
:100FD80038341B34003400342B3433342D342A3461
:100FE800393409347E340034003400340034003499
:100FF8000034513421340034003400345A3453342A
:101008004134573440340034003443345834443481
:1010180045342434233400340034203456344634E0
:10102800543452342534003400344E344234483475
:10103800473459345E340034003400344D344A3473
:10104800553426342A34003400343C344B34493483
:101058004F3429342834003400343E343F344C347F
:101068003A3450345F3400340034003422340034CD
:101078007B342B3400340034003400340D347D3498
:1010880000347C340034003400340034003400343C
:10109800003400340834003400343134003434343B
:1010A800373400340034003430342E34323435349C
:1010B800363438341B34003400342B3433342D3474
:1010C8002A3439341E34003400341F3400340034D8
:1010D8000034003400340034003400340034003468
:1010E800193400340034003400340034003400343F
:1010F8001D3400340034003400340034003400342B
:101108000034003400340034003400340034003437
:101118000034003400340034003400340034003427
:101128000034003400340034003400340034003417
:101138000034003400342F340034003400340034D8
:1011480000340034003400340034003400340034F7
:101158000034003400340D340034003400340034DA
:1011680000340034003400340034003400340034D7
:1011780000340034013400340334163400340034AD
:10118800003415347F340434003405340234003418
:101198000034003400341834003400341734013477
:1011A8000034003400340A34003400340034643429
:1011B800003400340034E83403340034003410348C
:1011C800273400340034A0348634013400344034E9
:1011D80042340F3400348034963498340034003468
:1011E800E134F53405340034CA349A343B342034BD
:1011F800773469347434683420344534763465344B
:101208006E3420347034613472346934743479340F
:1012180020346234693474340034203477346934C7
:101228007434683420344F34643464342034703473
:1012380061347234693474347934203462346934F2
:101248007434003420347734693474346834203486
:101258004E346F34203470346134723469347434E9
:101268007934203462346934743400342034773467
:1012780069347434683420345334703461346334DA
:10128800653420346234693474340034203477345B
:1012980069347434683420344D34613472346B34B6
:1012A8002034623469347434003456346F346C3406
:1012B8007434613467346534203474346F346F3473
:1012C8002034003431342E3433345F3444345734CA
:1012D8003034613400344334683461346E346734F4
:1012E8006534203442344134553444343A3420345B
:1012F800223443344E34543420342B342034413493
:101308004C34543420342B342034443445344C3455
:1013180022340D340A3400340D340A345034533432
:101328002F34323420344B346534793462346F349A
:10133800613472346434203474346F342034523459
:1013480053342D343234333432340D340A340034C7
:1013580042346134753464342034773469346C34FD
:101368006C34203462346534203473346534743416
:10137800203474346F34203425346C34753400349C
:1013880046346C34613473346834203450347234E5
:101398006F346734723461346D34203446346134C8
:1013A80069346C340D340A34003442346134753491
:1013B800643420344F347534743420346F346634D4
:1013C8002034523461346E34673465340D340A3451
:1013D800003445346E347434653472342034423405
:1013E800613475346434203472346134743465344F
:1013F80020340D340A340034423461347534643492
:10140800203452346534733465347434203474347D
:101418006F34203439343634303430340034463480
:10142800693472346D3477346134723465342034FD
:10143800563465347234733469346F346E343A34E4
:1014480020340034423461347534643420346934CF
:101458007334203425346C3475340034483469349A
:101468006734683421340D340A3400344C346F3412
:10147800773421340D340A340034F000843070029B
:1014880003184F2A7008003E840087300318013E75
:101498008500000808000030080000302400CB0058
:1014A8000030CA000030C9000030C8000030CF004A
:1014B8000030CE000030CD000030CC00D001C0306C
:1014C800B2000030B300B401903187208A31240083
:1014D8003508CB003408CA003308C9003208C800F0
:1014E800FF304805CC00FF304905CD000F304A05D4
:1014F800CE0000304B05CF004808C3004908C4009F
:101508004A08C5004B08C6001430C636C50CC40CC2
:10151800C30C890B892A43080F39C7004708D00034
:101528004F08031DA02A4E08031DA02A60304C0254
:1015380009304D3B031CAB2A4F08031DAB2A013071
:101548004C02C2304D3B01304E3B031CB42A0030E4
:10155800CF000030CE002530CD008030CC00D00147
:101568004F08B1004E08B0004D08AF004C08AE005F
:101578005008C3004308B200943141248A31003036
:101588002400A3000030A2003A30A1009830A00047
:101598009C310E248A3190302400AF008930B0008D
:1015A8009B31AA238A3100302400A3000030A20016
:1015B8003A30A1009830A0009C310E248A311330B3
:1015C8002400AF008A30B0009B31AA238A316630EC
:1015D8002400AF008930B0009B31AA238A31FD3046
:1015E8002400AF008930B0009B31AA238A31003033
:1015F8002400A3000030A2003A30A1009830A000D7
:101608009C310E248A316F302400AF008930B0003D
:101618009B31AA238A3100302400A3000030A200A5
:101628003A30A1009830A0009C310E248A31FD3058
:101638002400AF008930B0009B31AA238A312400EE
:101648005008031D3B2B482B1130AF0089304B2B22
:10165800FB302400AF0088304B2B4A302400AF0009
:1016680089304B2B3A302400AF0089304B2B2400B3
:101678005008013A0319282B033A03192C2B013A75
:101688000319312B362B4F2B2630AF008930B00091
:101698009B31AA238A31FD302400AF008930B00085
:1016A8009B31AA238A3100302400A3000030A20015
:1016B8003A30A1009830A0009C310E248B158B176E
:1016C800080000302200D5000030D4000030D300DC
:1016D8000030D2000030D9000030D8000030D700E8
:1016E8000030D600DE01C0302100A0000030A1008B
:1016F8003208A5003108A4003008A3002F08A20072
:101708003308B4003408A6009131B2218B31C030BF
:101718002000A4000030A500A601903125208B31BF
:10172800200027082200DD00200026082200DC0017
:10173800200025082200DB00200024082200DA000F
:10174800FF305A05D200FF305B05D3000F305C052F
:10175800D40000305D05D5005A082100B4002200ED
:101768005B082100B50022005C082100B6002200B9
:101778005D082100B7001430B736B60CB50CB40CB0
:10178800890BC02B34080F39B800B901BA01BB0165
:101798003B082200D90021003A082200D800210085
:1017A80039082200D700210038082200D60021007D
:1017B80032082000A300210031082000A2002100E7
:1017C80030082000A10021002F082000A0002100DF
:1017D8003308B40034082000A400953126258B3145
:1017E800FD302000A1008930A2009B314A238B31B3
:1017F8000030F3000030F2003A30F1009830F00089
:101808009B31DB238B312200550821003206031D52
:101818001D2C2200540821003106031D1D2C220016
:10182800530821003006031D1D2C220052082100F8
:101838002F06031D3C2C3308B400B501B601B701CF
:101848002200590821003706031D3A2C22005808A7
:1018580021003606031D3A2C2200570821003506C0
:10186800031D3A2C220056082100340603194F2C78
:10187800C4302000A1008930A2009B314A238B315B
:101888000030F3000030F2003A30F1009830F000F8
:101898009B31DB238B312200DE010A305E02031804
:1018A8007C2C0E160030F3000030F2002730F100D7
:1018B8001030F0009B31DB238B31EF302100B40076
:1018C800340822008E050030F3000030F200273083
:1018D800F1001030F0009B31DB238B310130210007
:1018E800B40034082200DE070A305E02031C552CBF
:1018F80026302000AA008A30AB00210032082000E0
:10190800AF00210031082000AE002100300820007F
:10191800AD0021002F082000AC00203097310A27A5
:101928008B3120302000A1000130A2009B314A23D6
:101938008B3121003308031DB62CC32C1130200035
:10194800A1008930C72CFB302000A1008830C72CAB
:101958004A302000A1008930C72C3A302000A1006D
:101968008930C72C21003308013A0319A22C033A05
:101978000319A72C013A0319AC2CB12CCB2C263017
:101988002000A1008930A2009B314A238B31FD3011
:101998002000A1008930A2009B314A238B310030FE
:1019A800F3000030F2003A30F1009830F0009B313B
:1019B800DB2308002000A100A2012108FA00FB0196
:1019C8007A08F0007B08F1000330FC007C08F20084
:1019D8009A31BE228C31FD007D082000A000A301B1
:1019E800A40100309831B2208C3100309831BC20ED
:1019F8008C31DF30FA007A0822008C050030F300C1
:101A08000030F2000130F1002C30F0009B31DB2374
:101A18008C31EF30FA007A0822008C050030F30090
:101A28000030F2000030F1001430F0009B31DB236D
:101A38008C3101309831B2208C312000A301A401EF
:101A48002030993189218C31003A0319412D000049
:101A580001302000A3070030A43D3A302402993019
:101A680003192302031C242D01309831B2208C3134
:101A780001309831BC20013008002000A201083054
:101A8800220203189B2D211C4C2D22000C16512DCF
:101A9800EF30FA007A0822008C0503102000A10C10
:101AA800A301A4012030993189218C31003A031D0A
:101AB800722D01302000A3070030A43D3A302402E3
:101AC800993003192302031C562D01309831B22096
:101AD8008C3101309831BC20013008002000A3016E
:101AE800A4012030993189218C31003A0319922DB3
:101AF800000001302000A3070030A43D3A30240242
:101B0800993003192302031C752D01309831B22036
:101B18008C3101309831BC20013008000130FA00C6
:101B28007A082000A20708302202031C472D201C37
:101B3800A02D22000C16A52DEF30FA007A082200FD
:101B48008C052000A301A4012030993189218C3112
:101B5800003A031DC42D01302000A3070030A43D26
:101B68003A302402993003192302031CA82D0130AE
:101B78009831B2208C3101309831BC2001300800F6
:101B88002000A301A4012030993189218C31003A29
:101B98000319E32D01302000A3070030A43D3A309B
:101BA8002402993003192302031CC72D01309831F0
:101BB800B2208C3101309831BC200130080001304E
:101BC8009831BC208C312000A301A4011030993138
:101BD80089218C31003A0319062E01302000A30711
:101BE8000030A43D3A302402993003192302031C23
:101BF800EA2D01309831B2208C3101309831BC2067
:101C0800013008002000A301A40120309931892166
:101C18008C31003A0319252E01302000A30700302B
:101C2800A43D3A302402993003192302031C092EDB
:101C380001309831B2208C3101309831BC2001300C
:101C480008002000A301A4011030993189218C31AA
:101C5800003A031D442E01302000A3070030A43DA4
:101C68003A302402993003192302031C282E01302C
:101C78009831B2208C3101309831BC2001300800F5
:101C88002000A301A4012030993189218C31003A28
:101C9800031D632E01302000A3070030A43D3A3015
:101CA8002402993003192302031C472E013098316E
:101CB800B2208C3101309831BC200130080001304D
:101CC8009831B2208C3101309831BC2000300800A6
:101CD8002400AF00B0012F08AA00AB012A08A00019
:101CE8002B08A1000330AC002C08A2009B311B2359
:101CF8008E312400AD002D08AE00B101B2010030D4
:101D08009831E6208E3100309831F1208E31DF3065
:101D18002400AA002A0822008C0500302400A30011
:101D28000030A2000130A1002C30A0009C310E240C
:101D38008E31EF302400AA002A0822008C050030DA
:101D48002400A3000030A2000030A1001430A0003D
:101D58009C310E248E3101309831E6208E312400DA
:101D6800B101B20120309931AF218E31003A031907
:101D7800D32E000001302400B1070030B23D3A30C4
:101D88003202993003193102031CB62E0130983102
:101D9800E6208E3101309831F1200130080024000E
:101DA800B0010830300203182E2F2F1CDE2E22001F
:101DB8000C16E42EEF302400AA002A0822008C0515
:101DC80003102400AF0CB101B20120309931AF21CA
:101DD8008E31003A031D052F01302400B107003071
:101DE800B23D3A303202993003193102031CE92E10
:101DF80001309831E6208E3101309831F1200130E0
:101E080008002400B101B20120309931AF218E3190
:101E1800003A0319252F000001302400B1070030D3
:101E2800B23D3A303202993003193102031C082FAF
:101E380001309831E6208E3101309831F12001309F
:101E4800080001302400AA002A08B0070830300230
:101E5800031CD92E2E1C332F22000C16392FEF30DD
:101E68002400AA002A0822008C052400B101B2012E
:101E780020309931AF218E31003A031D582F01309F
:101E88002400B1070030B23D3A30320299300319CC
:101E98003102031C3C2F01309831E6208E3101308D
:101EA8009831F120013008002400B101B20120303E
:101EB8009931AF218E31003A0319772F0130240070
:101EC800B1070030B23D3A3032029930031931027D
:101ED800031C5B2F01309831E6208E310130983198
:101EE800F1200130080001309831F1208E312400B2
:101EF800B101B20110309931AF218E31003A031986
:101F08009A2F01302400B1070030B23D3A30320236
:101F1800993003193102031C7E2F01309831E620D5
:101F28008E3101309831F120013008002400B101D0
:101F3800B20120309931AF218E31003A0319B92FFF
:101F480001302400B1070030B23D3A3032029930F6
:101F580003193102031C9D2F01309831E6208E3180
:101F680001309831F120013008002400B101B2019C
:101F780010309931AF218E31003A031DD82F01302E
:101F88002400B1070030B23D3A30320299300319CB
:101F98003102031CBC2F01309831E6208E3101300C
:101FA8009831F120013008002400B101B20120303D
:101FB8009931AF218E31003A031DF72F01302400EB
:101FC800B1070030B23D3A3032029930031931027C
:101FD800031CDB2F01309831E6208E310130983117
:101FE800F1200130080001309831E6208E310130AF
:101FF8009831F1200030080022000E153C008F01B6
:102008003D00A20101303C008F00FB30FC007C0841
:1020180022008E057A08F0007B08F100F201F30136
:102028009B31DB2322000E153C008F0114303D004C
:10203800A20012303C00A5001530A40001308F002A
:10204800080020002508F6002408F5002608A80046
:102058002808F7009D318125903178082000B300C9
:102068007708B2007608B1007508B000FF30300577
:102078002100E7003F30200031052100E800200062
:102088003008A8003108A9003208AA003308AB00BC
:102098000E30AB36AA0CA90CA80C890B4D28FF30C2
:1020A80028052100E5003F30200029052100E60031
:1020B80067082000A800210068082000A900AA01DC
:1020C800AB01210065082000AC0021006608200053
:1020D800AD00AE01AF010C30AC35AD0DAE0DAF0D9E
:1020E800890B70282C08A8072D08A93D2E08AA3DA1
:1020F8002F08AB3D2B08A7002A08A6002908A50031
:102108002808A400080024003308A6003208A50007
:102118003408B6003608A7009E311B2690312400EB
:102128002808C1002708C0002608BF002508BE00EF
:10213800FF303E052100E7003F3024003F05210025
:10214800E80024003E08B6003F08B7004008B80081
:102158004108B9000E30B936B80CB70CB60C890B6B
:10216800AF28FF3036052100E5003F302400370551
:102178002100E60067082400B60021006808240052
:10218800B700B801B901210065082400BA00210090
:1021980066082400BB00BC01BD010C30BA35BB0D7C
:1021A800BC0DBD0D890BD2283A08B6073B08B73DD0
:1021B8003C08B83D3D08B93D3908B5003808B400B9
:1021C8003708B3003608B2000800FE302400CF00FC
:1021D8004F0822008E0502309C317F249031240064
:1021E8002B08D4002A08D30098319120903122007E
:1021F8000E14033017052400CF0003304F06031DCB
:102208000B290230D335D40D890B0629192903303F
:10221800220017052400CF0002304F06031D19299C
:102228000130D335D40D890B15296630BC00B63082
:10223800BD004030BE000030AC007A30AD00443004
:10224800AE005408A9005308A8009931C321903161
:1022580024002808AF002908B0002A08B1009231EC
:102268001822903124002C08BF002D08C0002E0829
:10227800C1009231C12224003C08D0003D08D100A1
:102288003E08D2005008CC005108CD005208CE00BC
:1022980008002400230803195629220821042004D1
:1022A800031D67290030A0000030A1000030A20003
:1022B80008000130A5002508A3070130A236A10CAB
:1022C800A00C890B6229FE302205031980295D299B
:1022D8000130A5002508A3070130A0070030031826
:1022E8000130A107003003180130A2070130A236DF
:1022F800A10CA00C890B7B29FF3022050319912919
:102308006C2902302302031C93290130A3020130F7
:10231800A035A10DA20D890B8C29A11F8529231891
:102328009B29FF30A0057F30A105FF30A2050310CF
:10233800A30C2308A500A601A7011030A535A60DFA
:10234800A70D890BA2292508A0042608A10427089F
:10235800A204240803190800A2170800210026086F
:102368000739A700A801A901AA011430A735A80DAB
:10237800A90DAA0D890BBA29FF302205AB00FF3041
:102388002305AC000F302405AD0000302505AE0054
:102398002B08A7072C08A83D2D08A93D2E08AA3D03
:1023A8002A082000ED00210029082000EC00210067
:1023B80028082000EB00210027082000EA00FF3051
:1023C8006A052100E7003F3020006B052100E80086
:1023D80020006A082100A70020006B082100A8003F
:1023E80020006C082100A90020006D082100AA0027
:1023F8000E30AA36A90CA80CA70C890BFD29FF30B2
:102408002705E5003F302805E6002108FB002008E5
:10241800FA00E530A7002708FC000230A8002808C9
:10242800FD0093317523080024002F08B2003008FE
:10243800B3003108B4000310330D340DB50035086E
:10244800BA003A08031D2F2A0030AC000030AD0056
:102458000030AE0008002C08B2002D08B3002E088A
:10246800B4000310330D340DB5003508BB003B082C
:10247800031D452A0030AC000030AD000030AE002E
:1024880008000030B7000030B8000030B9008930CB
:102498003B07B2003208BA022F08B2003008B30076
:1024A8003108B4001030B436B30CB20C890B572A7B
:1024B8003208B5003508BB002C08B2002D08B3005F
:1024C8002E08B4001030B436B30CB20C890B672A4E
:1024D8003208B5003508BB068030B2003208BB05AB
:1024E800B017FF30AF05FF30B0050030B105AD17AC
:1024F800FF30AC05FF30AD050030AE051830B20036
:102508003208B6000130B735B80DB90D890B872AE6
:102518002E083102031D962A2D083002031D962A23
:102528002C082F02031C9F2A2C08AF022D08B03B51
:102538002E08B13B37140130AF35B00DB10D890B02
:10254800A02A0130B602031D862A3708A0003808E1
:10255800A1003908A2003A08B2003208A3003B08DB
:10256800B3003308A40091314D2124002008AC00A9
:102578002108AD002208AE00080024003C08C20073
:102588003D08C3003E08C4000310430D440DC500B8
:102598004508C6004608031DD82A0030BC00003094
:1025A800BD000030BE0008003F08C2004008C3005C
:1025B8004108C4000310430D440DC5004508CB0075
:1025C8004B08031DEE2A0030BC000030BD0000306F
:1025D800BE0008004B087B3EC2004208C6073C0804
:1025E800C2003D08C3003E08C4001030C436C30C06
:1025F800C20C890BFA2A4208C5004508CB003F08DF
:10260800C2004008C3004108C4001030C436C30CDF
:10261800C20C890B0A2B4208C5004508CB0680303E
:10262800C2004208CB05BD17C017FF30BF05FF30F9
:10263800C0050030C1050030C7000030C8000030B8
:10264800C9000730C2004208CA003C1C312B3F08B1
:10265800C7074008C83D4108C93D0130BE36BD0C1A
:10266800BC0C890B322B0130BF35C00DC10D890B55
:10267800382B0130CA02031D292B0930C200420839
:10268800CA003C1C4D2B3F08C7074008C83D4108FD
:10269800C93D0130BE36BD0CBC0C890B4E2B013038
:1026A800C936C80CC70C890B542B0130CA02031D4C
:1026B800452B4708A0004808A1004908A200460881
:1026C800C2004208A3004B08C3004308A40091318C
:1026D8004D2124002008BC002108BD002208BE00AE
:1026E800080020302000A0002008E800E501E901EA
:1026F800680869020318CE2B0130A0002008E507FE
:1027080065087D02031CA02B7C0886008701403FDA
:10271800A000413FA10021083F39A2002208E300A0
:102728007C08860087010108A0002008E400023028
:10273800A0002008FC07B92B7B08F1007A08F000FC
:102748006908A0002008F2009A3114229331710818
:102758002000E7007008E60067083F39A00020085D
:10276800E3006608A0002008E4006308A0006908E8
:10277800233E86008701200881006408A0006908BC
:10278800433E86008701200881000130A000200810
:10279800E9077C2B7B08F1007A08F0009A313C228B
:1027A80093310030F3000030F2000330F100E830DC
:1027B800F0009B31DB2393317F302000A0002008FC
:1027C8008B0523001515BF302000A000200823002A
:1027D8009505DF302000A000200823009505EF3084
:1027E8002000A0002008230095057B082000A100F8
:1027F8007A08A000A136A00CA136A00CA136A00C26
:1028080020087F39230092007A0807392000A000A9
:102818000430A035FF3E031D0D2C20352300910008
:102828002000E9016808690203183A2C6908233E68
:102838008600870101082300940020006908433EB0
:1028480086008701010823009300000000009831EA
:10285800D020933101302000A000200823009107E8
:1028680001302000A0002008E907162CFB30A0004A
:102878002008230095058B170800210091122200DB
:102888000E153C008F013D00A20101303C008F0075
:102898008631F22694312400BE01BD01BE153E16D4
:1028A8003208B3003308E0003108E4003008E300E0
:1028B8002F08E2002E08E10032080319652CBE1427
:1028C800692CFD30B3003308BE05BD153108A300DF
:1028D8003008A2002F08A1002E08A0000130A70090
:1028E800E830A6004830A5000030A4009F315927E1
:1028F8009431FF3024002007BF00FF30213DC00085
:10290800FF30223DC100FF30233DC200FF30B3003D
:10291800FF30B400FF30B500FF30B6003F08B70005
:102928004008B8004108B9004208BA000230BA3677
:10293800B90CB80CB70C890B9B2C3708B3073808AF
:10294800B43D3908B53D3A08B63D3608C2003508E9
:10295800C1003408C0003308BF004008BC003F086D
:10296800BB0023001D1224003C08A1003B08A00066
:102978003E089C31FD24943124003D089831A9205B
:1029880094319831C62094312400B300B401B501C4
:10299800B6013608C2003508C1003408C000330843
:1029A800BF009831C62094312400B300B401B501AA
:1029B800B6013608C2003508C1003408C000330823
:1029C800BF009831C62094312400B300B401B5018A
:1029D800B6013608C2003508C1003408C000330803
:1029E800BF009831C62094312400B300B401B5016A
:1029F800B6013608C2003508C1003408C0003308E3
:102A0800BF009831C6202400B300B401B501B60157
:102A18003608C2003508C1003408C0003308BF00BA
:102A28003C008F0114303D00A20012303C00A5008C
:102A38001530A40001308F0020009112210091165A
:102A48000B1708002100911222000E153C008F017F
:102A58003D00A20101303C008F009831FC209531E7
:102A68002000B001AF01B01530162408A5002508D4
:102A78002400E000200023082400E40020002208AD
:102A88002400E300200021082400E20020002008A0
:102A98002400E100200024080319542DB014582DF7
:102AA800FD30A5002508B005AF152308F30022085E
:102AB800F2002108F1002008F0000130F700E830AA
:102AC800F6004830F5000030F4009F3107279531B3
:102AD800FF3070072000B100FF30713DB200FF30B9
:102AE800723DB300FF30733DB400FF30A500FF30E6
:102AF800A600FF30A700FF30A8003108A90032085F
:102B0800AA003308AB003408AC000230AC36AB0C7A
:102B1800AA0CA90C890B8A2D2908A5072A08A63D05
:102B28002B08A73D2C08A83D2808B4002708B300A7
:102B38002608B2002508B1003208AE003108AD0001
:102B480023001D1220002E08F1002D08F000300887
:102B58009A319222953120002F0898317F209531A3
:102B68009831A02095312000A500A601A701A80151
:102B78002808B4002708B3002608B2002508B100C9
:102B88009831A02095312000A500A601A701A80131
:102B98002808B4002708B3002608B2002508B100A9
:102BA8009831A02095312000A500A601A701A80111
:102BB8002808B4002708B3002608B2002508B10089
:102BC8009831A02095312000A500A601A701A801F1
:102BD8002808B4002708B3002608B2002508B10069
:102BE8009831A0202000A500A601A701A801280867
:102BF800B4002708B3002608B2002508B1003C003D
:102C08008F0114303D00A20012303C00A5001530A1
:102C1800A40001308F0020009112210091160B179B
:102C280008002400D6019931772196319931F02195
:102C380096318A31512296319931212196312400D9
:102C4800D6010A3056020318522E22000E16003002
:102C58002400A3000030A2002730A1001030A000FB
:102C68009C310E249631EF302400D50055082200FF
:102C78008E0500302400A3000030A2002730A100F8
:102C88001030A0009C310E24963101302400D5006C
:102C98005508D6070A305602031C292E9031E92020
:102CA800963124004C08D7004D08D8004E08D900AA
:102CB8005708A0005808A1005908A2000030A30036
:102CC8008830A4004030A5009C3143249631031875
:102CD8007A2E59302400AF008930B0009B31AA23E6
:102CE80096313A302400AF008A30982E33302400D1
:102CF800A000AB30A1004030A2005708A30058083C
:102D0800A4005908A5009C314324963103189C2E31
:102D180059302400AF008930B0009B31AA23963186
:102D280032302400AF008A30B0009B31AA2396319C
:102D38002030993108219631210091169031E920EF
:102D4800963124004C08D7004D08D8004E08D90009
:102D58000030A3000030A2000030A1001430A00011
:102D68009C310E24963124005708A0005808A10071
:102D78005908A2000030A3008830A4004030A50004
:102D88009C3143249631031CDB2E33302400A000F1
:102D9800AB30A1004030A2005708A3005808A40097
:102DA8005908A5009C31432496310318DF2E2400CE
:102DB800DE01DE0AE32E2400DE0122008E14240048
:102DC8005E080319F72E0130DC070030DD3D643062
:102DD8005C065D04031DF72EDC01DD010230D50021
:102DE800550822008E06003024005B026430031967
:102DF8005A020318042F0130DA070030DB3DA22EF7
:102E0800F730D500550822008E05A22E2000BE00FE
:102E18002C30B0003008BD002B08B1002A08B000E3
:102E2800AA0A0319AB0A3008840031088500000893
:102E3800B2003208BF003F080319FA2F25303F06B9
:102E48000319332F3F08B0003E0886000130870081
:102E5800300881000130B0003008BE07102FB601DD
:102E68003C2F36163C2FC030B0003008B604532F24
:102E78002B08B1002A08B000AA0A0319AB0A3008C7
:102E88008400310885000008BF00003A0319FA2FB2
:102E98006C3A0319352F193A0319372F102F361E9C
:102EA800622F3D0886008701403FB900413FBA00C4
:102EB800423FBB00433FBC000430702F3D088600F2
:102EC8008701403FB000413FB1003008B9003108E8
:102ED800BA00BB01BC010230B0003008BD07BF0119
:102EE800BF0A0A303F060319A62F3F08B000B101F8
:102EF800B035B10DB035B10DD3303007840088300E
:102F0800313D8500003FB200013FB300023FB400ED
:102F1800033FB50035083C02031D9C2F34083B02D3
:102F2800031D9C2F33083A02031D9C2F32083902D7
:102F3800031CA62F0130B0003008BF070A303F0637
:102F4800031D792F3F08B700B801B71BB803FF303E
:102F5800B707FF30B83D370A0319380A0319102F8D
:102F68000030A3000030A2000030A1000A30A00009
:102F780038088500370884008435850D8435850D2B
:102F8800D33084078830853D003FF000013FF100D1
:102F9800023FF200033FF3003C08F7003B08F6004D
:102FA8003A08F5003908F4009F310727973173086C
:102FB8002000A7007208A6007108A5007008A400E8
:102FC8009D313E25973120002008303EB000300862
:102FD800BF003F08B0003E08860001308700300877
:102FE80081000130B0003008BE07AB2F3E088600D4
:082FF80001308700810108008F
:1030CC0020001C11080020009A01080020001C158B
:1030DC00080020001C15080080342534003400340E
:1030EC00003400348034253423009E1564309A005B
:1030FC000800F00023009F0170089F000800FE00EC
:10310C0012001E00FE0B8628003464008001013181
:10311C00890B8C280034FE302400A00020082100EC
:10312C009D0508002030993130219831FE308C31CA
:10313C00DE24080023009D181D121908F0007008E9
:10314C00F100710808002400A00023009F01240056
:10315C00200823009F000800F0007008031DB92808
:10316C0021008C12080021008C160800F000700859
:10317C00031DC32821000C12080021000C160800A6
:10318C0023009D181D1219082400A0002008A1007E
:10319C0021080800553023009600AA30960095149B
:1031AC009518D628000000000800F00020307006AA
:1031BC00031DE328270092160800270012160800AA
:1031CC002400A0002008031DEE2821008C1208000A
:1031DC0021008C1608002400A0002008031DF928EB
:1031EC0021000C12080021000C1608004F30F000D2
:1031FC00700823009D059E12CF30F000700821004E
:10320C00910508002400A00020302006031D112980
:10321C00270092160800270012160800F000303024
:10322C007002031C1F293A30700203181F29013049
:10323C0008000030080001309831E6209931013047
:10324C009831F120993132309A3167229931863197
:10325C0082260800F10020307106031D3B29DF3067
:10326C00F0007008270092050800EF30F00070089D
:10327C00270092050800F0000D30F002713070024A
:10328C00031851297008843E840087300318013ECE
:10329C0085000008080000300800F0001130F00232
:1032AC006D307002031863297008663E8400883004
:1032BC000318013E85000008080000300800F000EB
:1032CC000D30F00271307002031875297008F53E4C
:1032DC00840087300318013E850000080800003088
:1032EC000800F0302100990000301A1801301A053E
:1032FC0003197A2940302400A000200821009A05E7
:10330C00031D08008029F00020307006031D95294C
:10331C0020008C1E9329013008000030080020008A
:10332C000C1E9A2901300800003008002400A1006E
:10333C0020302106031DA829DF30A000200827001B
:10334C0092050800EF302400A00020082700920509
:10335C0008002400A00020302006031DBC292000FA
:10336C008C1EBA29013008000030080020000C1E09
:10337C00C129013008000030080024002808A000F2
:10338C002908A100A2018E30AB002B08A300A401D8
:10339C0091314D2124002008A8002108A900220801
:1033AC00AA000800F300F401F4017108803A803C93
:1033BC00031DE229700874020318080074087307CF
:1033CC00F20072088600870181010130F200720858
:1033DC00F407DB2922008E018C0121000E118E10C6
:1033EC008E110E120C150E108E1622008E143C002F
:1033FC008F0114303D00A20012303C00A5001530A6
:10340C00A40001308F0023008C010C158E012100CB
:10341C009513203024008E008C010800BF30F3007F
:10342C007308230095057108F4007008F300F43656
:10343C00F30CF436F30CF436F30C73087F3992006A
:10344C0070080739F3000430F335FF3E031D2A2AB8
:10345C0073357207910015141518322A00000000FC
:10346C0023001408F1001308F00008007F30F2006C
:10347C0072088B05BF30F2007208230095057108A5
:10348C00F3007008F200F336F20CF336F20CF3365C
:10349C00F20C72087F39920070080739F200043080
:1034AC00F235FF3E031D562A72359100151615157F
:1034BC009831D020FB30F2007208230095058B1751
:1034CC0008002400A2000F30A0002008A300033045
:1034DC00A0002008A40025001A08F0390A389A0028
:1034EC002400220820009B0024002308A0000230A6
:1034FC00A035FF3E031D7E2A2035A10021082000A7
:10350C009C0424002408A000200820009C0498316E
:10351C006F20210091100800F20023009E019D01F4
:10352C0072181E16F21C9C2A1E171D1772199E1754
:10353C00F21DA22A1D16A32A9D16721A1E15721FA1
:10354C00AC2A2000911221009116AE2A2100911272
:10355C00F21FB52A2000111221001116B62A1112E1
:10356C00700823009B0071089C009E169D17080094
:10357C00F701F6017108F5007008F400F701083046
:10358C0077020318DC2A741CCF2A0130F30073086D
:10359C00F6070130F536F40C890BD02A0130F30014
:1035AC007308F70708307702031CC92A0330720628
:1035BC00031DE62A7618E42A0130080000300800C2
:1035CC00761CEA2A01300800003008000030FB00AD
:1035DC000030FA000030F9000030F800701CFE2AB0
:1035EC007408F8077508F93D7608FA3D7708FB3D35
:1035FC000130F435F50DF60DF70D890BFF2A01306E
:10360C00F336F20CF10CF00C890B062B73087204D8
:10361C0071047004031DF42A7B08F3007A08F2008D
:10362C007908F1007808F00008002400A701A60131
:10363C002108A5002008A400A701083027020318C0
:10364C003A2B241C2D2B0130A3002308A607013094
:10365C00A536A40C890B2E2B0130A3002308A70739
:10366C0008302702031C272B03302206031D442B92
:10367C002618422B0130080000300800261C482B6D
:10368C0001300800003008000030F3000030F20078
:10369C001330F1008830F0009B31DB239B3120008C
:1036AC002108840022088500120003196A2BF801F6
:1036BC00F901210884002208850000089D31CE25DF
:1036CC009B3123009E1C672B20002208A40021089C
:1036DC00A300A10A0319A20A230884002408850068
:1036EC001200031908004A2BBF302400A300230842
:1036FC002300950524002108A4002008A300A4366B
:10370C00A30CA436A30CA436A30C23087F392300E6
:10371C009200240020080739A3000430A335FF3E93
:10372C00031D942B23352207230091001514151823
:10373C009D2B00000000230014082400A10023008E
:10374C0013082400A000080000302400A30000305F
:10375C00A2001330A1008830A0009C310E249B31B4
:10376C0024002F0884003008850012000319CB2B8D
:10377C00A801A9012F0884003008850000089E319B
:10378C00B6269B3123009E1CC82B24003008B200A7
:10379C002F08B100AF0A0319B00A310884003208AF
:1037AC008500120003190800AA2B0030F800003025
:1037BC00F7000030F6000030F5007808803AF4008D
:1037CC007308803A7402031DF52B72087702031DEF
:1037DC00F52B71087602031DF52B70087502031882
:1037EC000800F901203079020318052C0000013083
:1037FC00F4007408F90720307902031CFC2B063006
:10380C00F5070030F63D0030F73D0030F83DE32B76
:10381C0000302400A8000030A7000030A6000030C3
:10382C00A5002808803AA4002308803A2402031D2E
:10383C00292C22082702031D292C21082602031DEE
:10384C00292C2008250203180800A9012030290280
:10385C0003183A2C000001302400A4002408A90706
:10386C0020302902031C302C0630A5070030A63D61
:10387C000030A73D0030A83D172C2400A21F5A2C65
:10388C002009A6002109A7002209A800A60A0319ED
:10389C00A70A0319A80A00302607A0000030273D0C
:1038AC00A1008030283DA200A51F702C2309A60082
:1038BC002409A7002509A800A60A0319A70A0319B9
:1038CC00A80A00302607A3000030273DA400803052
:1038DC00283DA5008030A2068030A50625082202CE
:1038EC00031D080024082102031D080023082002E0
:1038FC0008002400AE0021009D019E0150302400E0
:10390C00AC002C0821009E04220097171714171FD7
:10391C008D2C24002E08AC000130AC35FF3E031D6D
:10392C00932C2C35AD002D0821009D0483302400F0
:10393C00AC002C0821009E041D141113003024002F
:10394C00A3000030A2000030A1000530A0009C3183
:10395C000E249C3121009D149D18B22C1C082400AF
:10396C00AB0021001B082400AA000800F700F60198
:10397C0070087102031C0800F60171087602031826
:10398C0008007008F200F301F209F309F20A0319B6
:10399C00F30A71087207F40073080318730AF50030
:1039AC007508803A803C031DDD2C740876020318E0
:1039BC00F12C760870077707F200720886008701F1
:1039CC000108F30076087707F40074088600870175
:1039DC0073088100F82C76087707F20072088600CD
:1039EC00870181010130F2007208F607C32C240014
:1039FC00A20023009E019D012400221C072D230000
:103A0C001E162400A21C0D2D23001E171D172400AA
:103A1C00221D122D23009E172400A21D182D2300F9
:103A2C001D161A2D23009D162400221E1F2D230067
:103A3C001E152400221F272D200091122100911603
:103A4C00292D210091122400A21F312D20001112CA
:103A5C0021001116332D21001112240020082300FF
:103A6C009B002400210823009C009E169D17080033
:103A7C00200023082204210420040319782DA90115
:103A8C00A90AA31B552D0130A035A10DA20DA30D24
:103A9C00890B4A2D0130A8002808A907472D2308B7
:103AAC002702031D632D22082602031D632D210806
:103ABC002502031D632D20082402031C6D2D2008F4
:103ACC00A4022108A53B2208A63B2308A73B0130F2
:103ADC00A336A20CA10CA00C890B6E2D0130A902EF
:103AEC00031D552D2708A3002608A2002508A100B8
:103AFC002408A000080000302000A3000030A20021
:103B0C000030A1000030A0007608F1007508F0002C
:103B1C007708F9007908F2009A3114229D31700867
:103B2C00FA007108FB00FC01FD011030FA35FB0DA9
:103B3C00FC0DFD0D890B9C2D7D082000A3007C083D
:103B4C00A2007B08A1007A08A0007608F100750895
:103B5C00F0007708013EF9007908F2009A3114223E
:103B6C007008FA007108FB00FC01FD017A082000C6
:103B7C00A0047B08A1047C08A2047D08A3042308EC
:103B8C00F8002208F7002108F6002008F5000800CC
:103B9C002000A00023001E1F132E78080319FD2DF2
:103BAC000A2E20002008FA00FB017A08F0007B089E
:103BBC00F1000330EA2D20002008FA00FB017A08FE
:103BCC00F0007B08F1000230FC007C08F2009A3116
:103BDC00BE229D31FD0023001E087D06FE397D06A8
:103BEC00122E23001E14132E23001E10132E24003D
:103BFC006008013A0319D72D033A0319E12D013A54
:103C0C000319F72DFA2D132E01307905FA00230034
:103C1C001E087A06FE397A069E0023009E1C132E7F
:103C2C002000200823009A00080000302400B10076
:103C3C000030B0000030AF000030AE002608A1000C
:103C4C002508A0002708A9002908A2009B317A2387
:103C5C009E3124002008AA002108AB00AC01AD0164
:103C6C001030AA35AB0DAC0DAD0D890B372E2D08D0
:103C7C00B1002C08B0002B08AF002A08AE002608B3
:103C8C00A1002508A0002708013EA9002908A200D0
:103C9C009B317A2324002008AA002108AB00AC0138
:103CAC00AD012A08AE042B08AF042C08B0042D0873
:103CBC00B1043108A8003008A7002F08A6002E0870
:103CCC00A500080079082000A1007808A000A13602
:103CDC00A00C01302005A20000302105A3007908BA
:103CEC00A5007808A400A536A40CA536A40CFF30BA
:103CFC002405F00000302505F1000330A60026084D
:103D0C00F2009A31BE229E312000A700A8012308A0
:103D1C002806031D932E22082706031DAF2E7908B3
:103D2C00A1007808A000A136A00CA136A00CFF3091
:103D3C002005FA0000302105FB007A089F31AC27E2
:103D4C009E312000A000A1012008FA002108FB00F0
:103D5C00B12EFA01FB017B08F9007A08F800080083
:103D6C002400AE0023001E1FFF2E24002808031978
:103D7C00E72EF42E2E08AA00AB012A08A0002B086F
:103D8C00A1000330D22E24002E08AA00AB012A0871
:103D9C00A0002B08A1000230AC002C08A2009B3123
:103DAC001B239E312400AD0023001E0824002D0689
:103DBC00FE392D06FD2E23001E14FF2E23001E108F
:103DCC00FF2E24006008013A0319C02E033A031990
:103DDC00C92E013A0319E12EE42EFF2E01302905DC
:103DEC00AA0023001E0824002A06FE392A062300F6
:103DFC009E0023009E1CFF2E24002E0823009A00F8
:103E0C0008000030FC000030FB000030FA000030ED
:103E1C00F90073087204710470040319502FFD012A
:103E2C00FD0AF31B252F0130F035F10DF20DF30DCA
:103E3C00890B1A2F0130F8007808FD07172F013075
:103E4C00F935FA0DFB0DFC0D890B262F7308770243
:103E5C00031D3A2F72087602031D3A2F7108750262
:103E6C00031D3A2F70087402031C452F7008F402CE
:103E7C007108F53B7208F63B7308F73B7914013077
:103E8C00F336F20CF10CF00C890B462F0130FD02CD
:103E9C00031D252F7C08F3007B08F2007A08F10043
:103EAC007908F000080000302400AC000030AB00B2
:103EBC000030AA000030A9002308220421042004A9
:103ECC000319A32FAD01AD0AA31B782F0130A03528
:103EDC00A10DA20DA30D890B6D2F0130A800280890
:103EEC00AD076A2F0130A935AA0DAB0DAC0D890BAE
:103EFC00792F23082702031D8D2F22082602031D6C
:103F0C008D2F21082502031D8D2F20082402031C50
:103F1C00982F2008A4022108A53B2208A63B2308C1
:103F2C00A73B29140130A336A20CA10CA00C890BC1
:103F3C00992F0130AD02031D782F2C08A3002B08FC
:103F4C00A2002A08A1002908A0000800F300F20131
:103F5C0073080139F0000630F035FF3E031DB22F17
:103F6C007035F1007108F20773080239F000043063
:103F7C00F035FF3E031DBE2F7035F1007108F207BE
:103F8C0073080439F0000230F035FF3E031DCA2FD0
:103F9C007035F1007108F207730808390907F00051
:103FAC007008F20773360839F0007008F2077308CE
:103FBC00F0000330F036890BE02F70080439F10063
:103FCC007108F2077308F0000530F036890BEB2FFF
:103FDC0070080239F1007108F2077308F00007301D
:103FEC00F036890BF62F70080139F1007108F207D1
:043FFC00720808003F
:020000040001F9
:04000E0064CFFBFEC2
:00000001FF
