:040000008031E6283D
:100008007E14803120007F08EF002100C201270004
:10001800931E752820309831F920803121009110E5
:10002800911222000E1601302000EE006E08210009
:10003800D2070130C935CA0D890B1E2800001030BF
:10004800993152218031003A03192F2801302100BB
:10005800C9070030CA3D210052080B3A031D602829
:100068000C30510203185D284A08F901F9074908BC
:10007800F801F8079D315525803178082000EE00F9
:100088006E082100C400440803195B2844082000B6
:10009800EE0021005108D63E8600870120006E0838
:1000A80081000130EE006E082100D1075D28D301E0
:1000B800D30AD201C901CA01983122208031200017
:1000C800911021009114983125208031DF302000D3
:1000D800EE006E0827009305203098318620803185
:1000E800E128131E822810309831F9208031EF3032
:1000F8002000EE006E0827009305E1282000911EDD
:10010800BF2822008E152400DA01DB012100C2017C
:1001180023001D1D92282100C201C20A98315420D3
:1001280080312000EE006E082100C3009831452080
:100138008031003A0319BC2821004208013A031D06
:10014800B028C308031DBC28A030FA008630FB0085
:100158009931B0218031BC28F801F80A0030230019
:100168001D180130F900210043089F3140278031D4
:1001780020009112E128911CE1282100911098316A
:100188001F20803120309831F92080312100D201A0
:10019800C901CA0153080319D72898314C20803166
:1001A8002100D301DA2881311B21803121009116E9
:1001B8002030983186202000911020006F08FF0021
:1001C8007E1009008031E828C530840000308500A1
:1001D8001D3098313F208031E130840001308500A6
:1001E8000F3098313F20803157308400023085002D
:1001F8000A3098313F2080312F30840098308500B4
:10020800E230860000308700043098313920803190
:100218002B308400983085006130860002308700DA
:100228000430983139207E1020009631112E230099
:10023800E00121005108031908002100D108031921
:10024800080056080319642E5608BC00BD013C0876
:100258002300E10021003D082300E200F0306106A0
:100268006204031D4E2921005608BC00BD013C084C
:100278002300E10021003D082300E2002100570887
:10028800BC00BD013C082300E30021003D08230019
:10029800E4009D29E030230061066204031DA829BB
:1002A80021005708BC00BD013C082300E3002100E1
:1002B8003D082300E400123063066404031D772917
:1002C800E101E201E301E40104302100D10204303C
:1002D800BC003C08F0000C30BD003D08F100D630F1
:1002E8009C314C248131F030230063066404031DE3
:1002F8009D2921005808BC00BD013C082300E500E9
:1003080021003D082300E6007C3065066604031DD5
:100318009829E101E201E301E401E501E601063083
:100328002100D1020630A12903302100D102033077
:10033800A12902302100D1020230BC003C08F000A3
:100348000C30BD003D08B02901302100D102F00178
:10035800F00A0C30BC003C08F100D6309C314C242B
:1003680081312300660865040319DC29E030610641
:100378006204031DB52AF03063066404031DB52A20
:10038800113065066604031DCB29E901B52A14302E
:1003980065066604031DD3292100CF01B52A7130F3
:1003A800230065066604031DB52A2100CE01B52A7F
:1003B8002300640863040319B52AF0306106620457
:1003C800031D602A123063066404031DED29EE0143
:1003D800002A593063066404031DF429EA01002A3F
:1003E800143063066404031DFB29ED01002A113053
:1003F800630664040319EC015930630664040319A5
:100408000A2A123063066404031D582AEE08031DE5
:10041800B52AEA08031DB52AED308C31DE24813176
:100428000038031D202A00308C31DE248131003849
:10043800031D202A2300EF012300680803193E2A20
:10044800E7010A3067020318B52AED308C31DE2443
:1004580081310038031D372A04308C31DE24813184
:1004680000380319B52A01302100BC003C082300DC
:10047800E707252AE7010A3067020318B52AED3095
:100488008C31DE2481310038031D512A00308C3133
:10049800DE24813100380319B52A01302100BC005F
:1004A8003C082300E7073F2A583063066404031D0D
:1004B800B52A2100CC01B52AE03023006106620488
:1004C800031DB52A113063066404031D6E2AE90171
:1004D800E90A802A143063066404031D772A210080
:1004E800CF01CF0A802A7130230063066404031DFC
:1004F800802A2100CE01CE0A2300DC01DC0AE908AB
:10050800031D8A2AEC08031D8A2ADC01DD01DD0AA5
:10051800ED08031D952A2100CF08031D952A230005
:10052800DD0121004E08BC00BD0123005D085C0709
:100538002100BE00BF01BF0D3C083E07C0003D08BA
:100548003F3DC1000330400641040319B52A23008A
:10055800630899311C2181312100BC003C0823002B
:10056800E0002300620861040319042C6408630492
:10057800031D042C66086504031D042C1230610653
:100588006204031DCA2AEE01EE0AD12A5930610617
:100598006204031DD12AEA01EA0A6E08013A031D22
:1005A800D92A210054080319E22A23006A08013ACB
:1005B800031D242B2100D008031D242BED308C3182
:1005C800DE2481310038031D242B23006808031919
:1005D800072BE7010A3067020318242BED308C3112
:1005E800DE2481310038031D002B05308C31DE24D8
:1005F800813100380319212B01302100BC003C084F
:100608002300E707EE2AE7010F2B01302100BC0089
:100618003C082300E7070A3067020318242BED3053
:100628008C31DE2481310038031D092B01308C31D7
:10063800DE2481310038031D092B2300EF01EF0A66
:100648001430230061066204031D2D2BED01ED0A11
:10065800042C113061066204031D352BEC01EC0AF1
:10066800042CEE3061066204031D3E2B2400DF01DA
:10067800DF0A042C5830230061066204031DC32BD3
:100688002100CC01CC0ACD08031D042C23006808E6
:100698000319882B6F0803196B2BE7010A306702CF
:1006A8000318042CED308C31DE2481310038031D11
:1006B800642B01308C31DE248131003803197E2B04
:1006C80001302100BC003C082300E707522BE7015A
:1006D8000A3067020318042CED308C31DE24813196
:1006E8000038031D812B00308C31DE248131003825
:1006F800031D812B2300E801042C01302100BC00DC
:100708003C082300E7076C2B6F080319A52BE701AA
:100718000A3067020318042CED308C31DE24813155
:100728000038031D9E2B05308C31DE2481310038C2
:100738000319B82B01302100BC003C082300E7074F
:100748008C2BE7010A3067020318042CED308C313A
:10075800DE2481310038031DBC2B04308C31DE24AB
:1007680081310038031DBC2B2300E801E80A042C62
:1007780001302100BC003C082300E707A62B6F08C6
:10078800013A031DE22B610899312E2181312100A4
:10079800BC003C082300E00068080319F82B41302E
:1007A8006002031CF82B5B3060020318F82B203022
:1007B8002100BC003C082300E007F82B61089931B0
:1007C8000A2181312100BC003C082300E0006808B0
:1007D8000319F82B61306002031CF82B7B30600290
:1007E8000318F82B2030E002E008031D042C6108F0
:1007F8009831E92081312100BC003C082300E00049
:100808002300DE01DE0AE908031D0E2CEC08031D97
:100818000E2CDE01DF01DF0AED08031D192C210073
:10082800CF08031D192C2300DF0121004E08BC004E
:10083800BD0123005F085E072100BE00BF01BF0D98
:100848003C083E07C0003D083F3DC100033040065C
:100858004104031DB12CFD302000A1008930A20005
:100868009B31112381310030F3000030F2003A301F
:10087800F1009830F0009B31752381312100CB08BD
:10088800031D6D2C0030C8000030C7000030C600C2
:100898000030C5002300EB012100CB01CB0AED306D
:1008A8002000A1008930A2009B3111238131003042
:1008B800F3000030F2003A30F1009830F0009B313C
:1008C80075238131F801F9013E309F31402781318C
:1008D800A82C00302100C8000030C7002530C60011
:1008E8008030C50000302000A1008A30A2009B3172
:1008F8001123813126302000A1008930A2009B31CC
:1009080011238131FD302000A1008930A2009B31E4
:10091800112381310030F3000030F2003A30F10049
:100928009830F0009B317523813121004808B200CE
:100938004708B1004608B0004508AF00B3018B3145
:10094800652381312100CB012300ED012100CF0176
:100958002300E901EC012100CE01230060080319FE
:10096800452E6008013A031DC42C903100208131C6
:10097800A030FA008630FB009931B0218131442E35
:100988002100CB08031DF12CF801F90123006008B0
:100998009F3140278131230060080D3A031D452E01
:1009A8000030F3000030F2001330F1008830F0001E
:1009B8009B3175238131F801F9010A309F314027B5
:1009C80081310030F3000030F2003A30F100983005
:1009D800F0009B3175238131442E23006008983143
:1009E800BF208131003A0319382D0030F300003060
:1009F800F2000030F1000A30F00021004808F7004A
:100A08004708F6004608F5004508F4009A318122A7
:100A1800813173082100C8007208C7007108C60038
:100A28007008C50023006008D03E2100BC00FF30DC
:100A380003180030BD003C08BE003D08BF00003070
:100A4800BF1BFF30C000C1003E08C5073F08C63DB8
:100A58004008C73D4108C83DF801F9012300600876
:100A68009F3140278131442E230060086F3A0319D3
:100A7800412D60084F3A031D4A2DEB01EB0AF8019E
:100A8800F90160089F3140278131442E2300600816
:100A9800653A0319532D6008453A031D602D02304D
:100AA8002100BC003C082300EB00F801F9016008B4
:100AB8009F3140278131442E230060086D3A031985
:100AC800692D60084D3A031D762D03302100BC00C6
:100AD8003C082300EB00F801F90160089F3140272A
:100AE8008131442E23006008733A03197F2D600872
:100AF800533A031D8C2D04302100BC003C08230010
:100B0800EB00F801F90160089F3140278131442E3C
:100B1800230060080D3A031D452EFD302000A1007A
:100B28008930A2009B31112381310030F30000305D
:100B3800F2003A30F1009830F0009B317523813192
:100B4800003021004802031DB32D00304702031D69
:100B5800B32D09304602031DB32D60304502031C36
:100B68002F2E00304802031DC32D01304702031DFC
:100B7800C32DC2304602031DC32D013045020318A0
:100B88002F2EAC302000AA008930AB002100480885
:100B98002000AF00210047082000AE0021004608D1
:100BA8002000AD00210045082000AC00A03097319E
:100BB80007278131A0302000A1000130A2009B311D
:100BC8001123813123006B0803190C2EFF2D1130DE
:100BD8002000A1008930102EFB302000A1008830B1
:100BE800102E4A302000A1008930102E3A30200003
:100BF800A1008930102E23006B08013A0319EB2D50
:100C0800033A0319F02D013A0319F52DFA2D142E84
:100C180026302000A1008930A2009B3111238131A8
:100C2800FD302000A1008930A2009B3111238131C1
:100C380021004808B2004708B1004608B00045083E
:100C4800AF0023006B082100BC003C08B3008B31C7
:100C580065238131422ED9302000A1008930A200BD
:100C68009B31112381310030F3000030F2003A301B
:100C7800F1009830F0009B31752381312100CB01C0
:100C880023002300E001E101E201E301E401E501C1
:100C9800E60121004C08BC003C08CD0023006E088A
:100CA8002100BC003C08D40023006A082100BC00D5
:100CB8003C08D000EF30BC003C0822008E052129FA
:100CC8000C30F0000030F100D6308631DF2681315B
:100CD8002100D10121292030993165218631073041
:100CE8008E316C268631003A031D0800003024003E
:100CF800A3000030A2001330A1008830A0009B316F
:100D0800DB238631ED308E316C268631003A031DA7
:100D1800080000302400A3000030A2001330A10016
:100D28008830A0009B31DB23863100308E316C2661
:100D38008631003A031D0800F4308E316C26863166
:100D4800003A031D0800F4308E316C268631003AD3
:100D5800031D0800F0308E316C268631003A031DE1
:100D6800080000302400A3000030A2000030A100D9
:100D78006430A0009B31DB23863102308E316C2633
:100D88008631003A031D0800F3308E316C26863117
:100D9800003A031D080000302400A3000030A20020
:100DA8000030A1006430A0009B31DB2386312F3056
:100DB8008E316C260800F300F401F4017108803AC2
:100DC800803C031DE92E700874020318080074089B
:100DD8007307F20072088600870181010130F20072
:100DE8007208F407E22E2400A00023009F012400CB
:100DF800200823009F0008000034113400340C340C
:100E08000A340634073414340034123410340E34DF
:100E18000B3400340034003400341C340034003403
:100E28001A34003400340034003400340034003400
:100E3800003400340034003400340034003400340A
:100E480000340034003400340034003400340034FA
:100E580000340034003400340034003400340034EA
:100E680000340034003400340034003400340034DA
:100E780000340034003400340034003400340034CA
:100E880000340034003400340034003400340034BA
:100E980000340034003400340034003400340034AA
:100EA800003400340034003400340034003400349A
:100EB800003400340034003400340034003400348A
:100EC800003400340034003400340034003400347A
:100ED800003400340034003400340034003400346A
:100EE8000034003400340034133400340034003447
:100EF80000340034003400340034003400340F343B
:100F080009346034003400340034003400340034D0
:100F1800713431340034003400347A347334613439
:100F280077343234003400346334783464346534CC
:100F38003434333400340034203476346634743432
:100F480072343534003400346E34623468346734B3
:100F5800793436340034003400346D346A347534EE
:100F680037343834003400342C346B3469346F34FB
:100F780030343934003400342E342F346C343B345C
:100F880070342D34003400340034273400345B349A
:100F98003D3400340034003400340D345D34003402
:100FA8005C3400340034003400340034003400343D
:100FB80000340834003400343134003434343734E5
:100FC80000340034003430342E343234353436347E
:100FD80038341B34003400342B3433342D342A3461
:100FE800393409347E340034003400340034003499
:100FF8000034513421340034003400345A3453342A
:101008004134573440340034003443345834443481
:1010180045342434233400340034203456344634E0
:10102800543452342534003400344E344234483475
:10103800473459345E340034003400344D344A3473
:10104800553426342A34003400343C344B34493483
:101058004F3429342834003400343E343F344C347F
:101068003A3450345F3400340034003422340034CD
:101078007B342B3400340034003400340D347D3498
:1010880000347C340034003400340034003400343C
:10109800003400340834003400343134003434343B
:1010A800373400340034003430342E34323435349C
:1010B800363438341B34003400342B3433342D3474
:1010C8002A3439341E34003400341F3400340034D8
:1010D8000034003400340034003400340034003468
:1010E800193400340034003400340034003400343F
:1010F8001D3400340034003400340034003400342B
:101108000034003400340034003400340034003437
:101118000034003400340034003400340034003427
:101128000034003400340034003400340034003417
:101138000034003400342F340034003400340034D8
:1011480000340034003400340034003400340034F7
:101158000034003400340D340034003400340034DA
:1011680000340034003400340034003400340034D7
:1011780000340034013400340334163400340034AD
:10118800003415347F340434003405340234003418
:101198000034003400341834003400341734013477
:1011A8000034003400340A34003400340034643429
:1011B800003400340034E83403340034003410348C
:1011C800273400340034A0348634013400344034E9
:1011D80042340F3400348034963498340034003468
:1011E800E134F53405340034CA349A343B342034BD
:1011F800773469347434683420344534763465344B
:101208006E3420347034613472346934743479340F
:1012180020346234693474340034203477346934C7
:101228007434683420344F34643464342034703473
:1012380061347234693474347934203462346934F2
:101248007434003420347734693474346834203486
:101258004E346F34203470346134723469347434E9
:101268007934203462346934743400342034773467
:1012780069347434683420345334703461346334DA
:10128800653420346234693474340034203477345B
:1012980069347434683420344D34613472346B34B6
:1012A8002034623469347434003456346F346C3406
:1012B8007434613467346534203474346F346F3473
:1012C8002034003431342E3433345F3444345734CA
:1012D8003034613400344334683461346E346734F4
:1012E8006534203442344134553444343A3420345B
:1012F800223443344E34543420342B342034413493
:101308004C34543420342B342034443445344C3455
:1013180022340D340A3400340D340A345034533432
:101328002F34323420344B346534793462346F349A
:10133800613472346434203474346F342034523459
:1013480053342D343234333432340D340A340034C7
:1013580042346134753464342034773469346C34FD
:101368006C34203462346534203473346534743416
:10137800203474346F34203425346C34753400349C
:1013880046346C34613473346834203450347234E5
:101398006F346734723461346D34203446346134C8
:1013A80069346C340D340A34003442346134753491
:1013B800643420344F347534743420346F346634D4
:1013C8002034523461346E34673465340D340A3451
:1013D800003445346E347434653472342034423405
:1013E800613475346434203472346134743465344F
:1013F80020340D340A340034423461347534643492
:10140800203452346534733465347434203474347D
:101418006F34203439343634303430340034463480
:10142800693472346D3477346134723465342034FD
:10143800563465347234733469346F346E343A34E4
:1014480020340034423461347534643420346934CF
:101458007334203425346C3475340034483469349A
:101468006734683421340D340A3400344C346F3412
:10147800773421340D340A340034FE302400A000BF
:10148800200821009D05080000302400CB00003012
:10149800CA000030C9000030C8000030CF0000305A
:1014A800CE000030CD000030CC00D001C030B200FA
:1014B8000030B300B401913142218A31240035084B
:1014C800CB003408CA003308C9003208C800FF300E
:1014D8004805CC00FF304905CD000F304A05CE0045
:1014E80000304B05CF004808C3004908C4004A082B
:1014F800C5004B08C6001430C636C50CC40CC30C56
:10150800890B802A43080F39C7004708D0000030EC
:101518004F02031D992A00304E02031D992A0930F3
:101528004D02031D992A60304C02031CAB2A00307F
:101538004F02031DA92A01304E02031DA92AC230F9
:101548004D02031DA92A01304C02031CB42A0030A5
:10155800CF000030CE002530CD008030CC00D00147
:101568004F08B1004E08B0004D08AF004C08AE005F
:101578005008C3004308B20094313D248A3100303A
:101588002400A3000030A2003A30A1009830A00047
:101598009B31DB238A3190302400AF008930B000C2
:1015A8009B31A8238A3100302400A3000030A20018
:1015B8003A30A1009830A0009B31DB238A311330E8
:1015C8002400AF008A30B0009B31A8238A316630EE
:1015D8002400AF008930B0009B31A8238A31FD3048
:1015E8002400AF008930B0009B31A8238A31003035
:1015F8002400A3000030A2003A30A1009830A000D7
:101608009B31DB238A316F302400AF008930B00072
:101618009B31A8238A3100302400A3000030A200A7
:101628003A30A1009830A0009B31DB238A31FD308D
:101638002400AF008930B0009B31A8238A312400F0
:1016480050080319482B3B2B1130AF0089304B2B26
:10165800FB302400AF0088304B2B4A302400AF0009
:1016680089304B2B3A302400AF0089304B2B2400B3
:101678005008013A0319282B033A03192C2B013A75
:101688000319312B362B4F2B2630AF008930B00091
:101698009B31A8238A31FD302400AF008930B00087
:1016A8009B31A8238A3100302400A3000030A20017
:1016B8003A30A1009830A0009B31DB238B158B17A3
:1016C800080000302200D5000030D4000030D300DC
:1016D8000030D2000030D9000030D8000030D700E8
:1016E8000030D600DE01C0302100A0000030A1008B
:1016F8003208A5003108A4003008A3002F08A20072
:101708003308B4003408A6009131A6218B31C030CB
:101718002000A4000030A500A6019031DE208B3106
:10172800200027082200DD00200026082200DC0017
:10173800200025082200DB00200024082200DA000F
:10174800FF305A05D200FF305B05D3000F305C052F
:10175800D40000305D05D5005A082100B4002200ED
:101768005B082100B50022005C082100B6002200B9
:101778005D082100B7001430B736B60CB50CB40CB0
:10178800890BC02B34080F39B800B901BA01BB0165
:101798003B082200D90021003A082200D800210085
:1017A80039082200D700210038082200D60021007D
:1017B80032082000A300210031082000A2002100E7
:1017C80030082000A10021002F082000A0002100DF
:1017D8003308B40034082000A400953122258B3149
:1017E800FD302000A1008930A2009B3111238B31EC
:1017F8000030F3000030F2003A30F1009830F00089
:101808009B3175238B312200550821003206031DB8
:101818001D2C2200540821003106031D1D2C220016
:10182800530821003006031D1D2C220052082100F8
:101838002F06031D3C2C3308B400B501B601B701CF
:101848002200590821003706031D3A2C22005808A7
:1018580021003606031D3A2C2200570821003506C0
:10186800031D3A2C220056082100340603194F2C78
:10187800C4302000A1008930A2009B3111238B3194
:101888000030F3000030F2003A30F1009830F000F8
:101898009B3175238B312200DE010A305E0203186A
:1018A8007C2C0E160030F3000030F2002730F100D7
:1018B8001030F0009B3175238B31EF302100B400DC
:1018C800340822008E050030F3000030F200273083
:1018D800F1001030F0009B3175238B31013021006D
:1018E800B40034082200DE070A305E02031C552CBF
:1018F80026302000AA008A30AB00210032082000E0
:10190800AF00210031082000AE002100300820007F
:10191800AD0021002F082000AC00203097310727A8
:101928008B3120302000A1000130A2009B3111230F
:101938008B31210033080319C32CB62C1130200039
:10194800A1008930C72CFB302000A1008830C72CAB
:101958004A302000A1008930C72C3A302000A1006D
:101968008930C72C21003308013A0319A22C033A05
:101978000319A72C013A0319AC2CB12CCB2C263017
:101988002000A1008930A2009B3111238B31FD304A
:101998002000A1008930A2009B3111238B31003037
:1019A800F3000030F2003A30F1009830F0009B313B
:1019B800752308002000A100A2012108FA00FB01FC
:1019C8007A08F0007B08F1000330FC007C08F20084
:1019D8009A31B0228C31FD007D082000A000A301BF
:1019E800A401003098315D208C3100309831672097
:1019F8008C31DF30FA007A0822008C050030F300C1
:101A08000030F2000130F1002C30F0009B317523DA
:101A18008C31EF30FA007A0822008C050030F30090
:101A28000030F2000030F1001430F0009B317523D3
:101A38008C31013098315D208C312000A301A40144
:101A48002030993152218C3100380319412D000082
:101A580001302000A3070030A43D3A302402993019
:101A680003192302031C242D013098315D208C3189
:101A7800013098316720013008002000A2010830A9
:101A8800220203189B2D211C4C2D22000C16512DCF
:101A9800EF30FA007A0822008C0503102000A10C10
:101AA800A301A4012030993152218C31003A031D41
:101AB800722D01302000A3070030A43D3A302402E3
:101AC800993003192302031C562D013098315D20EB
:101AD8008C31013098316720013008002000A301C3
:101AE800A4012030993152218C3100380319922DEC
:101AF800000001302000A3070030A43D3A30240242
:101B0800993003192302031C752D013098315D208B
:101B18008C31013098316720013008000130FA001B
:101B28007A082000A20708302202031C472D201C37
:101B3800A02D22000C16A52DEF30FA007A082200FD
:101B48008C052000A301A4012030993152218C3149
:101B5800003A031DC42D01302000A3070030A43D26
:101B68003A302402993003192302031CA82D0130AE
:101B780098315D208C3101309831672001300800A0
:101B88002000A301A4012030993152218C31003862
:101B98000319E32D01302000A3070030A43D3A309B
:101BA8002402993003192302031CC72D01309831F0
:101BB8005D208C31013098316720013008000130F8
:101BC800983167208C312000A301A401103099318D
:101BD80052218C3100380319062E01302000A3074A
:101BE8000030A43D3A302402993003192302031C23
:101BF800EA2D013098315D208C3101309831672011
:101C0800013008002000A301A4012030993152219D
:101C18008C3100380319252E01302000A30700302D
:101C2800A43D3A302402993003192302031C092EDB
:101C3800013098315D208C310130983167200130B6
:101C480008002000A301A4011030993152218C31E1
:101C5800003A031D442E01302000A3070030A43DA4
:101C68003A302402993003192302031C282E01302C
:101C780098315D208C31013098316720013008009F
:101C88002000A301A4012030993152218C31003A5F
:101C9800031D632E01302000A3070030A43D3A3015
:101CA8002402993003192302031C472E013098316E
:101CB8005D208C31013098316720013008000130F7
:101CC80098315D208C310130983167200030080050
:101CD8002400AF00B0012F08AA00AB012A08A00019
:101CE8002B08A1000330AC002C08A2009A31E02296
:101CF8008E312400AD002D08AE00B101B2010030D4
:101D0800983191208E31003098319C208E31DF300F
:101D18002400AA002A0822008C0500302400A30011
:101D28000030A2000130A1002C30A0009B31DB2341
:101D38008E31EF302400AA002A0822008C050030DA
:101D48002400A3000030A2000030A1001430A0003D
:101D58009B31DB238E310130983191208E31240064
:101D6800B101B2012030993178218E310038031940
:101D7800D32E000001302400B1070030B23D3A30C4
:101D88003202993003193102031CB62E0130983102
:101D980091208E31013098319C20013008002400B8
:101DA800B0010830300203182E2F2F1CDE2E22001F
:101DB8000C16E42EEF302400AA002A0822008C0515
:101DC80003102400AF0CB101B20120309931782101
:101DD8008E31003A031D052F01302400B107003071
:101DE800B23D3A303202993003193102031CE92E10
:101DF8000130983191208E31013098319C2001308A
:101E080008002400B101B2012030993178218E31C7
:101E180000380319252F000001302400B1070030D5
:101E2800B23D3A303202993003193102031C082FAF
:101E38000130983191208E31013098319C20013049
:101E4800080001302400AA002A08B0070830300230
:101E5800031CD92E2E1C332F22000C16392FEF30DD
:101E68002400AA002A0822008C052400B101B2012E
:101E78002030993178218E31003A031D582F0130D6
:101E88002400B1070030B23D3A30320299300319CC
:101E98003102031C3C2F0130983191208E310130E2
:101EA80098319C20013008002400B101B201203093
:101EB800993178218E3100380319772F01302400A9
:101EC800B1070030B23D3A3032029930031931027D
:101ED800031C5B2F0130983191208E3101309831ED
:101EE8009C2001300800013098319C208E3124005C
:101EF800B101B2011030993178218E3100380319BF
:101F08009A2F01302400B1070030B23D3A30320236
:101F1800993003193102031C7E2F0130983191202A
:101F28008E31013098319C20013008002400B10125
:101F3800B2012030993178218E3100380319B92F38
:101F480001302400B1070030B23D3A3032029930F6
:101F580003193102031C9D2F0130983191208E31D5
:101F6800013098319C20013008002400B101B201F1
:101F78001030993178218E31003A031DD82F013065
:101F88002400B1070030B23D3A30320299300319CB
:101F98003102031CBC2F0130983191208E31013061
:101FA80098319C20013008002400B101B201203092
:101FB800993178218E31003A031DF72F0130240022
:101FC800B1070030B23D3A3032029930031931027C
:101FD800031CDB2F0130983191208E31013098316C
:101FE8009C20013008000130983191208E31013059
:101FF80098319C200030080023009E1564309A0018
:10200800080024002808A0002908A100A2018E3099
:10201800AB002B08A300A4019F319F2724002008B0
:10202800A8002108A9002208AA00080002309D3152
:102038001125903124002B08D401D4072A08D30194
:10204800D3078A314122903103302200170524003A
:10205800CF004F08033A031D37280230D335D40D7B
:10206800890B322845280330220017052400CF00A9
:102078004F08023A031D45280130D335D40D890B8A
:1020880041286630BC00B630BD004030BE0000308C
:10209800AC007A30AD004430AE005408A901A9075D
:1020A8005308A801A807903105209031240028087A
:1020B800AF002908B0002A08B10092310E229031F1
:1020C80024002C08BF002D08C0002E08C100923142
:1020D800B72224003C08D0003D08D1003E08D200B9
:1020E8005008CC005108CD005208CE00080024004A
:1020F800AE0023001E1FC4282400A8080319AC281A
:10210800B9282E08AA00AB012A08A0002B08A100B4
:102118000330972824002E08AA00AB012A08A00043
:102128002B08A1000230AC002C08A2009A31E02252
:1021380090312400AD0023001E0824002D06FE392E
:102148002D06C22823001E14C42823001E10C428EC
:1021580024006008013A03198528033A03198E28D8
:10216800013A0319A628A928C42801302905AA007C
:1021780023001E0824002A06FE392A0623009E0092
:1021880024002E080A3A031DD52828080319080038
:1021980023009E1CCC2824002E0823009A0024002B
:1021A800080023009E1CD52824002E0823009A002E
:1021B8002400080020002508F601F6072408F50188
:1021C800F5072608A8002808F7009D31A5259031B5
:1021D80078082000B3007708B2007608B1007508C7
:1021E800B000FF3030052100E4003F302000310509
:1021F8002100E50020003008A8003108A9003208B5
:10220800AA003308AB000E30AB36AA0CA90CA80CF8
:10221800890B0829FF3028052100E2003F30200003
:1022280029052100E30064082000A80021006508B2
:102238002000A900AA01AB01210062082000AC001F
:10224800210063082000AD00AE01AF010C30AC35B1
:10225800AD0DAE0DAF0D890B2B292C08A8072D0845
:10226800A93D2E08AA3D2F08AB3D2B08A7002A0838
:10227800A6002908A5002808A4000800240033089F
:10228800A601A6073208A501A5073408B600360836
:10229800A7009D31F625913124002808C1002708A0
:1022A800C0002608BF002508BE00FF303E052100FB
:1022B800E4003F3024003F052100E50024003E08EB
:1022C800B6003F08B7004008B8004108B9000E3012
:1022D800B936B80CB70CB60C890B6C29FF3036052B
:1022E8002100E2003F30240037052100E3006408A4
:1022F8002400B600210065082400B700B801B90120
:10230800210062082400BA00210063082400BB00F1
:10231800BC01BD010C30BA35BB0DBC0DBD0D890B20
:102328008F293A08B6073B08B73D3C08B83D3D0839
:10233800B93D3908B5003808B4003708B300360885
:10234800B2000800210026080739A700A801A90142
:10235800AA011430A735A80DA90DAA0D890BAE291D
:10236800FF302205AB00FF302305AC000F302405F9
:10237800AD0000302505AE002B08A7072C08A83DA6
:102388002D08A93D2E08AA3D2A082000ED002100AD
:1023980029082000EC00210028082000EB0021007B
:1023A80027082000EA00FF306A052100E4003F30DA
:1023B80020006B052100E50020006A082100A70025
:1023C80020006B082100A80020006C082100A9004B
:1023D80020006D082100AA000E30AA36A90CA80C0E
:1023E800A70C890BF129FF302705E2003F302805AB
:1023F800E3002108FB01FB072008FA01FA07E23095
:10240800A7002708FC000230A8002808FD00933127
:102418006B23080024002F08B2003008B3003108ED
:10242800B4000310330D340DB5003508BA00BA08EE
:10243800031D252A0030AC000030AD000030AE008E
:1024480008002C08B2002D08B3002E08B4000310B1
:10245800330D340DB5003508BB00BB08031D3B2AFE
:102468000030AC000030AD000030AE000800003095
:10247800B7000030B8000030B90089303B07B2001F
:102488003208BA022F08B2003008B3003108B4008D
:102498001030B436B30CB20C890B4D2A3208B50093
:1024A8003508BB002C08B2002D08B3002E08B40074
:1024B8001030B436B30CB20C890B5D2A3208B50063
:1024C8003508BB068030B2003208BB05B017FF30B4
:1024D800AF05FF30B0050030B105AD17FF30AC05D2
:1024E800FF30AD050030AE051830B2003208B60036
:1024F8000130B735B80DB90D890B7D2A2E08310288
:10250800031D8C2A2D083002031D8C2A2C082F024B
:10251800031C952A2C08AF022D08B03B2E08B13BAE
:1025280037140130AF35B00DB10D890B962A013043
:10253800B602031D7C2A3708A0003808A100390814
:10254800A2003A08B2003208A3003B08B3003308DF
:10255800A4009F319F2724002008AC002108AD006B
:102568002208AE00080024003C08C2003D08C30051
:102578003E08C4000310430D440DC5004508C600BD
:10258800C608031DCE2A0030BC000030BD00003054
:10259800BE0008003F08C2004008C3004108C4004C
:1025A8000310430D440DC5004508CB00CB08031D9F
:1025B800E42A0030BC000030BD000030BE00080036
:1025C8004B087B3EC2004208C6073C08C2003D08D3
:1025D800C3003E08C4001030C436C30CC20C890BBB
:1025E800F02A4208C5004508CB003F08C200400851
:1025F800C3004108C4001030C436C30CC20C890B98
:10260800002B4208C5004508CB068030C2004208AE
:10261800CB05BD17C017FF30BF05FF30C005003020
:10262800C1050030C7000030C8000030C9000730BD
:10263800C2004208CA003C1C272B3F08C7074008B5
:10264800C83D4108C93D0130BE36BD0CBC0C890BE4
:10265800282B0130BF35C00DC10D890B2E2B013041
:10266800CA02031D1F2B0930C2004208CA003C1CC5
:10267800432B3F08C7074008C83D4108C93D013002
:10268800BE36BD0CBC0C890B442B0130C936C80CB6
:10269800C70C890B4A2B0130CA02031D3B2B470884
:1026A800A0004808A1004908A2004608C200420844
:1026B800A3004B08C3004308A4009F319F272400B0
:1026C8002008BC002108BD002208BE0008002030F8
:1026D8002000A0002008E800E501E9016808690277
:1026E8000318C82B0130A0002008E50765087D0203
:1026F800031C962B7C0886008701403FA000413FC1
:10270800A10021083F39A2002208E3007C088600C6
:1027180087010108A0002008E4000230A00020087A
:10272800FC07B32B7B08F101F1077A08F001F007E9
:102738006908A0002008F2009931D5219331710869
:102748002000E701E7077008E601E60767083F3958
:10275800A0002008E3006608A0002008E400630841
:10276800A0006908233E86008701200881006408CC
:10277800A0006908433E86008701200881000130D7
:10278800A0002008E907722B7B08F101F1077A08FD
:10279800F001F0079931FF2193310030F300003048
:1027A800F2000330F100E830F0009B3175239331DB
:1027B8007F302000A00020088B0523001515BF30AE
:1027C8002000A000200823009505DF302000A0008D
:1027D800200823009505EF302000A00020082300E2
:1027E80095057B082000A1007A08A000A136A00C5E
:1027F800A136A00CA136A00C20087F392300920036
:102808007A0807392000A0000430A035FF3E031DD8
:10281800092C2035230091002000E901680869028D
:102828000318362C6908233E860087010108230017
:10283800940020006908433E8600870101082300B0
:1028480093000000000098317B2093310130200074
:10285800A00020082300910701302000A0002008D4
:10286800E907122CFB30A0002008230095058B17E0
:10287800080022000E153C008F013D00A201013026
:102888003C008F009831CC2094312400BE01BD015A
:10289800BE153E163208B3003308E0003108E400E4
:1028A8003008E3002F08E2002E08E100320803197F
:1028B8005F2CBE14632CFD30B3003308BE05BD1574
:1028C8003108A3003008A2002F08A1002E08A0009C
:1028D8000130A700E830A6004830A5000030A40069
:1028E8009E3199269431FF3024002007BF00FF3025
:1028F800213DC000FF30223DC100FF30233DC20012
:10290800FF30B300FF30B400FF30B500FF30B60031
:102918003F08B7004008B8004108B9004208BA00AB
:102928000230BA36B90CB80CB70C890B952C37089D
:10293800B3073808B43D3908B53D3A08B63D3608FE
:10294800C2003508C1003408C0003308BF00400881
:10295800BC01BC073F08BB01BB0723001D122400B4
:102968003C08A101A1073B08A001A0073E089C3133
:102978008D24943124003D088631F726943198310E
:10298800712094312400B300B401B501B6013608B2
:10299800C2003508C1003408C0003308BF009831B0
:1029A800712094312400B300B401B501B601360892
:1029B800C2003508C1003408C0003308BF00983190
:1029C800712094312400B300B401B501B601360872
:1029D800C2003508C1003408C0003308BF00983170
:1029E800712094312400B300B401B501B601360852
:1029F800C2003508C1003408C0003308BF00983150
:102A080071202400B300B401B501B6013608C20034
:102A18003508C1003408C0003308BF003C008F01EE
:102A280014303D00A20012303C00A5001530A4006F
:102A380001308F00200091120B17080022000E159C
:102A48003C008F013D00A20101303C008F0098310D
:102A5800A72095312000B001AF01B0153016240829
:102A6800A50025082400E000200023082400E40035
:102A7800200022082400E300200021082400E200AE
:102A8800200020082400E1002000240803194E2D0E
:102A9800B014522DFD30A5002508B005AF15230848
:102AA800F3002208F2002108F1002008F0000130AC
:102AB800F700E830F6004830F5000030F4009E31A9
:102AC80047269531FF3070072000B100FF30713D77
:102AD800B200FF30723DB300FF30733DB400FF30E9
:102AE800A500FF30A600FF30A700FF30A80031087E
:102AF800A9003208AA003308AB003408AC00023041
:102B0800AC36AB0CAA0CA90C890B842D2908A50797
:102B18002A08A63D2B08A73D2C08A83D2808B40084
:102B28002708B3002608B2002508B1003208AE0114
:102B3800AE073108AD01AD0723001D1220002E0895
:102B4800F101F1072D08F001F00730089A315522FC
:102B5800953120002F089831332095319831542031
:102B680095312000A500A601A701A8012808B400F6
:102B78002708B3002608B2002508B1009831542070
:102B880095312000A500A601A701A8012808B400D6
:102B98002708B3002608B2002508B1009831542050
:102BA80095312000A500A601A701A8012808B400B6
:102BB8002708B3002608B2002508B1009831542030
:102BC80095312000A500A601A701A8012808B40096
:102BD8002708B3002608B2002508B1009831542010
:102BE8002000A500A601A701A8012808B40027080D
:102BF800B3002608B2002508B1003C008F0114304C
:102C08003D00A20012303C00A5001530A4000130A0
:102C18008F00200091120B1708002400D60199316B
:102C28004021963199318C2196318A31482296314A
:102C38009831DA2096312400D6010A30560203185A
:102C48004E2E22000E1600302400A3000030A200F1
:102C58002730A1001030A0009B31DB239631EF30E4
:102C68002400D500550822008E0500302400A3005A
:102C78000030A2002730A1001030A0009B31DB23D8
:102C8800963101302400D5005508D6070A3056027F
:102C9800031C252E90311A20963124004C08D700A9
:102CA8004D08D8004E08D9005708A0005808A100C0
:102CB8005908A2009A30A300D130A4004030A500E2
:102CC8009C31102496310318762E59302400AF0019
:102CD8008930B0009B31A82396313A302400AF00E8
:102CE8008A30942E00302400A000F030A10041303A
:102CF800A2005708A3005808A4005908A5009C3151
:102D0800102496310318982E59302400AF008930CA
:102D1800B0009B31A823963132302400AF008A30AE
:102D2800B0009B31A823963120309831B3209631DA
:102D38002100911690311A20963124004C08D700B2
:102D48004D08D8004E08D9000030A3000030A2007A
:102D58000030A1001430A0009B31DB239631240001
:102D68005708A0005808A1005908A2009A30A300EB
:102D7800D130A4004030A5009C3110249631031CAA
:102D8800D72E00302400A000F030A1004130A2006E
:102D98005708A3005808A4005908A5009C3110241E
:102DA80096310318DB2E2400DE01DE0ADF2E240014
:102DB800DE0122008E1424005E080319F42E01306F
:102DC800DC070030DD3D64305C065D04031DF42E35
:102DD800DC01DD010230D500550822008E062400F2
:102DE800003024005B02643003195A020318012FD3
:102DF8000130DA070030DB3D9E2EF730D50055084C
:102E080022008E059E2E2000BE002C30B000300817
:102E1800BD002B08B1002A08B000AA0A0319AB0AA2
:102E280030088400310885000008B2003208BF006D
:102E3800BF080319FA2F3F08253A0319302F3F0816
:102E4800B0003E088600013087003008810001305C
:102E5800B0003008BE070D2FB601392F3616392FAE
:102E6800C030B0003008B604502F2B08B1002A0833
:102E7800B000AA0A0319AB0A30088400310885009B
:102E88000008BF00003A0319FA2F6C3A0319322FD1
:102E9800193A0319342F0D2F361E5F2F3D0886006F
:102EA8008701403FB900413FBA00423FBB00433F62
:102EB800BC0004306D2F3D0886008701403FB000FC
:102EC800413FB1003008B9003108BA00BB01BC016C
:102ED8000230B0003008BD07BF01BF0A3F080A3AF8
:102EE8000319A32F3F08B000B101B035B10DB035BB
:102EF800B10DD330300784008830313D8500003F64
:102F0800B200013FB300023FB400033FB5003508EB
:102F18003C02031D992F34083B02031D992F3308E7
:102F28003A02031D992F32083902031CA32F0130DE
:102F3800B0003008BF073F080A3A031D762F3F0844
:102F4800B700B801B71BB803FF30B707FF30B83D6B
:102F5800FF303806031DB22FFF30370603190D2F37
:102F68000030A3000030A2000030A1000A30A00009
:102F780038088500370884008435850D8435850D2B
:102F8800D33084078830853D003FF000013FF100D1
:102F9800023FF200033FF3003C08F7003B08F6004D
:102FA8003A08F5003908F4009E314726973173082E
:102FB8002000A7007208A6007108A5007008A400E8
:102FC8009C31CE24973120002008303EB0003008D4
:102FD800BF003F08B0003E08860001308700300877
:102FE80081000130B0003008BE07A82F3E088600D7
:082FF80001308700810108008F
:10303E0020001C11080020009A01080020001C1519
:10304E00080020001C15080080342534003400349C
:10305E000034003480342534F00023009F017008C2
:10306E009F000800FE0012001E00FE0B3A280034DE
:10307E00640080010131890B4028003420000E1CB1
:10308E004A28013008000030080020309831F9201D
:10309E009831FE308C31DE24080023009D181D125D
:1030AE001908F0007008F10071080800F000F0082F
:1030BE00031D642821008C12080021008C160800C4
:1030CE00F000F008031D6E2821000C1208002100EC
:1030DE000C16080023009D181D1219082400A000CC
:1030EE002008A10021080800553023009600AA30C0
:1030FE009600951495188128000000000800F00035
:10310E007008203A031D8E2827009216080027000B
:10311E00121608002400A000A008031D9928210003
:10312E008C12080021008C1608002400A000A008B4
:10313E00031DA42821000C12080021000C16080003
:10314E004F30F000700823009D059E12CF30F00026
:10315E0070082100910508002400A0002008203AE4
:10316E00031DBC282700921608002700121608001F
:10317E00F00030307002031CCA283A307002031877
:10318E00CA2801300800003008004F302400A0008B
:10319E00200823009D059E12CF302400A000200899
:1031AE0021009105080001309831912098310130AD
:1031BE0098319C209831FF309A312A2298318631ED
:1031CE006F260800F000843070020318F72870088C
:1031DE00003E840087300318013E85000008080079
:1031EE0000300800F1007108203A031D0429DF3079
:1031FE00F0007008270092050800EF30F00070080C
:10320E00270092050800F0000D30F00271307002B8
:10321E0003181A297008843E840087300318013E73
:10322E0085000008080000300800F0001130F002A0
:10323E006D30700203182C297008663E84008830A9
:10324E000318013E85000008080000300800F00059
:10325E000D30F0027130700203183E297008F53EF1
:10326E00840087300318013E8500000808000030F6
:10327E000800F0302100990000301A1801301A05AC
:10328E000319432940302400A000200821009A058C
:10329E00031D08004929F0007008203A031D5E291D
:1032AE0020008C1E5C290130080000300800200030
:1032BE000C1E632901300800003008002400A10014
:1032CE002108203A031D7129DF30A00020082700B5
:1032DE0092050800EF302400A00020082700920578
:1032EE0008002400A0002008203A031D8529200094
:1032FE008C1E8329013008000030080020000C1EAF
:10330E008A29013008000030080022008E018C014D
:10331E0021000E118E108E110E120C150E148E161B
:10332E0022008E143C008F0114303D00A20012309A
:10333E003C00A5001530A40001308F0023008C0145
:10334E000C158E0121009513203024008E008C0167
:10335E00080022000E153C008F013D00A201013035
:10336E003C008F00FB30FC007C0822008E057A08A2
:10337E00F0007B08F100F201F3019B31752322006E
:10338E000E153C008F0114303D00A20012303C009F
:10339E00A5001530A40001308F000800BF30F300E7
:1033AE007308230095057108F4007008F300F436D5
:1033BE00F30CF436F30CF436F30C73087F399200E9
:1033CE0070080739F3000430F335FF3E031DEB2977
:1033DE0073357207910015141518F32900000000BB
:1033EE0023001408F101F1071308F001F00708009B
:1033FE007F30F20072088B05BF30F2007208230096
:10340E0095057108F3007008F200F336F20CF336EE
:10341E00F20CF336F20C72087F39920070080739FD
:10342E00F2000430F235FF3E031D192A7235910069
:10343E001516151598317B20FB30F200720823000B
:10344E0095058B1708002400A2000F30A00020085D
:10345E00A3000330A0002008A40025001A08F039AC
:10346E000A389A002400220820009B00240023081A
:10347E00A0000230A035FF3E031D412A2035A100D9
:10348E00210820009C0424002408A000200820000D
:10349E009C0498312820210091100800F20023008E
:1034AE009E019D0172181E16F21C5F2A1E171D1713
:1034BE0072199E17F21D652A1D16662A9D16721A1E
:1034CE001E15721F6F2A2000911221009116712A6B
:1034DE0021009112F21F782A2000111221001116DC
:1034EE00792A1112700823009B0071089C009E1609
:1034FE009D1708000030FB000030FA000030F90084
:10350E000030F800701C932A7408F8077508F93D0E
:10351E007608FA3D7708FB3D0130F435F50DF60DD2
:10352E00F70D890B942A0130F336F20CF10CF00CE6
:10353E00890B9B2A7308720471047004031D892A77
:10354E007B08F3007A08F2007908F1007808F000A1
:10355E000800F701F6017108F501F5077008F4018E
:10356E00F407F701083077020318D02A741CC32A17
:10357E000130F3007308F6070130F536F40C890BB1
:10358E00C42A0130F3007308F70708307702031CD2
:10359E00BD2A7208033A031DDA2A7618D82A01309A
:1035AE00080000300800761CDE2A013008000030CA
:1035BE0008002400A701A6012108A501A5072008DF
:1035CE00A401A407A701083027020318012B241C0D
:1035DE00F42A0130A3002308A6070130A536A40C57
:1035EE00890BF52A0130A3002308A707083027020C
:1035FE00031CEE2A2208033A031D0B2B2618092B57
:10360E000130080000300800261C0F2B0130080086
:10361E00003008000030F3000030F2001330F100EB
:10362E008830F0009B3175239B31200021088400E7
:10363E00220885000008003A0319322BF801F9011F
:10364E00210884002208850000089F3140279B3105
:10365E0023009E1C2F2B20002208A4002108A3006B
:10366E00A10A0319A20A2308840024088500000871
:10367E00003803190800112BBF302400A3002308C3
:10368E002300950524002108A4002008A300A436D9
:10369E00A30CA436A30CA436A30C23087F39230055
:1036AE009200240020080739A3000430A335FF3E02
:1036BE00031D5D2B233522072300910015141518C9
:1036CE00662B00000000230014082400A101A107AE
:1036DE00230013082400A001A00708000030F80002
:1036EE000030F7000030F6000030F5007808803A20
:1036FE00F4007308803A7402031D8F2B7208770250
:10370E00031D8F2B71087602031D8F2B7008750217
:10371E0003180800F9012030790203189F2B0000CE
:10372E000130F4007408F90720307902031C962B3F
:10373E000630F5070030F63D0030F73D0030F83D1D
:10374E007D2B00302400A3000030A2001330A10016
:10375E008830A0009B31DB239B3124002F0884008E
:10376E00300885000008003A0319CA2BA801A901E8
:10377E002F08840030088500000890317B209B3193
:10378E0023009E1CC72B24003008B2002F08B10066
:10379E00AF0A0319B00A3108840032088500000808
:1037AE00003803190800A82B00302400A8000030B0
:1037BE00A7000030A6000030A5002808803AA4001B
:1037CE002308803A2402031DF62B22082702031D2C
:1037DE00F62B21082602031DF62B200825020318BE
:1037EE000800A901203029020318072C000001301F
:1037FE002400A4002408A90720302902031CFD2B55
:10380E000630A5070030A63D0030A73D0030A83D8C
:10381E00E42B2400A21F272C2009A6002109A700B3
:10382E002209A800A60A0319A70A0319A80A00303C
:10383E002607A0000030273DA1008030283DA200C1
:10384E00A51F3D2C2309A6002409A7002509A800C1
:10385E00A60A0319A70A0319A80A00302607A3000F
:10386E000030273DA4008030283DA5008030A20600
:10387E008030A50625082202031D08002408210217
:10388E00031D0800230820020800F700F601700847
:10389E007102031C0800F601710876020318080075
:1038AE007008F200F301F209F309F20A0319F30AA0
:1038BE0071087207F40073080318730AF50075088F
:1038CE00803A803C031D6D2C740876020318812CFF
:1038DE00760870077707F2007208860087010108E4
:1038EE00F30076087707F4007408860087017308E2
:1038FE008100882C76087707F2007208860087010F
:10390E0081010130F2007208F607532C2400A20048
:10391E0023009E019D012400221C972C23001E16BD
:10392E002400A21C9D2C23001E171D172400221DEF
:10393E00A22C23009E172400A21DA82C23001D16C6
:10394E00AA2C23009D162400221EAF2C23001E1528
:10395E002400221FB72C2000911221009116B92CA1
:10396E00210091122400A21FC12C2000111221004F
:10397E001116C32C210011122400200823009B00D5
:10398E002400210823009C009E169D17080020008D
:10399E0023082204210420040319082DA901A90AD1
:1039AE00A31BE52C0130A035A10DA20DA30D890B93
:1039BE00DA2C0130A8002808A907D72C23082702E3
:1039CE00031DF32C22082602031DF32C21082502C9
:1039DE00031DF32C20082402031CFD2C2008A40236
:1039EE002108A53B2208A63B2308A73B0130A3369E
:1039FE00A20CA10CA00C890BFE2C0130A902031DF8
:103A0E00E52C2708A3002608A2002508A1002408FB
:103A1E00A00008002400AE0021009D019E01503040
:103A2E002400AC002C0821009E04220097170330BE
:103A3E002400AC002C0822009704171F242D24000C
:103A4E002E08AC000130AC35FF3E031D2A2D2C355F
:103A5E00AD002D0821009D0483302400AC002C08FD
:103A6E0021009E041D14111300302400A300003009
:103A7E00A2000030A1000530A0009B31DB239D3158
:103A8E0021009D149D18492D1C082400AB01AB0785
:103A9E0021001B082400AA01AA07080079082000AB
:103AAE00A1007808A000A136A00C01302005A200CC
:103ABE0000302105A3007908A5007808A400A536DA
:103ACE00A40CA536A40CFF302405F000003025050B
:103ADE00F1000330A6002608F2009A31B0229D3183
:103AEE002000A700A80123082806031D802D220808
:103AFE002706031D9C2D7908A1007808A000A13689
:103B0E00A00CA136A00CFF302005FA0000302105D4
:103B1E00FB007A089E31EC269D312000A000A10109
:103B2E002008FA002108FB009E2DFA01FB017B08FC
:103B3E00F901F9077A08F801F807080000302000AB
:103B4E00A3000030A2000030A1000030A0007608D3
:103B5E00F101F1077508F001F0077708F90079080F
:103B6E00F2009931D5219D317008FA007108FB00E1
:103B7E00FC01FD011030FA35FB0DFC0DFD0D890B1E
:103B8E00C22D7D082000A3007C08A2007B08A100A6
:103B9E007A08A0007608F101F1077508F001F00728
:103BAE007708013EF9007908F2009931D5217008A5
:103BBE00FA007108FB00FC01FD017A082000A00448
:103BCE007B08A1047C08A2047D08A3042308F80046
:103BDE002208F7002108F6002008F5000800003042
:103BEE002400B1000030B0000030AF000030AE0055
:103BFE002608A101A1072508A001A0072708A900F2
:103C0E002908A2009B3143239D3124002008AA00DD
:103C1E002108AB00AC01AD011030AA35AB0DAC0DD7
:103C2E00AD0D890B142E2D08B1002C08B0002B08F9
:103C3E00AF002A08AE002608A101A1072508A001A1
:103C4E00A0072708013EA9002908A2009B314323A3
:103C5E0024002008AA002108AB00AC01AD012A08FF
:103C6E00AE042B08AF042C08B0042D08B1043108A3
:103C7E00A8003008A7002F08A6002E08A5000800EF
:103C8E000030FC000030FB000030FA000030F9007C
:103C9E0073087204710470040319902EFD01FD0A5D
:103CAE00F31B652E0130F035F10DF20DF30D890B7E
:103CBE005A2E0130F8007808FD07572E0130F935DD
:103CCE00FA0DFB0DFC0D890B662E73087702031D92
:103CDE007A2E72087602031D7A2E71087502031D64
:103CEE007A2E70087402031C852E7008F402710877
:103CFE00F53B7208F63B7308F73B79140130F33647
:103D0E00F20CF10CF00C890B862E0130FD02031D16
:103D1E00652E7C08F3007B08F2007A08F100790822
:103D2E00F000080000302400AC000030AB00003082
:103D3E00AA000030A900230822042104200403193C
:103D4E00E32EAD01AD0AA31BB82E0130A035A10D97
:103D5E00A20DA30D890BAD2E0130A8002808AD07CA
:103D6E00AA2E0130A935AA0DAB0DAC0D890BB92EBB
:103D7E0023082702031DCD2E22082602031DCD2E59
:103D8E0021082502031DCD2E20082402031CD82E47
:103D9E002008A4022108A53B2208A63B2308A73B26
:103DAE0029140130A336A20CA10CA00C890BD92E1C
:103DBE000130AD02031DB82E2C08A3002B08A20063
:103DCE002A08A1002908A0000800F300F2017308D8
:103DDE000139F0000630F035FF3E031DF22E70352E
:103DEE00F1007108F20773080239F0000430F03563
:103DFE00FF3E031DFE2E7035F1007108F2077308A9
:103E0E000439F0000230F035FF3E031D0A2F7035E5
:103E1E00F1007108F207730808390907F0007008FD
:103E2E00F20773360839F0007008F2077308F000D5
:103E3E000330F036890B202F70080439F100710819
:103E4E00F2077308F0000530F036890B2B2F70083F
:103E5E000239F1007108F2077308F0000730F036EE
:103E6E00890B362F70080139F1007108F2077208BC
:103E7E0008002000A00023001E1F852FF80803193C
:103E8E006F2F7C2F20002008FA00FB017A08F0002B
:103E9E007B08F10003305C2F20002008FA00FB01A4
:103EAE007A08F0007B08F1000230FC007C08F2007A
:103EBE009A31B0229F31FD0023001E087D06FE3987
:103ECE007D06842F23001E14852F23001E10852FA0
:103EDE0024006008013A0319492F033A0319532F9E
:103EEE00013A0319692F6C2F852F01307905FA00DD
:103EFE0023001E087A06FE397A069E00200020084E
:103F0E000A3A031D962F78080319080023009E1CF9
:103F1E008D2F2000200823009A0020000800230087
:103F2E009E1C962F2000200823009A0020000800D7
:103F3E00240023080319A82F220821042004031D9E
:103F4E00B92F0030A0000030A1000030A200080000
:103F5E000130A5002508A3070130A236A10CA00C44
:103F6E00890BB42FFE3022050319D22FAF2F01304B
:103F7E00A5002508A3070130A00700300318013063
:103F8E00A107003003180130A2070130A236A10CA0
:103F9E00A00C890BCD2FFF3022050319DF2FBE2F6A
:103FAE000130A3020130A035A10DA20D890BDA2F2D
:103FBE00A11FD72F2318E92FFF30A0057F30A105B1
:103FCE00FF30A2050310A30C2308A500A601A7012C
:103FDE001030A535A60DA70D890BF02F2508A004CE
:103FEE002608A1042708A204240803190800A21712
:023FFE000800B9
:020000040001F9
:04000E0064CFFBFEC2
:00000001FF
