:040000008031DD2846
:100008007E14803120007F08A200A3012700931EE0
:100018007C2822000E162C3020006A0203187A2849
:100028000B306A020318302801302400A035A10DD6
:10003800890B1A2810309A3192228031003A03191C
:100048002A2801302400A0070030A13D2400A40183
:10005800A501A601A7017228163020006A0203181C
:10006800482801302400A435A50D890B3728103005
:100078009A3192228031003A031972280130240003
:10008800A4070030A53D7228213020006A02031819
:10009800602801302400A635A70D890B4F281030A1
:1000A8009A3192228031003A0319722801302400D3
:1000B800A6070030A73D722801302400A235A30D01
:1000C800890B622810309A3192228031003A031944
:1000D800722801302400A2070030A33D013020001F
:1000E800A1002108EA072200ED01EE01DF307F2898
:1000F800131E8528EF302000A10021082700930552
:10010800D8282000911EB62822008E152400A801A8
:10011800A9012000A30123001D1D95282000A3018B
:10012800A30A9931DC2180312000A1002108A40014
:100138002308013A031DA728A408031DB3289931F1
:10014800BF218031B328F801F80A003023001D18B8
:100158000130F900200024089C31F024803120006F
:100168009112D828911CD728210091100130200025
:10017800A10021082100EB0702302000A10021087E
:1001880022008E06053021006B02031CD428680863
:100198000319D0280000D22822008E142100EB0178
:1001A80020009110D828000020002208FF007E10AF
:1001B80009008031DF28E601E701E801E901EA01E9
:1001C8002100E801E901EA01EB015F308400013018
:1001D80085000E309931CF218031A0308400013064
:1001E80085000F309931CF218031203084000230D2
:1001F80085000C309931CF21803122008731FD27CD
:100208008031ED008731FE278031EE0025308400F3
:100218009A3085002C308600023087000C309931E6
:10022800C9217E1020008E31482E2500E0010030C3
:1002380022006E02143003196D02031828290130B8
:10024800ED070030EE3D2A292000EA011430220093
:100258006D066E04031D080020006A0803190800D3
:1002680020309A31F6228131210091120B30200082
:100278006A02031C9629240021082300A101A10772
:10028800240020082300A001A0072108B0002008AE
:10029800AF00B036AF0C01302F05B100003030058B
:1002A800B2002108B4002008B300B436B30CB43649
:1002B800B30CFF3033052000A500003023003405BF
:1002C8002000A60003302300B50035082000A70051
:1002D8009B31682381312300B600B7013208370605
:1002E800031D782931083606031D94292108B0001A
:1002F8002008AF00B036AF0CB036AF0CFF302F057A
:10030800A00000303005A10020089E312E26813142
:100318002300AF00B0012F08A0003008A1009629E3
:10032800A001A101163020006A02031CF429240050
:1003380025082300A501A507240024082300A401FB
:10034800A4072508B0002408AF00B036AF0C013070
:100358002F05B10000303005B2002508B40024088C
:10036800B300B436B30CB436B30CFF3033052000F9
:10037800A5000030230034052000A6000330230028
:10038800B50035082000A7009B3168238131230080
:10039800B600B70132083706031DD42931083606DE
:1003A800031DF0292508B0002408AF00B036AF0CB3
:1003B800B036AF0CFF302F05A40000303005A50083
:1003C80024089E312E2681312300AF00B0012F086A
:1003D800A4003008A500F429A001A101A401A501E9
:1003E800213020006A02031C542A24002708230015
:1003F800A701A707240026082300A601A6072708A7
:10040800B0002608AF00B036AF0C01302F05B100A0
:1004180000303005B2002708B4002608B300B4360F
:10042800B30CB436B30CFF3033052000A500003000
:10043800230034052000A60003302300B50035084A
:100448002000A7009B31682381312300B600B70143
:1004580032083706031D322A31083606031D4E2A94
:100468002708B0002608AF00B036AF0CB036AF0C86
:10047800FF302F05A60000303005A70026089E3162
:100488002E2681312300AF00B0012F08A6003008C6
:10049800A700542AA001A101A401A501A601A70152
:1004A8002C3020006A02031CB62A240023082300EB
:1004B800A301A307240022082300A201A2072308FE
:1004C800B0002208AF00B036AF0C01302F05B100E4
:1004D80000303005B2002308B4002208B300B43657
:1004E800B30CB436B30CFF3033052000A500003040
:1004F800230034052000A60003302300B50035088A
:100508002000A7009B31682381312300B600B70182
:1005180032083706031D922A31083606031DAE2A13
:100528002308B0002208AF00B036AF0CB036AF0CCD
:10053800FF302F05A20000303005A30022089E31AD
:100548002E2681312300AF00B0012F08A200300809
:10055800A300B62AA001A101A401A501A601A70133
:10056800A201A3012300230822040319D12AF03091
:10057800200621040319062CF0302406250403194B
:10058800062CF030260627040319062CF030220624
:1005980023040319062C0000062C23002708260430
:1005A8000319262BF03020062104031D012BF030FF
:1005B800260627040319012BE0302006210403191D
:1005C800012BE030240625040319012BE030260610
:1005D80027040319012B26089A31CB228131003ACE
:1005E8000319012B23002708A101A1072608A00150
:1005F800A007A401A501A601A701E0302300200659
:100608002104031D062CF03024062504031D062CA6
:10061800113026062704031D142B2200E701062C9F
:100628001430230026062704031D1D2B2200E80191
:10063800062C7130230026062704031D062C2200F1
:10064800E601062C2300250824040319062CF030A3
:1006580020062104031DAB2B123024062504031D9C
:10066800372BAD014C2B593024062504031D3E2B96
:10067800AA014C2B143024062504031D462B220006
:10068800EA014C2B11302300240625040319AC0180
:1006980059302300240625040319572B1230240649
:1006A8002504031DA32BAD08031D062CAA08031D52
:1006B800062CED308C31A92481310038031D6D2BB7
:1006C80000308C31A92481310038031D6D2B2300A3
:1006D800AE012300290803198A2BA8010A30280231
:1006E8000318062CED308C31A92481310038031D04
:1006F800842B04308C31A924813100380319062C4D
:1007080001302300AF002F08A807722BA8010A3078
:1007180028020318062CED308C31A92481310038C9
:10072800031D9D2B00308C31A92481310038031919
:10073800062C01302300AF002F08A8078B2B583058
:1007480024062504031D062C2200E401062CE030B3
:10075800230020062104031D062C1130240625043D
:10076800031DBA2B2200E701E70ACD2B1430230022
:1007780024062504031DC42B2200E801E80ACD2B1A
:100788007130230024062504031DCD2B2200E60129
:10079800E60A2500DC01DC0A2200E708031DDA2B43
:1007A8002300AC08031DDA2B2500DC012500DD0140
:1007B800DD0A2200EA08031DE62BE808031DE62BE4
:1007C8002500DD01220066082300AF00B0012500E6
:1007D8005D085C072300B100B201B20D2F08310794
:1007E800B3003008323DB400033033063404031933
:1007F800062C24089A31B82281312300AF002F0833
:100808002500E00023002108200403195F2D250896
:100818002404031D5F2D27082604031D5F2D2308CC
:100828002204031D5F2D123020062104031D1F2CF6
:10083800AD01AD0A262C593020062104031D262CB3
:10084800AA01AA0A2D08013A031D2E2C22006B08C2
:100858000319372C23002A08013A031D772C22009C
:10086800E908031D772CED308C31A924813100383B
:10087800031D772C2300290803195B2CA8010A30D3
:1008880028020318772CED308C31A92481310038E7
:10089800031D552C05308C31A924813100380319EA
:1008A800742C01302300AF002F08A807432CA8019F
:1008B800622C01302300AF002F08A8070A30280255
:1008C8000318772CED308C31A92481310038031DB1
:1008D8005D2C01308C31A92481310038031D5D2C39
:1008E8002300AE01AE0A1430230020062104031DA4
:1008F800812C2200EA01EA0A5F2D1130230020062C
:100908002104031D8A2CAC01AC0A5F2DEE302006B1
:100918002104031D952C0130AF002F082100E900A8
:100928005F2D5830230020062104031D162D2200B8
:10093800E401E40AE508031D5F2D230029080319D3
:10094800DD2C2E080319C12CA8010A30280203182F
:100958005F2DED308C31A92481310038031DBB2C6B
:1009680001308C31A924813100380319D42C01308D
:100978002300AF002F08A807A92CA8010A302802D5
:1009880003185F2DED308C31A92481310038031D07
:10099800D72C00308C31A92481310038031DD72C85
:1009A8002300A9015F2D01302300AF002F08A807FD
:1009B800C22C2E080319F92CA8010A3028020318A2
:1009C8005F2DED308C31A92481310038031DF32CC3
:1009D80005308C31A9248131003803190C2D0130E0
:1009E8002300AF002F08A807E12CA8010A3028022D
:1009F80003185F2DED308C31A92481310038031D97
:100A0800102D04308C31A92481310038031D102D9C
:100A18002300A901A90A5F2D01302300AF002F0888
:100A2800A807FA2C2E08013A031D372D20089A3101
:100A3800CB2281312300AF002F082500E0002300DE
:100A480029080319512D413025006002031C502D3F
:100A58005B3060020318502D20302300AF002F08B0
:100A68002500E007502D230020089A31A522813166
:100A78002300AF002F082500E000230029080319F0
:100A8800512D613025006002031C502D7B3060021F
:100A98000318502D2030E00223002500E008031D34
:100AA8005F2D230020089A315D2281312300AF0099
:100AB8002F082500E0002500DE01DE0A2200E708F5
:100AC800031D6C2D2300AC08031D6C2D2500DE01D1
:100AD8002500DF01DF0A2200EA08031D782DE80857
:100AE800031D782D2500DF01220066082300AF00D2
:100AF800B00125005F085E072300B100B201B20D06
:100B08002F083107B3003008323DB40003303306F4
:100B18003404031D042E52302000B4008B30B5007D
:100B28009B31FC23813100302000A8000030A70051
:100B38002730A6001030A5008731C8278131220050
:100B4800E308031DD12D00302000E9000030E80043
:100B58000030E7000030E6002300AB012200E3018B
:100B6800E30A7B302000B4008B30B5009B31FC23B6
:100B7800813100302000A8000030A7002730A600EF
:100B88001030A5008731C82781312000AD01AE01A2
:100B98003E309D313A258131FC2D00302000E9009E
:100BA8000030E8002530E7008030E600FB30B40074
:100BB8008930B5009B31FC23813100302000A8002A
:100BC8000030A7002730A6001030A5008731C827BD
:100BD800813120006908D7006808D6006708D50069
:100BE8006608D400D80196319B2681312200E301A2
:100BF8002200EA01E801E7012300AC012200E60136
:100C0800250060080319962F6008013A031D102E6D
:100C18009931C4218131952F2200E308031D412E0B
:100C28002000AD01AE01250060089D313A258131D3
:100C3800250060080D3A031D962F00302000A800FB
:100C48000030A7001330A6008830A5008731C827D8
:100C580081312000AD01AE010A309D313A25813144
:100C680000302000A8000030A7002730A600103070
:100C7800A5008731C8278131952F250060089A3152
:100C88003F228131003A03198F2E00302000A8003E
:100C98000030A7000030A6000A30A5006908AC00A3
:100CA8006808AB006708AA006608A9009031002010
:100CB800813120002808E9002708E8002608E70015
:100CC8002508E60025006008D03E2300AF00FF306D
:100CD80003180030B0002F08B1003008B20000300F
:100CE800B21BFF30B300B40031082000E607230030
:100CF80032082000E73D230033082000E83D2300A8
:100D080034082000E93DAD01AE01250060089D31A1
:100D18003A258131952F250060086F3A0319982EDE
:100D280060084F3A031DA42E2300AB01AB0A200034
:100D3800AD01AE01250060089D313A258131952F1E
:100D480025006008653A0319AD2E6008453A031D71
:100D5800BB2E02302300AF002F08AB002000AD01EE
:100D6800AE01250060089D313A258131952F250077
:100D780060086D3A0319C42E60084D3A031DD22E3F
:100D880003302300AF002F08AB002000AD01AE01F7
:100D9800250060089D313A258131952F250060088E
:100DA800733A0319DB2E6008533A031DE92E043009
:100DB8002300AF002F08AB002000AD01AE012500D5
:100DC80060089D313A258131952F250060080D3A3C
:100DD800031D962F52302000B4008B30B5009B3194
:100DE800FC23813100302000A8000030A700273004
:100DF800A6001030A5008731C827813100302000B7
:100E08006902031D112F00306802031D112F0930DC
:100E18006702031D112F60306602031C7F2F00300C
:100E28006902031D212F01306802031D212FC230E2
:100E38006702031D212F0130660203187F2FA0309F
:100E4800BD000230BE004A30BF008A30C0006908C9
:100E5800C4006808C3006708C2006608C10094316E
:100E68009F248131A0302000B4000230B5009B31AE
:100E7800FC23813123002B080319642F572FEA30F4
:100E88002000B4008A30682FBA302000B4008A30BD
:100E9800682F9F302000B4008B30682F8D302000E1
:100EA800B4008B30682F23002B08013A0319432F15
:100EB800033A0319482F013A03194D2F522F6C2F6B
:100EC80011302000B4008A30B5009B31FC238131F9
:100ED80020006908D7006808D6006708D5006608AA
:100EE800D40023002B08AF002F082000D80096312B
:100EF8009B268131932F6B302000B4008A30B500D7
:100F08009B31FC23813100302000A8000030A7006D
:100F18002730A6001030A5008731C827813122006C
:100F2800E30125002300A001A101A401A501A60158
:100F3800A701A201A3012400A001A101A401A50108
:100F4800A601A701A201A301220064082300AF00A3
:100F58002F082200E50023002D08AF002F082200EB
:100F6800EB0023002A08AF002F082200E900EF3029
:100F78002300AF002F0822008E0521009116203093
:100F88008B31C2232000080000302000AD00003063
:100F9800AC000030AB000030AA002D08803AA90050
:100FA8002808803A2902031DE32F27082C02031D75
:100FB800E32F26082B02031DE32F25082A02031816
:100FC8000800AE0120302E020318F42F0000013073
:100FD8002000A9002908AE0720302E02031CEA2FA2
:100FE8000630AA070030AB3D0030AC3D0030AD3DC7
:060FF800D12F1434003477
:101000000034113400340C340A34063407341434F8
:101010000034123410340E340B34003400340034F5
:1010200000341C34003400341A34003400340034EA
:101030000034003400340034003400340034003410
:101040000034003400340034003400340034003400
:1010500000340034003400340034003400340034F0
:1010600000340034003400340034003400340034E0
:1010700000340034003400340034003400340034D0
:1010800000340034003400340034003400340034C0
:1010900000340034003400340034003400340034B0
:1010A00000340034003400340034003400340034A0
:1010B0000034003400340034003400340034003490
:1010C0000034003400340034003400340034003480
:1010D0000034003400340034003400340034003470
:1010E0000034003400340034003400340034003460
:1010F000133400340034003400340034003400343D
:101100000034003400340F340934603400340034C7
:10111000003400340034003471343134003400348D
:1011200000347A3473346134773432340034003428
:101130006334783464346534343433340034003404
:1011400020347634663474347234353400340034E8
:101150006E346234683467347934363400340034A1
:1011600000346D346A347534373438340034003424
:101170002C346B3469346F343034393400340034F7
:101180002E342F346C343B3470342D34003400341E
:101190000034273400345B343D34003400340034F0
:1011A00000340D345D3400345C34003400340034D9
:1011B0000034003400340034003408340034003487
:1011C00031340034343437340034003400343034B3
:1011D0002E3432343534363438341B340034003451
:1011E0002B3433342D342A34393409347E340034EA
:1011F00000340034003400340034513421340034DD
:10120000003400345A3453344134573440340034B9
:1012100000344334583444344534243423340034C3
:101220000034203456344634543452342534003497
:1012300000344E3442344834473459345E34003438
:10124000003400344D344A34553426342A340034C2
:1012500000343C344B3449344F342934283400347E
:1012600000343E343F344C343A3450345F3400342C
:1012700000340034223400347B342B340034003406
:10128000003400340D347D3400347C3400340034B8
:1012900000340034003400340034003408340034A6
:1012A0000034313400343434373400340034003402
:1012B00030342E3432343534363438341B34003440
:1012C00000342B3433342D342A3439341E34003472
:1012D00000341F340034003400340034003400344F
:1012E0000034003400340034193400340034003445
:1012F00000340034003400341D3400340034003431
:10130000003400340034003400340034003400343D
:10131000003400340034003400340034003400342D
:10132000003400340034003400340034003400341D
:1013300000340034003400340034003400342F34DE
:1013400000340034003400340034003400340034FD
:1013500000340034003400340034003400340D34E0
:1013600000340034003400340034003400340034DD
:1013700000340034003400340034003401340034CC
:101380000334163400340034003415347F3404340C
:10139000003405340234003400340034003418348E
:1013A00000340034173401340034003400340A347B
:1013B0000034003400346434003400340034E83441
:1013C0000334003400341034273400340034A034A3
:1013D000863401340034403442340F3400348034D5
:1013E0009634983400340034E134F5340534003454
:1013F000CA349A343B344B346534793442346F34D4
:101400006134723464342034523465347334653456
:101410007434203474346F342034393436343034F6
:1014200030342034773469347434683420346E3482
:101430006F342034703461347234693474347934E4
:1014400020346234693474340D340A340034543432
:101450006F3420344334683461346E346734653417
:1014600020344234413455344434203468346934AF
:1014700074342034223443344E3454342B344134C5
:101480004C3454342B34443445344C3422340D34ED
:101490000A3400344B346534793442346F34613467
:1014A000723464342034423461347534643420340A
:1014B000773469346C346C342034623465342034CD
:1014C000733465347434203474346F3420342534E8
:1014D0006C34753400344B346534793442346F34B1
:1014E0006134723464342034423461347534643489
:1014F00020344F347534743420346F3466342034DF
:10150000523461346E34673465340D340A34003437
:10151000503453342F34323420344B3465347934DE
:1015200062346F34613472346434203474346F3410
:101530002034523453342D343234333432340D3475
:101540000A3400344B346534793442346F346134B6
:10155000723464342034503472346F3467347234EB
:1015600061346D3420344634613469346C340D3464
:101570000A340034203477346934743468342034C5
:101580004534763465346E342034703461347234CA
:1015900069347434793420346234693474340D34E9
:1015A0000A3400344E346F3420344B34653479348B
:1015B00062346F34613472346434203463346F3491
:1015C0006E346E34653463347434653464340D348D
:1015D0000A34003420347734693474346834203465
:1015E0004F34643464342034703461347234693478
:1015F0007434793420346234693474340D340A34E8
:10160000003449346E3469347434693461346C3470
:1016100069347A346134743469346F346E3420340C
:101620004634613469346C340D340A3400344B343C
:101630006534793442346F34613472346434203424
:101640004234613475346434203469347334203462
:1016500025346C34753400344B3465347934623459
:101660006F34613472346434203443346F346E34F4
:101670006E34653463347434653464340D340A3440
:10168000003456346F346C347434613467346534E8
:10169000203474346F346F34203448346934673400
:1016A000683421340D340A34003456346F346C34C9
:1016B0007434613467346534203474346F346F3477
:1016C00020344C346F34773421340D340A340034F0
:1016D0004634693472346D3477346134723465342D
:1016E0002034563465347234733469346F346E3454
:1016F0003A342034003445346E34743465347234F2
:1017000020344234613475346434203472346134AA
:10171000743465340D340A34003420347734693439
:101720007434683420345334703461346334653431
:1017300020346234693474340D340A340034203473
:10174000773469347434683420344D3461347234FD
:101750006B3420346234693474340D340A34003408
:101760004B346534793462346F34613472346434A8
:101770002034503461347334733421340D340A34DA
:02178000003433
:101784002000A6002608203A031DCF2BDF30A50039
:1017940025082700930592160800EF302000A500C5
:1017A4002508270093051216080020004808D000D9
:1017B4004908D1004A08D2004B08D3000310520D47
:1017C400530DD4005408D500D508031DF22B003066
:1017D400CB000030CA000030C9000030C800080047
:1017E4004C08D0004D08D1004E08D2004F08D30059
:1017F4000310520D530DD4005408DB00DB08031D05
:101804000C2C0030CB000030CA000030C90000307E
:10181400C80008005B087B3ED0005008D507480884
:10182400D0004908D1004A08D2004B08D300183030
:10183400D336D20CD10CD00C890B1A2C5008D400FE
:101844005408DB004C08D0004D08D1004E08D200EB
:101854004F08D3001830D336D20CD10CD00C890BDE
:101864002D2C5008D4005408DB068030D0005008DA
:10187400DB05CA17CE17FF30CC05FF30CD05FF308E
:10188400CE050030CF050030D9000030D80000303C
:10189400D7000030D6000730D0005008DA00481CCA
:1018A4005B2C4C08D6074D08D73D4E08D83D4F0851
:1018B400D93D0130CB36CA0CC90CC80C890B5C2C41
:1018C4000130CC35CD0DCE0DCF0D890B632C0130FD
:1018D400DA02031D512C1130D0005008DA00481CE4
:1018E4007B2C4C08D6074D08D73D4E08D83D4F08F1
:1018F400D93D0130CB36CA0CC90CC80C890B7C2CE1
:101904000130D936D80CD70CD60C890B832C013076
:10191400DA02031D712C5908A8005808A7005708BB
:10192400A6005608A5005508D0005008A9005B0879
:10193400D1005108AA009031302020002808CB00A3
:101944002708CA002608C9002508C8000800200086
:10195400B400B5013408AF00B0012F08A500300869
:10196400A6000330B1003108A7009B3168238C31F5
:101974002000B2003208B300B601B701003099313B
:10198400F8218C3100309A3103228C31DF30200071
:10199400AF002F0822008C0500302000A800003082
:1019A400A7000130A6002C30A5008731C8278C3150
:1019B400EF302000AF002F0822008C0500302000FB
:1019C400A8000030A7000030A6001430A50087311D
:1019D400C8278C3101309931F8218C312000B601AF
:1019E400B70120309A3180228C3100380319102D30
:1019F400000001302000B6070030B73D3A3037020E
:101A0400993003193602031CF32C01309931F82163
:101A14008C3101309A310322013008002000B501D5
:101A24000830350203186C2D341C1B2D22000C16B3
:101A3400212DEF302000AF002F0822008C05031069
:101A44002000B40CB601B70120309A3180228C31C9
:101A5400003A031D432D000001302000B60700307A
:101A6400B73D3A303702993003193602031C262D4C
:101A740001309931F8218C3101309A31032201303F
:101A840008002000B601B70120309A3180228C3141
:101A940000380319632D000001302000B607003020
:101AA400B73D3A303702993003193602031C462DEC
:101AB40001309931F8218C3101309A3103220130FF
:101AC400080001302000AF002F08B50708303502A8
:101AD400031C162D331C712D22000C16772DEF30AC
:101AE4002000AF002F0822008C052000B601B701AA
:101AF40020309A3180228C31003A031D972D00004A
:101B040001302000B6070030B73D3A303702993033
:101B140003193602031C7A2D01309931F8218C31D6
:101B240001309A310322013008002000B601B701C8
:101B340020309A3180228C3100380319B72D0000EF
:101B440001302000B6070030B73D3A3037029930F3
:101B540003193602031C9A2D01309931F8218C3176
:101B640001309A3103220130080001309A310322F6
:101B74008C312000B601B70110309A3180228C31AB
:101B840000380319DB2D000001302000B6070030B7
:101B9400B73D3A303702993003193602031CBE2D83
:101BA40001309931F8218C3101309A31032201300E
:101BB40008002000B601B70120309A3180228C3110
:101BC40000380319FB2D000001302000B607003057
:101BD400B73D3A303702993003193602031CDE2D23
:101BE40001309931F8218C3101309A3103220130CE
:101BF40008002000B601B70110309A3180228C31E0
:101C0400003A031D1B2E000001302000B6070030EF
:101C1400B73D3A303702993003193602031CFE2DC2
:101C240001309931F8218C3101309A31032201308D
:101C340008002000B601B70120309A3180228C318F
:101C4400003A031D3B2E000001302000B60700308F
:101C5400B73D3A303702993003193602031C1E2E61
:101C640001309931F8218C3101309A31032201304D
:101C7400080001309931F8218C3101309A31032266
:101C84008C3120308B31C223003008002100E70161
:101C94009A316E228E319B3115238E3195319325E5
:101CA4008E319A3119228E312100E7010A30670200
:101CB4000318862E22000E1600302000A8000030E3
:101CC400A7002730A6001030A5008731C8278E3121
:101CD400EF302000E500650822008E05003020006A
:101CE400A8000030A7002730A6001030A5008731D7
:101CF400C8278E3101302000E50065082100E70780
:101D04000A306702031C5C2E20309A31F6228E3191
:101D140052302000B4008B30B5009B31FC238E314F
:101D240000302000A8000030A7002730A6001030A3
:101D3400A5008731C8278E3188302000B4008A304E
:101D4400B5009B31FC238E3100302000A800003008
:101D5400A7001330A6008830A5008731C8278E312C
:101D640068302000B4008B30B5009B31FC238E31E9
:101D740034302000B4000230B5009B31FC238E3196
:101D840052302000B4008B30B5009B31FC238E31DF
:101D940000302000A8000030A7001330A6008830CF
:101DA400A5008731C8278E3127302000B4008A303F
:101DB400B5009B31FC238E3100302000A800003098
:101DC400A7002730A6001030A5008731C8278E3120
:101DD4009E3183268E310038031DFE2ED230200022
:101DE400B4008A30B5009B31FC238E319E318326AA
:101DF4008E31003A0319F82E2C302000B4008B30B9
:101E0400B5009B31FC238E319331AC238E310038E5
:101E1400031D1D2F00302000A8000030A70027302C
:101E2400A6001030A5008731C8278E31013020006C
:101E3400B4008B30212FB0302000B4008B30B500BB
:101E44009B31FC238E3190319B208E3120005F0822
:101E54002200E20020005E082200E10020005D086C
:101E64002200E00020005C082200DF00620820005D
:101E7400A800220061082000A700220060082000BA
:101E8400A60022005F082000A5004030AC0094307A
:101E9400AB00CC30AA00CD30A9009F319A278E31F7
:101EA4000318592F55302000B4008B307B2F40305D
:101EB4002000A800AB30A7003330A6003330A500C3
:101EC400220062082000AC00220061082000AB0060
:101ED400220060082000AA0022005F082000A90058
:101EE4009F319A278E3103187F2F41302000B40090
:101EF4008B30B5009B31FC238E3120308B31C223D3
:101F04008E3190319B208E3120005F082200E20048
:101F140020005E082200E10020005D082200E000AD
:101F240020005C082200DF0062082000A8002200D4
:101F340061082000A700220060082000A6002200FB
:101F44005F082000A5004030AC009430AB00CC30DA
:101F5400AA00CD30A9009F319A278E31031CD02FBF
:101F640040302000A800AB30A7003330A600333047
:101F7400A500220062082000AC00220061082000B5
:101F8400AB00220060082000AA0022005F082000A5
:101F9400A9009F319A278E310318E62F01302400BF
:101FA400AA070030AB3D03302B02E93003192A02A3
:101FB400031CE82F02302000E500650822008E068D
:101FC4002400AA01AB01E82F22008E140030240063
:101FD4002902643003192802031CF72FF73020006C
:101FE400E500650822008E05FC2F01302400A807B7
:101FF4000030A93D813119218E31832F003020001A
:10200400B0000030AF000030AE000030AD00251C41
:1020140013282908AD072A08AE3D2B08AF3D2C082C
:10202400B03D0130A935AA0DAB0DAC0D890B1428B8
:102034000130A836A70CA60CA50C890B1B28280870
:10204400270426042504031D09283008A8002F08A6
:10205400A7002E08A6002D08A500080020002908C6
:1020640003193A282808270426042504031D4E28AA
:102074000030A8000030A7000030A6000030A50002
:1020840008000130AB002B08A9070130A836A70CC3
:10209400A60CA50C890B4828FE30280503196628D0
:1020A40043280130AB002B08A9070130A5070030F5
:1020B400A63D0030A73D0030A83D0130A836A70C4E
:1020C400A60CA50C890B6028FF3028050319742879
:1020D40053280130A9020130A535A60DA70DA80D7E
:1020E400890B6E28A71F6B2829188028FF30A505A7
:1020F400FF30A6057F30A705FF30A8050310A90C03
:102104002908AB00AC01AD01AE011830AB35AC0D04
:10211400AD0DAE0D890B88282B08A5042C08A60448
:102124002D08A7042E08A8042A0803190800A817D4
:102134000800FE302000E000600822008E05023016
:102144009C316E249031200030082100A501A507A0
:1021540020002F082100A401A4079931D521903132
:1021640022000E1440302000CB00B630CA00663086
:10217400C9006630C8004430B7007A30B600003079
:10218400B5000030B400210025082000B001B007DC
:10219400210024082000AF01AF079A31DE229031DC
:1021A40020003208BB003108BA003008B9002F08FB
:1021B400B80091310921903120003708CF0036084A
:1021C400CE003508CD003408CC008B31D723200055
:1021D4004B082100A30020004A082100A20020008F
:1021E40049082100A100200048082100A00023087C
:1021F4002000DF00210022082000DE002100210849
:102204002000DD00210020082000DC000800200060
:102214003808BC003908BD003A08BE003B08BF00BE
:1022240003103E0D3F0DC0004008C600C608031D44
:1022340024290030B7000030B6000030B50000306B
:10224400B40008003408BC003508BD003608BE00E0
:102254003708BF0003103E0D3F0DC0004008C70003
:10226400C708031D3E290030B7000030B600003017
:10227400B5000030B400080089304707BC003C08B2
:10228400C6023808BC003908BD003A08BE003B0845
:10229400BF001830BF36BE0CBD0CBC0C890B4C29DA
:1022A4003C08C0004008C7003408BC003508BD0025
:1022B4003608BE003708BF001830BF36BE0CBD0C50
:1022C400BC0C890B5F293C08C0004008C70680305D
:1022D400BC003C08C705BA17FF30B805FF30B90584
:1022E400FF30BA050030BB05B617FF30B405FF3028
:1022F400B505FF30B6050030B7052030BC003C08FA
:10230400C5000130C135C20DC30DC40D890B84292C
:1023140037083B02031D982936083A02031D982901
:1023240035083902031D982934083802031CA329EF
:102334003408B8023508B93B3608BA3B3708BB3B0A
:1023440041140130B835B90DBA0DBB0D890BA42960
:102354000130C502031D83294408A8004308A700CF
:102364004208A6004108A5004608BC003C08A90094
:102374004708BD003D08AA009031302020002808FD
:10238400B7002708B6002608B5002508B4000800E1
:1023940022000E153C008F013D00A20101303C00DB
:1023A4008F009A31312291312000C301C2014317B9
:1023B400C31543163708B80038082100EA00200086
:1023C40036082400AF00200035082400AE002000A9
:1023D40034082400AD00200033082400AC002000A1
:1023E40037080319F729C314FB29FD30B80038084E
:1023F400C305C2153608A8003508A7003408A6008E
:102404003308A5000130AC00E830AB004830AA0026
:102414000030A9009D31DB259131FF3020002507D4
:10242400C400FF30263DC500FF30273DC600FF3005
:10243400283DC700FF30B800FF30B900FF30BA00B4
:10244400FF30BB004408BC004508BD004608BE0080
:102454004708BF000230BF36BE0CBD0CBC0C890B54
:102464002D2A3C08B8073D08B93D3E08BA3D3F084F
:10247400BB3D3B08C7003A08C6003908C500380808
:10248400C4004508C101C1074408C001C0072300B6
:102494001D1220004108A601A6074008A501A507B2
:1024A40043089C312F249131200042089931E521C1
:1024B40091319931EE2191312000B800B901BA016E
:1024C400BB013B08C7003A08C6003908C5003808F4
:1024D400C4009931EE2191312000B800B901BA014C
:1024E400BB013B08C7003A08C6003908C5003808D4
:1024F400C4009931EE2191312000B800B901BA012C
:10250400BB013B08C7003A08C6003908C5003808B3
:10251400C4009931EE2191312000B800B901BA010B
:10252400BB013B08C7003A08C6003908C500380893
:10253400C4009931EE212000B800B901BA01BB01F1
:102544003B08C7003A08C6003908C5003808C4006B
:102554003C008F0114303D00A20012303C00A50065
:102564001530A40001308F00200091120B170800D1
:1025740020302000B30033082100E500E201E60129
:10258400650866020318332B01302000B3003308BA
:102594002100E207620820003202031CEF2A3108FE
:1025A400860002308700403FB300413FB400340846
:1025B4003F39B50035082100E000200031088600CD
:1025C400023087000108B30033082100E100023023
:1025D4002000B3003308B107152B3008A601A60765
:1025E4002F08A501A507210066082000B3003308C1
:1025F400A7009B31CA239231200026082100E40160
:10260400E407200025082100E301E30764083F39BB
:102614002000B30033082100E00063082000B30069
:1026240033082100E100210060082000B3002100EC
:102634006608A03E8600870120003308810021003F
:1026440061082000B30021006608C03E86008701AF
:102654002000330881000130B30033082100E6076D
:10266400C22A20003008A601A6072F08A501A50745
:102674009B319923923100302000A8000030A7003C
:102684000330A600E830A5008731C82792317F3097
:102694002000B30033088B0523001515BF3020003C
:1026A400B300330823009505DF302000B30033085E
:1026B40023009505EF302000B3003308230095056F
:1026C40020003008B4002F08B300B436B30CB4367D
:1026D400B30CB436B30C33087F39230092002000C6
:1026E4002F080739B3000430B335FF3E031D762BA2
:1026F4003335230091002100E601650866020318C2
:10270400A42B6608A03E86008701010823009400DC
:1027140021006608C03E860087010108230093005B
:10272400000000009A310E22923101302000B300E3
:1027340033082300910701302000B300330821003F
:10274400E6077F2BFB302000B300330823009505F8
:102754008B17080020309A31F6229331ED308C31FA
:10276400A9249331003A0319B92B00300800003032
:102774002000A8000030A7000030A6006430A500A7
:102784008731C827933101308C31A9249331003A21
:102794000319CE2B0030080000302000A8000030C0
:1027A400A7001330A6008830A5008731C8279331CD
:1027B400ED308C31A9249331003A0319E32B003016
:1027C400080000302000A8000030A7000030A60058
:1027D4006430A5008731C827933104308C31A92493
:1027E4009331003A0319F82B003008000030200020
:1027F400A8000030A7001330A6008830A500873158
:10280400C8279331ED308C31A9249331003A031950
:102814000D2C0030080000302000A8000030A70074
:102824000330A600E830A5008731C8279331023071
:102834008C31A9249331003A0319222C003008006A
:1028440000302000A8000030A7001330A600883014
:10285400A5008731C8279331ED308C31A9249331F9
:10286400003A0319372C0030080000302000A8007B
:102874000030A7000030A6006430A5008731C827C7
:10288400933100308C31A9249331003A03194C2C34
:1028940000300800F4308C31A9249331003A031934
:1028A400552C00300800F4308C31A9249331003ABF
:1028B40003195E2C00300800F0308C31A9249331C8
:1028C400003A0319672C0030080000302000A800EB
:1028D4000030A7000030A6006430A5008731C82767
:1028E400933102308C31A9249331003A03197C2CA2
:1028F40000300800F3308C31A9249331003A0319D5
:10290400852C0030080000302000A8000030A7000B
:102914000030A6006430A5008731C82793312F30DA
:102924008C31A9249331003A03199A2C0030080001
:1029340020308B31C2230130080041302000C50013
:102944004508D2004008C6003F08C500BF0A031965
:10295400C00A45088400460885000008C7004708E7
:10296400D300D30803198D2D5308253A0319C52C18
:102974003D0886003E088700530881000130BD07EA
:102984000030BE3DA42CCB01CE2C4B16CE2CC03037
:10299400C5004508CB04E52C4008C6003F08C50027
:1029A400BF0A0319C00A45088400460885000008C8
:1029B400D300003A03198D2D6C3A0319C72C193A28
:1029C4000319C92CA42C4B1EF42C52088600870131
:1029D400403FCE00413FCF00423FD000433FD100B3
:1029E4000430022D520886008701403FC500413F54
:1029F400C6004508CE004608CF00D001D101023000
:102A0400C5004508D207D301D30A53080A3A03196B
:102A1400382D5308C500C601C535C60DC535C60DCC
:102A2400D330450784008930463D8500003FC70008
:102A3400013FC800023FC900033FCA004A085102CF
:102A4400031D2E2D49085002031D2E2D48084F0248
:102A5400031D2E2D47084E02031C382D0130C500DE
:102A64004508D30753080A3A031D0B2D5308CC001D
:102A7400CD01CC1BCD03FF30CC07FF30CD3DFF3063
:102A84004D06031D472DFF304C060319A42C0030BE
:102A9400B6000030B5000030B4000A30B3004D0871
:102AA40085004C0884008435850D8435850DD3302C
:102AB40084078930853D003FA500013FA600023F01
:102AC400A700033FA8005108AC005008AB004F0812
:102AD400AA004E08A9009D31DB2594312000280866
:102AE400BA002708B9002608B8002508B7009C31A9
:102AF400AD24943120003308303EC5004508D3008E
:102B04003D0886003E088700530881000130BD0758
:102B14000030BE3D3D2D3D0886003E088700810102
:102B2400080000302100DF000030DE000030DD004E
:102B34000030DC000030E4000030E3000030E2004C
:102B44000030E100E001C0302000B7000030B800E0
:102B5400B9019F313627953120003A082100DF0062
:102B6400200039082100DE00200038082100DD00A3
:102B7400200037082100DC00FF305C05E100FF3055
:102B84005D05E2000F305E05E30000305F05E40000
:102B94005C082000D40021005D082000D50021003D
:102BA4005E082000D60021005F082000D700143002
:102BB400D736D60CD50CD40C890BDA2D54080F3922
:102BC400D80058082100E00000306402031DF42DF1
:102BD40000306302031DF42D09306202031DF42D3D
:102BE40060306102031C062E00306402031D042EB3
:102BF40001306302031D042EC2306202031D042E41
:102C040001306102031C0F2E0030E4000030E300A9
:102C14002530E2008030E100E00164082000B600C5
:102C2400210063082000B500210062082000B400E0
:102C3400210061082000B300210060082000D400B6
:102C44005408B7009131CA21953152302000B400A4
:102C54008B30B5009B31FC23953100302000A80057
:102C64000030A7002730A6001030A5008731C82700
:102C74009531A0302000BD000030BE001730BF00E9
:102C84008B30C000210064082000C40021006308C8
:102C94002000C300210062082000C2002100610856
:102CA4002000C10094319F249531A0302000B4004D
:102CB4000030B5009B31FC239531210060080319D5
:102CC400852E782EEA302000B4008A30892EBA305E
:102CD4002000B4008A30892E9F302000B4008B304D
:102CE400892E8D302000B4008B30892E210060089D
:102CF400013A0319642E033A0319692E013A0319A0
:102D04006E2E732E8D2E11302000B4008A30B50043
:102D14009B31FC23953100302000A8000030A7002F
:102D24002730A6001030A5008731C8278B158B17D4
:102D3400080000302200D5000030D4000030D30059
:102D44000030D2000030D9000030D8000030D70065
:102D54000030D600DE01C0302000B6000030B700DD
:102D64005708BB005608BA005508B9005408B80003
:102D74005808D9005908BC009E31D8269631C03075
:102D84002000B7000030B800B9019F3136279631D2
:102D940020003A082200DD00200039082200DC006F
:102DA400200038082200DB00200037082200DA0067
:102DB400FF305A05D200FF305B05D3000F305C05AD
:102DC400D40000305D05D5005A082000D900220047
:102DD4005B082000DA0022005C082000DB002200EF
:102DE4005D082000DC001430DC36DB0CDA0CD90C76
:102DF400890BF62E59080F39DD00DE01DF01E001F1
:102E040060082200D90020005F082200D8002000BA
:102E14005E082200D70020005D082200D6002000B2
:102E24005708B6005608B5005508B4005408B30056
:102E34005808D9005908B7009131CA219631523047
:102E44002000B4008B30B5009B31FC239631003058
:102E54002000A8000030A7002730A6001030A500ED
:102E64008731C82796312200550820005706031DD4
:102E74004B2F2200540820005606031D4B2F22001E
:102E8400530820005506031D4B2F22005208200032
:102E94005406031D6A2F5808D900DA01DB01DC014E
:102EA4002200590820005C06031D682F22005808E0
:102EB40020005B06031D682F2200570820005A06D5
:102EC400031D682F220056082000590603197D2F80
:102ED400A230B4008A30B5009B31FC239631003017
:102EE4002000A8000030A7002730A6001030A5005D
:102EF4008731C82796312200DE010A305E020318AA
:102F0400AC2F0E1600302000A8000030A700273098
:102F1400A6001030A5008731C8279631EF30200075
:102F2400D900590822008E0500302000A800003086
:102F3400A7002730A6001030A5008731C827963196
:102F440001302000D90059082200DE070A305E0251
:102F5400031C832F20302000BD000130BE00173039
:102F6400BF008B30C0005708C4005608C300550882
:102F7400C2005408C10094319F24963120302000AF
:102F8400B4000130B5009B31FC2396312000580871
:102F94000319ED2FE02FEA30B4008A30F02FBA3055
:102FA4002000B4008A30F02F9F302000B4008B3012
:102FB400F02F8D302000B4008B30F02F2000580803
:102FC400013A0319CD2F033A0319D12F013A0319FA
:102FD400D62FDB2FF42F1130B4008A30B5009B318B
:102FE400FC23963100302000A8000030A7002730D1
:0C2FF400A6001030A5008731C827080097
:10337E0023009E1564309A00080023009E156430C9
:10338E009A000800FE0012001E00FE0BCA2900342F
:10339E00640080010131890BD0290034FE302000F9
:1033AE00A500250821009D05080023009D181D126B
:1033BE001908F0007008F100710808002000A5003F
:1033CE0023009F012000250823009F0008002300F2
:1033DE009D181D1219082000A5002508A600260814
:1033EE0008002000A500A508031D002A21008C124C
:1033FE00080021008C1608002000A500A508031D5A
:10340E000B2A21000C12080021000C160800553062
:10341E0023009600AA30960095149518142A0000E1
:10342E000000080001309931F8219A3101309A31AB
:10343E0003229A3120309A314D22080080342534EF
:10344E0000340034003400348034253431342E34CA
:10345E00323400344F302000A500250823009D058E
:10346E009E12CF302000A5002508210091050800EE
:10347E002000A50030302502031C4B2A3A302502CD
:10348E0003184B2A01300800003008002000A50068
:10349E0027009101920120002508203A031D5A2A87
:1034AE002700921608002700121608002000A5001B
:1034BE008430250203186C2A2508003E84008830CB
:1034CE000318013E85000008080000300800F030A7
:1034DE002100990000301A1801301A050319712ABB
:1034EE0040302000A500250821009A05031D080084
:1034FE00772A2000A5002508203A031D8C2A8C1E51
:10350E008A2A01300800003008000C1E902A013073
:10351E00080000300800F0007008203A031D9E2AB3
:10352E0020008C1E9C2A013008000030080020006C
:10353E000C1EA32A01300800003008002000A50050
:10354E000D30A502713025020318B62A2508843ED7
:10355E00840088300318013E850000080800003002
:10356E0008002000A5001130A5026D3025020318B9
:10357E00C92A2508663E840089300318013E85005D
:10358E0000080800003008002000A5000D30A5023C
:10359E00713025020318DC2A2508F53E8400883098
:1035AE000318013E850000080800003008002000C6
:1035BE002F08A5003008A600A701A8019630B30079
:1035CE003308A900AA019031302020002808B2004B
:1035DE002708B1002608B0002508AF00080020001B
:1035EE00A6002608203A031D082BDF30A50025086B
:1035FE0027009205DF302000A5002508270093053F
:10360E000800EF302000A500250827009205EF30B6
:10361E002000A500250827009305080022008E0132
:10362E008C0121000E118E108E110E120C150E1023
:10363E0022008E143C008F0114303D00A200123087
:10364E003C00A5001530A40001308F0023008C0132
:10365E000C158E0121009513203024008E008C0154
:10366E000800F701F6017108F501F5077008F4017D
:10367E00F407F701083077020318582B741C4B2BF4
:10368E000130F3007308F6070130F536F40C890BA0
:10369E004C2B0130F3007308F70708307702031C38
:1036AE00452B7208033A031D622B7618602B0130EE
:1036BE00080000300800761C662B01300800003030
:1036CE0008002000AC01AB012608AA01AA072508B4
:1036DE00A901A907AC0108302C020318892B291C5B
:1036EE007C2B0130A8002808AB070130AA36A90CA4
:1036FE00890B7D2B0130A8002808AC0708302C025E
:10370E00031C762B2708033A031D932B2B18912BA2
:10371E0001300800003008002B1C972B01300800E8
:10372E00003008007F302000A70027088B05BF302F
:10373E00A70027082300950520002608A8002508C5
:10374E00A700A836A70CA836A70CA836A70C2708E2
:10375E007F3923009200200025080739A700043086
:10376E00A735FF3E031DB72B2735230091001516F5
:10377E0015159A310E22FB302000A70027082300D2
:10378E0095058B170800BF302000A80028082300DD
:10379E00950520002608A9002508A800A936A80C22
:1037AE00A936A80CA936A80C28087F392300920048
:1037BE00200025080739A8000430A835FF3E031D58
:1037CE00E42B283527072300910015141518ED2B2F
:1037DE0000000000230014082000A601A607230005
:1037EE0013082000A501A507080000302000A8003E
:1037FE000030A7001330A6008830A5008731C827F7
:10380E009B31200034088400350885000008003AFA
:10381E0003191E2CAD01AE01340884003508850055
:10382E0000089D313A259B3123009E1C1B2C200045
:10383E003508B7003408B600B40A0319B50A3608BD
:10384E008400370885000008003803190800FC2B97
:10385E002000A70023009E019D012000271C392C6B
:10386E0023001E162000A71C3F2C23001E171D1719
:10387E002000271D442C23009E172000A71D4A2C34
:10388E0023001D164C2C23009D162000271E512CA4
:10389E0023001E152000271F582C9112210091166F
:1038AE005A2C210091122000A71F612C1112210009
:1038BE001116632C210011122000250823009B00F5
:1038CE002000260823009C009E169D17080020004D
:1038DE00B30021009D019E0150302000B10031083F
:1038EE0021009E04220097171714171F7C2C20000E
:1038FE003308B1000130B135FF3E031D822C313546
:10390E00B200320821009D0483302000B10031083E
:10391E0021009E041D14111300302000A800003059
:10392E00A7000030A6000530A5008731C8279C31BE
:10393E0021009D149D18A12C1C082000B001B00779
:10394E0021001B082000AF01AF0708002000360839
:10395E003504340433040319E72CBC01BC0AB61B2E
:10396E00C42C0130B335B40DB50DB60D890BB92C81
:10397E000130BB003B08BC07B62C36083A02031DCB
:10398E00D22C35083902031DD22C34083802031DFF
:10399E00D22C33083702031CDC2C3308B702340850
:1039AE00B83B3508B93B3608BA3B0130B636B50CD4
:1039BE00B40CB30C890BDD2C0130BC02031DC42CDE
:1039CE003A08B6003908B5003808B4003708B30015
:1039DE0008002000A00023001E1F352DF808031933
:1039EE001F2D2C2D20002008FA00FB017A08F00074
:1039FE007B08F10003300C2D20002008FA00FB019B
:103A0E007A08F0007B08F1000230FC007C08F2001E
:103A1E009B3138239C31FD0023001E087D06FE39A4
:103A2E007D06342D23001E14352D23001E10352D3A
:103A3E0021006A08013A0319F92C033A0319032DE0
:103A4E00013A0319192D1C2D352D01307905FA0077
:103A5E0023001E087A06FE397A069E0020002008F2
:103A6E0023009A0008002000B30023001E1F852D9E
:103A7E002000AD0803196C2D792D20003308AF00FE
:103A8E00B0012F08A5003008A6000330572D2000E6
:103A9E003308AF00B0012F08A5003008A600023091
:103AAE00B1003108A7009B3168239D312000B20080
:103ABE0023001E0820003206FE393206832D230015
:103ACE001E14852D23001E10852D21006A08013A33
:103ADE000319442D033A03194E2D013A0319662D8D
:103AEE00692D852D013020002E05AF0023001E0804
:103AFE0020002F06FE392F0623009E0020003308DB
:103B0E0023009A00080000302000B6000030B500F7
:103B1E000030B4000030B3002B08A601A6072A0817
:103B2E00A501A5072C08AE002E08A7009B31CA23BD
:103B3E009D3120002508AF002608B000B101B2016A
:103B4E001030AF35B00DB10DB20D890BA82D320866
:103B5E00B6003108B5003008B4002F08B3002B08AA
:103B6E00A601A6072A08A501A5072C08013EAE004E
:103B7E002E08A7009B31CA2320002508AF00260877
:103B8E00B000B101B2012F08B3043008B4043108FB
:103B9E00B5043208B6043608AD003508AC0034085A
:103BAE00AB003308AA00080000302000B10000303E
:103BBE00B0000030AF000030AE0028082704260405
:103BCE0025040319252EB201B20AA81BFA2D0130C5
:103BDE00A535A60DA70DA80D890BEF2D0130AD0053
:103BEE002D08B207EC2D0130AE35AF0DB00DB10D75
:103BFE00890BFB2D28082C02031D0F2E27082B02E4
:103C0E00031D0F2E26082A02031D0F2E250829023A
:103C1E00031C1A2E2508A9022608AA3B2708AB3B2F
:103C2E002808AC3B2E140130A836A70CA60CA50C08
:103C3E00890B1B2E0130B202031DFA2D3108A8008C
:103C4E003008A7002F08A6002E08A50008002000A7
:103C5E00A800A70128080139A5000630A535FF3EAA
:103C6E00031D352E2535A6002608A707280802397C
:103C7E00A5000430A535FF3E031D412E2535A600B7
:103C8E002608A70728080439A5000230A535FF3EEF
:103C9E00031D4D2E2535A6002608A707280808392E
:103CAE000907A5002508A70728360839A500250805
:103CBE00A7072808A5000330A536890B632E250813
:103CCE000439A6002608A7072808A5000530A53642
:103CDE00890B6E2E25080239A6002608A70728088C
:103CEE00A5000730A536890B792E25080139A600C7
:103CFE002608A7072708080000302000E40000303F
:103D0E00E3000030E2000030E1002100E901EE3076
:103D1E008C31A9249E3120308B31C2239E3100304C
:103D2E002000E4000030E3000030E2000030E1004B
:103D3E00A92E01302000E1070030E23D0030E33DC6
:103D4E000030E43D00306402031DB72E00306302E4
:103D5E00031DB72E1F306202031DB72E40306102C5
:103D6E000318CC2E813119219E3100302000A8007D
:103D7E000030A7000030A6000A30A5008731C82702
:103D8E009E31210069080319A02E20309A31F622A7
:103D9E009E31210069080319D62E0130080000302B
:103DAE00080020003C080739BD00BE01BF01C0015C
:103DBE001430BD35BE0DBF0DC00D890BE02EFF308A
:103DCE003805C100FF303905C2000F303A05C30077
:103DDE0000303B05C4004108BD074208BE3D430804
:103DEE00BF3D4408C03D4008C8003F08C7003E081C
:103DFE00C6003D08C500FF3045052400B2003F3027
:103E0E00200046052400B30020004508BD004608EA
:103E1E00BE004708BF004808C0000E30C036BF0CB9
:103E2E00BE0CBD0C890B152FFF303D052400B000D4
:103E3E003F3020003E052400B10020003708B001BD
:103E4E00B0073608AF01AF073030BD003D08B100F6
:103E5E000230BE003E08B2009231BA2208002000A5
:103E6E003808AB01AB073708AA01AA073908BB000F
:103E7E003B08AC009D318A259F3120002D08C600DD
:103E8E002C08C5002B08C4002A08C300FF304305C8
:103E9E002400B2003F30200044052400B30020006F
:103EAE004308BB004408BC004508BD004608BE00E0
:103EBE000E30BE36BD0CBC0CBB0C890B602FFF3018
:103ECE003B052400B0003F3020003C052400B1002B
:103EDE0032082000BB00240033082000BC00BD01C6
:103EEE00BE01240030082000BF002400310820004D
:103EFE00C000C101C2010C30BF35C00DC10DC20DD5
:103F0E00890B832F3F08BB074008BC3D4108BD3DD0
:103F1E004208BE3D3E08BA003D08B9003C08B80054
:103F2E003B08B70008002000A81FC42F0030AD00CA
:103F3E000030AE000030AF008030B0002509B10077
:103F4E002609B2002709B3002809B400B10A0319E3
:103F5E00B20A0319B30A0319B40A3108AD073208BD
:103F6E00AE3D3308AF3D3408B03D3008A8002F08F1
:103F7E00A7002E08A6002D08A500AC1FED2F0030BF
:103F8E00AD000030AE000030AF008030B000290927
:103F9E00B1002A09B2002B09B3002C09B400B10AF2
:103FAE000319B20A0319B30A0319B40A3108AD078B
:103FBE003208AE3D3308AF3D3408B03D3008AC009A
:103FCE002F08AB002E08AA002D08A9008030A806E5
:103FDE008030AC062C082802031D08002B0827028F
:103FEE00031D08002A082602031D080029082502C1
:023FFE000800B9
:020000040001F9
:04000E0064CFFBFEC2
:00000001FF
