:100000008031D928143400347E14803120007F08D8
:10001000A200A3012700931E7C2822000E162C307C
:100020002000680203187A280B3068020318302871
:1000300001302400B135B20D890B1A2810309931E6
:1000400064218031003A03192A2801302400B107C5
:100050000030B23D2400B501B601B701B8017228E5
:100060001630200068020318482801302400B535F6
:10007000B60D890B37281030993164218031003A50
:100080000319722801302400B5070030B63D7228EC
:100090002130200068020318602801302400B735A1
:1000A000B80D890B4F281030993164218031003A06
:1000B0000319722801302400B7070030B83D7228B8
:1000C00001302400B335B40D890B6228103099310A
:1000D00064218031003A0319722801302400B307EB
:1000E0000030B43D01302000A1002108E8072200C3
:1000F000ED01EE01DF307F28131E8528EF30200050
:10010000A100210827009305D4282000911EB628BD
:1001100022008E152400B901BA012000A30123009A
:100120001D1D95282000A301A30A9831BF2080310E
:100130002000A1002108A4002308013A031DA728DC
:10014000A408031DB3289831A6208031B328F801F4
:10015000F80A003023001D180130F900200024089F
:100160009C311924803120009112D428911CD4286C
:100170002100911001302000A10021082100EA0790
:1001800002302000A100210822008E060530210047
:100190006A02031CD2286808031DD02822008E148E
:1001A0002100EA012000911020002208FF007E10AB
:1001B00009008031DB28E601E701E801E901EA01F5
:1001C0002100E801E901EA01EB015F308400013020
:1001D00085000E30903100208031A0308400013045
:1001E00085000F30903100208031313084000230A2
:1001F00085000C30903100208031220080310220B7
:100200008031ED00803103208031EE009830840091
:100210008C30850020308600023087001130983104
:10022000B0207E1020008E31482E2500E0010030E5
:1002300022006E02143003196D02031824290130C4
:10024000ED070030EE3D26292000E80114302200A1
:100250006D066E04031D08002000680803190800DD
:1002600020309931DD218131210091120B302000A5
:100270006802031C9229240032082300A501A50767
:10028000240031082300A401A4072508B000240895
:10029000AF00B036AF0C01302F05B1000030300593
:1002A000B2002508B4002408B300B436B30CB43649
:1002B000B30CFF3033052000A500003023003405C7
:1002C0002000A60003302300B50035082000A70059
:1002D0009A315C2281312300B600B701320837061B
:1002E000031D742931083606031D90292508B00026
:1002F0002408AF00B036AF0CB036AF0CFF302F057E
:10030000A40000303005A50024089D315525813119
:100310002300AF00B0012F08A4003008A5009229E7
:10032000A401A501163020006802031CF029240056
:1003300036082300A901A907240035082300A801D5
:10034000A8072908B0002808AF00B036AF0C01306C
:100350002F05B10000303005B2002908B40028088C
:10036000B300B436B30CB436B30CFF303305200001
:10037000A5000030230034052000A6000330230030
:10038000B50035082000A7009A315C228131230096
:10039000B600B70132083706031DD02931083606EA
:1003A000031DEC292908B0002808AF00B036AF0CB7
:1003B000B036AF0CFF302F05A80000303005A90083
:1003C00028089D31552581312300AF00B0012F0849
:1003D000A8003008A900F029A401A501A801A901DD
:1003E000213020006802031C502A24003808230012
:1003F000AB01AB07240037082300AA01AA072B088A
:10040000B0002A08AF00B036AF0C01302F05B100A4
:1004100000303005B2002B08B4002A08B300B4360F
:10042000B30CB436B30CFF3033052000A500003008
:10043000230034052000A60003302300B500350852
:100440002000A7009A315C2281312300B600B70159
:1004500032083706031D2E2A31083606031D4A2AA4
:100460002B08B0002A08AF00B036AF0CB036AF0C86
:10047000FF302F05AA0000303005AB002A089D315F
:10048000552581312300AF00B0012F08AA003008A4
:10049000AB00502AA401A501A801A901AA01AB0142
:1004A0002C3020006802031CB22A240034082300E8
:1004B000A701A707240033082300A601A6072708E1
:1004C000B0002608AF00B036AF0C01302F05B100E8
:1004D00000303005B2002708B4002608B300B43657
:1004E000B30CB436B30CFF3033052000A500003048
:1004F000230034052000A60003302300B500350892
:100500002000A7009A315C2281312300B600B70198
:1005100032083706031D8E2A31083606031DAA2A23
:100520002708B0002608AF00B036AF0CB036AF0CCD
:10053000FF302F05A60000303005A70026089D31AA
:10054000552581312300AF00B0012F08A6003008E7
:10055000A700B22AA401A501A801A901AA01AB0123
:10056000A601A7012300270826040319CD2AF0308D
:10057000240625040319062CF03028062904031943
:10058000062CF0302A062B040319062CF030260620
:1005900027040319062C0000062C23002B082A042C
:1005A0000319222BF03024062504031DFD2AF03008
:1005B0002A062B040319FD2AE0302406250403191A
:1005C000FD2AE030280629040319FD2AE0302A0616
:1005D0002B040319FD2A2A0899319D218131003A03
:1005E0000319FD2A23002B08A501A5072A08A40149
:1005F000A407A801A901AA01AB01E0302300240649
:100600002504031D062CF03028062904031D062CA2
:1006100011302A062B04031D102B2200E701062CA3
:10062000143023002A062B04031D192B2200E80195
:10063000062C713023002A062B04031D062C2200F1
:10064000E601062C2300290828040319062CF030A3
:1006500024062504031DAC2B123028062904031D93
:10066000332BAE014C2B593028062904031D3B2B9C
:100670002000E6014C2B1430230028062904031D1A
:10068000442B2200EB014C2B1130230028062904B7
:10069000031D4C2B2200EA015930230028062904AF
:1006A0000319572B123028062904031DA42BAE086A
:1006B000031D062C2000E608031D062CED308C31AE
:1006C000A92481310038031D6E2B00308C31A92400
:1006D00081310038031D6E2B2000EA0123002D0814
:1006E00003198B2BAC010A302C020318062CED30B9
:1006F0008C31A92481310038031D852B04308C31C5
:10070000A924813100380319062C01302300AF00E1
:100710002F08AC07732BAC010A302C020318062CEF
:10072000ED308C31A92481310038031D9E2B00301F
:100730008C31A924813100380319062C01302300A3
:10074000AF002F08AC078C2B583028062904031D56
:10075000062C2200E401062CE030230024062504A8
:10076000031D062C113028062904031DBB2B220073
:10077000E701E70ACE2B1430230028062904031DC5
:10078000C52B2200E801E80ACE2B71302300280691
:100790002904031DCE2B2200E601E60A2500DC0118
:1007A000DC0A2200E708031DDA2BEA08031DDA2B16
:1007B0002500DC012500DD01DD0A2200EB08031D18
:1007C000E62BE808031DE62B2500DD012200660864
:1007D0002300AF00B00125005D085C072300B100D5
:1007E000B201B20D2F083107B3003008323DB4001A
:1007F0000330330634040319062C280899318A2162
:1008000081312300AF002F082500E00023002508D8
:10081000240403196B2D29082804031D6B2D2B08B4
:100820002A04031D6B2D27082604031D6B2D12308F
:1008300024062504031D1F2CAE01AE0A272C5930B7
:1008400024062504031D272C2000E601E60A2300C8
:100850002E08013A031D302C22006C080319392C94
:1008600020006608013A031D792C2200E908031DC7
:10087000792CED308C31A92481310038031D792C7D
:1008800023002D0803195D2CAC010A302C0203183B
:10089000792CED308C31A92481310038031D572C7F
:1008A00005308C31A924813100380319762C0130B0
:1008B0002300AF002F08AC07452CAC01642C01309D
:1008C0002300AF002F08AC070A302C020318792C44
:1008D000ED308C31A92481310038031D5F2C0130AB
:1008E0008C31A92481310038031D5F2C2000EA01DE
:1008F000EA0A1430230024062504031D832C220059
:10090000EB01EB0A6B2D1130230024062504031D97
:100910008D2C2200EA01EA0A6B2DEE30230024061A
:100920002504031D992C0130AF002F082100E90098
:100930006B2D5830230024062504031D202D220092
:10094000E401E40AE508031D6B2D23002D080319BB
:10095000E42C20006A080319C72C2300AC010A30DC
:100960002C0203186B2DED308C31A9248131003815
:10097000031DC12C01308C31A924813100380319A9
:10098000DB2C01302300AF002F08AC07AF2C230075
:10099000AC010A302C0203186B2DED308C31A924E8
:1009A00081310038031DDE2C00308C31A9248131C7
:1009B0000038031DDE2C2300AD016B2D0130230018
:1009C000AF002F08AC07C92C20006A080319022DBC
:1009D0002300AC010A302C0203186B2DED308C3152
:1009E000A92481310038031DFC2C05308C31A92449
:1009F000813100380319162D01302300AF002F0874
:100A0000AC07EA2C2300AC010A302C0203186B2D32
:100A1000ED308C31A92481310038031D1A2D0430AA
:100A20008C31A92481310038031D1A2D2300AD011A
:100A3000AD0A6B2D01302300AF002F08AC07042D49
:100A400020006A08013A031D432D23002408993130
:100A50009D2181312300AF002F082500E0002300F5
:100A60002D0803195D2D413025006002031C5C2D0B
:100A70005B30600203185C2D20302300AF002F088C
:100A80002500E0075C2D230024089931772181316E
:100A90002300AF002F082500E00023002D080319D4
:100AA0005D2D613025006002031C5C2D7B306002EF
:100AB00003185C2D2030E00223002500E008031D10
:100AC0006B2D2300240899312F2181312300AF00A1
:100AD0002F082500E0002500DE01DE0A2200E708DD
:100AE000031D772DEA08031D772D2500DE01250063
:100AF000DF01DF0A2200EB08031D832DE808031D38
:100B0000832D2500DF01220066082300AF00B0011D
:100B100025005F085E072300B100B201B20D2F0867
:100B20003107B3003008323DB400033033063404DB
:100B3000031D152E3D302000B4008C30B5009A31D5
:100B4000F022813100302000A8000030A7002730BB
:100B5000A6001030A5009B31232381312200E30839
:100B6000031DDC2D00302300A3000030A200003064
:100B7000A1000030A0002000E9012200E301E30A07
:100B800066302000B4008C30B5009A31F0228131FB
:100B900000302000A8000030A7002730A600103049
:100BA000A5009B31232381312000AD01AE013E30F1
:100BB0009C31632481310F2E00302300A3000030CC
:100BC000A2002530A1008030A000D6302000B40063
:100BD0008A30B5009A31F022813100302000A8001F
:100BE0000030A7002730A6001030A5009B3123233A
:100BF0008131230023082000D70023002208200091
:100C0000D600230021082000D50023002008200062
:100C1000D400D8019631932681312200E3012200CD
:100C2000EB01E801E701EA01E6012500600803198C
:100C3000C52F6008013A031D212E9831AB20813168
:100C4000C42F2200E308031D522E2000AD01AE0187
:100C5000250060089C3163248131250060080D3A2D
:100C6000031DC52F00302000A8000030A70013305E
:100C7000A6008830A5009B31232381312000AD01DF
:100C8000AE010A309C316324813100302000A8007D
:100C90000030A7002730A6001030A5009B31232389
:100CA0008131C42F25006008993111218131003A2A
:100CB0000319A92E00302000A8000030A700003042
:100CC000A6000A30A500230023082000AC00230062
:100CD00022082000AB00230021082000AA002300E6
:100CE00020082000A9009A312C22813120002808F8
:100CF0002300A300200027082300A20020002608CC
:100D00002300A100200025082300A0002500600882
:100D1000D03E2300AF00FF3003180030B0002F0892
:100D2000B1003008B2000030B21BFF30B300B40095
:100D30003108A0073208A13D3308A23D3408A33D85
:100D40002000AD01AE01250060089C316324813193
:100D5000C42F250060086F3A0319B22E60084F3A7D
:100D6000031DBD2E2000E901E90AAD01AE012500F9
:100D700060089C3163248131C42F25006008653AE6
:100D80000319C62E6008453A031DD42E02302300F5
:100D9000AF002F082000E900AD01AE01250060087A
:100DA0009C3163248131C42F250060086D3A0319FA
:100DB000DD2E60084D3A031DEB2E03302300AF00FB
:100DC0002F082000E900AD01AE01250060089C312C
:100DD00063248131C42F25006008733A0319F42E6F
:100DE0006008533A031D022F04302300AF002F0880
:100DF0002000E900AD01AE01250060089C316324AC
:100E00008131C42F250060080D3A031DC52F3D30E8
:100E10002000B4008C30B5009A31F02281310030CE
:100E20002000A8000030A7002730A6001030A50041
:100E30009B3123238131003023002302031D2A2FFD
:100E400000302202031D2A2F09302102031D2A2F00
:100E500060302002031CAE2F00302302031D3A2F06
:100E600001302202031D3A2FC2302102031D3A2F06
:100E7000013020020318AE2F200069080319712FDA
:100E8000642FA030BD000230BE002A30BF008A307F
:100E9000782FA0302000BD000230BE00FB30BF0024
:100EA0008930782FA0302000BD000230BE00AE3067
:100EB000BF008A30782FA0302000BD000230BE0075
:100EC0008530BF008A30782F20006908013A031965
:100ED000412F033A0319492F013A0319522F5B2F6F
:100EE0008C2FA030BD000230BE005830BF008A30C9
:100EF000C000230023082000C40023002208200093
:100F0000C300230021082000C20023002008200085
:100F1000C10094318F248131A0302000B400023010
:100F2000B5009A31F0228131230023082000D70038
:100F3000230022082000D600230021082000D5002D
:100F4000230020082000D40069082300AF002F08E8
:100F50002000D800963193268131C22F183020000E
:100F6000B4008C30B5009A31F0228131003020007D
:100F7000A8000030A7002730A6001030A5009B3144
:100F8000232381312200E30125002300A401A501D0
:100F9000A801A901AA01AB01A601A7012400B10182
:100FA000B201B501B601B701B801B301B401220025
:100FB00064082300AF002F082200E50023002E085C
:100FC000AF002F082200EC00200066082300AF00CD
:100FD0002F082200E900EF302300AF002F08220085
:100FE0008E052100911620309931B0212000080093
:0E0FF000FE302000A500250821009D05080008
:101000000034113400340C340A34063407341434F8
:101010000034123410340E340B34003400340034F5
:1010200000341C34003400341A34003400340034EA
:101030000034003400340034003400340034003410
:101040000034003400340034003400340034003400
:1010500000340034003400340034003400340034F0
:1010600000340034003400340034003400340034E0
:1010700000340034003400340034003400340034D0
:1010800000340034003400340034003400340034C0
:1010900000340034003400340034003400340034B0
:1010A00000340034003400340034003400340034A0
:1010B0000034003400340034003400340034003490
:1010C0000034003400340034003400340034003480
:1010D0000034003400340034003400340034003470
:1010E0000034003400340034003400340034003460
:1010F000133400340034003400340034003400343D
:101100000034003400340F340934603400340034C7
:10111000003400340034003471343134003400348D
:1011200000347A3473346134773432340034003428
:101130006334783464346534343433340034003404
:1011400020347634663474347234353400340034E8
:101150006E346234683467347934363400340034A1
:1011600000346D346A347534373438340034003424
:101170002C346B3469346F343034393400340034F7
:101180002E342F346C343B3470342D34003400341E
:101190000034273400345B343D34003400340034F0
:1011A00000340D345D3400345C34003400340034D9
:1011B0000034003400340034003408340034003487
:1011C00031340034343437340034003400343034B3
:1011D0002E3432343534363438341B340034003451
:1011E0002B3433342D342A34393409347E340034EA
:1011F00000340034003400340034513421340034DD
:10120000003400345A3453344134573440340034B9
:1012100000344334583444344534243423340034C3
:101220000034203456344634543452342534003497
:1012300000344E3442344834473459345E34003438
:10124000003400344D344A34553426342A340034C2
:1012500000343C344B3449344F342934283400347E
:1012600000343E343F344C343A3450345F3400342C
:1012700000340034223400347B342B340034003406
:10128000003400340D347D3400347C3400340034B8
:1012900000340034003400340034003408340034A6
:1012A0000034313400343434373400340034003402
:1012B00030342E3432343534363438341B34003440
:1012C00000342B3433342D342A3439341E34003472
:1012D00000341F340034003400340034003400344F
:1012E0000034003400340034193400340034003445
:1012F00000340034003400341D3400340034003431
:10130000003400340034003400340034003400343D
:10131000003400340034003400340034003400342D
:10132000003400340034003400340034003400341D
:1013300000340034003400340034003400342F34DE
:1013400000340034003400340034003400340034FD
:1013500000340034003400340034003400340D34E0
:1013600000340034003400340034003400340034DD
:1013700000340034003400340034003401340034CC
:101380000334163400340034003415347F3404340C
:10139000003405340234003400340034003418348E
:1013A00000340034173401340034003400340A347B
:1013B0000034003400346434003400340034E83441
:1013C0000334003400341034273400340034A034A3
:1013D000863401340034403442340F3400348034D5
:1013E0009634983400340034E134F5340534003454
:1013F000CA349A343B344234613475346434203412
:10140000773469346C346C3420346234653420347D
:10141000733465347434203474346F342034253498
:101420006C3475342034773469347434683420343F
:101430004534763465346E3420347034613472341B
:1014400069347434793420346234693474340D343A
:101450000A340034423461347534643420347734CF
:1014600069346C346C342034623465342034733421
:1014700065347434203474346F34203425346C343F
:1014800075342034773469347434683420344F34FC
:1014900064346434203470346134723469347434A4
:1014A000793420346234693474340D340A340034AD
:1014B00042346134753464342034773469346C34A4
:1014C0006C342034623465342034733465347434BD
:1014D000203474346F34203425346C347534203423
:1014E000773469347434683420346E346F34203483
:1014F0007034613472346934743479342034623431
:10150000693474340D340A3400344234613475342F
:1015100064342034773469346C346C34203462346D
:1015200065342034733465347434203474346F3447
:10153000203425346C347534203477346934743471
:101540006834203453347034613463346534203467
:101550006234693474340D340A34003442346134F2
:10156000753464342034773469346C346C3420340A
:101570006234653420347334653474342034743404
:101580006F34203425346C34753420347734693426
:101590007434683420344D34613472346B34203404
:1015A0006234693474340D340A340034523465348E
:1015B000733465347434203474346F3420343934E3
:1015C0003634303430342034773469347434683409
:1015D00020346E346F3420347034613472346934A2
:1015E0007434793420346234693474340D340A34F8
:1015F00000344234613475346434203469347334D3
:10160000203425346C3475342034773469347434A0
:10161000683420344534763465346E342034703484
:101620006134723469347434793420346234693406
:1016300074340D340A34003454346F342034433459
:10164000683461346E346734653420344234413454
:1016500055344434203468346934743420342234AA
:1016600043344E3454342B3441344C3454342B34BE
:10167000443445344C3422340D340A34003442347A
:10168000613475346434203469347334203425343F
:101690006C347534203477346934743468342034CD
:1016A0004F346434643420347034613472346934B7
:1016B0007434793420346234693474340D340A3427
:1016C0000034423461347534643420346934733402
:1016D000203425346C3475342034773469347434D0
:1016E000683420346E346F34203470346134723492
:1016F00069347434793420346234693474340D3488
:101700000A3400344234613475346434203469342A
:101710007334203425346C34753420347734693490
:101720007434683420345334703461346334653431
:1017300020346234693474340D340A340034423451
:10174000613475346434203469347334203425347E
:101750006C3475342034773469347434683420340C
:101760004D34613472346B342034623469347434EF
:101770000D340A340034503453342F34323420348E
:101780004B346534793462346F3461347234643488
:10179000203474346F342034523453342D34323482
:1017A000333432340D340A3400344E346F34203440
:1017B0004B346534793462346F3461347234643458
:1017C000203463346F346E346E346534633474346F
:1017D000653464340D340A34003449346E34693469
:1017E0007434693461346C3469347A3461347434F7
:1017F00069346F346E3420344634613469346C3467
:101800000D340A3400344B346534793462346F3427
:10181000613472346434203443346F346E346E3443
:10182000653463347434653464340D340A340034FC
:10183000423461347534643420344F347534743434
:1018400020346F3466342034523461346E3467345B
:1018500065340D340A34003456346F346C347434C7
:10186000613467346534203474346F346F34203419
:10187000483469346734683421340D340A34003410
:1018800056346F346C3474346134673465342034C6
:1018900074346F346F3420344C346F3477342134E3
:1018A0000D340A3400344634693472346D3477347C
:1018B0006134723465342034563465347234733490
:1018C00069346F346E343A342034003445346E3425
:1018D0007434653472342034423461347534643481
:1018E000203472346134743465340D340A34003475
:1018F0004B346534793462346F3461347234643417
:101900002034503461347334733421340D340A3448
:101910000034503472346F346734723461346D344F
:1019200020344634613469346C340D340A34003464
:10193000803425340034003431342E3431345F3473
:10194000443457343034613400340034003480344B
:1019500025342000B400B5013408AF00B0012F08D1
:10196000A5003008A6000330B1003108A7009A3165
:101970005C228C312000B2003208B300B601B701FE
:1019800000309831CA208C3100309831D5208C310C
:10199000DF302000AF002F0822008C05003020002F
:1019A000A8000030A7000130A6002C30A5009B3114
:1019B00023238C31EF302000AF002F0822008C054C
:1019C00000302000A8000030A7000030A60014302E
:1019D000A5009B3123238C3101309831CA208C31F2
:1019E0002000B601B7012030993152218C310038E6
:1019F0000319102D000001302000B6070030B73D5C
:101A00003A303702993003193602031CF32C0130A7
:101A10009831CA208C3101309831D520013008002E
:101A20002000B5010830350203186C2D341C1B2D25
:101A300022000C16212DEF302000AF002F082200CD
:101A40008C0503102000B40CB601B7012030993189
:101A500052218C31003A031D432D0000013020003B
:101A6000B6070030B73D3A303702993003193602D5
:101A7000031C262D01309831CA208C310130983159
:101A8000D520013008002000B601B701203099317F
:101A900052218C3100380319632D000001302000E1
:101AA000B6070030B73D3A30370299300319360295
:101AB000031C462D01309831CA208C3101309831F9
:101AC000D5200130080001302000AF002F08B507F5
:101AD00008303502031C162D331C712D22000C1604
:101AE000772DEF302000AF002F0822008C0520005A
:101AF000B601B7012030993152218C31003A031DD3
:101B0000972D000001302000B6070030B73D3A3075
:101B10003702993003193602031C7A2D01309831AF
:101B2000CA208C3101309831D520013008002000C6
:101B3000B601B7012030993152218C310038031998
:101B4000B72D000001302000B6070030B73D3A3015
:101B50003702993003193602031C9A2D013098314F
:101B6000CA208C3101309831D52001300800013075
:101B70009831D5208C312000B601B7011030993151
:101B800052218C3100380319DB2D00000130200078
:101B9000B6070030B73D3A303702993003193602A4
:101BA000031CBE2D01309831CA208C310130983190
:101BB000D520013008002000B601B701203099314E
:101BC00052218C3100380319FB2D00000130200018
:101BD000B6070030B73D3A30370299300319360264
:101BE000031CDE2D01309831CA208C310130983130
:101BF000D520013008002000B601B701103099311E
:101C000052218C31003A031D1B2E000001302000B0
:101C1000B6070030B73D3A30370299300319360223
:101C2000031CFE2D01309831CA208C3101309831CF
:101C3000D520013008002000B601B70120309931CD
:101C400052218C31003A031D3B2E00000130200050
:101C5000B6070030B73D3A303702993003193602E3
:101C6000031C1E2E01309831CA208C31013098316E
:101C7000D5200130080001309831CA208C31013064
:101C80009831D5208C3120309931B02100300800B6
:101C90002100E701993140218E31903106208E31AB
:101CA000953183258E319831F7208E312100E7015F
:101CB0000A3067020318862E22000E16003020001C
:101CC000A8000030A7002730A6001030A5009B31E7
:101CD00023238E31EF302000E500650822008E05B9
:101CE00000302000A8000030A7002730A6001030E8
:101CF000A5009B3123238E3101302000E5006508CB
:101D00002100E7070A306702031C5C2E203099315E
:101D1000DD218E313D302000B4008C30B5009A3189
:101D2000F0228E3100302000A8000030A7002730BC
:101D3000A6001030A5009B3123238E31BB3020003C
:101D4000B4008B30B5009A31F0228E310030200083
:101D5000A8000030A7001330A6008830A5009B31F2
:101D600023238E3153302000B4008C30B5009A31DB
:101D7000F0228E3124302000B4000230B5009A31B8
:101D8000F0228E313D302000B4008C30B5009A3105
:101D9000F0228E3100302000A8000030A700133060
:101DA000A6008830A5009B3123238E311C302000F3
:101DB000B4008B30B5009A31F0228E310030200013
:101DC000A8000030A7002730A6001030A5009B31E6
:101DD00023238E319D31AA258E310038031DFE2E1E
:101DE000D5302000B4008B30B5009A31F0228E310E
:101DF0009D31AA258E31003A0319F82E03302000B8
:101E0000B4008C30B5009A31F0228E3193319C238E
:101E10008E310038031D1D2F00302000A800003037
:101E2000A7002730A6001030A5009B3123238E3158
:101E3000ED302000B4008B30212F78302000B4002A
:101E40008C30B5009A31F0228E319F3192278E313D
:101E500020005F082200E20020005E082200E1006E
:101E600020005D082200E00020005C082200DF0066
:101E700062082000A800220061082000A7002200BC
:101E800060082000A60022005F082000A500403066
:101E9000AC009430AB00CC30AA00CD30A9009E310C
:101EA000C1268E310318592F40302000B4008C30E9
:101EB0007B2F40302000A800AB30A7003330A600B5
:101EC0003330A500220062082000AC002200610827
:101ED0002000AB00220060082000AA0022005F085A
:101EE0002000A9009E31C1268E3103187F2F2C308F
:101EF0002000B4008C30B5009A31F0228E312030B1
:101F00009931B0218E319F3192278E3120005F08A8
:101F10002200E20020005E082200E10020005D08AF
:101F20002200E00020005C082200DF0062082000A0
:101F3000A800220061082000A700220060082000FD
:101F4000A60022005F082000A5004030AC009430BD
:101F5000AB00CC30AA00CD30A9009E31C1268E3115
:101F6000031CD02F40302000A800AB30A700333036
:101F7000A6003330A500220062082000AC00220039
:101F800061082000AB00220060082000AA002200A7
:101F90005F082000A9009E31C1268E310318E62F6C
:101FA00001302400BB070030BC3D03303C02E93067
:101FB00003193B02031CE82F02302000E5006508EE
:101FC00022008E062400BB01BC01E82F22008E14E3
:101FD000003024003A02643003193902031CF72F41
:101FE000F7302000E500650822008E05FC2F013047
:101FF0002400B9070030BA3D813115218E31832F7D
:10200000640080010131890B0128003422008E0117
:102010008C0121000E118E108E110E120C150E1057
:1020200022008E143C008F0114303D00A2001230BB
:102030003C00A5001530A40001308F0023008C0166
:102040000C158E0121009513203024008E008C0188
:10205000080020003808BC003908BD003A08BE005E
:102060003B08BF0003103E0D3F0DC0004008C600F6
:10207000C608031D44280030B7000030B600003009
:10208000B5000030B40008003408BC003508BD00BD
:102090003608BE003708BF0003103E0D3F0DC000DC
:1020A0004008C700C708031D5E280030B700003095
:1020B000B6000030B5000030B40008008930470792
:1020C000BC003C08C6023808BC003908BD003A080C
:1020D000BE003B08BF001830BF36BE0CBD0CBC0CA8
:1020E000890B6C283C08C0004008C7003408BC00BD
:1020F0003508BD003608BE003708BF001830BF36AF
:10210000BE0CBD0CBC0C890B7F283C08C0004008ED
:10211000C7068030BC003C08C705BA17FF30B805B9
:10212000FF30B905FF30BA050030BB05B617FF30E8
:10213000B405FF30B505FF30B6050030B7052030D7
:10214000BC003C08C5000130C135C20DC30DC40D33
:10215000890BA42837083B02031DB82836083A0229
:10216000031DB82835083902031DB8283408380281
:10217000031CC3283408B8023508B93B3608BA3BFB
:102180003708BB3B41140130B835B90DBA0DBB0D52
:10219000890BC4280130C502031DA3284408A800E8
:1021A0004308A7004208A6004108A5004608BC0055
:1021B0003C08A9004708BD003D08AA009F31272719
:1021C00020002808B7002708B6002608B500250813
:1021D000B400080020004808D0004908D1004A088F
:1021E000D2004B08D3000310520D530DD4005408F5
:1021F000D500D508031D05290030CB000030CA00EA
:102200000030C9000030C80008004C08D0004D085C
:10221000D1004E08D2004F08D3000310520D530DC9
:10222000D4005408DB00DB08031D1F290030CB005D
:102230000030CA000030C9000030C80008005B0848
:102240007B3ED0005008D5074808D0004908D1008F
:102250004A08D2004B08D3001830D336D20CD10C28
:10226000D00C890B2D295008D4005408DB004C08F1
:10227000D0004D08D1004E08D2004F08D3001830CE
:10228000D336D20CD10CD00C890B40295008D40085
:102290005408DB068030D0005008DB05CA17CE1783
:1022A000FF30CC05FF30CD05FF30CE050030CF0527
:1022B0000030D9000030D8000030D7000030D60000
:1022C0000730D0005008DA00481C6E294C08D607A9
:1022D0004D08D73D4E08D83D4F08D93D0130CB368B
:1022E000CA0CC90CC80C890B6F290130CC35CD0D37
:1022F000CE0DCF0D890B76290130DA02031D64293A
:102300001130D0005008DA00481C8E294C08D6073E
:102310004D08D73D4E08D83D4F08D93D0130CB364A
:10232000CA0CC90CC80C890B8F290130D936D80CBE
:10233000D70CD60C890B96290130DA02031D8429AB
:102340005908A8005808A7005708A6005608A50075
:102350005508D0005008A9005B08D1005108AA0018
:102360009F31272720002808CB002708CA0026080D
:10237000C9002508C800080022000E153C008F0186
:102380003D00A20101303C008F00993103219131C1
:102390002000C301C2014317C31543163708B80014
:1023A0003808E70036082400A30020003508240080
:1023B000A200200034082400A100200033082400DB
:1023C000A000200037080319E729C314EB29FD30CA
:1023D000B8003808C305C2153608A8003508A7009C
:1023E0003408A6003308A5000130AC00E830AB008B
:1023F0004830AA000030A9009D3102259131FF30FC
:1024000020002507C400FF30263DC500FF30273DD2
:10241000C600FF30283DC700FF30B800FF30B900CC
:10242000FF30BA00FF30BB004408BC004508BD00C7
:102430004608BE004708BF000230BF36BE0CBD0CC8
:10244000BC0C890B1D2A3C08B8073D08B93D3E0865
:10245000BA3D3F08BB3D3B08C7003A08C6003908F3
:10246000C5003808C4004508C101C1074408C001BF
:10247000C00723001D1220004108A601A60740083E
:10248000A501A50743089B3158239131200042083C
:102490009831B62091319831EB2091312000B8006D
:1024A000B901BA01BB013B08C7003A08C6003908A8
:1024B000C5003808C4009831EB2091312000B800E5
:1024C000B901BA01BB013B08C7003A08C600390888
:1024D000C5003808C4009831EB2091312000B800C5
:1024E000B901BA01BB013B08C7003A08C600390868
:1024F000C5003808C4009831EB2091312000B800A5
:10250000B901BA01BB013B08C7003A08C600390847
:10251000C5003808C4009831EB202000B800B9018C
:10252000BA01BB013B08C7003A08C6003908C5001C
:102530003808C4003C008F0114303D00A200123066
:102540003C00A5001530A40001308F00200091123E
:102550000B17080020302000B30033082100E500ED
:10256000E201E601650866020318232B0130200012
:10257000B30033082100E207620820003202031C86
:10258000DF2A3108860002308700403FB300413F18
:10259000B40034083F39B50035082100E0002000C0
:1025A00031088600023087000108B300330821009B
:1025B000E10002302000B3003308B107052B3008DA
:1025C000A601A6072F08A501A5072100660820007F
:1025D000B3003308A7009A31BE22923120002608AA
:1025E0002100E401E407200025082100E301E307BE
:1025F00064083F392000B30033082100E00063087D
:102600002000B30033082100E10021006008200011
:10261000B30021006608A03E860087012000330831
:102620008100210061082000B30021006608C03E3F
:10263000860087012000330881000130B300330891
:102640002100E607B22A20003008A601A6072F08BD
:10265000A501A5079A318D22923100302000A800F3
:102660000030A7000330A600E830A5009B312323EB
:1026700092317F302000B30033088B0523001515FD
:10268000BF302000B300330823009505DF30200061
:10269000B300330823009505EF302000B300330862
:1026A0002300950520003008B4002F08B300B4368D
:1026B000B30CB436B30CB436B30C33087F392300F3
:1026C000920020002F080739B3000430B335FF3ED5
:1026D000031D662B3335230091002100E6016508B8
:1026E00066020318942B6608A03E86008701010845
:1026F0002300940021006608C03E8600870101087F
:1027000023009300000000009831E0209231013056
:102710002000B30033082300910701302000B300EC
:1027200033082100E6076F2BFB302000B30033088D
:10273000230095058B17080020309931DD21933156
:10274000ED308C31A9249331003A0319A92B0030C4
:10275000080000302000A8000030A7000030A600CC
:102760006430A5009B312323933101308C31A9249F
:102770009331003A0319BE2B0030080000302000CE
:10278000A8000030A7001330A6008830A5009B31B8
:1027900023239331ED308C31A9249331003A03196E
:1027A000D32B0030080000302000A8000030A70024
:1027B0000030A6006430A5009B3123239331043000
:1027C0008C31A9249331003A0319E82B003008001A
:1027D00000302000A8000030A7001330A600883089
:1027E000A5009B3123239331ED308C31A924933103
:1027F000003A0319FD2B0030080000302000A8002B
:102800000030A7000330A600E830A5009B31232349
:10281000933102308C31A9249331003A0319122CE0
:102820000030080000302000A8000030A70013305E
:10283000A6008830A5009B3123239331ED308C31E5
:10284000A9249331003A0319272C003008000030E6
:102850002000A8000030A7000030A6006430A500CA
:102860009B312323933100308C31A9249331003ADA
:1028700003193C2C00300800F4308C31A92493312A
:10288000003A0319452C00300800F4308C31A9249B
:102890009331003A03194E2C00300800F0308C318F
:1028A000A9249331003A0319572C00300800003056
:1028B0002000A8000030A7000030A6006430A5006A
:1028C0009B312323933102308C31A9249331003A78
:1028D00003196C2C00300800F3308C31A92493319B
:1028E000003A0319752C0030080000302000A800C1
:1028F0000030A7000030A6006430A5009B312323E0
:1029000093312F308C31A9249331003A03198A2C4A
:102910000030080020309931B021013008004130EA
:102920002000C5004508D2004008C6003F08C50089
:10293000BF0A0319C00A450884004608850000083C
:10294000C7004708D300D30803197D2D5308253A43
:102950000319B52C3D0886003E0887005308810006
:102960000130BD070030BE3D942CCB01BE2C4B1670
:10297000BE2CC030C5004508CB04D52C4008C6008D
:102980003F08C500BF0A0319C00A4508840046086D
:1029900085000008D300003A03197D2D6C3A031915
:1029A000B72C193A0319B92C942C4B1EE42C52085D
:1029B00086008701403FCE00413FCF00423FD0001C
:1029C000433FD1000430F22C520886008701403F7B
:1029D000C500413FC6004508CE004608CF00D001E3
:1029E000D1010230C5004508D207D301D30A5308EC
:1029F0000A3A0319282D5308C500C601C535C60D6E
:102A0000C535C60DD330450784008930463D850065
:102A1000003FC700013FC800023FC900033FCA0092
:102A20004A085102031D1E2D49085002031D1E2D88
:102A300048084F02031D1E2D47084E02031C282D77
:102A40000130C5004508D30753080A3A031DFB2C83
:102A50005308CC00CD01CC1BCD03FF30CC07FF3099
:102A6000CD3DFF304D06031D372DFF304C060319B9
:102A7000942C0030B6000030B5000030B4000A30AD
:102A8000B3004D0885004C0884008435850D8435DD
:102A9000850DD33084078930853D003FA500013F77
:102AA000A600023FA700033FA8005108AC00500851
:102AB000AB004F08AA004E08A9009D3102259431B1
:102AC00020002808BA002708B9002608B800250801
:102AD000B7009B31D623943120003308303EC50027
:102AE0004508D3003D0886003E0887005308810052
:102AF0000130BD070030BE3D2D2D3D0886003E084B
:102B000087008101080000302100DF000030DE0076
:102B10000030DD000030DC000030E4000030E30075
:102B20000030E2000030E100E001C0302000B700DA
:102B30000030B800B9019E315D26953120003A0879
:102B40002100DF00200039082100DE0020003808C5
:102B50002100DD00200037082100DC00FF305C058B
:102B6000E100FF305D05E2000F305E05E30000305C
:102B70005F05E4005C082000D40021005D0820000F
:102B8000D50021005E082000D60021005F0820004B
:102B9000D7001430D736D60CD50CD40C890BCA2DDF
:102BA00054080F39D80058082100E00000306402B2
:102BB000031DE42D00306302031DE42D0930620281
:102BC000031DE42D60306102031CF62D0030640209
:102BD000031DF42D01306302031DF42DC230620287
:102BE000031DF42D01306102031CFF2D0030E400B1
:102BF0000030E3002530E2008030E100E0016408AD
:102C00002000B600210063082000B5002100620802
:102C10002000B400210061082000B30021006008FA
:102C20002000D4005408B7009131BC2195313D30CB
:102C30002000B4008C30B5009A31F022953100307C
:102C40002000A8000030A7002730A6001030A50003
:102C50009B3123239531210060080319612E542EE6
:102C6000A0302000BD000030BE003F30BF008B30E0
:102C7000692EA0302000BD000030BE00F930BF003A
:102C80008A30692EA0302000BD000030BE009F3089
:102C9000BF008B30692EA0302000BD000030BE0088
:102CA0008230BF008B30692E21006008013A031981
:102CB000302E033A0319392E013A0319422E4B2EB6
:102CC0007D2EA0302000BD000030BE006130BF006E
:102CD0008B30C000210064082000C400210063087C
:102CE0002000C300210062082000C200210061080A
:102CF0002000C10094318F249531A0302000B40011
:102D00000030B5009A31F022953100302000A80043
:102D10000030A7002730A6001030A5009B312323E8
:102D20008B158B17080000302200D5000030D4002E
:102D30000030D3000030D2000030D9000030D8007D
:102D40000030D7000030D600DE01C0302000B600D1
:102D50000030B7005708BB005608BA005508B90044
:102D60005408B8005808D9005908BC009D31FF2507
:102D70009631C0302000B7000030B800B9019E3154
:102D80005D26963120003A082200DD002000390837
:102D90002200DC00200038082200DB002000370879
:102DA0002200DA00FF305A05D200FF305B05D30065
:102DB0000F305C05D40000305D05D5005A082000B6
:102DC000D90022005B082000DA0022005C08200005
:102DD000DB0022005D082000DC001430DC36DB0C58
:102DE000DA0CD90C890BEE2E59080F39DD00DE0103
:102DF000DF01E00160082200D90020005F08220006
:102E0000D80020005E082200D70020005D082200C4
:102E1000D60020005708B6005608B5005508B40083
:102E20005408B3005808D9005908B7009131BC21A3
:102E300096313D302000B4008C30B5009A31F0223C
:102E4000963100302000A8000030A7002730A600EF
:102E50001030A5009B312323963122005508200015
:102E60005706031D432F2200540820005606031D59
:102E7000432F2200530820005506031D432F220034
:102E8000520820005406031D622F5808D900DA01A9
:102E9000DB01DC012200590820005C06031D602FC5
:102EA0002200580820005B06031D602F22005708EF
:102EB00020005A06031D602F2200560820005906E4
:102EC0000319752F8930B4008C30B5009A31F02287
:102ED000963100302000A8000030A7002730A6005F
:102EE0001030A5009B31232396312200DE010A30E9
:102EF0005E020318A42F0E1600302000A800003038
:102F0000A7002730A6001030A5009B31232396315F
:102F1000EF302000D900590822008E050030200033
:102F2000A8000030A7002730A6001030A5009B3174
:102F30002323963101302000D90059082200DE07F2
:102F40000A305E02031C7B2F200058080319D92F7A
:102F5000CC2F2030BD000130BE003F30BF008B3091
:102F6000E02F20302000BD000130BE00F930BF004E
:102F70008A30E02F20302000BD000130BE009F309D
:102F8000BF008B30E02F20302000BD000130BE009C
:102F90008230BF008B30E02F20005808013A03191F
:102FA000A92F033A0319B12F013A0319BA2FC32FDE
:102FB000EC2F2030BD000130BE006130BF008B30EF
:102FC000C0005708C4005608C3005508C200540882
:102FD000C10094318F24963120302000B40001309C
:102FE000B5009A31F022963100302000A800003060
:102FF000A7002730A6001030A5009B31232308002E
:10314C0023009E1564309A00080023009E156430FD
:10315C009A000800FE0012001E00FE0BB12800347D
:10316C002000A50023009F012000250823009F00BC
:10317C00080023001D199D1CC4281D121908F000FD
:10318C007008F100710808002000A500A508031DB7
:10319C00D22821008C12080021008C160800200077
:1031AC00A500A508031DDD2821000C120800210034
:1031BC000C160800553023009600AA309600951482
:1031CC009518E62800000000080023001D199D1C1E
:1031DC00F0281D1219082000A5002508A6002608B5
:1031EC00080001309831CA20983101309831D5202F
:1031FC009831203099311F2108004F302000A50054
:10320C00250823009D059E12CF302000A50025081F
:10321C002100910508002000A50030302502031C78
:10322C001D293A30250203181D29013008000030F1
:10323C0008002000A500270091019201200025081C
:10324C00203A031D2C29270092160800270012167D
:10325C0008002000A5008430250203183E2925080B
:10326C00003E840088300318013E850000080800E9
:10327C0000300800F0302100990000301A1801309D
:10328C001A050319432940302000A5002508210008
:10329C009A05031D080049292000A5002508203A9D
:1032AC00031D5E298C1E5C290130080000300800CB
:1032BC000C1E62290130080000300800F000700874
:1032CC00203A031D702920008C1E6E290130080045
:1032DC000030080020000C1E752901300800003059
:1032EC0008002000A5000D30A5027130250203183E
:1032FC0088292508843E840088300318013E850007
:10330C0000080800003008002000A5001130A502BC
:10331C006D30250203189B292508663E84008930F0
:10332C000318013E8500000808000030080020004A
:10333C00A5000D30A502713025020318AE29250811
:10334C00F53E840088300318013E85000008080013
:10335C00003008002000A6002608203A031DBD29D5
:10336C00DF30A50025082700930592160800EF30E2
:10337C002000A50025082700930512160800200040
:10338C002F08A5003008A600A701A8019630B300AD
:10339C003308A900AA019F31272720002808B20072
:1033AC002708B1002608B0002508AF00080020004F
:1033BC00A6002608203A031DEF29DF30A5002508BA
:1033CC0027009205DF302000A50025082700930573
:1033DC000800EF302000A500250827009205EF30EB
:1033EC002000A5002508270093050800F701F60129
:1033FC007108F501F5077008F401F407F7010830BE
:10340C00770203181C2A741C0F2A0130F30073086E
:10341C00F6070130F536F40C890B102A0130F30055
:10342C007308F70708307702031C092A7208033A5D
:10343C00031D262A7618242A0130080000300800C3
:10344C00761C2A2A013008000030080000302000C9
:10345C00B0000030AF000030AE000030AD00251CD5
:10346C003F2A2908AD072A08AE3D2B08AF3D2C0892
:10347C00B03D0130A935AA0DAB0DAC0D890B402A1E
:10348C000130A836A70CA60CA50C890B472A2808D6
:10349C00270426042504031D352A3008A8002F080C
:1034AC00A7002E08A6002D08A50008002000AC01DE
:1034BC00AB012608AA01AA072508A901A907AC0196
:1034CC0008302C0203187D2A291C702A0130A80010
:1034DC002808AB070130AA36A90C890B712A0130D8
:1034EC00A8002808AC0708302C02031C6A2A2708FD
:1034FC00033A031D872A2B18852A01300800003057
:10350C0008002B1C8B2A01300800003008007F308B
:10351C002000A70027088B05BF30A7002708230031
:10352C00950520002608A8002508A700A836A70C9A
:10353C00A836A70CA836A70C27087F3923009200C1
:10354C00200025080739A7000430A735FF3E031DCE
:10355C00AB2A273523009100151615159831E0205C
:10356C00FB302000A7002708230095058B170800C7
:10357C00BF302000A800280823009505200026084D
:10358C00A9002508A800A936A80CA936A80CA936AC
:10359C00A80C28087F392300920020002508073941
:1035AC00A8000430A835FF3E031DD82A283527076C
:1035BC002300910015141518E12A000000002300C7
:1035CC0014082000A601A607230013082000A5015B
:1035DC00A507080000302000A8000030A700133019
:1035EC00A6008830A5009B3123239A312000340893
:1035FC008400350885000008003A0319122BAD0130
:10360C00AE01340884003508850000089C31632421
:10361C009A3123009E1C0F2B20003508B70034086C
:10362C00B600B40A0319B50A3608840037088500B9
:10363C000008003803190800F02A00302000AD0003
:10364C000030AC000030AB000030AA002D08803AEE
:10365C00A9002808803A2902031D3E2B27082C02BA
:10366C00031D3E2B26082B02031D3E2B25082A0288
:10367C0003180800AE0120302E0203184F2B000057
:10368C0001302000A9002908AE0720302E02031CAF
:10369C00452B0630AA070030AB3D0030AC3D003066
:1036AC00AD3D2C2B2000A70023009E019D01200086
:1036BC00271C622B23001E162000A71C682B23003E
:1036CC001E171D172000271D6D2B23009E17200091
:1036DC00A71D732B23001D16752B23009D16200090
:1036EC00271E7A2B23001E152000271F812B9112D9
:1036FC0021009116832B210091122000A71F8A2BE9
:10370C001112210011168C2B2100111220002508FA
:10371C0023009B002000260823009C009E169D176A
:10372C0008002000B30021009D019E0150302000B4
:10373C00B100310821009E04220097171714171F9F
:10374C00A52B20003308B1000130B135FF3E031D1D
:10375C00AB2B3135B200320821009D0483302000A0
:10376C00B100310821009E041D14111300302000FB
:10377C00A8000030A7000030A6000530A5009B3142
:10378C0023239B3121009D149D18CA2B1C0820005B
:10379C00B001B00721001B082000AF01AF070800E3
:1037AC00200036083504340433040319102CBC01F2
:1037BC00BC0AB61BED2B0130B335B40DB50DB60DEF
:1037CC00890BE22B0130BB003B08BC07DF2B360812
:1037DC003A02031DFB2B35083902031DFB2B340861
:1037EC003802031DFB2B33083702031C052C33084E
:1037FC00B7023408B83B3508B93B3608BA3B013040
:10380C00B636B50CB40CB30C890B062C0130BC02CB
:10381C00031DED2B3A08B6003908B5003808B40082
:10382C003708B30008002000A00023001E1F5E2CE8
:10383C00F8080319482C552C20002008FA00FB012D
:10384C007A08F0007B08F1000330352C20002008AA
:10385C00FA00FB017A08F0007B08F1000230FC0052
:10386C007C08F2009931FC219C31FD0023001E08DC
:10387C007D06FE397D065D2C23001E145E2C230074
:10388C001E105E2C20006708013A0319222C033A03
:10389C0003192C2C013A0319422C452C5E2C0130B7
:1038AC007905FA0023001E087A06FE397A069E0076
:1038BC002000200823009A0008002000B3002300F9
:1038CC001E1FAC2C2000AD080319942CA12C33081E
:1038DC00AF00B0012F08A5003008A60003307F2CE4
:1038EC0020003308AF00B0012F08A5003008A60057
:1038FC000230B1003108A7009A315C229C312000C3
:10390C00B20023001E0820003206FE393206AA2C13
:10391C0023001E14AC2C23001E10AC2C20006708B6
:10392C00013A03196D2C033A0319762C013A031949
:10393C008E2C912CAC2C01302E05AF0023001E08D0
:10394C0020002F06FE392F0623009E00200033088E
:10395C0023009A00080000302000B6000030B500AB
:10396C000030B4000030B3002B08A601A6072A08CB
:10397C00A501A5072C08AE002E08A7009A31BE227F
:10398C009C3120002508AF002608B000B101B2011F
:10399C001030AF35B00DB10DB20D890BCF2C3208F4
:1039AC00B6003108B5003008B4002F08B3002B085E
:1039BC00A601A6072A08A501A5072C08013EAE0002
:1039CC002E08A7009A31BE2220002508AF00260839
:1039DC00B000B101B2012F08B3043008B4043108AF
:1039EC00B5043208B6043608AD003508AC0034080E
:1039FC00AB003308AA00080000302000B1000030F2
:103A0C00B0000030AF000030AE00280827042604B8
:103A1C00250403194C2DB201B20AA81B212D01302B
:103A2C00A535A60DA70DA80D890B162D0130AD00DF
:103A3C002D08B207132D0130AE35AF0DB00DB10D01
:103A4C00890B222D28082C02031D362D27082B024A
:103A5C00031D362D26082A02031D362D25082902A2
:103A6C00031C412D2508A9022608AA3B2708AB3BBD
:103A7C002808AC3B2E140130A836A70CA60CA50CBC
:103A8C00890B422D0130B202031D212D3108A800F3
:103A9C003008A7002F08A6002E08A500080020005B
:103AAC00A800A70128080139A5000630A535FF3E5E
:103ABC00031D5C2D2535A6002608A707280802390A
:103ACC00A5000430A535FF3E031D682D2535A60045
:103ADC002608A70728080439A5000230A535FF3EA3
:103AEC00031D742D2535A6002608A70728080839BC
:103AFC000907A5002508A70728360839A5002508B9
:103B0C00A7072808A5000330A536890B8A2D2508A0
:103B1C000439A6002608A7072808A5000530A536F5
:103B2C00890B952D25080239A6002608A707280819
:103B3C00A5000730A536890BA02D25080139A60054
:103B4C002608A7072708080000302000E4000030F2
:103B5C00E3000030E2000030E1002100E901EE302A
:103B6C008C31A9249D3120309931B0219D31003008
:103B7C002000E4000030E3000030E2000030E100FF
:103B8C00D02D01302000E1070030E23D0030E33D54
:103B9C000030E43D00306402031DDE2D0030630272
:103BAC00031DDE2D1F306202031DDE2D403061022D
:103BBC000318F32D813115219D3100302000A80010
:103BCC000030A7000030A6000A30A5009B3123234B
:103BDC009D31210069080319C72D20309931DD2151
:103BEC009D31210069080319FD2D013008000030BA
:103BFC00080020003C080739BD00BE01BF01C00110
:103C0C001430BD35BE0DBF0DC00D890B072EFF3016
:103C1C003805C100FF303905C2000F303A05C3002A
:103C2C0000303B05C4004108BD074208BE3D4308B7
:103C3C00BF3D4408C03D4008C8003F08C7003E08CF
:103C4C00C6003D08C500FF3045052400AF003F30DD
:103C5C00200046052400B00020004508BD004608A1
:103C6C00BE004708BF004808C0000E30C036BF0C6D
:103C7C00BE0CBD0C890B3C2EFF303D052400AD0065
:103C8C003F3020003E052400AE0020003708B00174
:103C9C00B0073608AF01AF072D30BD003D08B100AD
:103CAC000230BE003E08B2009231AA220800200069
:103CBC003808AB01AB073708AA01AA073908BB00C3
:103CCC003B08AC009C31B1249E3120002D08C6006D
:103CDC002C08C5002B08C4002A08C300FF3043057C
:103CEC002400AF003F30200044052400B000200029
:103CFC004308BB004408BC004508BD004608BE0094
:103D0C000E30BE36BD0CBC0CBB0C890B872EFF30A5
:103D1C003B052400AD003F3020003C052400AE00E4
:103D2C002F082000BB00240030082000BC00BD017F
:103D3C00BE0124002D082000BF0024002E08200006
:103D4C00C000C101C2010C30BF35C00DC10DC20D88
:103D5C00890BAA2E3F08BB074008BC3D4108BD3D5E
:103D6C004208BE3D3E08BA003D08B9003C08B80008
:103D7C003B08B70008002000A81FEB2E0030AD0058
:103D8C000030AE000030AF008030B0002509B1002B
:103D9C002609B2002709B3002809B400B10A031997
:103DAC00B20A0319B30A0319B40A3108AD07320871
:103DBC00AE3D3308AF3D3408B03D3008A8002F08A5
:103DCC00A7002E08A6002D08A500AC1F142F00304C
:103DDC00AD000030AE000030AF008030B0002909DB
:103DEC00B1002A09B2002B09B3002C09B400B10AA6
:103DFC000319B20A0319B30A0319B40A3108AD073F
:103E0C003208AE3D3308AF3D3408B03D3008AC004D
:103E1C002F08AB002E08AA002D08A9008030A80698
:103E2C008030AC062C082802031D08002B08270242
:103E3C00031D08002A082602031D08002908250274
:103E4C000800200029080319312F2808270426040C
:103E5C002504031D452F0030A8000030A7000030BA
:103E6C00A6000030A50008000130AB002B08A90704
:103E7C000130A836A70CA60CA50C890B3F2FFE30E1
:103E8C00280503195D2F3A2F0130AB002B08A90729
:103E9C000130A5070030A63D0030A73D0030A83DFD
:103EAC000130A836A70CA60CA50C890B572FFF3098
:103EBC00280503196B2F4A2F0130A9020130A535B3
:103ECC00A60DA70DA80D890B652FA71F622F29180A
:103EDC00772FFF30A505FF30A6057F30A705FF30F3
:103EEC00A8050310A90C2908AB00AC01AD01AE016B
:103EFC001830AB35AC0DAD0DAE0D890B7F2F2B08EB
:103F0C00A5042C08A6042D08A7042E08A8042A082A
:103F1C0003190800A8170800FE302000E000600814
:103F2C0022008E0502309B3197239F3120003008F0
:103F3C002100A501A50720002F082100A401A4073A
:103F4C008731F8279F3122000E1440302000CB001F
:103F5C00B630CA006630C9006630C8004430B700BD
:103F6C007A30B6000030B5000030B40021002508CE
:103F7C002000B001B007210024082000AF01AF07DA
:103F8C009931C5219F3120003208BB003108BA009D
:103F9C003008B9002F08B800903129209F3120003B
:103FAC003708CF003608CE003508CD003408CC00D9
:103FBC009031EA2020004B082100A30020004A0881
:103FCC002100A200200049082100A100200048087F
:103FDC002100A00023082000DF002100220820007F
:103FEC00DE00210021082000DD0021002008200037
:043FFC00DC000800DD
:020000040001F9
:04000E0064CFFBFEC2
:00000001FF
