:040000008031D8284B
:100008007E14803120007F08A200A3012700931EE0
:100018007C2822000E162C302000680203187A284B
:100028000B3068020318302801302400A035A10DD8
:10003800890B1A281030993133218031003A03197D
:100048002A2801302400A0070030A13D2400A40183
:10005800A501A601A701722816302000680203181E
:10006800482801302400A435A50D890B3728103005
:10007800993133218031003A031972280130240064
:10008800A4070030A53D722821302000680203181B
:10009800602801302400A635A70D890B4F281030A1
:1000A800993133218031003A031972280130240034
:1000B800A6070030A73D722801302400A235A30D01
:1000C800890B62281030993133218031003A0319A5
:1000D800722801302400A2070030A33D013020001F
:1000E800A1002108E8072200E901EA01DF307F28A2
:1000F800131E8528EF302000A10021082700930552
:10010800D3282000911EB52822008E15E301E401B2
:100118002000A30123001D1D94282000A301A30A89
:1001280098318E2080312000A1002108A4002308E6
:10013800013A031DA628A408031DB2289831692096
:100148008031B228F801F80A003023001D18013068
:10015800F900200024089C310B24803120009112E2
:10016800D328911CD3282100911001302000A10030
:1001780021082100EA0702302000A10021082200FE
:100188008E06053021006A02031CD1286808031D69
:10019800CF2822008E142100EA01200091102000AF
:1001A8002208FF007E1009008031DA28E601E70105
:1001B800E801E901EA012100E801E901EA01EB01AE
:1001C8005F308400013085000A3098317920803111
:1001D800A0308400013085000F30983179208031BB
:1001E80020308400023085000A309831792080312F
:1001F8000030840090308500693086000130870027
:10020800063098317320803186308400983085001C
:100218002A308600023087000830983173207E101B
:1002280020008E31492E2500E001003022006A02AC
:10023800143003196902031826290130E907003030
:10024800EA3D28292000E8011430220069066A04E2
:10025800031D0800200068080319080020309931A0
:10026800AC218131210091120B3020006802031C5F
:100278009429240021082300A501A50724002008AB
:100288002300A401A4072508B0002408AF00B03655
:10029800AF0C01302F05B10000303005B200250841
:1002A800B4002408B300B436B30CB436B30CFF3032
:1002B80033052000A5000030230034052000A600E7
:1002C80003302300B50035082000A7009A314E22DC
:1002D80081312300B600B70132083706031D76299D
:1002E80031083606031D92292508B0002408AF00FE
:1002F800B036AF0CB036AF0CFF302F05A40000307D
:100308003005A50024089D31472581312300AF0021
:10031800B0012F08A4003008A5009429A401A50164
:10032800163020006802031CF22924002508230047
:10033800A901A907240024082300A801A80729085F
:10034800B0002808AF00B036AF0C01302F05B1005F
:1003580000303005B2002908B4002808B300B436CC
:10036800B30CB436B30CFF3033052000A5000030C1
:10037800230034052000A60003302300B50035080B
:100388002000A7009A314E2281312300B600B70120
:1003980032083706031DD22931083606031DEE2917
:1003A8002908B0002808AF00B036AF0CB036AF0C43
:1003B800FF302F05A80000303005A90028089D311E
:1003C800472581312300AF00B0012F08A80030086D
:1003D800A900F229A401A501A801A9012130200042
:1003E8006802031C522A240027082300AB01AB072C
:1003F800240026082300AA01AA072B08B0002A080F
:10040800AF00B036AF0C01302F05B1000030300519
:10041800B2002B08B4002A08B300B436B30CB436C3
:10042800B30CFF3033052000A5000030230034054D
:100438002000A60003302300B50035082000A700DF
:100448009A314E2281312300B600B70132083706AF
:10045800031D302A31083606031D4C2A2B08B0002C
:100468002A08AF00B036AF0CB036AF0CFF302F05FE
:10047800AA0000303005AB002A089D31472581319C
:100488002300AF00B0012F08AA003008AB00522AA1
:10049800A401A501A801A901AA01AB012C302000E3
:1004A8006802031CB42A240023082300A701A70715
:1004B800240022082300A601A6072708B000260862
:1004C800AF00B036AF0C01302F05B1000030300559
:1004D800B2002708B4002608B300B436B30CB4360B
:1004E800B30CFF3033052000A5000030230034058D
:1004F8002000A60003302300B50035082000A7001F
:100508009A314E2281312300B600B70132083706EE
:10051800031D902A31083606031DAC2A2708B000AF
:100528002608AF00B036AF0CB036AF0CFF302F0541
:10053800A60000303005A70026089D3147258131E7
:100548002300AF00B0012F08A6003008A700B42A86
:10055800A401A501A801A901AA01AB01A601A7014F
:100568002300270826040319CF2AF030240625047F
:100578000319622CF030280629040319622CF03084
:100588002A062B040319622CF030260627040319C7
:10059800622C0000622C23002B082A040319242B48
:1005A800F03024062504031DFF2AF0302A062B0408
:1005B8000319FF2AE030240625040319FF2AE03036
:1005C800280629040319FF2AE0302A062B040319F8
:1005D800FF2A2A0899316C218131003A0319FF2A30
:1005E80023002B08A501A5072A08A401A407A80130
:1005F800A901AA01AB01E030230024062504031D4C
:10060800622CF03028062904031D622C11302A06BA
:100618002B04031D122B2000E601622C143023004A
:100628002A062B04031D1B2B2200E701622C7130C4
:1006380023002A062B04031D622C2200E601622CEB
:100648002300290828040319622CF0302406250405
:10065800031D092C1230280629040319382B593098
:1006680028062904031D7E2BED3096316126813141
:100678000038031D482B003096316126813100383F
:10068800031D482B2300AE0123002D080319652BF9
:10069800AC010A302C020318622CED309631612629
:1006A80081310038031D5F2B04309631612681317A
:1006B80000380319622C01302300AF002F08AC0763
:1006C8004D2BAC010A302C020318622CED30963108
:1006D800612681310038031D782B00309631612660
:1006E800813100380319622C01302300AF002F0834
:1006F800AC07662B143028062904031D862B22001C
:10070800E801622C1130230028062904031D8F2BD1
:100718002000EA01622C5830230028062904031D12
:10072800622C2D080319D02B2E080319B42BAC0109
:100738000A302C020318622CED3096316126813183
:100748000038031DAE2B0130963161268131003807
:100758000319C72B01302300AF002F08AC079C2BCF
:10076800AC010A302C020318622CED309631612658
:1007780081310038031DCA2B003096316126813142
:100788000038031DCA2B2300AD01622C0130230061
:10079800AF002F08AC07B52B2E080319EC2BAC01C2
:1007A8000A302C020318622CED3096316126813113
:1007B8000038031DE62B053096316126813100385B
:1007C8000319FF2B01302300AF002F08AC07D42BEF
:1007D800AC010A302C020318622CED3096316126E8
:1007E80081310038031D032C043096316126813194
:1007F8000038031D032C2300AD01AD0A622C013023
:100808002300AF002F08AC07ED2BE03024062504A9
:10081800031D622C113028062904031D172C200003
:10082800E601E60A2A2C1430230028062904031DB1
:10083800212C2200E701E70A2A2C71302300280620
:100848002904031D2A2C2200E601E60A2500DC0102
:10085800DC0A2000E608031D362CEA08031D362CA6
:100868002500DC012500DD01DD0A2200E808031D62
:10087800422CE708031D422C2500DD0122006608F2
:100888002300AF00B00125005D085C072300B1001C
:10089800B201B20D2F083107B3003008323DB40061
:1008A8000330330634040319622C2808993159217E
:1008B80081312300AF002F082500E0002300250820
:1008C80024040319272D29082804031D272D2B0884
:1008D8002A04031D272D27082604031D272D12305F
:1008E8002406250403197D2C593024062504031DEC
:1008F800BE2CED309631612681310038031D272D3D
:1009080023002D080319A12CAC010A302C0203186E
:10091800272DED309631612681310038031D9B2C3F
:10092800053096316126813100380319B42C013025
:100938002300AF002F08AC07892CAC010A302C0229
:100948000318272DED309631612681310038031DBB
:10095800B82C01309631612681310038031DB82C3E
:100968002300AE01AE0A272D01302300AF002F0867
:10097800AC07A22C143024062504031DC72C220022
:10098800E801E80A272D1130230024062504031D59
:10099800D12C2000EA01EA0A272DEE302300240694
:1009A8002504031DDD2C0130AF002F082100E900CC
:1009B800272D23002E08013A031DFF2C2408993106
:1009C8006C2181312300AF002F082500E0002300AF
:1009D8002D080319192D413025006002031C182D1C
:1009E8005B3060020318182D20302300AF002F0859
:1009F8002500E007182D230024089931462181316C
:100A08002300AF002F082500E00023002D0803195C
:100A1800192D613025006002031C182D7B306002FF
:100A28000318182D2030E00223002500E008031DDC
:100A3800272D230024089831FE2081312300AF00A0
:100A48002F082500E0002500DE01DE0A2000E60868
:100A5800031D332DEA08031D332D2500DE01250073
:100A6800DF01DF0A2200E808031D3F2DE708031D08
:100A78003F2D2500DF01220066082300AF00B001EA
:100A880025005F085E072300B100B201B20D2F08F0
:100A98003107B3003008323DB40003303306340464
:100AA800031DD32DF0302000B4008C30B5009A31EE
:100AB800E222813100302000A8000030A700273052
:100AC800A6001030A5009B31152381312200E508CE
:100AD800031D982D00302300A3000030A200003031
:100AE800A1000030A0002000E9012200E501E50A8C
:100AF80019302000B4008D30B5009A31E2228131DE
:100B080000302000A8000030A7002730A6001030D1
:100B1800A5009B31152381312000AD01AE013E3087
:100B28009C3155248131CB2D00302300A3000030A7
:100B3800A2002530A1008030A00048302000B40079
:100B48008B30B5009A31E222813100302000A800B4
:100B58000030A7002730A6001030A5009B311523D0
:100B68008131230023082000D70023002208200019
:100B7800D600230021082000D500230020082000EB
:100B8800D400D8019431F42481312200E5012200F7
:100B9800E801E7012000E601EA012200E60125005C
:100BA80060080319832F6008013A031DDF2D98316F
:100BB8006E208131822F2200E508031D102E2000AF
:100BC800AD01AE01250060089C3155248131250016
:100BD80060080D3A031D832F00302000A800003064
:100BE800A7001330A6008830A5009B31152381315A
:100BF8002000AD01AE010A309C315524813100300E
:100C08002000A8000030A7002730A6001030A5005B
:100C18009B3115238131822F250060089831E0200F
:100C28008131003A0319672E00302000A8000030F7
:100C3800A7000030A6000A30A500230023082000E2
:100C4800AC00230022082000AB002300210820006C
:100C5800AA00230020082000A9009A311E22813111
:100C6800200028082300A300200027082300A20052
:100C7800200026082300A100200025082300A0004A
:100C880025006008D03E2300AF00FF300318003075
:100C9800B0002F08B1003008B2000030B21BFF309E
:100CA800B300B4003108A0073208A13D3308A23DC3
:100CB8003408A33D2000AD01AE01250060089C3139
:100CC80055248131822F250060086F3A0319702E50
:100CD80060084F3A031D7B2E2000E901E90AAD01A7
:100CE800AE01250060089C3155248131822F2500F2
:100CF8006008653A0319842E6008453A031D922E50
:100D080002302300AF002F082000E900AD01AE013A
:100D1800250060089C3155248131822F2500600808
:100D28006D3A03199B2E60084D3A031DA92E033016
:100D38002300AF002F082000E900AD01AE01250017
:100D480060089C3155248131822F25006008733A50
:100D58000319B22E6008533A031DC02E0430230035
:100D6800AF002F082000E900AD01AE0125006008A2
:100D78009C3155248131822F250060080D3A031DCE
:100D8800832FF0302000B4008C30B5009A31E22275
:100D9800813100302000A8000030A7002730A600CD
:100DA8001030A5009B311523813100302300230228
:100DB800031DE82E00302202031DE82E093021020F
:100DC800031DE82E60302002031C6C2F0030230224
:100DD800031DF82E01302202031DF82EC230210215
:100DE800031DF82E0130200203186C2F200069081B
:100DF80003192F2F222FA030BD000230BE002A3049
:100E0800BF008A30362FA0302000BD000230BE005F
:100E1800FB30BF008930362FA0302000BD000230E3
:100E2800BE00AE30BF008A30362FA0302000BD0093
:100E38000230BE008530BF008A30362F2000690896
:100E4800013A0319FF2E033A0319072F013A031930
:100E5800102F192F4A2FA030BD000230BE00583085
:100E6800BF008A30C000230023082000C4002300EC
:100E780022082000C300230021082000C20023000C
:100E880020082000C100943100248131A0302000C6
:100E9800B4000230B5009A31E222813123002308E0
:100EA8002000D700230022082000D60023002108B4
:100EB8002000D500230020082000D4006908230062
:100EC800AF002F082000D8009431F4248131802FFE
:100ED800CB302000B4008C30B5009A31E222813149
:100EE80000302000A8000030A7002730A6001030EE
:100EF800A5009B31152381312200E501250023003F
:100F0800A401A501A801A901AA01AB01A601A70195
:100F18002400A001A101A401A501A601A701A20125
:100F2800A301EF302300AF002F0822008E05210017
:100F38009116203099317F212000080020003C08BC
:100F48000739BD00BE01BF01C0011430BD35BE0D5B
:100F5800BF0DC00D890BAA2FFF303805C100FF3027
:100F68003905C2000F303A05C30000303B05C40004
:100F78004108BD074208BE3D4308BF3D4408C03D87
:100F88004008C8003F08C7003E08C6003D08C50025
:100F9800FF3045052200ED003F30200046052200C5
:100FA800EE0020004508BD004608BE004708BF0007
:100FB8004808C0000E30C036BF0CBE0CBD0C890BF3
:100FC800DF2FFF303D052200EB003F3020003E05BB
:100FD8002200EC0020003708B001B0073608AF0146
:100FE800AF076B30BD003D08B1000230BE003E08BF
:100FF800B20092311B2208000034113400340C3442
:101008000A340634073414340034123410340E34DD
:101018000B3400340034003400341C340034003401
:101028001A340034003400340034003400340034FE
:101038000034003400340034003400340034003408
:1010480000340034003400340034003400340034F8
:1010580000340034003400340034003400340034E8
:1010680000340034003400340034003400340034D8
:1010780000340034003400340034003400340034C8
:1010880000340034003400340034003400340034B8
:1010980000340034003400340034003400340034A8
:1010A8000034003400340034003400340034003498
:1010B8000034003400340034003400340034003488
:1010C8000034003400340034003400340034003478
:1010D8000034003400340034003400340034003468
:1010E8000034003400340034133400340034003445
:1010F80000340034003400340034003400340F3439
:1011080009346034003400340034003400340034CE
:10111800713431340034003400347A347334613437
:1011280077343234003400346334783464346534CA
:101138003434333400340034203476346634743430
:1011480072343534003400346E34623468346734B1
:10115800793436340034003400346D346A347534EC
:1011680037343834003400342C346B3469346F34F9
:1011780030343934003400342E342F346C343B345A
:1011880070342D34003400340034273400345B3498
:101198003D3400340034003400340D345D34003400
:1011A8005C3400340034003400340034003400343B
:1011B80000340834003400343134003434343734E3
:1011C80000340034003430342E343234353436347C
:1011D80038341B34003400342B3433342D342A345F
:1011E800393409347E340034003400340034003497
:1011F8000034513421340034003400345A34533428
:10120800413457344034003400344334583444347F
:1012180045342434233400340034203456344634DE
:10122800543452342534003400344E344234483473
:10123800473459345E340034003400344D344A3471
:10124800553426342A34003400343C344B34493481
:101258004F3429342834003400343E343F344C347D
:101268003A3450345F3400340034003422340034CB
:101278007B342B3400340034003400340D347D3496
:1012880000347C340034003400340034003400343A
:101298000034003408340034003431340034343439
:1012A800373400340034003430342E34323435349A
:1012B800363438341B34003400342B3433342D3472
:1012C8002A3439341E34003400341F3400340034D6
:1012D8000034003400340034003400340034003466
:1012E800193400340034003400340034003400343D
:1012F8001D34003400340034003400340034003429
:101308000034003400340034003400340034003435
:101318000034003400340034003400340034003425
:101328000034003400340034003400340034003415
:101338000034003400342F340034003400340034D6
:1013480000340034003400340034003400340034F5
:101358000034003400340D340034003400340034D8
:1013680000340034003400340034003400340034D5
:1013780000340034013400340334163400340034AB
:10138800003415347F340434003405340234003416
:101398000034003400341834003400341734013475
:1013A8000034003400340A34003400340034643427
:1013B800003400340034E83403340034003410348A
:1013C800273400340034A0348634013400344034E7
:1013D80042340F3400348034963498340034003466
:1013E800E134F53405340034CA349A343B34423499
:1013F8006134753464342034773469346C346C3433
:1014080020346234653420347334653474342034C1
:1014180074346F34203425346C3475342034773484
:1014280069347434683420344534763465346E3421
:10143800203470346134723469347434793420342B
:101448006234693474340D340A34003442346134FB
:10145800753464342034773469346C346C34203413
:10146800623465342034733465347434203474340D
:101478006F34203425346C3475342034773469342F
:101488007434683420344F34643464342034703411
:101498006134723469347434793420346234693490
:1014A80074340D340A34003442346134753464348D
:1014B8002034773469346C346C34203462346534C5
:1014C8002034733465347434203474346F342034E5
:1014D80025346C3475342034773469347434683482
:1014E80020346E346F34203470346134723469348B
:1014F8007434793420346234693474340D340A34E1
:1015080000344234613475346434203477346934B7
:101518006C346C342034623465342034733465346C
:101528007434203474346F34203425346C34753476
:101538002034773469347434683420345334703444
:1015480061346334653420346234693474340D345E
:101558000A340034423461347534643420347734C6
:1015680069346C346C342034623465342034733418
:1015780065347434203474346F34203425346C3436
:1015880075342034773469347434683420344D34F5
:10159800613472346B3420346234693474340D34F9
:1015A8000A3400344234613475346434203473347A
:1015B80065347434203474346F34203425346C34F6
:1015C80075342034773469347434683420344534BD
:1015D800763465346E34203470346134723469344E
:1015E8007434793420346234693474340D340A34F0
:1015F80000344234613475346434203473346534CF
:101608007434203474346F34203425346C34753495
:101618002034773469347434683420344F34643473
:1016280064342034703461347234693474347934F5
:1016380020346234693474340D340A34003442344A
:10164800613475346434203473346534743420342C
:1016580074346F34203425346C3475342034773442
:1016680069347434683420346E346F342034703400
:1016780061347234693474347934203462346934AE
:1016880074340D340A340034523465347334653498
:101698007434203474346F3420343934363430346C
:1016A80030342034773469347434683420346E34F8
:1016B8006F3420347034613472346934743479345A
:1016C80020346234693474340D340A3400344234BA
:1016D80061347534643420346934733420342534E7
:1016E8006C34753420347734693474346834203475
:1016F8004534763465346E34203470346134723451
:1017080069347434793420346234693474340D346F
:101718000A34003454346F34203443346834613428
:101728006E3467346534203442344134553444349B
:1017380020346834693474342034223443344E34C9
:1017480054342B3441344C3454342B3444344534DD
:101758004C3422340D340A34003442346134753444
:101768006434203469347334203425346C3475344B
:101778002034773469347434683420344F34643412
:101788006434203470346134723469347434793494
:1017980020346234693474340D340A3400344234E9
:1017A80061347534643420347334653474342034CB
:1017B80074346F34203425346C34753420347734E1
:1017C8006934743468342034533470346134633485
:1017D800653420346234693474340D340A34003486
:1017E80042346134753464342034693473342034B9
:1017F80025346C347534203477346934743468345F
:1018080020346E346F342034703461347234693467
:101818007434793420346234693474340D340A34BD
:10182800003442346134753464342034733465349C
:101838007434203474346F34203425346C34753463
:101848002034773469347434683420344D34613446
:1018580072346B3420346234693474340D340A348D
:101868000034423461347534643420346934733458
:10187800203425346C347534203477346934743426
:10188800683420345334703461346334653420341C
:101898006234693474340D340A34003442346134A7
:1018A80075346434203469347334203425346C340A
:1018B80075342034773469347434683420344D34C2
:1018C800613472346B3420346234693474340D34C6
:1018D8000A340034503453342F34323420344B34E7
:1018E8006534793462346F3461347234643420344A
:1018F80074346F342034523453342D343234333406
:1019080032340D340A3400344E346F3420344B34BE
:101918006534793462346F34613472346434203419
:1019280063346F346E346E346534633474346534C0
:1019380064340D340A34003449346E3469347434F0
:10194800693461346C3469347A3461347434693498
:101958006F346E3420344634613469346C340D3459
:101968000A3400344B346534793462346F3461346A
:1019780072346434203443346F346E346E346534D6
:1019880063347434653464340D340A3400344234B6
:1019980061347534643420344F34753474342034ED
:1019A8006F3466342034523461346E3467346534AD
:1019B8000D340A34003456346F346C347434613462
:1019C80067346534203474346F346F3420344834C9
:1019D80069346734683421340D340A340034563499
:1019E8006F346C347434613467346534203474343F
:1019F8006F346F3420344C346F34773421340D34E1
:101A08000A3400344634693472346D3477346134BE
:101A1800723465342034563465347234733469341E
:101A28006F346E343A342034003445346E347434B0
:101A3800653472342034423461347534643420346B
:101A480072346134743465340D340A3400344B34E0
:101A58006534793462346F346134723464342034D8
:101A6800503461347334733421340D340A340034FF
:101A7800503472346F346734723461346D342034C6
:101A88004634613469346C340D340A34003420002F
:101A9800A50023009F012000250823009F000800BF
:101AA80000302100DF000030DE000030DD000030B3
:101AB800DC000030E4000030E3000030E2000030D9
:101AC800E100E001C0302000B7000030B800B901E3
:101AD8009D319C258D3120003A082100DF0020002F
:101AE80039082100DE00200038082100DD00200030
:101AF80037082100DC00FF305C05E100FF305D05A0
:101B0800E2000F305E05E30000305F05E400E0010D
:101B180000306402031D9A2D00306302031D9A2DC4
:101B280009306202031D9A2D60306102031CAC2D3E
:101B380000306402031DAA2D01306302031DAA2D83
:101B4800C2306202031DAA2D01306102031CB52DAB
:101B58000030E4000030E3002530E2008030E1008E
:101B6800E00164082000B600210063082000B500E9
:101B7800210062082000B400210061082000B300A1
:101B8800210060082000D4005408B70091312D21AD
:101B98008D31F0302000B4008C30B5009A31E2224B
:101BA8008D3100302000A8000030A7002730A600A3
:101BB8001030A5009B3115238D31210060080319D1
:101BC800172E0A2EA0302000BD000030BE00B13014
:101BD800BF008B301F2EA0302000BD000030BE009B
:101BE8006B30BF008B301F2EA0302000BD000030AE
:101BF800BE005230BF008C301F2EA0302000BD0028
:101C08000030BE003530BF008C301F2E2100600828
:101C1800013A0319E62D033A0319EF2D013A031986
:101C2800F82D012E332EA0302000BD000030BE005C
:101C3800F430BF008B30C000210064082000C400CD
:101C4800210063082000C300210062082000C200B0
:101C5800210061082000C100943100248D31A0309A
:101C68002000B4000030B5009A31E2228D310030F6
:101C78002000A8000030A7002730A6001030A500DB
:101C88009B3115238B158B1708002100E70199312B
:101C98000F218E319931CB218E318D3154258E31E2
:101CA8009831C6208E312100E7010A3067020318F7
:101CB800872E22000E1600302000A8000030A70052
:101CC8002730A6001030A5009B3115238E31EF3048
:101CD8002000E500650822008E0500302000A800DD
:101CE8000030A7002730A6001030A5009B3115232F
:101CF8008E3101302000E50065082100E7070A3031
:101D08006702031C5D2E20309931AC218E31F030F2
:101D18002000B4008C30B5009A31E2228E310030B8
:101D28002000A8000030A7002730A6001030A5002A
:101D38009B3115238E316E302000B4008C30B500F5
:101D48009A31E2228E3100302000A8000030A7002E
:101D58001330A6008830A5009B3115238E3106303C
:101D68002000B4008D30B5009A31E2228E312E3039
:101D78002000B4000230B5009A31E2228E31F030F2
:101D88002000B4008C30B5009A31E2228E31003048
:101D98002000A8000030A7001330A6008830A50056
:101DA8009B3115238E318E302000B4008B30B50066
:101DB8009A31E2228E3100302000A8000030A700BE
:101DC8002730A6001030A5009B3115238E319031A5
:101DD80006208E310038031DFF2E88302000B40005
:101DE8008C30B5009A31E2228E31903106208E3146
:101DF800003A0319F92EB6302000B4008C30B50033
:101E08009A31E2228E3193310D238E310038031D31
:101E18001E2F00302000A8000030A7002730A600A1
:101E28001030A5009B3115238E31A0302000B4005E
:101E38008C30222F2B302000B4008D30B5009A3121
:101E4800E2228E319E31D1268E3120005F08220099
:101E5800E20020005E082200E10020005D08220068
:101E6800E00020005C082200DF0062082000A800D3
:101E7800220061082000A700220060082000A600B8
:101E880022005F082000A5004030AC009430AB0071
:101E9800CC30AA00CD30A9009E3100268E3103181F
:101EA8005A2FF3302000B4008C307C2F40302000B3
:101EB800A800AB30A7003330A6003330A5002200BD
:101EC80062082000AC00220061082000AB0022005C
:101ED80060082000AA0022005F082000A9009E31A7
:101EE80000268E310318802FDF302000B4008C309C
:101EF800B5009A31E2228E31203099317F218E311E
:101F08009E31D1268E3120005F082200E200200099
:101F18005E082200E10020005D082200E0002000A9
:101F28005C082200DF0062082000A8002200610887
:101F38002000A700220060082000A60022005F08F9
:101F48002000A5004030AC009430AB00CC30AA0093
:101F5800CD30A9009E3100268E31031CD12F403090
:101F68002000A800AB30A7003330A6003330A5000E
:101F7800220062082000AC00220061082000AB00AB
:101F8800220060082000AA0022005F082000A900A3
:101F98009E3100268E310318E72F01302400A80750
:101FA8000030A93D03302902E93003192802031C37
:101FB800E92F02302000E500650822008E06240083
:101FC800A801A901E92F22008E1400302200640222
:101FD800643003196302031CF82FF7302000E50072
:101FE800650822008E05FC2F0130E3070030E43D30
:101FF800813117218E31842F143400340034003499
:102008008034253400302000E4000030E300003044
:10201800E2000030E1002100E901EE30963161264E
:102028009031203099317F21903100302000E40038
:102038000030E3000030E2000030E1002C280130DD
:102048002000E1070030E23D0030E33D0030E43D90
:1020580000306402031D3A2800306302031D3A2849
:102068001F306202031D3A284030610203184F28CE
:1020780081311721903100302000A8000030A700DE
:102088000030A6000A30A5009B31152390312100AD
:1020980069080319232820309931AC219031210097
:1020A8006908031959280130080000300800200089
:1020B8004808D0004908D1004A08D2004B08D3008C
:1020C8000310520D530DD4005408D500D508031D34
:1020D80076280030CB000030CA000030C90000303C
:1020E800C80008004C08D0004D08D1004E08D200A6
:1020F8004F08D3000310520D530DD4005408DB00D1
:10210800DB08031D90280030CB000030CA000030E7
:10211800C9000030C80008005B087B3ED0005008AA
:10212800D5074808D0004908D1004A08D2004B0812
:10213800D3001830D336D20CD10CD00C890B9E2882
:102148005008D4005408DB004C08D0004D08D100DA
:102158004E08D2004F08D3001830D336D20CD10C19
:10216800D00C890BB1285008D4005408DB06803005
:10217800D0005008DB05CA17CE17FF30CC05FF305A
:10218800CD05FF30CE050030CF050030D900003036
:10219800D8000030D7000030D6000730D0005008F3
:1021A800DA00481CDF284C08D6074D08D73D4E08F2
:1021B800D83D4F08D93D0130CB36CA0CC90CC80CE4
:1021C800890BE0280130CC35CD0DCE0DCF0D890B14
:1021D800E7280130DA02031DD5281130D000500855
:1021E800DA00481CFF284C08D6074D08D73D4E0892
:1021F800D83D4F08D93D0130CB36CA0CC90CC80CA4
:10220800890B00290130D936D80CD70CD60C890B8C
:1022180007290130DA02031DF5285908A8005808D3
:10222800A7005708A6005608A5005508D000500872
:10223800A9005B08D1005108AA009E31662620003B
:102248002808CB002708CA002608C9002508C800A6
:10225800080022000E153C008F013D00A20101304C
:102268003C008F009831D22091312000C301C20177
:102278004317C31543163708B8003808E70036086F
:102288002400AD00200035082400AC0020003408EC
:102298002400AB00200033082400AA0020003708DF
:1022A80003195829C3145C29FD30B8003808C30540
:1022B800C2153608A8003508A7003408A600330858
:1022C800A5000130AC00E830AB004830AA0000306F
:1022D800A9009C31F4249131FF3020002507C40067
:1022E800FF30263DC500FF30273DC600FF30283DA2
:1022F800C700FF30B800FF30B900FF30BA00FF3028
:10230800BB004408BC004508BD004608BE0047089D
:10231800BF000230BF36BE0CBD0CBC0C890B8E2929
:102328003C08B8073D08B93D3E08BA3D3F08BB3DEB
:102338003B08C7003A08C6003908C5003808C40079
:102348004508C101C1074408C001C00723001D1288
:1023580020004108A601A6074008A501A5074308D3
:102368009B314A239131200042088D314B25913110
:102378009831BA2091312000B800B901BA01BB01E7
:102388003B08C7003A08C6003908C5003808C40029
:102398009831BA2091312000B800B901BA01BB01C7
:1023A8003B08C7003A08C6003908C5003808C40009
:1023B8009831BA2091312000B800B901BA01BB01A7
:1023C8003B08C7003A08C6003908C5003808C400E9
:1023D8009831BA2091312000B800B901BA01BB0187
:1023E8003B08C7003A08C6003908C5003808C400C9
:1023F8009831BA202000B800B901BA01BB013B08E6
:10240800C7003A08C6003908C5003808C4003C00AF
:102418008F0114303D00A20012303C00A500153099
:10242800A40001308F00200091120B170800203003
:102438002000B30033082100E500E201E601650849
:1024480066020318942A01302000B30033082100E3
:10245800E207620820003202031C502A3108860075
:1024680001308700403FB300413FB40034083F3992
:10247800B50035082100E000200031088600013051
:1024880087000108B30033082100E1000230200072
:10249800B3003308B107762A3008A601A6072F082B
:1024A800A501A507210066082000B3003308A7008E
:1024B8009A31B0229231200026082100E401E40775
:1024C800200025082100E301E30764083F392000C4
:1024D800B30033082100E00063082000B30033088C
:1024E8002100E100210060082000B30021006608F7
:1024F800A03E860087012000330881002100610882
:102508002000B30021006608C03E86008701200035
:10251800330881000130B30033082100E607232A7D
:1025280020003008A601A6072F08A501A5079A31A3
:102538007F22923100302000A8000030A70003302D
:10254800A600E830A5009B31152392317F3020008A
:10255800B30033088B0523001515BF302000B300E6
:10256800330823009505DF302000B300330823002B
:102578009505EF302000B3003308230095052000AF
:102588003008B4002F08B300B436B30CB436B30C1B
:10259800B436B30C33087F392300920020002F088B
:1025A8000739B3000430B335FF3E031DD72A33354E
:1025B800230091002100E601650866020318052B37
:1025C8006608A03E860087010108230094002100C8
:1025D8006608C03E860087010108230093000000BA
:1025E80000009831AF20923101302000B300330849
:1025F8002300910701302000B30033082100E607CB
:10260800E02AFB302000B3003308230095058B1720
:10261800080020309931AC219331ED309631612694
:102628009331003A03191A2B0030080000302000BB
:10263800A8000030A7000030A6006430A5009B3138
:10264800152393310130963161269331003A0319ED
:102658002F2B0030080000302000A8000030A70011
:102668001330A6008830A5009B3115239331ED3037
:10267800963161269331003A0319442B0030080043
:1026880000302000A8000030A7000030A600643009
:10269800A5009B311523933104309631612693317F
:1026A800003A0319592B0030080000302000A80018
:1026B8000030A7001330A6008830A5009B311523F1
:1026C8009331ED30963161269331003A03196E2B20
:1026D8000030080000302000A8000030A7000330B8
:1026E800A600E830A5009B311523933102309631BE
:1026F80061269331003A0319832B0030080000301B
:102708002000A8000030A7001330A6008830A500DC
:102718009B3115239331ED30963161269331003A80
:102728000319982B0030080000302000A800003062
:10273800A7000030A6006430A5009B311523933113
:102748000030963161269331003A0319AD2B0030E1
:102758000800F430963161269331003A0319B62BFC
:1027680000300800F430963161269331003A03199D
:10277800BF2B00300800F030963161269331003AC3
:102788000319C82B0030080000302000A8000030D2
:10279800A7000030A6006430A5009B3115239331B3
:1027A8000230963161269331003A0319DD2B00304F
:1027B8000800F330963161269331003A0319E62B6D
:1027C8000030080000302000A8000030A7000030CA
:1027D800A6006430A5009B31152393312F30963124
:1027E80061269331003A0319FB2B00300800203092
:1027F80099317F210130080041302000C50045088B
:10280800D2004008C6003F08C500BF0A0319C00A25
:1028180045088400460885000008C7004708D3001B
:10282800D3080319EE2C5308253A0319262C3D0822
:1028380086003E088700530881000130BD0700303C
:10284800BE3D052CCB012F2C4B162F2CC030C500BC
:102858004508CB04462C4008C6003F08C500BF0AFF
:102868000319C00A45088400460885000008D300FB
:10287800003A0319EE2C6C3A0319282C193A03195B
:102888002A2C052C4B1E552C520886008701403FE8
:10289800CE00413FCF00423FD000433FD10004303B
:1028A800632C520886008701403FC500413FC6009F
:1028B8004508CE004608CF00D001D1010230C5003E
:1028C8004508D207D301D30A53080A3A0319992CA9
:1028D8005308C500C601C535C60DC535C60DD3306C
:1028E800450784008930463D8500003FC700013F09
:1028F800C800023FC900033FCA004A085102031D2D
:102908008F2C49085002031D8F2C48084F02031DC5
:102918008F2C47084E02031C992C0130C50045082E
:10292800D30753080A3A031D6C2C5308CC00CD0179
:10293800CC1BCD03FF30CC07FF30CD3DFF304D061B
:10294800031DA82CFF304C060319052C0030B600D7
:102958000030B5000030B4000A30B3004D088500DF
:102968004C0884008435850D8435850DD330840763
:102978008930853D003FA500013FA600023FA70022
:10298800033FA8005108AC005008AB004F08AA004C
:102998004E08A9009C31F424943120002808BA007C
:1029A8002708B9002608B8002508B7009B31C823B6
:1029B800943120003308303EC5004508D3003D0857
:1029C80086003E088700530881000130BD070030AB
:1029D800BE3D9E2C3D0886003E0887008101080008
:1029E80000302200D5000030D4000030D300003081
:1029F800D2000030D9000030D8000030D7000030B5
:102A0800D600DE01C0302000B6000030B7005708FD
:102A1800BB005608BA005508B9005408B800580851
:102A2800D9005908BC008731A2279431C030200052
:102A3800B7000030B800B9019D319C2594312000C1
:102A48003A082200DD00200039082200DC002000BE
:102A580038082200DB00200037082200DA00FF30A7
:102A68005A05D200FF305B05D3000F305C05D40057
:102A780000305D05D5005A082000D90022005B0807
:102A88002000DA0022005C082000DB0022005D083C
:102A98002000DC001430DC36DB0CDA0CD90C890B96
:102AA8004F2D59080F39DD00DE01DF01E001600814
:102AB8002200D90020005F082200D80020005E080C
:102AC8002200D70020005D082200D6002000570809
:102AD800B6005608B5005508B4005408B3005808A5
:102AE800D9005908B70091312D219431F0302000D8
:102AF800B4008C30B5009A31E222943100302000C5
:102B0800A8000030A7002730A6001030A5009B3190
:102B1800152394312200550820005706031DA42DC3
:102B28002200540820005606031DA42D2200530835
:102B380020005506031DA42D22005208200054062B
:102B4800031DC32D5808D900DA01DB01DC0122007E
:102B5800590820005C06031DC12D220058082000DA
:102B68005B06031DC12D2200570820005A06031DCD
:102B7800C12D22005608200059060319D62D3C30D5
:102B8800B4008D30B5009A31E22294310030200033
:102B9800A8000030A7002730A6001030A5009B3100
:102BA800152394312200DE010A305E020318052E37
:102BB8000E1600302000A8000030A7002730A6001D
:102BC8001030A5009B3115239431EF302000D90037
:102BD800590822008E0500302000A8000030A70008
:102BE8002730A6001030A5009B3115239431013001
:102BF8002000D90059082200DE070A305E02031CB3
:102C0800DC2D2000580803193A2E2D2E2030BD0047
:102C18000130BE00FD30BF008A30412E2030200038
:102C2800BD000130BE00D630BF008A30412E2030B2
:102C38002000BD000130BE001530BF008C30412E91
:102C480020302000BD000130BE00D330BF008B30E3
:102C5800412E20005808013A03190A2E033A031995
:102C6800122E013A03191B2E242E4D2E2030BD00A2
:102C78000130BE002330BF008B30C0005708C400AD
:102C88005608C3005508C2005408C10094310024F6
:102C9800943120302000B4000130B5009A31E2228E
:102CA800943100302000A8000030A7002730A6008B
:102CB8001030A5009B31152308002000B400B50191
:102CC8003408AF00B0012F08A5003008A600033073
:102CD800B1003108A7009A314E2296312000B20087
:102CE8003208B300B601B701003098319920963107
:102CF80000309831A4209631DF302000AF002F0833
:102D080022008C0500302000A8000030A700013008
:102D1800A6002C30A5009B3115239631EF302000FA
:102D2800AF002F0822008C0500302000A8000030DA
:102D3800A7000030A6001430A5009B31152396315A
:102D480001309831992096312000B601B701203022
:102D580099312121963100380319C82E000001301D
:102D68002000B6070030B73D3A30370299300319D2
:102D78003602031CAB2E0130983199209631013070
:102D88009831A420013008002000B5010830350230
:102D98000318242F341CD32E22000C16D92EEF3002
:102DA8002000AF002F0822008C0503102000B40C6F
:102DB800B601B7012030993121219631003A031D1F
:102DC800FB2E000001302000B6070030B73D3A3036
:102DD8003702993003193602031CDE2E0130983170
:102DE8009920963101309831A42001300800200044
:102DF800B601B701203099312121963100380319E5
:102E08001B2F000001302000B6070030B73D3A30D4
:102E18003702993003193602031CFE2E013098310F
:102E28009920963101309831A420013008000130F2
:102E38002000AF002F08B50708303502031CCE2E3E
:102E4800331C292F22000C162F2FEF302000AF0043
:102E58002F0822008C052000B601B70120309931D7
:102E680021219631003A031D4F2F00000130200028
:102E7800B6070030B73D3A303702993003193602A9
:102E8800031C322F01309831992096310130983146
:102E9800A420013008002000B601B7012030993184
:102EA80021219631003803196F2F000001302000CE
:102EB800B6070030B73D3A30370299300319360269
:102EC800031C522F013098319920963101309831E6
:102ED800A4200130080001309831A4209631200048
:102EE800B601B70110309931212196310038031904
:102EF800932F000001302000B6070030B73D3A306C
:102F08003702993003193602031C762F01309831A5
:102F18009920963101309831A42001300800200012
:102F2800B601B701203099312121963100380319B3
:102F3800B32F000001302000B6070030B73D3A300B
:102F48003702993003193602031C962F0130983145
:102F58009920963101309831A420013008002000D2
:102F6800B601B7011030993121219631003A031D7D
:102F7800D32F000001302000B6070030B73D3A30AB
:102F88003702993003193602031CB62F01309831E5
:102F98009920963101309831A42001300800200092
:102FA800B601B7012030993121219631003A031D2D
:102FB800F32F000001302000B6070030B73D3A304B
:102FC8003702993003193602031CD62F0130983185
:102FD8009920963101309831A42001300800013041
:102FE80098319920963101309831A42096312030BB
:082FF80099317F21003008002F
:1030D20023009E1564309A00080023009E15643078
:1030E2009A000800FE0012001E00FE0B7428003435
:1030F200640080010131890B7A280034FE302000FF
:10310200A500250821009D050800803425340034DF
:10311200003431342E343134003423001D199D1C07
:1031220093281D121908F0007008F10071080800B8
:103132002000A500A508031DA12821008C1208006B
:1031420021008C1608002000A500A508031DAC284C
:1031520021000C12080021000C1608005530230033
:103162009600AA30960095149518B5280000000024
:10317200080023001D199D1CBF281D1219082000DC
:10318200A5002508A60026080800013098319920DC
:10319200983101309831A420983120309831EE20B6
:1031A20008004F302000A500250823009D059E122F
:1031B200CF302000A500250821009105080020003D
:1031C200A50030302502031CEC283A3025020318F2
:1031D200EC2801300800003008002000A50027007C
:1031E2009101920120002508203A031DFB282700A7
:1031F200921608002700121608002000A50084304D
:10320200250203180D292508003E84008830031882
:10321200013E85000008080000300800F03021005F
:10322200990000301A1801301A050319122940308A
:103232002000A500250821009A05031D0800182971
:103242002000A5002508203A031D2D298C1E2B29BC
:1032520001300800003008000C1E3129013008003E
:1032620000300800F0007008203A031D3F292000BA
:103272008C1E3D29013008000030080020000C1E81
:10328200442901300800003008002000A5000D305C
:10329200A50271302502031857292508843E8400AF
:1032A20088300318013E850000080800003008003D
:1032B2002000A5001130A5026D30250203186A29ED
:1032C2002508663E840089300318013E8500000807
:1032D2000800003008002000A5000D30A502713062
:1032E200250203187D292508F53E8400883003183D
:1032F200013E850000080800003008002000A600FA
:103302002608203A031D8C29DF30A5002508270056
:10331200930592160800EF302000A500250827002B
:1033220093051216080020002F08A5003008A600F9
:10333200A701A8019630B3003308A900AA019E3163
:10334200662620002808B2002708B1002608B0002F
:103352002508AF0008002000A6002608203A031D19
:10336200BE29DF30A500250827009205DF302000A6
:10337200A5002508270093050800EF302000A500CE
:10338200250827009205EF302000A5002508270018
:103392009305080022008E018C0121000E118E106F
:1033A2008E110E120C150E1022008E143C008F018D
:1033B20014303D00A20012303C00A5001530A400DC
:1033C20001308F0023008C010C158E012100951312
:1033D200203024008E008C010800F701F6017108EC
:1033E200F501F5077008F401F407F70108307702D8
:1033F20003180E2A741C012A0130F3007308F60721
:103402000130F536F40C890B022A0130F3007308FF
:10341200F70708307702031CFB297208033A031DE1
:10342200182A7618162A0130080000300800761C87
:103432001C2A013008000030080000302000B000D3
:103442000030AF000030AE000030AD00251C312A44
:103452002908AD072A08AE3D2B08AF3D2C08B03D28
:103462000130A935AA0DAB0DAC0D890B322A013002
:10347200A836A70CA60CA50C890B392A2808270404
:1034820026042504031D272A3008A8002F08A700B8
:103492002E08A6002D08A50008002000AC01AB01F3
:1034A2002608AA01AA072508A901A907AC01083024
:1034B2002C0203186F2A291C622A0130A80028084E
:1034C200AB070130AA36A90C890B632A0130A80088
:1034D2002808AC0708302C02031C5C2A2708033A90
:1034E200031D792A2B18772A0130080000300800C2
:1034F2002B1C7D2A01300800003008007F3020009C
:10350200A70027088B05BF30A700270823009505D1
:1035120020002608A8002508A700A836A70CA83670
:10352200A70CA836A70C27087F3923009200200099
:1035320025080739A7000430A735FF3E031D9D2A41
:10354200273523009100151615159831AF20FB3051
:103552002000A7002708230095058B170800BF301D
:103562002000A80028082300950520002608A900AD
:103572002508A800A936A80CA936A80CA936A80CBB
:1035820028087F3923009200200025080739A80067
:103592000430A835FF3E031DCA2A28352707230019
:1035A200910015141518D32A0000000023001408F6
:1035B2002000A601A607230013082000A501A507E5
:1035C200080000302000A8000030A7001330A60039
:1035D2008830A5009B3115239A31200034088400DD
:1035E200350885000008003A0319042BAD01AE012D
:1035F200340884003508850000089C3155249A312E
:1036020023009E1C012B20003508B7003408B600A9
:10361200B40A0319B50A3608840037088500000881
:10362200003803190800E22A00302000AD00003003
:10363200AC000030AB000030AA002D08803AA9008F
:103642002808803A2902031D302B27082C02031D6B
:10365200302B26082B02031D302B25082A020318C3
:103662000800AE0120302E020318412B0000013069
:103672002000A9002908AE0720302E02031C372B98
:103682000630AA070030AB3D0030AC3D0030AD3D06
:103692001E2B2000A70023009E019D012000271C55
:1036A200542B23001E162000A71C5A2B23001E1782
:1036B2001D172000271D5F2B23009E172000A71D2A
:1036C200652B23001D16672B23009D162000271E45
:1036D2006C2B23001E152000271F732B9112210033
:1036E2009116752B210091122000A71F7C2B11121D
:1036F200210011167E2B2100111220002508230023
:103702009B002000260823009C009E169D1708009F
:103712002000B30021009D019E0150302000B10025
:10372200310821009E04220097171714171F972BA8
:1037320020003308B1000130B135FF3E031D9D2B3F
:103742003135B200320821009D0483302000B100DF
:10375200310821009E041D14111300302000A8001E
:103762000030A7000030A6000530A5009B311523CC
:103772009B3121009D149D18BC2B1C082000B00118
:10378200B00721001B082000AF01AF07080020008E
:1037920036083504340433040319022CBC01BC0A74
:1037A200B61BDF2B0130B335B40DB50DB60D890B49
:1037B200D42B0130BB003B08BC07D12B36083A02A0
:1037C200031DED2B35083902031DED2B3408380299
:1037D200031DED2B33083702031CF72B3308B70206
:1037E2003408B83B3508B93B3608BA3B0130B63627
:1037F200B50CB40CB30C890BF82B0130BC02031DC1
:10380200DF2B3A08B6003908B5003808B40037088B
:10381200B30008002000A00023001E1F502CF8084F
:1038220003193A2C472C20002008FA00FB017A08E1
:10383200F0007B08F1000330272C20002008FA005A
:10384200FB017A08F0007B08F1000230FC007C08E2
:10385200F2009931EE219C31FD0023001E087D0605
:10386200FE397D064F2C23001E14502C23001E10FF
:10387200502C20006708013A0319142C033A03194B
:103882001E2C013A0319342C372C502C01307905A7
:10389200FA0023001E087A06FE397A069E002000EE
:1038A200200823009A0008002000B30023001E1FF6
:1038B2009E2C2000AD080319862C932C3308AF00F0
:1038C200B0012F08A5003008A6000330712C20009B
:1038D2003308AF00B0012F08A5003008A60002305F
:1038E200B1003108A7009A314E229C312000B2006B
:1038F20023001E0820003206FE3932069C2C2300CB
:103902001E149E2C23001E109E2C20006708013AD4
:1039120003195F2C033A0319682C013A0319802C0E
:10392200832C9E2C01302E05AF0023001E082000A0
:103932002F06FE392F0623009E00200033082300A5
:103942009A00080000302000B6000030B5000030B8
:10395200B4000030B3002B08A601A6072A08A5016F
:10396200A5072C08AE002E08A7009A31B0229C3180
:1039720020002508AF002608B000B101B2011030C6
:10398200AF35B00DB10DB20D890BC12C3208B600A6
:103992003108B5003008B4002F08B3002B08A60187
:1039A200A6072A08A501A5072C08013EAE002E088D
:1039B200A7009A31B02220002508AF002608B000E7
:1039C200B101B2012F08B3043008B4043108B504C0
:1039D2003208B6043608AD003508AC003408AB0036
:1039E2003308AA00080000302000B1000030B00007
:1039F2000030AF000030AE0028082704260425045A
:103A020003193E2DB201B20AA81B132D0130A535B0
:103A1200A60DA70DA80D890B082D0130AD002D08AC
:103A2200B207052D0130AE35AF0DB00DB10D890BCA
:103A3200142D28082C02031D282D27082B02031DF4
:103A4200282D26082A02031D282D25082902031CD9
:103A5200332D2508A9022608AA3B2708AB3B2808D4
:103A6200AC3B2E140130A836A70CA60CA50C890B72
:103A7200342D0130B202031D132D3108A800300885
:103A8200A7002F08A6002E08A50008002000A80005
:103A9200A70128080139A5000630A535FF3E031D00
:103AA2004E2D2535A6002608A70728080239A500AD
:103AB2000430A535FF3E031D5A2D2535A6002608E4
:103AC200A70728080439A5000230A535FF3E031DCB
:103AD200662D2535A6002608A707280808390907F4
:103AE200A5002508A70728360839A5002508A70735
:103AF2002808A5000330A536890B7C2D250804393A
:103B0200A6002608A7072808A5000530A536890BB8
:103B1200872D25080239A6002608A7072808A50030
:103B22000730A536890B922D25080139A6002608F3
:103B3200A7072708080020003808AB01AB073708A1
:103B4200AA01AA073908BB003B08AC009C31A32498
:103B52009D3120002D08C6002C08C5002B08C4008A
:103B62002A08C300FF3043052200ED003F30200049
:103B720044052200EE0020004308BB004408BC00BC
:103B82004508BD004608BE000E30BE36BD0CBC0C5A
:103B9200BB0C890BC62DFF303B052200EB003F30EA
:103BA20020003C052200EC006D082000BB00220032
:103BB2006E082000BC00BD01BE0122006B0820007F
:103BC200BF0022006C082000C000C101C2010C30FD
:103BD200BF35C00DC10DC20D890BE92D3F08BB07D2
:103BE2004008BC3D4108BD3D4208BE3D3E08BA000A
:103BF2003D08B9003C08B8003B08B70008002000A7
:103C0200A81F2A2E0030AD000030AE000030AF00F9
:103C12008030B0002509B1002609B2002709B3009F
:103C22002809B400B10A0319B20A0319B30A031925
:103C3200B40A3108AD073208AE3D3308AF3D34084F
:103C4200B03D3008A8002F08A7002E08A6002D08B6
:103C5200A500AC1F532E0030AD000030AE00003086
:103C6200AF008030B0002909B1002A09B2002B0947
:103C7200B3002C09B400B10A0319B20A0319B30A3A
:103C82000319B40A3108AD073208AE3D3308AF3D1F
:103C92003408B03D3008AC002F08AB002E08AA0053
:103CA2002D08A9008030A8068030AC062C08280216
:103CB200031D08002B082702031D08002A082602FC
:103CC200031D0800290825020800200029080319FD
:103CD200702E2808270426042504031D842E003094
:103CE200A8000030A7000030A6000030A5000800A0
:103CF2000130AB002B08A9070130A836A70CA60C8F
:103D0200A50C890B7E2EFE30280503199C2E792ED8
:103D12000130AB002B08A9070130A5070030A63DF2
:103D22000030A73D0030A83D0130A836A70CA60CF4
:103D3200A50C890B962EFF3028050319AA2E892E71
:103D42000130A9020130A535A60DA70DA80D890BDA
:103D5200A42EA71FA12E2918B62EFF30A505FF30CD
:103D6200A6057F30A705FF30A8050310A90C290876
:103D7200AB00AC01AD01AE011830AB35AC0DAD0DF1
:103D8200AE0D890BBE2E2B08A5042C08A6042D0807
:103D9200A7042E08A8042A0803190800A817080077
:103DA200FE302000E000600822008E0502309B31C8
:103DB20089239E31200030082100A501A50720009B
:103DC2002F082100A401A40798317F209E312200F0
:103DD2000E1440302000CB00B630CA006630C90055
:103DE2006630C8004430B7007A30B6000030B50003
:103DF2000030B400210025082000B001B0072100E6
:103E020024082000AF01AF07993194219E31200090
:103E12003208BB003108BA003008B9002F08B800D8
:103E22009F313F279E3120003708CF003608CE0051
:103E32003508CD003408CC0090315B2020004B08BF
:103E42002100A30020004A082100A2002000490806
:103E52002100A100200048082100A0002308200022
:103E6200DF00210022082000DE00210021082000BE
:103E7200DD00210020082000DC00080020003808B6
:103E8200BC003908BD003A08BE003B08BF00031061
:103E92003E0D3F0DC0004008C600C608031D5A2F44
:103EA2000030B7000030B6000030B5000030B4007A
:103EB20008003408BC003508BD003608BE003708CB
:103EC200BF0003103E0D3F0DC0004008C700C708E9
:103ED200031D742F0030B7000030B6000030B5006B
:103EE2000030B400080089304707BC003C08C60215
:103EF2003808BC003908BD003A08BE003B08BF00C4
:103F02001830BF36BE0CBD0CBC0C890B822F3C088E
:103F1200C0004008C7003408BC003508BD003608A0
:103F2200BE003708BF001830BF36BE0CBD0CBC0C3B
:103F3200890B952F3C08C0004008C7068030BC00A2
:103F42003C08C705BA17FF30B805FF30B905FF3086
:103F5200BA050030BB05B617FF30B405FF30B50512
:103F6200FF30B6050030B7052030BC003C08C50064
:103F72000130C135C20DC30DC40D890BBA2F3708EC
:103F82003B02031DCE2F36083A02031DCE2F350801
:103F92003902031DCE2F34083802031CD92F3408EE
:103FA200B8023508B93B3608BA3B3708BB3B411467
:103FB2000130B835B90DBA0DBB0D890BDA2F0130BE
:103FC200C502031DB92F4408A8004308A7004208F0
:103FD200A6004108A5004608BC003C08A900470805
:103FE200BD003D08AA009E31662620002808B700C1
:0E3FF2002708B6002608B5002508B400080010
:020000040001F9
:04000E0064CFFBFEC2
:00000001FF
